:020000040800F2
:100000008824002021020008AD0D0008710B0008B3
:10001000DD0C0008ED070008CB1B00080000000005
:10002000000000000000000000000000191500089A
:100030005708000800000000031400081917000802
:100040003B0200083B0200083B0200083B0200089C
:100050003B0200083B0200083B0200083B0200088C
:100060003B0200083B0200083B0200083B0200087C
:100070003B0200083B0200083B0200083B0200086C
:100080003B0200083B0200083B0200083B0200085C
:100090003B0200083B0200083B0200083B0200084C
:1000A0003B0200083B0200083B0200083B0200083C
:1000B0003B0200087D170008191800083B020008E1
:1000C0003B0200083B0200083B0200083B0200081C
:1000D0003B020008A91900083B0200083B02000887
:1000E0003B0200083B0200083B02000800F002F857
:1000F00000F06DF80AA090E8000C82448344AAF155
:100100000107DA4501D100F062F8AFF2090EBAE852
:100110000F0013F0010F18BFFB1A43F0010318473B
:1001200000350000203500000A444FF0000C10F8A4
:10013000013B13F0070408BF10F8014B1D1108BF65
:1001400010F8015B641E05D010F8016B641E01F805
:10015000016BF9D113F0080F1EBF10F8014BAD1C55
:100160000C1B09D16D1E58BF01F801CBFAD505E073
:1001700014F8016B01F8016B6D1EF9D59142D6D3CD
:10018000704700000023002400250026103A28BFF5
:1001900078C1FBD8520728BF30C148BF0B607047F9
:1001A000642900F0BB80752900F0B880782900F040
:1001B000F180632900F08582732900F08A82002093
:1001C00070471FB500F0EBF91FBD10B510BD00F072
:1001D000DBFA1146FFF7F5FF01F0A2FD00F0F9FA96
:1001E00003B4FFF7F2FF03BC01F0F8FC0B49D1F8B0
:1001F00000C04A685CF8043B1068184442F8040BDD
:100200008C4528BFA1F1DC0C8A4228BFA1F1DC0299
:10021000C1F800C04A6020F000407047201E002056
:100220000948804709480047FEE7FEE7FEE7FEE78A
:10023000FEE7FEE7FEE7FEE7FEE7FEE704480549C6
:10024000054A064B704700001D170008ED00000826
:10025000881E00208824002088200020882000207C
:10026000704700000FB4044910B503AA029800F0CB
:1002700035FA10BC5DF814FB2C10002070B5044654
:1002800085690068C10601D5302600E02026C00738
:1002900007D070BDD4E9012130469047206A401C48
:1002A00020626D1EF6D570BD70B504468569007874
:1002B000C00707D170BDD4E9012120209047206AF2
:1002C000401C20626D1EF6D570BD70B50C4605460B
:1002D000012A05D02878800600D5EA69002302E0CB
:1002E000012305E05B1C934202D2E05C0028F9D1B7
:1002F000A869E618C01AA861286A18442862284626
:10030000FFF7BCFF04E0D5E9012114F8010B904789
:10031000B442F8D32846FFF7C7FF70BD2DE9F0417E
:100320000646002410687529314616A510D0AFF393
:100330000080002802DA404213A507E031688A07EE
:1003400001D512A502E0490704D511A5012401E059
:10035000AFF3008000210A2206F1240709E0B0FB78
:10036000F2FCB0FBF2F302FB1C003030785418466C
:10037000491C0028F3D123462A463046BDE8F04107
:1003800000F03CB9000000002D0000002B00000030
:100390002000000070B504460D4621461068AFF3FA
:1003A00000802188090502D50F4A7A4402E00E4AEE
:1003B0007A440E32002104F1240305E000F00F0618
:1003C0000009965D5E54491C0028F7D1207800236F
:1003D000000704D5702D02D009B102231132204646
:1003E000BDE8704000F00AB9A23100002DE9F05FCD
:1003F000894604464FF0000ADFF874B1FB44C0F8A8
:1004000020A02046E1688847002874D0252806D01F
:10041000D4E901219047206A401C2062F1E70026C0
:100420005F462046E16888472028054607DB312DD6
:1004300005D2781910F8200C08B10643F1E7B0078F
:1004400001D526F00406C4F81CA00027C4F818A0A3
:100450002A2D09D0284601F0BAFB38B304EB8708EF
:10046000303DC8F8185019E059F8041B204604EB39
:1004700087029161E1688847012F054618D1E0693C
:10048000002820DA26F020061DE0D8F8180000EB3E
:10049000800005EB40003038C8F818002046E168BD
:1004A0008847054601F093FB0028EED1012F0AD0C2
:1004B0002E2D08D12046E16888477F1C0546022F73
:1004C00046F02006C4DBA069002803DA404246F06B
:1004D0000106A061F00701D026F010066C2D0BD0AC
:1004E000682D09D04C2D39D06A2D35D0742D35D0DA
:1004F0007A2D33D016E038E0E1682F462046884751
:10050000B842054609D16C2F26D04FF48060E168CF
:10051000064320468847054604E06C2F1AD04FF466
:10052000807006430DB3A5F14100192802D820358B
:1005300046F400664A462946204626604E46FFF7A6
:100540002FFE80B101280BD0F61D26F0070000F128
:10055000080956E74020E4E78020D8E70020D6E7E6
:1005600006F104094DE7284652E7206ABDE8F09FEE
:10057000783100000B4910B5A1F17C020A4CC2E9A8
:100580003712372106E000EB104342F82130074BC9
:1005900000FB03400B1EA1F10101F4DC10BD0120A2
:1005A000E8E70000C01D0020E119D666CD0D01006E
:1005B0004FF000020429C0F0128010F0030C00F08C
:1005C000A180CCF1040CBCF1020F18BF00F8012B84
:1005D000A8BF20F8022BA1EB0C0100F093B85FEA52
:1005E000C17C24BF00F8012B00F8012B48BF00F8A4
:1005F000012B704770477047704770472DE9F047EF
:100600000D4699469246044600F124080168880682
:1006100004D5E06921F01001216000E00120A8422A
:1006200001DD471B00E00027A1697A1902EB0900F0
:10063000081AA0612078C00602D42046FFF71EFEEB
:10064000002608E0D4E901211AF806009047206A44
:10065000401C761C20624E45F4DB2078C0060AD58B
:100660002046FFF70BFE06E0D4E901213020904739
:10067000206A401C2062381EA7F10107F4DC07E065
:10068000D4E9012118F805009047206A401C206237
:10069000281EA5F10105F3DC2046FFF705FE2078B2
:1006A000000602D50220BDE8F0870120FBE710B567
:1006B000436913B1AFF3008001E0FFF706FE0120AC
:1006C00010BD127800F124010A7000224A70012244
:1006D000EDE711684FF0FF32E9E70000074B70B516
:1006E0000D467B4400F039F80446284600F048F8EF
:1006F00010B14FF0FF3070BD204670BD1F160000D6
:100700004FF0000200B5134694469646203922BFAA
:10071000A0E80C50A0E80C50B1F12001BFF4F7AFF5
:10072000090728BFA0E80C5048BF0CC05DF804EBD7
:10073000890028BF40F8042B08BF704748BF20F845
:10074000022B11F0804F18BF00F8012B70470000FA
:1007500001694A1C02610878704700B58FB0CDE985
:1007600001310021059105497944CDE90310114675
:100770006846FFF73BFE0FB000BD0000E5FFFFFF3E
:10078000007B00F080007047754600F02BF8AE4605
:1007900005006946534620F00700854618B020B58D
:1007A000FFF74CFDBDE820404FF000064FF000077A
:1007B0004FF000084FF0000B21F00701AC46ACE809
:1007C000C009ACE8C009ACE8C009ACE8C0098D4676
:1007D000704710B50446AFF300802046BDE81040D6
:1007E000FFF7FEBC00487047281E002000BFFEE750
:1007F000024602EB4200054B03EB001050F82100CB
:1008000008B1002070470120FCE7000044160020DA
:1008100010B5024600201BE0002116E008B10B28AD
:1008200007D16FF0010301EB410402EB041444F81B
:10083000203009B11F2907D16FF0010301EB4104FA
:1008400002EB041444F82030491C2029E6DB401C4C
:100850000C28E1DB10BD704710B51248006800EBB2
:100860004000114901EB00100E49496850F8210081
:10087000401CA8B901200D4908700D480068401CB3
:100880000B49086000F016F800200649096801EBE2
:100890004101054A02EB0111024A526841F8220067
:1008A00010BD0000441C002044160020441000200D
:1008B0003810002070B500BFFFF798FC1E2190FB98
:1008C000F1F201FB1204FFF791FC0A2190FBF1F217
:1008D00001FB120529462046FFF78AFF0028EBD0CE
:1008E0004FF0FF3004EB4401024A02EB011141F8E2
:1008F000250070BD441600202DE9F0410246002578
:100900000026002000230024002791F803C00CF0EB
:100910000F0591F803C00CF0100CBCF1000F03D0D0
:1009200091F802C04CEA050591F800C0BCF1000F37
:1009300031D0146800202BE04FF0010C0CFA00F3CA
:10094000B1F800C00CEA03069E4220D183004FF0AC
:100950000F0C0CFA03F7BC4305FA03FC4CEA040441
:1009600091F803C0BCF1280F06D14FF0010C0CFA2E
:1009700000FCC2F814C00AE091F803C0BCF1480FB3
:1009800005D14FF0010C0CFA00FCC2F810C0401C5D
:100990000828D1D31460B1F800C0BCF1FF0F34DDDA
:1009A000546800202EE000F1080C4FF0010808FA0E
:1009B0000CF3B1F800C00CEA03069E4221D183007B
:1009C0004FF00F0C0CFA03F7BC4305FA03FC4CEA9A
:1009D000040491F803C0BCF1280F05D100F1080C04
:1009E00008FA0CF8C2F8148091F803C0BCF1480F63
:1009F00007D100F1080C4FF0010808FA0CF8C2F812
:100A00001080401C0828CED35460BDE8F0814161BD
:100A100070470161704710B500F00CFA00F03AFE23
:100A2000FFF748FF00F018FB10BD2DE9F041074625
:100A3000002525E0002620E005EB450007EB00102F
:100A400050F82640022C04D13146284600F047FCDD
:100A500012E0A01C20B93146284600F0B8FC0BE09B
:100A6000601C20B93146284600F081FC04E01CB926
:100A70003146284600F061FC761C0C2EDCDB6D1C38
:100A8000202DD7DB00F0E8FABDE8F08110B500209A
:100A90000B4C2268636801210CE0094C54F831408A
:100AA000944206D1064C04EBC10464689C4200D118
:100AB0000120491C034C2468A142EEDB10BD00005C
:100AC000441C00203410002010B5002400F0ACF8C5
:100AD00004464CB3012C06D0022C0CD0032C12D0AF
:100AE000042C20D117E011480068022802D0012010
:100AF0000E49086017E00D480068012802D0022066
:100B00000A4908600FE009480068042802D0032061
:100B10000649086007E005480068032802D0042061
:100B20000249086000BF00BF10BD00003C1000205B
:100B30000E4800681F2803D101200C49086014E00A
:100B40000A48006818B91E20084908600DE00748E7
:100B500040680B2803D101200449486005E00348A0
:100B6000406810B90A20014948607047441C0020C1
:100B700000BFFEE710B54FF400510C48FFF749FFE6
:100B80004FF480510948FFF744FF012001F076F847
:100B90004FF400510548FFF73AFF012001F06EF8CD
:100BA0004FF480510148FFF732FF10BD000C0140A7
:100BB00010B54FF480510C48FFF729FF4FF4005156
:100BC0000948FFF724FF012001F058F84FF4805145
:100BD0000548FFF71EFF4FF400510348FFF719FFC8
:100BE000012001F04BF810BD000C014010B54FF48E
:100BF00080510C48FFF70BFF4FF400510948FFF7F5
:100C000006FF012001F03AF84FF480510548FFF744
:100C100000FF012001F032F84FF480510148FFF746
:100C2000F6FE10BD000C014010B5154800880128E3
:100C300024D10020124908800880C8211148FFF7FC
:100C4000B7FC114800F0BCFF312801D1012415E0A8
:100C50000D4800F0B5FF322801D102240EE00A4809
:100C600000F0AEFF332801D1032407E0064800F06E
:100C7000A7FF342801D1042400E00024E0B210BD15
:100C8000301000207C1100200038014008B50121FF
:100C9000242000F0C7FB4FF48070ADF80000102056
:100CA0008DF8030003208DF8020069460948FFF71C
:100CB00023FE4FF480710748FFF7ABFE0420ADF828
:100CC000000069460448FFF717FE04210248FFF7B9
:100CD000A0FE08BD000801400014014000BFFEE76F
:100CE00010B500212C480068401E2C4B53F83000F2
:100CF00000EB40002A4B03EB001327480068401E1E
:100D0000264C04EBC000406843F8201025480078CA
:100D100038B121480068401C1F4908600020214963
:100D200008701D480068421E0DE0501E1B4951F816
:100D3000300041F83200501E01EBC000406801EB6A
:100D4000C2014860521E002AEFDC174800680128E3
:100D500012D0022816D0032802D0042818D105E0AA
:100D60000E484068401E0D49486011E00B4840683D
:100D7000401C0A4948600BE008480068401E0749CB
:100D8000086005E005480068401C0449086000BF91
:100D900000BFFFF7CDFE10BD34100020441C002022
:100DA00044160020441000203C1000207047000032
:100DB00070B5002100230F22C47804B3154C2468B9
:100DC00004F4E064C4F5E064210AC1F10403CA40FC
:100DD000447804FA03F184781440214309010E4C4D
:100DE0000678A155047804F01F050124AC4005786D
:100DF0006D11AD0005F1E025C5F8004109E004786A
:100E000004F01F050124AC40044D0678761145F826
:100E1000264070BD0CED00E000E400E080E100E061
:100E200002490143024A1160704700000000FA05C0
:100E30000CED00E070B500240CE0002506E0002079
:100E4000074901EBC5010855681CC5B2802DF6DBCA
:100E5000601CC4B2082CF0DB00F0FEF870BD00008E
:100E60004412002070B50B46CE1701EB5676C6F340
:100E7000C702CE1701EB5676F610A1EBC606F4B208
:100E80000123A340DDB20E4B03EBC0039B5CDB43AD
:100E90000B4E06EBC006B354094B03EBC0039B5C3F
:100EA0002B43074E06EBC006B354054B03EBC003C0
:100EB0009B5CDB43024E06EBC006B35470BD0000E2
:100EC0004412002070B50A46CE1701EB5676C6F3E1
:100ED000C703CE1701EB5676F610A1EBC606F4B2A7
:100EE0000122A240D5B2054A02EBC002D25C2A43DD
:100EF000024E06EBC006F25470BD00004412002002
:100F000008B50121082000F08DFA4FF48050ADF8AB
:100F1000000010208DF8030003208DF802006946C0
:100F20004648FFF7E9FC4FF480514448FFF771FD54
:100F30004FF40050ADF8000010208DF8030003209E
:100F40008DF8020069463D48FFF7D6FC4FF400518A
:100F50003A48FFF75EFD0021AE2000F0A4F9002121
:100F6000084600F0A0F90021102000F09CF90021B3
:100F7000402000F098F90021812000F094F9002130
:100F8000CF2000F090F90021A12000F08CF9002181
:100F9000C82000F088F90021A62000F084F9002183
:100FA000A82000F080F900213F2000F07CF900210A
:100FB000D32000F078F90021084600F074F90021F0
:100FC000D52000F070F90021802000F06CF900219C
:100FD000D92000F068F90021F12000F064F9002127
:100FE000DA2000F060F90021122000F05CF9002105
:100FF000DB2000F058F90021402000F054F90021D6
:10100000202000F050F90021022000F04CF90021CE
:101010008D2000F048F90021142000F044F900214F
:10102000A42000F040F90021A62000F03CF90021A6
:10103000AF2000F038F9FFF7FDFE08BD000C0140BD
:1010400010B50246012000E050430B1EA1F101043F
:10105000E1B2F9D110BD000070B500241CE004F12C
:10106000B001C8B2002100F01EF90021084600F0CE
:101070001AF90021102000F016F9002508E00849AF
:1010800001EBC501085D012100F00DF9681CC5B236
:10109000802DF4DB601CC4B2082CE0DB70BD0000C6
:1010A000441200202DE9FF4F81B007460D461C4633
:1010B00000952046E31704EB5373DB1021464FEAFB
:1010C000E47C04EB5C7C4FEAEC0CA4EBCC0CBCF1B4
:1010D000000F02D04FF0010C01E04FF0000C634410
:1010E000224604EBD27C4FEA6C0C03FB0CF303F0BA
:1010F000FF0A0398203800F0FF0B00262BE0184869
:1011000000EB0B1010F806904FF000081DE009F0FE
:10111000800020B129463846FFF7D4FE03E0294677
:101120003846FFF79FFE4FEA49604FEA1069681C96
:10113000C5B20098281AA04203D1009D781CC7B2FE
:1011400006E008F1010000F0FF08B8F1080FDEDB4F
:1011500000BF701CC6B25645D1DB05B0BDE8F08FAC
:10116000402F00082DE9F04F06468A4691461F465B
:10117000099C00252CE0781B401EC1B20A20FFF715
:101180005FFFB9FBF0F00A21B0FBF1F201FB12089E
:10119000B8F1000F0CD1A34604EBDB71491001FB41
:1011A0000561C8B2234630225146FFF77BFF0DE0B0
:1011B000A34604EBDB71491001FB0561C8B208F1DD
:1011C0003001CAB223465146FFF76CFF681CC5B216
:1011D000BD42D0DBBDE8F08F2DE9F05F05460E463D
:1011E00017469846DDF828B04FF00009CA4600249B
:1011F000E11704EB5171C910A4EBC10101B901E081
:10120000601CC4B2344614E02146284600F036F88B
:10121000AA460AE01BF80900012100F044F809F190
:1012200001090AF1010000F0FF0ABA45F2DB601C77
:10123000C4B24445E8DBBDE8F09FF0B506460F4672
:1012400014461D4613E022782B4639463046FFF7F8
:1012500029FF284605EBD07106EB6101CEB2C5F13E
:101260008000B04202DA0026B81CC7B2641C2078A5
:10127000202802DB20787E28E5DDF0BD70B504462D
:101280000D4605F1B001C8B2002100F00CF81021A4
:1012900041EA1410002100F006F804F00F000021CC
:1012A00000F001F870BD70B505460C46FFF762FC12
:1012B000782000F033F9FFF799FC1CB1402000F0D2
:1012C0002DF902E0002000F029F9FFF78FFC2846F5
:1012D00000F024F9FFF78AFCFFF76AFC70BD2DE9E6
:1012E000F04106460F46BC0021E0B5001AE0B80008
:1012F000A04203D0B800C01CA04205D104F11002E6
:10130000D1B2E8B2FFF7DEFDB000A84203D0B000D2
:10131000C01CA84205D104F11002D1B2E8B2FFF717
:10132000D1FD6D1CB000001DA842E0DC641CB800BB
:10133000001DA042D9DCBDE8F0812DE9F041044652
:101340000D46AE000DE0A70006E006F11002D1B296
:10135000F8B2FFF787FD7F1CA000001DB842F4DC47
:10136000761CA800001DB042EDDCBDE8F0812DE93F
:10137000F04106460F46BC0023E0B5001CE0B80073
:10138000401CA04203D0B800801CA04205D104F14B
:101390001002D1B2E8B2FFF795FDB000401CA842A0
:1013A00003D0B000801CA84205D104F11002D1B2D4
:1013B000E8B2FFF787FD6D1CB000001DA842DEDC1F
:1013C000641CB800001DA042D7DCBDE8F0812DE907
:1013D000F04104460D46AE000DE0A70006E006F120
:1013E0001002D1B2F8B2FFF76DFD7F1CA000001D06
:1013F000B842F4DC761CA800001DB042EDDCBDE86C
:10140000F081704729B1064AD2690243044BDA6180
:1014100004E0034AD2698243014BDA61704700005D
:101420000010024029B1064A92690243044B9A61B6
:1014300004E0034A92698243014B9A6170470000BD
:101440000010024030B500210022002400232D4D61
:101450006D6805F00C0121B1042905D0082923D1BC
:1014600005E0294D056022E0274D05601FE0254D70
:101470006D6805F47012234D6D6805F48034022503
:1014800005EB92421CB9214D554305600BE01D4D03
:101490006D6805F400351DB11C4D5543056002E033
:1014A000194D5543056002E0174D056000BF00BFB0
:1014B000144D6D6805F0F0010909154D6B5C056868
:1014C000DD4045600F4D6D6805F4E061090A104D7F
:1014D0006B5C4568DD4085600A4D6D6805F46051C0
:1014E000C90A0B4D6B5C4568DD40C560054D6D68F4
:1014F00005F44041890B074D6B5CC568B5FBF3F5FE
:10150000056130BD0010024000127A0000093D0064
:1015100014100020241000207047000070B504460D
:10152000002526E04FF480511348FFF770FA04F0CD
:10153000800028B14FF400510F48FFF76AFA04E029
:101540004FF400510C48FFF762FA4FF480510A48FB
:10155000FFF75FFA012000F043FB4FF4805106488B
:10156000FFF755FA012000F03BFB6006040E681CF3
:10157000C5B2082DD6DB70BD000C014010B500F0DF
:1015800001F810BD0CB500200190009033480068B0
:1015900040F480303149086000BF3048006800F4F2
:1015A000003000900198401C0190009818B90198F3
:1015B000B0F5A06FF1D12948006800F4003010B1F7
:1015C0000120009001E0002000900098012843D104
:1015D0002348006840F01000214908600846006870
:1015E00020F0030008600846006840F00200086030
:1015F0001A484068194948600846406848600846EB
:10160000406840F4806048600846406820F47C10E0
:1016100048600846406840F4E810486008460068A2
:1016200040F08070086000BF0C48006800F0007057
:101630000028F9D00948406820F0030007494860B5
:101640000846406840F00200486000BF0348406818
:1016500000F00C000828F9D10CBD00000010024079
:101660000020024008B5102307A200211E20FFF72A
:10167000E4FD10200223009005480021026850205C
:10168000FFF770FD08BD000053636F72653A0000FC
:101690003810002010B505201049086000201049BE
:1016A000086007200F4908600520486001240BE00E
:1016B0000C480068001B0B4941F83400084640689C
:1016C00001EBC4014860641C052CF1DB02200649D3
:1016D00008600648FFF79CF810BD00003410002099
:1016E00038100020441C00203C100020441600202C
:1016F000042808D14FF0E021096941F004014FF0BE
:10170000E022116107E04FF0E021096921F00401B6
:101710004FF0E022116170477047000010B5134888
:10172000006840F00100114908600846406810490F
:1017300008400E494860084600680E4908400B49B9
:1017400008600846006820F4802008600846406869
:1017500020F4FE0048604FF41F008860FFF70EFF82
:101760004FF000600449086010BD00000010024006
:101770000000FFF8FFFFF6FE08ED00E010B50121C4
:101780000B4800F076F888B10121094800F062F8B2
:10179000FFF7A6FAFFF760F800F096FA0548006830
:1017A00008B9012000E000200249086010BD0000D7
:1017B00000040040A00121427FB505460C460121EE
:1017C0000220FFF71FFEADF80850ADF804400020DE
:1017D000ADF80A00ADF8060001A90E4800F064F863
:1017E000012211460B4800F055F81D208DF800002D
:1017F00000208DF8010003208DF8020001208DF8F3
:1018000003006846FFF7D4FA0121024800F025F8EA
:101810007FBD00000004004010B50C48008800F0B7
:10182000010058B10A49086980470020074914316E
:1018300008804FF47A7005491C31088003480088FD
:1018400020F001000149088010BD00001008004090
:1018500088100020CA430282704721B1028842F0FA
:101860000102028004E002884FF6FE731A400280F3
:10187000704730B50246002000230024158A05EA8F
:101880000103958905EA010413B10CB1012000E0C0
:10189000002030BD1AB183890B43838102E0838924
:1018A0008B43838170470000002202881D4B9842C1
:1018B0000ED01D4B98420BD0B0F1804F08D01B4B7F
:1018C000984205D01A4B984202D01A4B984204D144
:1018D0004FF68F731A404B881A43174B984207D024
:1018E000164B984204D04FF6FF431A40CB881A4358
:1018F00002808B8883850B8803850A4B98420BD026
:10190000094B984208D00E4B984205D00D4B984297
:1019100002D00D4B984201D10B7A038601238382BA
:1019200070470000002C01400034014000040040DA
:1019300000080040000C004000100040001400406F
:101940000040014000440140004801407FB5054689
:101950000C4601210420FFF755FDADF80850ADF805
:1019600004400020ADF80A00ADF8060001A90D48BA
:10197000FFF79AFF012241210A48FFF78BFF1E2043
:101980008DF8000003208DF801008DF80200012081
:101990008DF803006846FFF70BFA01210148FFF7B5
:1019A0005CFF7FBD0008004010B540F225511D4886
:1019B00000F04AF810B31B4800F002F9C4B21A480C
:1019C000008800F40040C8B91748008800F480403F
:1019D00060B10A2C03D000201349088020E012488F
:1019E000008840F400401049088019E00D2C06D111
:1019F0000D48008840F480400B49088010E00A48F8
:101A00000088C0F30D0009490C5407480088401CA9
:101A10000549088008460088C72801DD00200880A5
:101A200010BD000000380140301000207C11002063
:101A300021B1828942F40052828104E082894DF60C
:101A4000FF731A408281704770B50246002400235C
:101A50000025002040F66A16B14200D100BFC1F354
:101A6000421501F01F03012606FA03F3012D02D1EE
:101A70009689334006E0022D02D1168A334001E0F8
:101A8000968A33400C12012606FA04F41688344074
:101A900013B10CB1012000E0002070BDF0B5034689
:101AA000002400260025002040F66A17B94200D124
:101AB00000BF1846C1F3421401F01F06012707FAC0
:101AC00006F5012C01D10C3004E0022C01D11030BC
:101AD00000E014301AB107682F43076002E007687E
:101AE000AF430760F0BD00002DE9F04786B0054622
:101AF0000E460024A24600BFA1460027B08900B1CF
:101B000000BF2F462C8A4CF6FF700440F088044337
:101B10002C82AC894EF6F3100440B088318908431A
:101B2000718908430443AC81AC8A4FF6FF400440FE
:101B3000B0890443AC8201A8FFF784FC1F488742A8
:101B400002D1DDF810A001E0DDF80CA0A88900F4B6
:101B5000004040B10AEBCA0000EB0A1031684900AE
:101B6000B0FBF1F807E00AEBCA0000EB0A1031689D
:101B70008900B0FBF1F86420B8FBF0F00401200903
:101B8000642101FB1089A88900F4004040B1322093
:101B900000EBC900B0FBF1F000F00700044308E0DF
:101BA000322000EB09106421B0FBF1F000F00F00CF
:101BB00004432C8106B0BDE8F087000000380140E6
:101BC00001468888C0F30800704700BFFEE7303840
:101BD0000A2801D2012070470020704700BF7047DB
:101BE00000BF011EA0F10100FBD1704710B56FF0DE
:101BF0000400FFF77DFD0A4800680A49B0FBF1F0D8
:101C0000094908700846007800EB4001C1EBC0109C
:101C10004FF6FF7101EAC0000449088010BD0000C2
:101C20000010002000127A00281000202A10002046
:101C30000146114A12884A434FF0E0235A610022BC
:101C40009A611A46126942F001021A6100BF4FF010
:101C5000E022106900F001021AB100F48032002A7B
:101C6000F5D04FF0E022126922F001024FF0E0239C
:101C70001A6100229A6170472A1000200146114A19
:101C800012784A434FF0E0235A6100229A611A46C3
:101C9000126942F001021A6100BF4FF0E0221069A0
:101CA00000F001021AB100F48032002AF5D04FF0A2
:101CB000E022126922F001024FF0E0231A610022B3
:101CC0009A6170472810002030B500200EE00A4BC2
:101CD00053F8302003EBC0035968022302EB42049F
:101CE000064D05EB041444F82130401C044B1B68DE
:101CF0009842ECDB30BD0000441C0020441600205C
:101D00003410002000BF054A128802F04002002A69
:101D1000F9D0C2B2014B1B1D1A8070470038014038
:101D200008B5FFF763FF4FF4A060FFF779F84FF4B1
:101D3000165000F039F8FEF7A9FFFFF7E1F841F679
:101D40001F4140F2CF70FFF737FDFEF764FE1148E8
:101D500008238022002100900846FFF73DFA40F258
:101D60004770FFF765FF13E0FEF7AEFEFFF77AFC62
:101D70000948FEF75AFEFEF789FE48B1FFF75AF808
:101D8000064808238022002100900846FFF724FA25
:101D9000EAE70000000400204416002000000020B4
:101DA000014608687047000010B586B0044601215E
:101DB00044F20400FFF736FB4FF40070ADF8140056
:101DC00003208DF8160018208DF8170005A91C486F
:101DD000FEF792FD4FF48060ADF8140004208DF8FA
:101DE000170005A91648FEF787FD25208DF800008D
:101DF00003208DF801008DF8020001208DF803000A
:101E00006846FEF7D5FF01940020ADF80800ADF854
:101E10000A00ADF80C00ADF810000C20ADF80E0073
:101E200001A90848FFF760FE012240F2255105484C
:101E3000FFF734FE01210348FFF7FAFD06B010BD9D
:101E4000000801400038014030B595B0054613AB9D
:101E500012AA09A9284600F03BFA044614B120460C
:101E600015B030BD0020149026E0224909689DF885
:101E7000502001EBC20113AB11AA486801A900F080
:101E800027FA04460CB12046EAE709A901A800F0A8
:101E9000BBFC60B99DF844009DF84810884201DD04
:101EA0000220DDE79DF85000124988750AE09DF890
:101EB0005000401CC0B214900E48007D9DF8501098
:101EC0008842D2DC00BF0B48007D9DF8501088424C
:101ED00001D10420C4E714A9284600F0D9FA044629
:101EE0000CB12046BCE79DF850000249487500201F
:101EF000B6E70000881000202DE9F0419AB00026D6
:101F00009C48847D007DA04202DC1AB0BDE8F081CF
:101F10009849096801EBC40106AB07AA486808A9FB
:101F200000F0D6F908A994A0FEF79CF9002544E03A
:101F30009048008B0121A9400840D8B1222190A0EF
:101F4000FEF790F9284600F029FB8A49243147180A
:101F500039468CA0FEF786F9222189A0FEF782F986
:101F6000284600F01BFB83492431084410A941F89E
:101F7000250018E0284600F011FB7E49243108585E
:101F800010A941F825007B48C07D30B910A850F851
:101F900025107DA0FEF766F905E010A850F8251081
:101FA0007AA0FEF75FF99DF81C00401EA84202D0FF
:101FB00078A0FEF757F9681CC5B29DF81C00854251
:101FC000B6DB75A0FEF74EF900F038FB6948407D9E
:101FD0000B280DD2DFE800F0060D151E27323F4E0C
:101FE0005F7287006349096851F8340080470646EC
:101FF00090E0604A126852F83410109888470646FC
:1020000088E05C4B1B6853F83420DDE910019047F1
:1020100006467FE0574F3F6857F8343010A807C88E
:102020009847064676E0DFF84CC1DCF800C05CF863
:10203000347010A80FC8B84706466BE01498DFF854
:1020400034C10090DCF800C05CF8347010A80FC8F0
:10205000B84706465EE0DDE91401DFF818C1CDE9B6
:102060000001DCF800C05CF8347010A80FC8B84755
:1020700006464FE0DDE914121698DFF8F8C0CDE906
:1020800000120290DCF800C05CF8347010A80FC891
:10209000B84706463EE0DDE91423DDE91610DFF817
:1020A000D4C0CDE90023CDE90210DCF800C05CF813
:1020B000347010A80FC8B84706462BE0DDE9163289
:1020C00018991598CDE90232049101901498DFF81F
:1020D000A4C00090DCF800C05CF8347010A80FC8F1
:1020E000B847064616E0DDE91623DDE91810CDE90C
:1020F0000223CDE90410DDE91401DFF878C0CDE951
:102100000001DCF800C05CF8347010A80FC8B847B4
:10211000064600BF00BF00F051FA9DF818000128E4
:102120000CD11448C07D20B931461CA0FEF79AF8A6
:1021300007E031461BA0FEF795F802E018A0FEF775
:1021400091F80C4890F8EC0088B10A48D0F8F000FB
:102150000A21B0FBF1F201FB12070648D0F8F000AB
:10216000B0FBF1F83A46414611A0FEF77BF800BFFC
:10217000CBE60000881000200D0A2573280000001F
:102180002563000025730000256C75003058255824
:10219000000000002C000000290000003D256C75A7
:1021A0003B0D0A003D305825583B0D0A0000000049
:1021B00046756E6374696F6E2052756E2054696D3A
:1021C000653A25642E2531646D730D0A0000000008
:1021D000F0B503461546002000220026002455E0F5
:1021E0001F782C2F01D104B901221F78292F01D08B
:1021F0001F780FB904B94AE0002E34D11F78302F70
:1022000002DB1F78392F11DD1F78612F02DB1F7869
:10221000662F0BDD1F78412F02DB1F78462F05DD6F
:102220001F78582F02D01F78782F0CD102B12EE0E2
:102230001F78612F03DB1F78203F0F7001E01F78AC
:102240000F70491C1FE01F78222F04D102B11EE03D
:102250000126012417E01F78202F14D01F782C2F7F
:1022600011D0FF2613E01F78222F00D1002402B1E5
:102270000DE044B11F785C2F02D15B1C471CF8B203
:102280001F780F70491C471CF8B25B1CA8E700BF01
:1022900000270F702E70F0BD10B50446002010709E
:1022A0000BE020780870641C491C1078401C1070EA
:1022B0001078984201DB012010BD2078202802D040
:1022C00020780028EDD10020087000BFF4E700005E
:1022D0002DE9FF4F85B080468946002700200490F5
:1022E0000390012002904FF0000B002544461DE0B2
:1022F0002078202816D005F07F00052812DA0DB9C5
:1023000045F0800505F07F00042803D120782A28B5
:1023100000D00EE0207805F07F010DF80100681C68
:10232000C5B202E0852D00D103E0641C20780028AE
:10233000DED100BF8DB1002005F07F010DF8010056
:1023400051A1684600F060FA18B9002108980170A0
:1023500002E001210898017000254FF0000A444670
:1023600014E0641C0AF1010000F0FF0A2078202824
:1023700002D020782A2809D1204600F0D5F9064657
:10238000282E03D02A2E01D0CDF810A0207828289E
:1023900002D020780028E4D14446049810B1049873
:1023A000401C04444FF0000A002654E0207810B985
:1023B0004FF0010A50E02078282803D116B9781C84
:1023C000C7B213E02078292808D13EB917B1781E8A
:1023D000C7B201E04FF0010A47B93DE0207822285A
:1023E00004D10EB9012000E00020064647B920784C
:1023F00020282FD0207889F8000009F1010929E070
:1024000020782C2804D101200290681CC5B214E069
:102410002078202811D0207828280ED04DB9BBF183
:10242000050F06DA20780DF80B000BF1010000F023
:10243000FF0B0298401CC0B20290012F0AD10298F3
:10244000022807D10298401CC0B202900398401C99
:10245000C0B20390641CA9E700BF0398012809D10A
:1024600000200DF80B0008A1684600F0CDF908B96E
:1024700000200390079903980870002089F8000055
:10248000504609B0BDE8F08F766F69640000000027
:102490002DE9F043B5B005460F460024002604E0C0
:1024A00000213D488155701CC6B20A2EF8DB06E0BB
:1024B0006D1C287818B9012035B0BDE8F083287864
:1024C0002828F5D16D1C61E034AA69462846FFF73B
:1024D0007FFE064635449DF8D00020B1012827D064
:1024E000FF284CD149E09DF8000000B333A96846AD
:1024F00000F025F906460EB10220DDE7204600F087
:102500004DF825490A31339A0A50A1F12400008B75
:102510000121A140884320491A39088304211E481B
:102520000155601CC4B20A2C01DD0320C4E726E07B
:10253000684600F085F9401C00F0FF08204600F0D6
:102540002DF815490A3100EB01094946684600F0AB
:102550006CF911481A38018B0120A040014388B260
:102560000D491A3908830C4800F80480601CC4B275
:102570000A2C01DD03209FE701E002209CE700BF59
:102580002878292801D0287800B900E09CE700BF0E
:102590003C70002090E70000A210002002460020BE
:1025A000002105E0044B5B5C0344D8B24B1CD9B25C
:1025B0009142F7DB70470000A21000200D48008810
:1025C00000F0010040B10C48D0F8F0004FF6FF7168
:1025D00008440949C1F8F0000748D0F8F00005495F
:1025E0001431098808440449C1F8F0000846D0F8BD
:1025F000F0007047100800408810002010B5044615
:1026000004EBC40000EB04100122C2EB800081B295
:102610004FF47A70FFF79AF901200149C87510BD8F
:102620008810002010B50246012000E050430B1E28
:10263000A1F10104E1B2F9D110BD00000948008800
:1026400020F00100074908804FF6FF7005491C3152
:10265000088000200349143108800349C1F8F000C4
:1026600070470000100800408810002070B51D4819
:10267000008800F40040002833D01A480578002074
:1026800019494855194881681748884704461CB9B4
:102690001649C868804721E0134800F0DDF8054678
:1026A000012D00D02C46CCB1012C06D0022C08D034
:1026B000032C0AD0042C10D10BE00DA0FDF7D2FDA5
:1026C0000BE00EA0FDF7CEFD07E00FA0FDF7CAFD61
:1026D00003E010A0FDF7C6FD00BF00BF00200149C8
:1026E000088070BD301000207C1100208810002070
:1026F000BAAFCAFDB4EDCEF3210D0A00B2CECAFDC9
:10270000B4EDCEF3210D0A00B2CECAFDCCABB6E0DB
:10271000210D0A00CEB4D5D2B5BDC6A5C5E4B5C459
:10272000BAAFCAFD210D0A000146491C00E0491C50
:102730000878202801D10029F9D1087870472DE9BF
:10274000F04307460E4600254FF00A083C4600209D
:1027500030601FE02078392802DC207830280ADA3F
:102760002078462802DC2078412804DA207858288E
:1027700009D1012D07D12078412801DB4FF0100845
:10278000681CC5B205E0207800B904E00120BDE86E
:10279000F083641CDEE700BF3C46B8F1100F0FD198
:1027A000032D01DA0220F2E72078302806D1607884
:1027B000582803D1A41CA81EC5B204E00320E6E7F4
:1027C0000DB90420E3E71BE00DB1681EC5B2207807
:1027D000392806DC2078302803DB2078A0F1300986
:1027E00002E02078A0F1370929464046FFF71AFF9A
:1027F000316809FB00103060641C207800B900E0EB
:10280000E2E700BF0020C2E702460AE010780B783A
:10281000984201D001207047107800B902E0521CA4
:10282000491CF3E700BF0020F5E706E002780A70D4
:10283000027802B902E0401C491CF7E700BF70476C
:102840000146002005E00A7802B903E0421CD0B23C
:10285000491CF8E700BF704710B58CB004461E2332
:102860000BAA03A92046FFF717FD0090009810B1AE
:1028700001200CB010BD9DF82C00044400200B90EA
:102880000EE040489DF82C2050F8221003A8FFF7D6
:10289000BBFF00B908E09DF82C00401CC0B20B90B3
:1028A0009DF82C000728ECD300BF9DF82C000728CA
:1028B00063D2DFE800F004053C5E6564630000BF9E
:1028C00031A0FDF7CFFC31A0FDF7CCFC3FA0FDF718
:1028D000C9FC4EA0FDF7C6FC5CA0FDF7C3FC6BA0D5
:1028E000FDF7C0FC79A0FDF7BDFC86A0FDF7BAFCA2
:1028F0008BA0FDF7B7FC90A0FDF7B4FC94A0FDF70A
:10290000B1FC99A0FDF7AEFC9EA0FDF7ABFCA4A026
:10291000FDF7A8FCB0A0FDF7A5FCBDA0FDF7A2FC4B
:10292000C8A0FDF79FFCD4A0FDF79CFC9AE216A07E
:10293000FDF798FCE0A0FDF795FC00200B900EE061
:10294000ED4800689DF82C2000EBC2004168EBA028
:10295000FDF788FC9DF82C00401CC0B20B90E648A7
:10296000007D9DF82C108842EADC07A0FDF77AFC78
:1029700078E205A0FDF776FCC4E171E245E219E2D8
:10298000ECE100004C1000200D0A00002D2D2D2D33
:102990002D2D2D2D2D2D2D2D2D2D2D2D2D2D2D2D67
:1029A0002D2D2D2D55534D4152542056332E312D62
:1029B0002D2D2D2D2D2D2D2D2D2D2D2D2D2D2D2D47
:1029C0002D2D2D2D2D2D2D200D0A00002020202015
:1029D00055534D415254CAC7D3C9414C49454E5431
:1029E000454BBFAAB7A2B5C4D2BBB8F6C1E9C7C9A7
:1029F000B5C4B4AEBFDAB5F7CAD4BBA5BDBBD7E981
:102A0000BCFE2CCDA8B9FD200D0A0000CBFC2CC4C7
:102A1000E3BFC9D2D4CDA8B9FDB4AEBFDAD6FACAE5
:102A2000D6B5F7D3C3B3CCD0F2C0EFC3E6B5C4C8B4
:102A3000CEBACEBAAFCAFD2CB2A2D6B4D0D02ED266
:102A4000F2B4CB2CC4E3BFC90D0A0000D2D4CBE64C
:102A5000D2E2B8FCB8C4BAAFCAFDB5C4CAE4C8EB88
:102A6000B2CECAFD28D6A7B3D6CAFDD7D6283130F4
:102A70002F3136BDF8D6C629A1A2D7D6B7FBB4AE42
:102A8000A1A2BAAFCAFDC8EB0D0A0000BFDAB5D8E3
:102A9000D6B7B5C8D7F7CEAAB2CECAFD292CB5A5F0
:102AA000B8F6BAAFCAFDD7EEB6E0D6A7B3D6313086
:102AB000B8F6CAE4C8EBB2CECAFD2CB2A2D6A7B310
:102AC000D6BAAFCAFDB7B5200D0A0000BBD8D6B53F
:102AD000CFD4CABE2ED0C2D4F6B2CECAFDCFD4CA8D
:102AE000BEBDF8D6C6C9E8D6C3B9A6C4DC2CD0C2D0
:102AF000D4F6BDF8D6C6D7AABBBBB9A6C4DC2E0D8A
:102B00000A000000BCBCCAF5D6A7B3D63A777777DF
:102B10002E6F70656E6564762E636F6D0D0A000012
:102B200055534D415254D3D037B8F6CFB5CDB3C37A
:102B3000FCC1EE3A0D0A00003F3A20202020202060
:102B4000BBF1C8A1B0EFD6FAD0C5CFA20D0A0000E4
:102B500068656C703A202020BBF1C8A1B0EFD6FAAE
:102B6000D0C5CFA20D0A00006C6973743A202020F2
:102B7000BFC9D3C3B5C4BAAFCAFDC1D0B1ED0D0A48
:102B80000A00000069643A2020202020BFC9D3C376
:102B9000BAAFCAFDB5C44944C1D0B1ED0D0A0A00AF
:102BA0006865783A20202020B2CECAFD3136BDF8C3
:102BB000D6C6CFD4CABE2CBAF3B8FABFD5B8F12B5B
:102BC000CAFDD7D6BCB4D6B4D0D0BDF8D6C6D7AA25
:102BD000BBBB0D0A0A0000006465633A2020202078
:102BE000B2CECAFD3130BDF8D6C6CFD4CABE2CBADB
:102BF000F3B8FABFD5B8F12BCAFDD7D6BCB4D6B45A
:102C0000D0D0BDF8D6C6D7AABBBB0D0A0A000000BB
:102C100072756E74696D653A312CBFAAC6F4BAAF8D
:102C2000CAFDD4CBD0D0BCC6CAB13B302CB9D8B1C8
:102C3000D5BAAFCAFDD4CBD0D0BCC6CAB13B0D0A01
:102C40000A000000C7EBB0B4D5D5B3CCD0F2B1E0E8
:102C5000D0B4B8F1CABDCAE4C8EBBAAFCAFDC3FB71
:102C6000BCB0B2CECAFDB2A2D2D4BBD8B3B5BCFC04
:102C7000BDE1CAF82E0D0A002D2D2D2D2D2D2D2D47
:102C80002D2D2D2D2D2D2D2D2D2D2D2D2D2D2D2D74
:102C90002D2D414C49454E54454B2D2D2D2D2D2D7F
:102CA0002D2D2D2D2D2D2D2D2D2D2D2D2D2D2D2D54
:102CB0002D2D2D200D0A00002D2D2D2D2D2D2D2DEE
:102CC0002D2D2D2D2D2D2D2D2D2D2D2D2D2D2D2D34
:102CD0002DBAAFCAFDC7E5B5A52D2D2D2D2D2D2D56
:102CE0002D2D2D2D2D2D2D2D2D2D2D2D2D2D2D2D14
:102CF0002D2D2D2D200D0A008810002025730D0A82
:102D00000000000059A0FDF7ADFA00200B901AE07A
:102D1000664909689DF82C2001EBC20101AB02AAAB
:102D2000486803A9FFF7D4FA604800689DF82C10A2
:102D300050F8312003A95EA0FDF794FA9DF82C000D
:102D4000401CC0B20B905948007D9DF82C10884261
:102D5000DEDCAFF2CC30FDF785FA83E0AFF2D8309D
:102D6000FDF780FA0BAA03A92046FFF731FA9DF878
:102D70002C00C8B9694603A8FFF7E1FC0B909DF849
:102D80002C0020B94FA00099FDF76CFA0EE09DF8D9
:102D90002C00042801D002206BE54DA0FDF762FA5B
:102DA00001204249C87501E0022062E547A0FDF715
:102DB00059FA57E045A0FDF755FA0BAA03A920469A
:102DC000FFF706FA9DF82C00C8B9694603A8FFF77B
:102DD000B6FC0B909DF82C0020B942A00099FDF79D
:102DE00041FA0EE09DF82C00042801D0022040E5B5
:102DF0003FA0FDF737FA00202C49C87501E00220FA
:102E000037E532A0FDF72EFA2CE030A0FDF72AFAC4
:102E10000BAA03A92046FFF7DBF99DF82C00C8B9DF
:102E2000694603A8FFF78BFC0B909DF82C0078B93E
:102E30001E49009881F8EC00084690F8EC0018B1A3
:102E400030A0FDF70FFA07E035A0FDF70BFA03E01D
:102E500002200EE502200CE51CA0FDF703FA01E0BC
:102E6000012006E500BF002003E500002D2D2D2DDB
:102E70002D2D2D2D2D2D2D2D2D2D2D2D2D2D2D2D82
:102E80002D2D2D2D2DBAAFCAFD204944202D2D2DDD
:102E90002D2D2D2D2D2D2D2D2D2D2D2D2D2D2D2D62
:102EA0002D2D2D2D2D2D2D2D200D0A0088100020CB
:102EB00025732069642069733A0D0A30582530382B
:102EC000580D0A004845583A305825580D0A000058
:102ED0003136BDF8D6C6B2CECAFDCFD4CABE210D9A
:102EE0000A0000004445433A256C750D0A000000B5
:102EF0003130BDF8D6C6B2CECAFDCFD4CABE210D80
:102F00000A00000052756E2054696D652043616CA3
:102F100063756C6174696F6E204F4E0D0A0000007E
:102F200052756E2054696D652043616C63756C61E8
:102F300074696F6E204F46460D0A000001607047AD
:102F40000000000000000000000000000000000081
:102F50000000000000001FCC000C0000000000007A
:102F60000000080030006000080030006000000031
:102F7000022003FC1E20022003FC1E200220000071
:102F800000000E1811043FFF10840C7800000000B0
:102F90000F0010840F3800C00778188400780000F4
:102FA00000780F8410C411240E9800E400840008F7
:102FB0000800680070000000000000000000000031
:102FC00000000000000007E0181820044002000084
:102FD000000040022004181807E000000000000074
:102FE0000240024001800FF00180024002400000D8
:102FF0000080008000800FF80080008000800000CA
:103000000001000D000E00000000000000000000A4
:103010000000008000800080008000800080008030
:103020000000000C000C0000000000000000000088
:103030000000000600180060018006001800200053
:10304000000007F0080810041004080807F000004A
:103050000000080408041FFC000400040000000035
:1030600000000E0C10141024104411840E0C0000EB
:1030700000000C1810041104110412880C700000D8
:10308000000000E00320042408241FFC00240000AA
:1030900000001F98108411041104108810700000A3
:1030A000000007F00888110411041888007000005F
:1030B00000001C00100010FC13001C001000000099
:1030C00000000E3811441084108411440E380000A2
:1030D00000000700088C10441044088807F0000026
:1030E000000000000000030C030C000000000000C2
:1030F00000000000000101060000000000000000C8
:1031000000000080014002200410080810040000A4
:1031100002200220022002200220022002200000C1
:103120000000100408080410022001400080000084
:1031300000000E001200100C106C10800F00000038
:1031400003E00C1813E4142417C4082807D0000067
:103150000004003C03C41C40074000E4001C0004C1
:1031600010041FFC1104110411040E8800700000EB
:1031700003E00C1810041004100410081C100000C8
:1031800010041FFC100410041004080807F00000CD
:1031900010041FFC1104110417C4100408180000C7
:1031A00010041FFC1104110017C0100008000000DB
:1031B00003E00C181004100410441C7800400000B8
:1031C00010041FFC10840080008010841FFC100479
:1031D0000000100410041FFC100410040000000084
:1031E00000030001100110011FFE1000100000007C
:1031F00010041FFC110403801464181C1004000048
:1032000010041FFC1004000400040004000C000063
:1032100010041FFC1F0000FC1F001FFC1004000016
:1032200010041FFC0C04030000E010181FFC100029
:1032300007F00808100410041004080807F0000044
:1032400010041FFC10841080108010800F000000FC
:1032500007F0081810241024101C080A07F20000B8
:1032600010041FFC1104110011C011300E0C0004D9
:1032700000000E1C11041084108410441C3800003F
:103280001800100010041FFC1004100018000000AB
:1032900010001FF810040004000410041FF81000B0
:1032A00010001E0011E0001C007013801C001000B4
:1032B0001FC0103C00E01F0000E0103C1FC00000D9
:1032C0001004180C163401C001C01634180C100478
:1032D00010001C00130400FC13041C00100000006C
:1032E0000804101C1064108413041C04101800003F
:1032F0000000000000007FFE40024002400200008B
:10330000000030000C0003800060001C000300007F
:1033100000004002400240027FFE0000000000006A
:10332000000000002000400040004000200000009D
:103330000001000100010001000100010001000185
:1033400000004000400020000000000000000000DD
:1033500000000098012401440144014400FC0004E1
:1033600010001FFC008801040104008800700000A8
:1033700000000070008801040104010400880000BE
:103380000000007000880104010411081FFC000403
:10339000000000F8014401440144014400C8000059
:1033A0000000010401040FFC1104110411001800B5
:1033B000000000D601290129012901C901060000E8
:1033C00010041FFC008401000100010400FC000443
:1033D00000000104190419FC0004000400000000AE
:1033E0000000000300010101190119FE00000000A6
:1033F00010041FFC0024004001B4010C0104000073
:103400000000100410041FFC000400040000000071
:10341000010401FC0104010001FC0104010000FCA5
:10342000010401FC008401000100010400FC00040F
:10343000000000F8010401040104010400F8000088
:10344000010101FF008501040104008800700000F3
:1034500000000070008801040104010501FF000163
:103460000104010401FC008401040100018000004A
:10347000000000CC01240124012401240198000053
:1034800000000100010007F8010401040000000031
:10349000010001F8000400040004010801FC00041C
:1034A000010001800170000C00100160018001002A
:1034B00001F0010C003001C00030010C01F00100EE
:1034C00000000104018C00740170018C01040000F3
:1034D000010101810171000E0018016001800100ED
:1034E00000000184010C013401440184010C00003E
:1034F000000000000000000001003EFC400240020D
:103500000000000000000000FFFF000000000000BD
:103510000000400240023EFC0100000000000000EC
:10352000000060008000800040004000200020007B
:10353000000000000000000000000000000000008B
:10354000000000000000000000000000000000007B
:1035500030313233343536373839414243444546C9
:1035600040305800303132333435363738396162C3
:1035700063646566403078000400000800000000C5
:103580000000000200010000100000003F000000E9
:10359000646563006964000072756E74696D65002E
:1035A00068656C70000000006C69737400000000B6
:1035B00068657800766F69642077726974655F6109
:1035C0006464722875333220616464722C753332FE
:1035D0002076616C290000007533322072656164C9
:1035E0005F616464722875333220616464722900FB
:1035F000766F69642064656C61795F6D73287531DD
:1036000036206E6D73290000766F69642064656CE6
:1036100061795F757328753332206E7573290000E8
:1036200040360008000000207C110000280100083E
:103630002C3C00087C1100200C13000084010008C1
:1036400001FFA15E80E070080401623C66C038ECB6
:10365000708076041CE49CE02DC0F00CFC261AFC63
:103660000229012A183C3A183D280E0C1878D0601F
:1036700080040C748C748404379C84740C2A3A1C67
:103680000A06110C14EC18F03C3FFFE06C1C101003
:10369000F00229675F3E212020277B772810F8075A
:1036A00001063BCC30C0E018060107F80F4012FFBE
:1036B0002AFF551B1F803C82C035C03FC03F500AC7
:1036C000010E739C6080700C03892A290A5E0C34F9
:1036D0004BB1C0D8C12D0103070627140502012DE7
:1036E00004040704C1111908290A590F2B010713F3
:1036F000491459061908393C2A020B2A063C694F1D
:103700004A067D7930490839493D010205065F01C5
:103710003F280880804060404080CD16C020209027
:10372000901388883D08101060120149181D107010
:10373000C0B09010107088844242293721414182E4
:103740000434C4040482814D312001373C42C181DC
:10375000FD93000F4F0C070303262070509894949C
:103760001318281A0101B90D990F1911280803021D
:10377000040808181001AD080808071C01B07812E9
:103780008080A0C040406040C080E0302030207089
:10379000C019280BC0E0E0F0F0F0F8F83818010686
:1037A0002130303060401B20E001190612201C40FF
:1037B00040C00649490D152020C0807E3815C262E0
:1037C0003F312060783C3C181F0C181C1E8E8C0F5B
:1037D0001C30837B3EFF018DFCF8F0E04149971AD5
:1037E000F01309120F2808011F7FFF7C1F01D81555
:1037F000FFFF848022E007163F7FC0807F3F1816BE
:1038000001070C18103060E06242624664E6A233A1
:1038100031180C06033E41780803070F1F1F3F7F36
:10382000871AFE8812C0390B3B0303073139086B36
:1038300083830F39540132347FFCF88C021FF0E788
:10384000380E18387060E0C0C080808091B3F75F98
:103850005F7F7F3F1F17F06A39073CF010D0084A9E
:10386000BFA1111D4040E0E0141A50011AB0D589E3
:103870004D011F19651815C386CC98B0E043C78762
:10388000878606040C0818181010707F112A010191
:10389000295C3809FFC060F0FCFEC70301211CC38E
:1038A00023A316480A20BFA3A3A373FFF801161B86
:1038B000808014000D1780FF80C0C0C0E0E1B87F99
:1038C0003F0F191F46A0E03060C01658FEE3C1014B
:1038D0003013183C6642C282878386878481818345
:1038E000C2EEF8E0195643E37E19561503FD0601B2
:1038F0003F030F3FFFFCF0372B0101161142FF1F62
:103900008183C0F0D0E0ED2B0505142FFE020202EA
:10391000031F291913011458090F1910212111111E
:10392000189F19BA19F2180D081811131313111052
:103930001018181CFD190736080C0603013B020776
:1039400001140604047B04060CDB0105018B060749
:103950002A1A08560008FF1F17170B0B060401222E
:103960001A8001390539095911D901A92749058951
:103970003B9908C9557951011A200BDE62220320B8
:1039800050881393FE3354542AFF04180A84848405
:10399000A4E040404064401AA40D17FC03788C83D7
:1039A0000115088FCF3016E63921231C2E03213153
:1039B000EE701420101009FF699999A0C02020E929
:1039C00009098F78180AFE010101F10101FE0801C1
:1039D00032380B1A7F40831813718E8282647C8286
:1039E0008F91A1A2949C8A71414345342829778CF8
:1039F0008C8C88808040444460204040848CCC740F
:103A000003F68988888848484FF0889E9190B0A036
:103A1000A7999193FF761420108868FF92948447A9
:103A2000402060408189997700141A0F10101013FC
:103A30001E12131212729292929E8080701F19E0D1
:103A40003A809F1720E0E07030107D80C0C0E01BFE
:103A5000610D112040C080C3393A4901290E6938EF
:103A60007951091638F1300C01030F1FFCF8F814D6
:103A70000F02012CFEFFFF0729179403FFFF05111A
:103A8000FFFE01FE3808FFFF071F7CF04026693863
:103A9000080B18070F999F5DE9B15F2F1E380110C1
:103AA0005008080C0F0F0F0C087E11272F38301606
:103AB00049154F10382E17090697C9361920AC0939
:103AC0000F0F38080B160E0F0F0D0D0C0C0C0F0EF0
:103AD0003801FF01170D1EE0F03818018438F0E0BE
:103AE0000C1AC0F07030052E3870E0C078080F1F37
:103AF00098F0F07030017189118770F0F0981F0F05
:103B00007BFFFF8A19012B2010011B30E00B0910ED
:103B1000210128893229C209100BB953890C35FFBC
:103B2000FFC03F080A3380C0C0607F7F7FFF808076
:103B300087F0FE0E0303031A0C0109100B11670333
:103B400003070EFEF01B3F7FED1A8075ADE07F1F6F
:103B50000770000F28FFFE6060E01010101F1F1894
:103B600030F0C0870107070CFCFC3CFEFE06012C70
:103B7000F6FE0E078127FCFC0C0F07011FF8FC0E58
:103B8000060202B01B03010E41198969805D03031F
:103B9000020216042CC0FF3F3D070F1C18013B1CFE
:103BA0000FD2194C691239166C0E0F03175A0E18E2
:103BB0001A0C012C060602882D03070F0E0F79013F
:103BC0005C0E07038801107CA24A04F8680802030F
:103BD00004060708090C6910052002040608295E7E
:103BE000138C351B08A0041AA8041A94041AB004F4
:103BF0001A90041A980413A11D1B08D808133D2F0E
:103C00001B08B40813311C1B08F0081A7D081308A0
:103C100036140868101420FD251408491E1B08F9E5
:0C3C200004136D261A08990915B501C699
:04000005080000ED02
:00000001FF
