:020000040800F2
:10000000B0080020E90100084D42000891080008EE
:1000100049420008E10600081B4E000800000000ED
:10002000000000000000000000000000ED43000898
:10003000E506000800000000D54200080145000860
:10004000030200080302000803020008030200087C
:10005000030200080302000803020008030200086C
:10006000030200080302000803020008030200085C
:10007000030200080302000803020008030200084C
:10008000030200080302000803020008030200083C
:10009000030200080302000803020008030200082C
:1000A000030200080302000803020008030200081C
:1000B000A5470008030200084149000803020008A0
:1000C00003020008030200080302000803020008FC
:1000D00003020008F94B00080302000803020008AD
:1000E00003020008030200080302000800F002F8FF
:1000F00000F06BF80AA090E8000C82448344AAF157
:100100000107DA4501D100F060F8AFF2090EBAE854
:100110000F0013F0010F18BFFB1A43F0010318473B
:10012000187D0000387D00000A444FF0000C10F8E4
:10013000013B13F0070408BF10F8014B1D1108BF65
:1001400010F8015B641E05D010F8016B641E01F805
:10015000016BF9D113F0080F1EBF10F8014BAD1C55
:100160000C1B09D16D1E58BF01F801CBFAD505E073
:1001700014F8016B01F8016B6D1EF9D59142D6D3CD
:10018000704700000023002400250026103A28BFF5
:1001900078C1FBD8520728BF30C148BF0B607047F9
:1001A000642900F09F80752900F09C80782900F078
:1001B000D580632900F02982732900F02E82002067
:1001C00070471FB51FBD10B510BD00F059FA11469C
:1001D000FFF7F7FF04F0A8FE00F077FA03B4FFF78B
:1001E000F2FF03BC04F022FE09488047094800479B
:1001F000FEE7FEE7FEE7FEE7FEE7FEE7FEE7FEE7D7
:10020000FEE7FEE704480549054A064B7047000033
:1002100005450008ED000008B0020020B0080020ED
:10022000B0040020B0040020704700000FB404495F
:1002300010B503AA029800F0F5F910BC5DF814FBA4
:100240002C00002070B5044685690068C10601D500
:10025000302600E02026C00707D070BDD4E9012178
:1002600030469047206A401C20626D1EF6D570BD56
:1002700070B5044685690078C00707D170BDD4E920
:10028000012120209047206A401C20626D1EF6D577
:1002900070BD70B50C460546012A05D02878800649
:1002A00000D5EA69002302E0012305E05B1C9342CC
:1002B00002D2E05C0028F9D1A869E618C01AA8614A
:1002C000286A184428622846FFF7BCFF04E0D5E9F5
:1002D000012114F8010B9047B442F8D32846FFF7E8
:1002E000C7FF70BD2DE9F04106460024106875294E
:1002F000314616A510D0AFF30080002802DA404244
:1003000013A507E031688A0701D512A502E0490765
:1003100004D511A5012401E0AFF3008000210A22D9
:1003200006F1240709E0B0FBF2FCB0FBF2F302FB9C
:100330001C00303078541846491C0028F3D123465D
:100340002A463046BDE8F04100F0FCB8000000004D
:100350002D0000002B0000002000000070B50446B6
:100360000D4621461068AFF300802188090502D5AB
:100370000F4A7A4402E00E4A7A440E32002104F118
:10038000240305E000F00F060009965D5E54491C49
:100390000028F7D120780023000704D5702D02D063
:1003A00009B1022311322046BDE8704000F0CAB8FE
:1003B000F27900002DE9F05F894604464FF0000A0B
:1003C000DFF874B1FB44C0F820A02046E1688847FC
:1003D000002874D0252806D0D4E901219047206A4E
:1003E000401C2062F1E700265F462046E16888470E
:1003F0002028054607DB312D05D2781910F8200C8E
:1004000008B10643F1E7B00701D526F00406C4F8A9
:100410001CA00027C4F818A02A2D09D0284604F0F3
:10042000FEFC38B304EB8708303DC8F8185019E0DB
:1004300059F8041B204604EB87029161E168884764
:10044000012F054618D1E069002820DA26F02006A1
:100450001DE0D8F8180000EB800005EB40003038B4
:10046000C8F818002046E1688847054604F0D7FC24
:100470000028EED1012F0AD02E2D08D12046E168A8
:1004800088477F1C0546022F46F02006C4DBA06982
:10049000002803DA404246F00106A061F00701D0CF
:1004A00026F010066C2D0BD0682D09D04C2D39D0BC
:1004B0006A2D35D0742D35D07A2D33D016E038E042
:1004C000E1682F4620468847B842054609D16C2F7F
:1004D00026D04FF48060E1680643204688470546F1
:1004E00004E06C2F1AD04FF4807006430DB3A5F1D1
:1004F0004100192802D8203546F400664A462946AC
:10050000204626604E46FFF74BFE80B101280BD0F7
:10051000F61D26F0070000F1080956E74020E4E741
:100520008020D8E70020D6E706F104094DE72846E9
:1005300052E7206ABDE8F09FC87900007047704715
:10054000704770472DE9F0470D469946924604469C
:1005500000F124080168880604D5E06921F0100143
:10056000216000E00120A84201DD471B00E00027D8
:10057000A1697A1902EB0900081AA0612078C00667
:1005800002D42046FFF75EFE002608E0D4E90121F0
:100590001AF806009047206A401C761C20624E45DF
:1005A000F4DB2078C0060AD52046FFF74BFE06E0B4
:1005B000D4E9012130209047206A401C2062381E77
:1005C000A7F10107F4DC07E0D4E9012118F80500E0
:1005D0009047206A401C2062281EA5F10105F3DC2B
:1005E0002046FFF745FE2078000602D50220BDE830
:1005F000F0870120FBE710B5436913B1AFF300802A
:1006000001E0FFF746FE012010BD127800F1240141
:100610000A7000224A700122EDE711684FF0FF32A4
:10062000E9E70000074B70B50D467B4400F011F878
:100630000446284600F020F810B14FF0FF3070BD9E
:10064000204670BDDF48000001694A1C026108783D
:10065000704700B58FB0CDE9013100210591054902
:100660007944CDE9031011466846FFF7A3FE0FB0A9
:1006700000BD0000E5FFFFFF007B00F08000704739
:10068000754600F029F8AE4605006946534620F04D
:100690000700854618B020B5FFF7B4FDBDE820403F
:1006A0004FF000064FF000074FF000084FF0000B2E
:1006B00021F00701AC46ACE8C009ACE8C009ACE8E1
:1006C000C009ACE8C0098D4670470446AFF300800E
:1006D0002046FFF783FD0000004870474C020020D1
:1006E00000BFFEE770472DE9F041024600250026D5
:1006F000002000230024002791F803C00CF00F0510
:1007000091F803C00CF0100CBCF1000F03D091F86D
:1007100002C04CEA050591F800C0BCF1000F31D0D1
:10072000146800202BE04FF0010C0CFA00F3B1F834
:1007300000C00CEA03069E4220D183004FF00F0C4C
:100740000CFA03F7BC4305FA03FC4CEA040491F8E5
:1007500003C0BCF1280F06D14FF0010C0CFA00FCCD
:10076000C2F814C00AE091F803C0BCF1480F05D1EB
:100770004FF0010C0CFA00FCC2F810C0401C082815
:10078000D1D31460B1F800C0BCF1FF0F34DD546860
:1007900000202EE000F1080C4FF0010808FA0CF3DD
:1007A000B1F800C00CEA03069E4221D183004FF04D
:1007B0000F0C0CFA03F7BC4305FA03FC4CEA0404E3
:1007C00091F803C0BCF1280F05D100F1080C08FA1C
:1007D0000CF8C2F8148091F803C0BCF1480F07D19F
:1007E00000F1080C4FF0010808FA0CF8C2F810806C
:1007F000401C0828CED35460BDE8F081F0B50A460D
:10080000002300240021002500F00046B6F1004F2F
:1008100002D11D4EF16901E01B4E7168C0F3034522
:1008200083B200F44016B6F5401F08D121F0706184
:10083000154E766826F07066134F7E6012E000F465
:100840008016B6F5801F06D1032606FA05F4A143EB
:1008500041F0706106E0460D360103FA06F6B14339
:1008600041F0706122B1460D360103FA06F63143BC
:1008700000F00046B6F1004F02D1034EF16101E0F5
:10088000014E7160F0BD0000000001400161704741
:1008900000BFFEE700B589B00121084603F01CFD4A
:1008A0000121042003F028FD0220ADF820002820BB
:1008B0008DF8230003208DF8220008A92248FFF7B5
:1008C00012FF02212048FFF7E1FF42F21070ADF85D
:1008D00018004720ADF814000020ADF81A00ADF85C
:1008E000160005A94FF0804004F006F90420ADF889
:1008F00008000020ADF80A000120ADF80C0000202F
:10090000ADF80E000320ADF8100002A94FF08040B2
:1009100004F058F80121880704F033F81C208DF802
:10092000040001208DF8050003208DF80600012049
:100930008DF8070001A803F08BFC01220521880730
:1009400004F096F809B000BD0008014010B5002081
:10095000154B1B7803F040032BB3144B1B68190E87
:10096000124B1B68C3F30742D343DBB28B420BD15C
:1009700051B90E4B1B88C3F307210C4B1A78D34394
:10098000DBB28B4200D1084620B1074B1B7803F045
:10099000800343B9044B1B7823F04003024C2370BF
:1009A0000023034C237010BD380000203C000020C1
:1009B0004000002070B5044600260E480588408897
:1009C00045430021084603F053F903F0F5FB00BF4F
:1009D0000DE04FF480700849086140004861074805
:1009E000046080204861086180000861761CAE4286
:1009F000EFD370BD3C020020001001400C0C014000
:100A000010B5044649488471002C45D1F02047496F
:100A100008804FF4A07048800846808845F2105145
:100A2000884210D14FF43050404908814FF428508B
:100A300048814FF42C5088814FF4F07008804FF4B7
:100A4000487048801AE03948808841F6631188422E
:100A50000DD12C20354908812B2048812A208881FE
:100A60004FF4F07008804FF44870488006E02C2066
:100A70002E4908812A2048812B2088812B48808894
:100A800045F2103188424CD14FF4A07027490880BC
:100A90004FF4F070488044E04FF4A0702349088080
:100AA000F02048800846808845F21051884210D1D5
:100AB0004FF430501D4908814FF4285048814FF4BD
:100AC0002C5088814FF4487008804FF4F0704880B3
:100AD0001AE01648808841F6631188420DD12C2017
:100AE000124908812A2048812B2088814FF44870C0
:100AF00008804FF4F070488006E02C200B490881F4
:100B00002A2048812B2088810848808845F21031AE
:100B1000884206D14FF4F070044908804FF4A07069
:100B20004880002002F0D4FE10BD00003C020020EE
:100B300030B503460C4615469B48808845F2105157
:100B4000884250D19849488903F024FB4FF48070C3
:100B50009649086140004861181295490860802054
:100B6000924948610861800008618F494989491CA0
:100B700088B203F00FFB4FF480708C49086140008D
:100B80004861D8B28A490860802088494861086174
:100B9000800008618449888903F0FCFA4FF4807072
:100BA0008249086140004861201281490860802024
:100BB0007E4948610861800008617B498989491C38
:100BC00088B203F0E7FA4FF480707849086140007A
:100BD0004861E0B276490860802074494861086144
:100BE00080000861C3E07048808841F66311884244
:100BF0007DD16D48807920B96B480088401EC01AAD
:100C000083B26949488903F0C5FA4FF48070674997
:100C100008614000486118126549086080206349F6
:100C20004861086180000861401008614000486127
:100C3000D8B25F49086080205C4948610861800043
:100C40000861401008614000486118125849086066
:100C500080205649486108618000086140100861A1
:100C600040004861D8B25249086080204F4948612D
:100C70000861800008614C49888903F08BFA4FF4C1
:100C800080704A4908614000486120124849086064
:100C90008020464948610861800008614010086171
:100CA00040004861E0B24249086080203F49486105
:100CB000086180000861401008614000486120120E
:100CC0003B4908608020394948610861800008611B
:100CD0004010086140004861E0B23549086080205A
:100CE0003249486108618000086140E0FFE72E4911
:100CF000488903F04FFA4FF480702C490861400096
:100D0000486118122A490860802028494861086112
:100D1000800008614010086140004861D8B2244951
:100D200008608020214948610861800008611E49EF
:100D3000888903F02FFA4FF480701C490861400045
:100D4000486120121A4908608020184948610861EA
:100D5000800008614010086140004861E0B2144919
:100D600008608020114948610861800008614FF4E3
:100D700080700E494861400048610B4800890C4969
:100D800008608020094948610861800008614010BE
:100D9000086140004861064805608020486108619C
:100DA0008000086130BD00003C02002000100140BE
:100DB0000C0C01402DE9F04F05460E4617469846AB
:100DC000DDF824A04FF0000B781B401C1FFA80FBBD
:100DD00034461EE02146284602F04AFF03F0ECF9B3
:100DE0004FF0000911E04FF480700C490861400099
:100DF00048610B48C0F800A080204861086180006D
:100E0000086109F101001FFA80F9D945EBDB601C8C
:100E100084B24445DEDDBDE8F08F000000100140E3
:100E20000C0C014008B50121192003F065FA0121DD
:100E3000FE48FFF7E3FC4FF4F860ADF80000102027
:100E40008DF8030003208DF802006946F848FFF78B
:100E50004AFC4FF4F861F648FFF718FD4FF6FF70B3
:100E6000ADF800006946F348FFF73DFC4FF6FF710F
:100E7000F048FFF70BFD322003F0FCFF01210020BA
:100E800003F0A2F9322003F0F5FFD32003F082F93A
:100E900002F084FCE849888002F080FCE649888002
:100EA00002F07CFCE4498880084680884FF6FF7198
:100EB00001EA0020E049888002F070FCDE49898860
:100EC0000843DD4988800846808849F241318842DC
:100ED0007DD0042003F05EF902F060FCD6498880E2
:100EE00002F05CFCD449888002F058FCD24988802A
:100EF000084680884FF6FF7101EA0020CE498880BD
:100F000002F04CFCCC4989880843CB4988800846CC
:100F1000808848F25251884203D147F28970C6490D
:100F20008880C548808847F289718842D0D0D42013
:100F300003F030F902F032FCBF49888002F02EFC49
:100F4000BD49888002F02AFCBB4988800846808819
:100F50004FF6FF7101EA0020B749888002F01EFCBD
:100F6000B54989880843B44988800846808845F295
:100F70001031884262D055214FF4704003F024F9BB
:100F8000AA214FF2010003F01FF952214FF2020093
:100F900003F01AF908214FF2030003F015F90121BB
:100FA0004FF2040003F010F94FF4454003F0F2F85B
:100FB00002F0F4FBA0498880084680884FF6FF7154
:100FC00001EA00209C4988804CF2015000E035E0A5
:100FD00003F0E0F802F0E2FB97498988084396495C
:100FE0008880052003F046FF9348808845F2105121
:100FF000884223D0A12003F0CDF802F0CFFB8E4928
:10100000888002F0CBFB8C498880084680884FF6A8
:10101000FF7101EA00208849888002F0BFFB864901
:1010200089880843844988800846808845F2617130
:10103000884203D141F663107F4988807E488188C9
:101040007EA0FFF7F3F87C48808849F2413188425E
:101050007ED1CF2003F09EF8002003F089F8C12054
:1010600003F086F8302003F083F8ED2003F092F8C7
:10107000642003F07DF8032003F07AF8122003F0D7
:1010800077F8812003F074F8E82003F083F88520D6
:1010900003F06EF8102003F06BF87A2003F068F884
:1010A000CB2003F077F8392003F062F82C2003F00E
:1010B0005FF8002003F05CF8342003F059F80220B8
:1010C00003F056F8F72003F065F8202003F050F8FD
:1010D000EA2003F05FF8002003F04AF8002003F054
:1010E00047F8C02003F056F81B2003F041F8C12058
:1010F00003F050F8012003F03BF8C52003F04AF854
:10110000302003F035F8302003F032F8C72003F028
:1011100041F8B72003F02CF8362003F03BF84820C4
:1011200003F026F83A2003F035F8552003F020F8B4
:10113000B12003F02FF8002003F01AF81A2003F072
:1011400017F8B62003F026F80A2003F011F800E0A3
:10115000A8E0A22003F00CF8F22003F01BF8002016
:1011600003F006F8262003F015F8012003F000F83C
:10117000E02003F00FF80F2002F0FAFF2A2002F01F
:10118000F7FF282002F0F4FF082002F0F1FF0E2004
:1011900002F0EEFF082002F0EBFF542002F0E8FF1F
:1011A000A92002F0E5FF432002F0E2FF0A2002F04E
:1011B000DFFF0F2002F0DCFF002002F0D9FF00204B
:1011C00002F0D6FF002002F0D3FF002002F0D0FF93
:1011D000E12002F0DFFF002002F0CAFF152002F03C
:1011E000C7FF172002F0C4FF072002F0C1FF112043
:1011F00002F0BEFF062002F0BBFF2B2002F0B8FF7A
:10120000562002F0B5FF3C2002F0B2FF052002F0AC
:10121000AFFF102002F0ACFF0F2002F0A9FF3F202B
:1012200002F0A6FF3F2002F0A3FF0FE00002300013
:1012300000100140000C01403C020020204C4344BF
:101240002049443A25780D0A000000000F2002F0E2
:101250008FFF2B2002F09EFF002002F089FF00206C
:1012600002F086FF012002F083FF3F2002F080FFA2
:101270002A2002F08FFF002002F07AFF002002F007
:1012800077FF002002F074FFEF2002F071FF1120C1
:1012900002F080FF782003F0EDFD292002F07AFFB4
:1012A00002F05FBAFE48808847F2897188427CD19B
:1012B000112002F06FFF782003F0DCFD362002F0F1
:1012C00069FF002002F054FF3A2002F063FF05207E
:1012D00002F04EFFB22002F05DFF0C2002F048FF4A
:1012E0000C2002F045FF002002F042FF332002F004
:1012F0003FFF332002F03CFFB72002F04BFF3520C8
:1013000002F036FFBB2002F045FF322002F030FF32
:10131000C02002F03FFF0C2002F02AFFC22002F0A2
:1013200039FF012002F024FFC32002F033FF102018
:1013300002F01EFFC42002F02DFF202002F018FF53
:10134000C62002F027FF0F2002F012FFD02002F08B
:1013500021FFA42002F00CFFA12002F009FFE020F1
:1013600002F018FFD02002F003FF002002F000FF7F
:10137000022002F0FDFE072002F0FAFE0A2002F031
:10138000F7FE282002F0F4FE322002F0F1FE4420A5
:1013900002F0EEFE422002F0EBFE062002F0E8FE34
:1013A0000E2002F0E5FE122000E056E002F0E0FE22
:1013B000142002F0DDFE172002F0DAFEE12002F038
:1013C000E9FED02002F0D4FE002002F0D1FE02207F
:1013D00002F0CEFE072002F0CBFE0A2002F0C8FE8B
:1013E000282002F0C5FE312002F0C2FE542002F097
:1013F000BFFE472002F0BCFE0E2002F0B9FE1C200A
:1014000002F0B6FE172002F0B3FE1B2002F0B0FE81
:101410001E2002F0ADFE2A2002F0BCFE002002F0E9
:10142000A7FE002002F0A4FE002002F0A1FEEF20A3
:1014300002F09EFE2B2002F0ADFE002002F098FE8E
:10144000002002F095FE012002F092FE3F2002F003
:101450008FFE292002F09EFE22E79148808845F207
:101460001031884240F07C87ED2002F093FE01208D
:1014700002F07EFEFE2002F07BFEEE2002F08AFEED
:10148000DE2002F075FE212002F072FEF12002F053
:1014900081FE012002F06CFEDF2002F07BFE1020B6
:1014A00002F066FEC42002F075FE8F2002F060FE9E
:1014B000C62002F06FFE002002F05AFEE22002F089
:1014C00057FEE22002F054FEE22002F051FEBF205F
:1014D00002F060FEAA2002F04BFEB02002F05AFE9D
:1014E0000D2002F045FE002002F042FE0D2002F029
:1014F0003FFE002002F03CFE112002F039FE0020E9
:1015000002F036FE192002F033FE002002F030FE19
:10151000212002F02DFE002002F02AFE2D2002F0F4
:1015200027FE002002F024FE3D2002F021FE0020D4
:1015300002F01EFE5D2002F01BFE002002F018FEED
:101540005D2002F015FE002002F012FEB12002F034
:1015500021FE802002F00CFE002002F009FE8B200C
:1015600002F006FE002002F003FE962002F000FECC
:10157000002002F0FDFDB22002F00CFE002002F07F
:10158000F7FD002002F0F4FD022002F0F1FD002042
:1015900002F0EEFD032002F0EBFD002002F0E8FD7A
:1015A000B32002F0F7FD002002F0E2FD002002F07F
:1015B000DFFD002002F0DCFD002002F0D9FD00205C
:1015C00002F0D6FD002002F0D3FD002002F0D0FD95
:1015D000002002F0CDFD002002F0CAFD002002F044
:1015E000C7FD002002F0C4FD002002F0C1FD002074
:1015F00002F0BEFD002002F0BBFD002002F0B8FDAD
:10160000002002F0B5FD002002F0B2FD002002F043
:10161000AFFD002002F0ACFD002002F0A9FD00208B
:1016200002F0A6FD002002F0A3FD002002F0A0FDC4
:10163000002002F09DFDB42002F0ACFD8B2002F0F2
:1016400097FD002002F094FD962002F091FD00200D
:1016500002F08EFDA12002F08BFD002002F088FD3B
:10166000B52002F097FD022002F082FD002002F07A
:101670007FFD032002F07CFD002002F079FD0420B4
:1016800002F076FD002002F073FDB62002F082FD2C
:10169000002002F06DFD002002F06AFDB72001E09D
:1016A0003C02002002F076FD002002F061FD0020E7
:1016B00002F05EFD3F2002F05BFD002002F058FDCD
:1016C0005E2002F055FD002002F052FD642002F081
:1016D0004FFD002002F04CFD8C2002F049FD00205F
:1016E00002F046FDAC2002F043FD002002F040FD78
:1016F000DC2002F03DFD002002F03AFD702002F0F7
:1017000037FD002002F034FD902002F031FD002072
:1017100002F02EFDEB2002F02BFD002002F028FD50
:10172000DC2002F025FD002002F022FDB82002F0AE
:1017300031FD002002F01CFD002002F019FD002008
:1017400002F016FD002002F013FD002002F010FD53
:10175000002002F00DFD002002F00AFD002002F042
:1017600007FDBA2002F016FD242002F001FD002042
:1017700002F0FEFC002002F0FBFC002002F0F8FC6E
:10178000C12002F007FD202002F0F2FC002002F050
:10179000EFFC542002F0ECFC002002F0E9FCFF20FA
:1017A00002F0E6FC002002F0E3FCC22002F0F2FCB2
:1017B0000A2002F0DDFC002002F0DAFC042002F036
:1017C000D7FC002002F0D4FCC32002F0E3FC3C2054
:1017D00002F0CEFC002002F0CBFC3A2002F0C8FC64
:1017E000002002F0C5FC392002F0C2FC002002F00B
:1017F000BFFC372002F0BCFC002002F0B9FC3C200A
:1018000002F0B6FC002002F0B3FC362002F0B0FC7F
:10181000002002F0ADFC322002F0AAFC002002F011
:10182000A7FC2F2002F0A4FC002002F0A1FC2C2039
:1018300002F09EFC002002F09BFC292002F098FCA4
:10184000002002F095FC262002F092FC002002F01D
:101850008FFC242002F08CFC002002F089FC242064
:1018600002F086FC002002F083FC232002F080FCC2
:10187000002002F07DFC3C2002F07AFC002002F007
:1018800077FC362002F074FC002002F071FC32205C
:1018900002F06EFC002002F06BFC2F2002F068FCCE
:1018A000002002F065FC2C2002F062FC002002F017
:1018B0005FFC292002F05CFC002002F059FC26208D
:1018C00002F056FC002002F053FC242002F050FCF1
:1018D000002002F04DFC242002F04AFC002002F01F
:1018E00047FC232002F044FC002002F041FCC4200D
:1018F00002F050FC622002F03BFC002002F038FCB9
:10190000052002F035FC002002F032FC842002F0B9
:101910002FFC002002F02CFCF02002F029FC00201B
:1019200002F026FC182002F023FC002002F020FC2C
:10193000A42002F01DFC002002F01AFC182002F086
:1019400017FC002002F014FC502002F011FC0020D3
:1019500002F00EFC0C2002F00BFC002002F008FC50
:10196000172002F005FC002002F002FC952002F096
:10197000FFFB002002F0FCFBF32002F0F9FB00204B
:1019800002F0F6FBE62002F0F3FB002002F0F0FB91
:10199000C52002F0FFFB322002F0EAFB002002F03B
:1019A000E7FB442002F0E4FB002002F0E1FB6520AD
:1019B00002F0DEFB002002F0DBFB762002F0D8FB19
:1019C000002002F0D5FB882002F0D2FB002002F0BC
:1019D000CFFBC62002F0DEFB202002F0C9FB002076
:1019E00002F0C6FB172002F0C3FB002002F0C0FB90
:1019F000012002F0BDFB002002F0BAFBC72002F07C
:101A0000C9FB002002F0B4FB002002F0B1FB002073
:101A100002F0AEFB002002F0ABFBC82002F0BAFBE4
:101A2000002002F0A5FB002002F0A2FB002002F043
:101A30009FFB002002F09CFBC92002F0ABFB0020C2
:101A400002F096FB002002F093FB002002F090FBD6
:101A5000002002F08DFB002002F08AFB002002F043
:101A600087FB002002F084FB002002F081FB0020B5
:101A700002F07EFB002002F07BFB002002F078FBEE
:101A8000002002F075FB002002F072FB002002F043
:101A90006FFB002002F06CFB002002F069FBE020ED
:101AA00002F078FB162002F063FB002002F060FBDE
:101AB0001C2002F05DFB002002F05AFB212002F006
:101AC00057FB002002F054FB362002F051FB0020AF
:101AD00002F04EFB462002F04BFB002002F048FBD8
:101AE000522002F045FB002002F042FB642002F08D
:101AF0003FFB002002F03CFB7A2002F039FB002083
:101B000002F036FB8B2002F033FB002002F030FBAA
:101B1000992002F02DFB002002F02AFBA82002F001
:101B200027FB002002F024FBB92002F021FB00205B
:101B300002F01EFBC42002F01BFB002002F018FB89
:101B4000CA2002F015FB002002F012FBD22002F0A6
:101B50000FFB002002F00CFBD92002F009FB002053
:101B600002F006FBE02002F003FB002002F000FB85
:101B7000F32002F0FDFA002002F0FAFAE12002F070
:101B800009FB162002F0F4FA002002F0F1FA1C2002
:101B900002F0EEFA002002F0EBFA222002F0E8FA5E
:101BA000002002F0E5FA362002F0E2FA002002F00E
:101BB000DFFA452002F0DCFA002002F0D9FA5220C8
:101BC00002F0D6FA002002F0D3FA642002F0D0FA34
:101BD000002002F0CDFA7A2002F0CAFA002002F0CA
:101BE000C7FA8B2002F0C4FA002002F0C1FA992053
:101BF00002F0BEFA002002F0BBFAA82002F0B8FA08
:101C0000002002F0B5FAB92002F0B2FA002002F08A
:101C1000AFFAC42002F0ACFA002002F0A9FACA2000
:101C200002F0A6FA002002F0A3FAD22002F0A0FAF5
:101C3000002002F09DFAD82002F09AFA002002F06B
:101C400097FAE02002F094FA002002F091FAF320D3
:101C500002F08EFA002002F08BFAE22002F09AFAEB
:101C6000052002F085FA002002F082FA0B2002F033
:101C70007FFA002002F07CFA1B2002F079FA0020A3
:101C800002F076FA342002F073FA002002F070FAC3
:101C9000442002F06DFA002002F06AFA4F2002F0B0
:101CA00067FA002002F064FA612002F061FA002075
:101CB00002F05EFA792002F05BFA002002F058FA96
:101CC000882002F055FA002002F052FA972002F024
:101CD0004FFA002002F04CFAA62002F049FA002048
:101CE00002F046FAB72002F043FA002002F040FA70
:101CF000C22002F03DFA002002F03AFAC72002F0BA
:101D000037FA002002F034FAD12002F031FA002034
:101D100002F02EFAD62002F02BFA002002F028FA68
:101D2000DD2002F025FA002002F022FAF32002F072
:101D30001FFA002002F01CFAE32002F02BFA052023
:101D400002F016FA002002F013FA0A2002F010FA4C
:101D5000002002F00DFA1C2002F00AFA002002F026
:101D600007FA332002F004FA002002F001FA4420BE
:101D700002F0FEF9002002F0FBF9502002F0F8F921
:101D8000002002F0F5F9622002F0F2F9002002F0E2
:101D9000EFF9782002F0ECF9002002F0E9F9882050
:101DA00002F0E6F9002002F0E3F9972002F0E0F9F2
:101DB000002002F0DDF9A62002F0DAF9002002F09E
:101DC000D7F9B72002F0D4F9002002F0D1F9C220EF
:101DD00002F0CEF9002002F0CBF9C72002F0C8F9DA
:101DE000002002F0C5F9D12002F0C2F9002002F073
:101DF000BFF9D52002F0BCF9002002F0B9F9DD20CE
:101E000002F0B6F9002002F0B3F9F32002F0B0F9C5
:101E1000002002F0ADF9E42002F0BCF9012002F04C
:101E2000A7F9002002F0A4F9012002F0A1F9002096
:101E300002F09EF9022002F09BF9002002F098F9CE
:101E40002A2002F095F9002002F092F93C2002F0DD
:101E50008FF9002002F08CF94B2002F089F9002064
:101E600002F086F95D2002F083F9002002F080F98B
:101E7000742002F07DF9002002F07AF9842002F04B
:101E800077F9002002F074F9932002F071F9002034
:101E900002F06EF9A22002F06BF9002002F068F95E
:101EA000B32002F065F9002002F062F9BE2002F0D2
:101EB0005FF9002002F05CF9C42002F059F900201B
:101EC00002F056F9CD2002F053F9002002F050F94B
:101ED000D32002F04DF9002002F04AF9DD2002F093
:101EE00047F9002002F044F9F32002F041F9002004
:101EF00002F03EF9E52002F04DF9002002F038F939
:101F0000002002F035F9002002F032F9002002F042
:101F10002FF9022002F02CF9002002F029F92920E3
:101F200002F026F9002002F023F93C2002F020F90B
:101F3000002002F01DF94B2002F01AF9002002F0F7
:101F400017F95D2002F014F9002002F011F9742055
:101F500002F00EF9002002F00BF9842002F008F9DB
:101F6000002002F005F9932002F002F9002002F0AF
:101F7000FFF8A22002F0FCF8002002F0F9F8B320EC
:101F800002F0F6F8002002F0F3F8BE2002F0F0F8BC
:101F9000002002F0EDF8C42002F0EAF8002002F080
:101FA000E7F8CD2002F0E4F8002002F0E1F8D320B9
:101FB00002F0DEF8002002F0DBF8DC2002F0D8F8B6
:101FC000002002F0D5F8F32002F0D2F8002002F051
:101FD000CFF8E62002F0DEF8112002F0C9F8002068
:101FE00002F0C6F8342002F0C3F8002002F0C0F876
:101FF000562002F0BDF8002002F0BAF8762002F078
:10200000B7F8002002F0B4F8772002F0B1F8002011
:1020100002F0AEF8662002F0ABF8002002F0A8F85B
:10202000882002F0A5F8002002F0A2F8992002F022
:102030009FF8002002F09CF8BB2002F099F80020E5
:1020400002F096F8992002F093F8002002F090F840
:10205000662002F08DF8002002F08AF8552002F088
:1020600087F8002002F084F8552002F081F8002063
:1020700002F07EF8452002F07BF8002002F078F8AC
:10208000432002F075F8002002F072F8442002F0BC
:102090006FF8002002F06CF8E72002F07BF83220A5
:1020A00002F066F8002002F063F8552002F060F8B4
:1020B000002002F05DF8762002F05AF8002002F0CD
:1020C00057F8662002F054F8002002F051F867201B
:1020D00002F04EF8002002F04BF8672002F048F8BA
:1020E000002002F045F8872002F042F8002002F0BC
:1020F0003FF8992002F03CF8002002F039F8BB20AC
:1021000002F036F8002002F033F8992002F030F89F
:10211000002002F02DF8772002F02AF8002002F0CB
:1021200027F8442002F024F8002002F021F856207D
:1021300002F01EF8002002F01BF8232002F018F82D
:10214000002002F015F8332002F012F8002002F00F
:102150000FF8452002F00CF8002002F009F8E82002
:1021600002F018F8002002F003F8002002F000F856
:10217000992001F0FDFF002001F0FAFF872001F017
:10218000F7FF002001F0F4FF882001F0F1FF0020AC
:1021900001F0EEFF772001F0EBFF002001F0E8FFF7
:1021A000662001F0E5FF002001F0E2FF882001F049
:1021B000DFFF002001F0DCFFAA2001F0D9FF0020A2
:1021C00001F0D6FFBB2001F0D3FF002001F0D0FFCB
:1021D000992001F0CDFF002001F0CAFF662001F038
:1021E000C7FF002001F0C4FF552001F0C1FF00200F
:1021F00001F0BEFF552001F0BBFF002001F0B8FF49
:10220000442001F0B5FF002001F0B2FF442001F0AE
:10221000AFFF002001F0ACFF552001F0A9FF002026
:1022200001F0A6FFE92001F0B5FFAA2001F0A0FF10
:10223000002001F09DFF002001F09AFF002001F036
:1022400097FF002001F0A6FFAA2001F091FFCF2008
:1022500001F0A0FF002001F08BFF002001F088FFBB
:10226000002001F085FF002001F082FF002001F036
:102270007FFF002001F07CFF002001F079FF0020AB
:1022800001F076FF002001F073FF002001F070FFE5
:10229000002001F06DFF002001F06AFF002001F036
:1022A00067FF002001F064FF002001F061FF0020C3
:1022B00001F05EFF002001F05BFFF02001F06AFFFB
:1022C000002001F055FF502001F052FF002001F0E6
:1022D0004FFF002001F04CFF002001F049FFF320E8
:1022E00001F058FF002001F043FFF92001F052FFF8
:1022F000062001F03DFF102001F03AFF292001F0F7
:1023000037FF002001F034FF3A2001F043FF552051
:1023100001F02EFF112001F03DFF642002F0AAFD24
:10232000292001F037FF352001F034FF002001F0B3
:102330001FFF512001F02EFFFF2001F019FF532055
:1023400001F028FF2C2001F013FF552001F022FF9F
:10235000822001F00DFF2C2001F01CFF01F001BADA
:10236000FE48808845F2105188427DD155214FF4B6
:10237000704001F029FFAA214FF2010001F024FF73
:1023800052214FF2020001F01FFF08214FF203001B
:1023900001F01AFF01214FF2040001F015FF0D2199
:1023A0004FF4304001F010FF0D214BF2010001F01D
:1023B0000BFF0D214BF2020001F006FF34214FF418
:1023C000364001F001FF34214BF2016001F0FCFEC8
:1023D00034214BF2026001F0F7FE0D214FF4314041
:1023E00001F0F2FE0D214BF2011001F0EDFE0D2186
:1023F0004BF2021001F0E8FE34214FF4374001F0B7
:10240000E3FE34214BF2017001F0DEFE34214BF289
:10241000027001F0D9FE00214FF4324001F0D4FEE9
:1024200000214BF2012001F0CFFE00214BF20220EF
:1024300001F0CAFE24214FF4384001F0C5FE2421EA
:102440004BF6010001F0C0FE24214BF6020001F022
:10245000BBFE01214FF43F4001F0B6FE0F214FF4C7
:10246000334001F0B1FE00E0FDE30F214BF20130FB
:1024700001F0AAFE0F214BF2023001F0A5FE34213B
:102480004FF4394001F0A0FE34214BF6011001F069
:102490009BFE34214BF6021001F096FE08214FF40A
:1024A000354001F091FE08214BF2015001F08CFE05
:1024B00008214BF2025001F087FE03214FF4424005
:1024C00001F082FE24214FF43A4001F07DFE2421E8
:1024D0004BF6012001F078FE24214BF6022001F09A
:1024E00073FE00214FF43C4001F06EFE78214BF664
:1024F000014001F069FE00214BF6024001F064FE4C
:1025000000214FF43D4001F05FFE78214BF6015071
:1025100001F05AFE00214BF6025001F055FE002159
:102520004FF43E4001F050FE64214BF6016001F093
:102530004BFE00214FF4514001F046FE33214DF295
:10254000011001F041FE00214DF2021001F03CFEAD
:1025500034214DF2031001F037FE00214DF204103A
:1025600001F032FE3A214DF2051001F02DFE00215E
:102570004DF2061001F028FE4A214DF2071001F03D
:1025800023FE00214DF2081001F01EFE5C214DF2E9
:10259000091001F019FE00214DF20A1001F014FE9D
:1025A00081214DF20B1001F00FFE00214DF20C10B5
:1025B00001F00AFEA6214DF20D1001F005FE0021EA
:1025C0004DF20E1001F000FEE5214DF20F1001F06A
:1025D000FBFD01214DF2101001F0F6FD13214DF22B
:1025E000111001F0F1FD01214DF2121001F0ECFD8E
:1025F00054214DF2131001F0E7FD01214DF21410AA
:1026000001F0E2FD82214DF2151001F0DDFD012106
:102610004DF2161001F0D8FDCA214DF2171001F04D
:10262000D3FD02214DF2181001F0CEFD00214DF234
:10263000191001F0C9FD02214DF21A1001F0C4FD7C
:1026400001214DF21B1001F0BFFD02214DF21C10C3
:1026500001F0BAFD34214DF21D1001F0B5FD02214B
:102660004DF21E1001F0B0FD67214DF21F1001F078
:10267000ABFD02214DF2201001F0A6FD84214DF2A8
:10268000211001F0A1FD02214DF2221001F09CFD6C
:10269000A4214DF2231001F097FD02214DF22410E8
:1026A00001F092FDB7214DF2251001F08DFD0221C0
:1026B0004DF2261001F088FDCF214DF2271001F0D8
:1026C00083FD02214DF2281001F07EFDDE214DF246
:1026D000291001F079FD02214DF22A1001F074FD5C
:1026E000F2214DF22B1001F06FFD02214DF22C1062
:1026F00001F06AFDFE214DF22D1001F065FD032170
:102700004DF22E1001F060FD10214DF22F1001F05E
:102710005BFD03214DF2301001F056FD33214DF2E7
:10272000311001F051FD03214DF2321001F04CFD4A
:102730006D214DF2331001F047FD00214FF452405E
:1027400001F042FD33214DF2012001F03DFD002159
:102750004DF2022001F038FD342101E03C0200205E
:102760004DF2032001F030FD00214DF2042001F074
:102770002BFD3A214DF2052001F026FD00214DF2FE
:10278000062001F021FD4A214DF2072001F01CFD39
:1027900000214DF2082001F017FD5C214DF20920C7
:1027A00001F012FD00214DF20A2001F00DFD812102
:1027B0004DF20B2001F008FD00214DF20C2001F03C
:1027C00003FDA6214DF20D2001F0FEFC00214DF28B
:1027D0000E2001F0F9FCE5214DF20F2001F0F4FC90
:1027E00001214DF2102001F0EFFC13214DF21120D8
:1027F00001F0EAFC01214DF2122001F0E5FC542128
:102800004DF2132001F0E0FC01214DF2142001F003
:10281000DBFC82214DF2152001F0D6FC01214DF2A6
:10282000162001F0D1FCCA214DF2172001F0CCFC9A
:1028300002214DF2182001F0C7FC00214DF21920B1
:1028400001F0C2FC02214DF21A2001F0BDFC012171
:102850004DF21B2001F0B8FC02214DF21C2001F0CA
:10286000B3FC34214DF21D2001F0AEFC02214DF2EB
:102870001E2001F0A9FC67214DF21F2001F0A4FCED
:1028800002214DF2202001F09FFC84214DF22120F5
:1028900001F09AFC02214DF2222001F095FCA421C6
:1028A0004DF2232001F090FC02214DF2242001F092
:1028B0008BFCB7214DF2252001F086FC02214DF260
:1028C000262001F081FCCF214DF2272001F07CFC75
:1028D00002214DF2282001F077FCDE214DF2292063
:1028E00001F072FC02214DF22A2001F06DFCF22170
:1028F0004DF22B2001F068FC02214DF22C2001F05A
:1029000063FCFE214DF22D2001F05EFC03214DF20F
:102910002E2001F059FC10214DF22F2001F054FC23
:1029200003214DF2302001F04FFC33214DF23120D4
:1029300001F04AFC03214DF2322001F045FC6D21EB
:102940004DF2332001F040FC00214FF4534001F0E0
:102950003BFC33214DF2013001F036FC00214DF2F9
:10296000023001F031FC34214DF2033001F02CFC37
:1029700000214DF2043001F027FC3A214DF20530E0
:1029800001F022FC00214DF2063001F01DFC4A212D
:102990004DF2073001F018FC00214DF2083001F033
:1029A00013FC5C214DF2093001F00EFC00214DF2C8
:1029B0000A3001F009FC81214DF20B3001F004FCDA
:1029C00000214DF20C3001F0FFFBA6214DF20D303D
:1029D00001F0FAFB00214DF20E3001F0F5FBE5218C
:1029E0004DF20F3001F0F0FB01214DF2103001F0FB
:1029F000EBFB13214DF2113001F0E6FB01214DF20A
:102A0000123001F0E1FB54214DF2133001F0DCFBF8
:102A100001214DF2143001F0D7FB82214DF2153027
:102A200001F0D2FB01214DF2163001F0CDFBCA219D
:102A30004DF2173001F0C8FB02214DF2183001F0C1
:102A4000C3FB00214DF2193001F0BEFB02214DF213
:102A50001A3001F0B9FB01214DF21B3001F0B4FB3B
:102A600002214DF21C3001F0AFFB34214DF21D303C
:102A700001F0AAFB02214DF21E3001F0A5FB6721F7
:102A80004DF21F3001F0A0FB02214DF2203001F089
:102A90009BFB84214DF2213001F096FB02214DF287
:102AA000223001F091FBA4214DF2233001F08CFB88
:102AB00002214DF2243001F087FBB7214DF2253081
:102AC00001F082FB02214DF2263001F07DFBCF2187
:102AD0004DF2273001F078FB02214DF2283001F051
:102AE00073FBDE214DF2293001F06EFB02214DF225
:102AF0002A3001F069FBF2214DF22B3001F064FB2A
:102B000002214DF22C3001F05FFBFE214DF22D3001
:102B100001F05AFB03214DF22E3001F055FB10213C
:102B20004DF22F3001F050FB03214DF2303001F017
:102B30004BFB33214DF2313001F046FB03214DF2C6
:102B4000323001F041FB6D214DF2333001F03CFB9E
:102B500000214FF4544001F037FB33214DF2014086
:102B600001F032FB00214DF2024001F02DFB342137
:102B70004DF2034001F028FB00214DF2044001F02A
:102B800023FB3A214DF2054001F01EFB00214DF2DE
:102B9000064001F019FB4A214DF2074001F014FBF9
:102BA00000214DF2084001F00FFB5C214DF209407D
:102BB00001F00AFB00214DF20A4001F005FB8121E2
:102BC0004DF20B4001F000FB00214DF20C4001F0F2
:102BD000FBFAA6214DF20D4001F0F6FA00214DF26C
:102BE0000E4001F0F1FAE5214DF20F4001F0ECFA50
:102BF00001214DF2104001F0E7FA13214DF211408E
:102C000001F0E2FA01214DF2124001F0DDFA542107
:102C10004DF2134001F0D8FA01214DF2144001F0B9
:102C2000D3FA82214DF2154001F0CEFA01214DF286
:102C3000164001F0C9FACA214DF2174001F0C4FA5A
:102C400002214DF2184001F0BFFA00214DF2194067
:102C500001F0BAFA02214DF21A4001F0B5FA012151
:102C60004DF21B4000E005E301F0AEFA02214DF207
:102C70001C4001F0A9FA34214DF21D4001F0A4FAE4
:102C800002214DF21E4001F09FFA67214DF21F40D4
:102C900001F09AFA02214DF2204001F095FA8421C8
:102CA0004DF2214001F090FA02214DF2224001F054
:102CB0008BFAA4214DF2234001F086FA02214DF255
:102CC000244001F081FAB7214DF2254001F07CFA51
:102CD00002214DF2264001F077FACF214DF2274034
:102CE00001F072FA02214DF2284001F06DFADE2166
:102CF0004DF2294001F068FA02214DF22A4001F01C
:102D000063FAF2214DF22B4001F05EFA02214DF2FE
:102D10002C4001F059FAFE214DF22D4001F054FAF9
:102D200003214DF22E4001F04FFA10214DF22F40B9
:102D300001F04AFA03214DF2304001F045FA332107
:102D40004DF2314001F040FA03214DF2324001F0E2
:102D50003BFA6D214DF2334001F036FA00214FF479
:102D6000554001F031FA33214DF2015001F02CFAB7
:102D700000214DF2025001F027FA34214DF20350A8
:102D800001F022FA00214DF2045001F01DFA3A211F
:102D90004DF2055001F018FA00214DF2065001F0F5
:102DA00013FA4A214DF2075001F00EFA00214DF2BC
:102DB000085001F009FA5C214DF2095001F004FAC3
:102DC00000214DF20A5001F0FFF981214DF20B5024
:102DD00001F0FAF900214DF20C5001F0F5F9A621AD
:102DE0004DF20D5001F0F0F900214DF20E5001F0BE
:102DF000EBF9E5214DF20F5001F0E6F901214DF21A
:102E0000105001F0E1F913214DF2115001F0DCF9FD
:102E100001214DF2125001F0D7F954214DF2135017
:102E200001F0D2F901214DF2145001F0CDF98221C7
:102E30004DF2155001F0C8F901214DF2165001F084
:102E4000C3F9CA214DF2175001F0BEF902214DF22B
:102E5000185001F0B9F900214DF2195001F0B4F900
:102E600002214DF21A5001F0AFF901214DF21B5031
:102E700001F0AAF902214DF21C5001F0A5F934210C
:102E80004DF21D5001F0A0F902214DF21E5001F04B
:102E90009BF967214DF21F5001F096F902214DF286
:102EA000205001F091F984214DF2215001F08CF96C
:102EB00002214DF2225001F087F9A4214DF2235056
:102EC00001F082F902214DF2245001F07DF9B72181
:102ED0004DF2255001F078F902214DF2265001F013
:102EE00073F9CF214DF2275001F06EF902214DF216
:102EF000285001F069F9DE214DF2295001F064F902
:102F000002214DF22A5001F05FF9F2214DF22B50CF
:102F100001F05AF902214DF22C5001F055F9FE2131
:102F20004DF22D5001F050F903214DF22E5001F0D9
:102F30004BF910214DF22F5001F046F903214DF2CB
:102F4000305001F041F933214DF2315001F03CF99C
:102F500003214DF2325001F037F96D214DF233501B
:102F600001F032F900214FF4564001F02DF93321E0
:102F70004DF2016001F028F900214DF2026001F0EC
:102F800023F934214DF2036001F01EF900214DF2C6
:102F9000046001F019F93A214DF2056001F014F9CD
:102FA00000214DF2066001F00FF94A214DF2076051
:102FB00001F00AF900214DF2086001F005F95C21E9
:102FC0004DF2096001F000F900214DF20A6001F0B4
:102FD000FBF881214DF20B6001F0F6F800214DF273
:102FE0000C6001F0F1F8A6214DF20D6001F0ECF853
:102FF00000214DF20E6001F0E7F8E5214DF20F607F
:1030000001F0E2F801214DF2106001F0DDF813212A
:103010004DF2116001F0D8F801214DF2126001F07B
:10302000D3F854214DF2136001F0CEF801214DF296
:10303000146001F0C9F882214DF2156001F0C4F866
:1030400001214DF2166001F0BFF8CA214DF2176060
:1030500001F0BAF802214DF2186001F0B5F8002134
:103060004DF2196001F0B0F802214DF21A6001F042
:10307000ABF801214DF21B6001F0A6F802214DF2E0
:103080001C6001F0A1F834214DF21D6001F09CF8A4
:1030900002214DF21E6001F097F867214DF21F608A
:1030A00001F092F802214DF2206001F08DF88421A8
:1030B0004DF2216001F088F802214DF2226001F00A
:1030C00083F8A4214DF2236001F07EF802214DF235
:1030D000246001F079F8B7214DF2256001F074F811
:1030E00002214DF2266001F06FF8CF214DF22760EA
:1030F00001F06AF802214DF2286001F065F8DE2146
:103100004DF2296001F060F802214DF22A6001F0D1
:103110005BF8F2214DF22B6001F056F802214DF2DE
:103120002C6001F051F8FE214DF22D6001F04CF8B9
:1031300003214DF22E6001F047F810214DF22F606F
:1031400001F042F803214DF2306001F03DF83321E7
:103150004DF2316001F038F803214DF2326001F098
:1031600033F86D214DF2336001F02EF855214FF404
:10317000704001F029F8AA214FF2010001F024F873
:1031800052214FF2020001F01FF808214FF2030014
:1031900001F01AF800214FF2040001F015F8CC21DB
:1031A0004FF4314001F010F800214BF2011001F012
:1031B0000BF805214FF4364001F006F870214FF46A
:1031C000374001F001F870214BF2017000F0FCFF74
:1031D00001214FF4384000F0F7FF03214BF60100C6
:1031E00000F0F2FF03214BF6020000F0EDFF032197
:1031F0004BF6030000F0E8FF02214FF43C4000F0E2
:10320000E3FF00214BF6014000F0DEFF00214BF60A
:10321000024000F0D9FFD0214FF4494000F0D4FF24
:1032200002214CF6011000F0CFFF50214CF60210A5
:1032300000F0CAFF50214CF6031000F0C5FF5021EA
:103240004CF6041000F0C0FF00214FF4545000F081
:10325000BBFF55214FF4685000F0B6FF4FF4885083
:1032600000F098FF782001F02BFE4FF4245000F07E
:1032700091FF76E2FE48808841F663118842F8D1DA
:10328000E22000F087FF4FF48070FA4908614000A7
:1032900048611D20F84908608020F64948610861AE
:1032A0008000086140100861400048610220F24936
:1032B00008608020EF494861086180000861401083
:1032C0000861400048610420EB4908608020E9491A
:1032D0004861086180000861642001F0F1FDE02090
:1032E00000F058FF4FF48070E249086140004861E7
:1032F0000120E14908608020DE49486108618000C2
:1033000008610A2001F0B6FDE02000F043FF4FF411
:103310008070D8490861400048610320D6490860A0
:103320008020D44948610861800008610C2001F0C8
:10333000A1FD012000F02EFF0A2001F09BFDE620F8
:1033400000F028FF4FF48070CA49086140004861CE
:103350002F20C94908608020C64948610861800063
:1033600008614010086140004861FF20C2490860C0
:103370008020C049486108618000086140100861F0
:1033800040004861FF20BC4908608020B94948617D
:10339000086180000861B02000F0FCFE4FF48070EE
:1033A000B4490861400048612020B349086080208A
:1033B000B049486108618000086140100861400020
:1033C00048610020AC4908608020AA494861086132
:1033D0008000086140100861400048610320A64950
:1033E00008608020A349486108618000086140109E
:1033F00008614000486140F21F309F49086080200A
:103400009C494861086180000861401008614000E3
:103410004861012098490860802096494861086108
:1034200080000861401008614000486140F2DF10F0
:103430009149086080208F494861086180000861D7
:10344000401008614000486100208B4908608020DE
:1034500088494861086180000861B42000F09AFE44
:103460004FF480708349086140004861042082491C
:10347000086080207F494861086180000861401031
:1034800008614000486140F21F407B49086080208D
:103490007849486108618000086140100861400077
:1034A00048610020744908608020724948610861C1
:1034B0008000086140100861400048612E206E497C
:1034C000086080206B4948610861800008614010F5
:1034D0000861400048610020674908608020654914
:1034E000486108618000086140100861400048613F
:1034F00000206149086080205E49486108618000C1
:103500000861401008614000486100205A49086085
:1035100080205849486108618000086140100861B6
:1035200040004861002054490860802051494861AA
:10353000086180000861B62000F02CFE4FF4807016
:103540004C4908614000486102204B4908608020D6
:1035500048494861086180000861401008614000E6
:1035600048614FF403704449086080204149486134
:103570000861800008614010086140004861002037
:103580003D49086080203B4948610861800008612E
:1035900040100861400048611720374908608020CA
:1035A00034494861086180000861401008614000AA
:1035B000486115203049086080202E494861086123
:1035C00080000861401008614000486100202A49DD
:1035D0000860802027494861086180000861401028
:1035E000086140004861002023490860802021498B
:1035F0004861086180000861F02000F0CBFD4FF4C5
:1036000080701C4908614000486103201A49086025
:10361000802018494861086180000861292000F075
:10362000B9FDD02000F0B6FD4FF48070114908615B
:103630004000486100201049086080200D49486121
:10364000086180000861BE2000F0A4FD4FF4807086
:10365000084908614000486105200749086080204A
:10366000044948610861800008614010086105E074
:103670003C020020001001400C0C01404000486159
:10368000FE203D49086080203C4948610861800077
:103690000861401008614000486101203649086017
:1036A0008020364948610861800008614010086147
:1036B0004000486100203049086080202F4948615F
:1036C00008618000086140100861400048610020E6
:1036D0002949086080202949486108618000086103
:1036E00040100861400048610020234908608020A4
:1036F00022494861086180000861B82000F04AFD55
:103700004FF480701D4908614000486103201A4948
:1037100008608020194948610861800008614010F4
:103720000861400048610120134908608020134966
:103730004861086180000861BA2000F02BFD4FF459
:1037400080700E4908614000486101200A49086004
:1037500080200A494861086180000861642000F007
:103760004DF80020FDF74CF90120054908604FF69F
:10377000FF70FDF71FF908BD0C0C0140001001405F
:10378000A801224210B50246012000E050430B0080
:10379000A1F10104E1B2F9D110BD000000B54FF074
:1037A000883014490860091D0860002011490C3157
:1037B0000860881510490861400048614020486150
:1037C000022001F0DDFC0B480830006883B2402085
:1037D00009490861C00008614FF0333005490860AD
:1037E000091D08604FF6FF7002490C310860184649
:1037F00000BD0000000C0140001001402DE9F04127
:103800000446BE2000F0C6FC4FF480702D490861CC
:103810004000486105202C49086080202949486102
:10382000086180000861401008614000486120463E
:1038300002F0A9FD05464FF06632244B02F0B6FDBA
:10384000074602F073FD2049086080201D49486149
:103850000861800008614010086140004861012053
:103860001949086080201749486108618000086193
:103870004010086140004861FF2013490860802023
:1038800010494861086180000861401008614000EB
:10389000486100200C49086080200A49486108619D
:1038A000800008614010086140004861002006491E
:1038B0000860802003494861086180000861BDE814
:1038C000F0810000001001400C0C014066660440CD
:1038D000F0B5054600240027E2488079012805D18B
:1038E000E048808841F66311884208D1DD4880793C
:1038F000F0B9DC48808841F66311884218D1082D60
:1039000015D2DFE805F00406080A0C0E1012062591
:103910000DE007250BE0042509E0052507E001255A
:1039200005E0002503E0032501E0022500BF00BFFC
:10393000082D1CD2DFE805F00406090C0F1215183B
:1039400000BF14E044F0800411E044F040040EE0B5
:1039500044F0C0040BE044F0200408E044F06004AC
:1039600005E044F0A00402E044F0E00400BF00BF22
:10397000BC48808845F21051884202D14FF4585714
:1039800000E03627B748808849F24131884205D0A7
:10399000B448808847F28971884201D144F0080414
:1039A0002146384600F010FCAE48808841F663118D
:1039B00088421DD004F0200068B1AA480088A949B7
:1039C0004988884214DAA74806884088A5490880B3
:1039D000084646800CE0A3480088A24949888842EE
:1039E00006DDA048068840889E4908800846468033
:1039F0009C48808845F2105188427DD19949488978
:103A000000F0C8FB4FF4807097490861400048619E
:103A10000020964908608020934948610861800031
:103A2000086190494989491C88B200F0B3FB4FF402
:103A300080708D4908614000486100208B49086012
:103A40008020894948610861800008618549498969
:103A5000891C88B200F09EFB4FF480708249086197
:103A6000400048617F480088401E00127F4908607E
:103A700080207D4948610861800008617949498951
:103A8000C91C88B200F086FB4FF48070764908614B
:103A90004000486173480078401EC0B27349086016
:103AA0008020714948610861800008616D498889FA
:103AB00000F070FB4FF480706B4908614000486172
:103AC00000206A49086080206749486108618000D9
:103AD000086164498989491C88B200F05BFB4FF496
:103AE0008070614908614000486100205F490860BA
:103AF00080205D49486100E033E008618000086192
:103B000058498989891C88B200F044FB4FF48070C1
:103B1000554908614000486152484088401E0012E3
:103B2000524908608020504948610861800008615E
:103B30004C498989C91C88B200F02CFB4FF4807075
:103B4000494908614000486146488078401EC0B23B
:103B50004649086080204449486108618000086146
:103B60007FE04049488900F015FB4FF480703E49E2
:103B700008614000486100203C49086080203A49C3
:103B80004861086180000861401008614000486198
:103B90000020364908608020334948610861800070
:103BA000086140100861400048612E480088401EAE
:103BB00000122E49086080202B494861086180006E
:103BC0000861401008614000486126480078401EA6
:103BD000C0B22649086080202349486108618000FE
:103BE00008612049888900F0D5FA4FF480701E4999
:103BF00008614000486100201C49086080201A4983
:103C00004861086180000861401008614000486117
:103C1000002016490860802013494861086180002F
:103C2000086140100861400048610E484088401E0D
:103C300000120E49086080200B494861086180002D
:103C40000861401008614000486106488078401EC5
:103C5000C0B20649086080200349486108618000BD
:103C60000861F0BD3C020020001001400C0C014036
:103C700010B503460C46B248808841F6631188426D
:103C80007ED1AF48807900283FD1AD480088401EE2
:103C9000C01A83B2AA49488900F07CFA4FF48070B8
:103CA000A8490861400048610020A74908608020B9
:103CB000A449486108618000086140100861400023
:103CC00048610020A049086080209E494861086141
:103CD00080000861401008614000486118129A494C
:103CE00008608020974948610861800008614010A1
:103CF000086140004861D8B293490860802091492A
:103D0000486108618000086141E08D49488900F000
:103D100041FA4FF480708B490861400048611812E5
:103D200089490860802087494861086180000861EE
:103D30004010086140004861D8B283490860802083
:103D400080494861086180000861401008614000B6
:103D500048617B480088401E00127B490860802033
:103D6000784948610861800008614010086140009E
:103D7000486173480078401EC0B27349086000E093
:103D800046E080206F4948610861800008616C4905
:103D9000888900F0FFF94FF480706A49086140009B
:103DA00048612012684908608020664948610861BE
:103DB000800008614010086140004861E0B262493B
:103DC000086080205F4948610861800008614010F8
:103DD0000861400048615A484088401E00125A4914
:103DE00008608020574948610861800008614010E0
:103DF00008614000486152488078401EC0B2524974
:103E0000086080204F49486108618000086196E0A1
:103E10004B48808845F21051884250D14849488922
:103E200000F0B8F94FF480704649086140004861DD
:103E300018124549086080204249486108618000A5
:103E400008613F494989491C88B200F0A3F94FF441
:103E500080703C49086140004861D8B23A49086026
:103E600080203849486108618000086134498889A8
:103E700000F090F94FF480703249086140004861C9
:103E800020123149086080202E4948610861800075
:103E900008612B498989491C88B200F07BF94FF4ED
:103EA00080702849086140004861E0B226490860F6
:103EB0008020244948610861800008613FE0204972
:103EC000488900F067F94FF480701E49086140008E
:103ED000486118121C49086080201A49486108612D
:103EE000800008614010086140004861D8B216495E
:103EF000086080201349486108618000086110490A
:103F0000888900F047F94FF480700E49086140003D
:103F1000486120120C49086080200A494861086104
:103F2000800008614010086140004861E0B2064925
:103F3000086080200349486108618000086110BD65
:103F40003C020020001001400C0C01402DE9F84F0C
:103F500080460E4617461C46B3462046E31704EB40
:103F60005373DB1021464FEAE47C04EB5C7C4FEAA0
:103F7000EC0CA4EBCC0CBCF1000F02D04FF0010C08
:103F800001E04FF0000C6344224604EBD27C4FEA80
:103F90006C0C03FB0CF3DBB20093A7F12000C7B25B
:103FA000002556E00C2C07D107EB47002B4901EB0D
:103FB000800010F8059013E0102C05D1284800EB84
:103FC000071010F805900BE0182C07D107EBC7007D
:103FD000244901EB800010F8059001E0BDE8F88F5E
:103FE0004FF0000A2FE009F0800030B11E4802882F
:103FF00031464046FCF79CFD07E00A9828B91B486B
:10400000028831464046FCF793FD4FEA49604FEA8B
:104010001069701C86B216484088B04200DCDDE7AB
:10402000A6EB0B00A0420AD15E4608F101001FFA80
:1040300080F80F480088404500DCCFE706E00AF131
:10404000010000F0FF0ABAF1080FCCDB00BF681CCA
:10405000C5B200988542A5DB00BFBFE7A865000890
:104060001C6A00080C700008320000203400002098
:104070003C0200202DE9FF4F81B0074691461E46C5
:104080000E9D4FF0000A002439E0301B401EC1B2E3
:104090000A20FFF777FBB9FBF0F00A21B0FBF1F241
:1040A00001FB1208BAF1000F16D1701EA04213DDF9
:1040B000B8F1000F0ED10020AB4605EBDB714910C3
:1040C00001FB0471009088B22B4620220299FFF771
:1040D0003DFF12E04FF0010A0020AB4605EBDB711B
:1040E000491001FB0471009088B208F13001CAB296
:1040F0002B460299FFF72AFF00BF601CC4B2B442EE
:10410000C3DB05B0BDE8F08F2DE9F84704460D4646
:1041100090469946DDE9096704F0FF0A08EB0400C0
:104120001FFA80F809EB05001FFA80F916E04445F4
:1041300002DB5446A81985B24D4500DB14E000208F
:1041400000903A78334629462046FFF7FFFE304676
:1041500006EBD07104EB61018CB27F1C38787E28AD
:1041600002DC38782028E2DA00BFBDE8F8870000DA
:104170004FF48071054A116149005161044908609A
:104180008021516111618900116170470010014067
:104190000C0C01404FF48071054A51614900516196
:1041A00004490860802151611161890011617047E3
:1041B000001001400C0C014000B502490889FFF7CE
:1041C000E9FF00BD3C02002010B504460B46204626
:1041D000FFF7E0FF4FF48070054908614000486137
:1041E000044803608020486108618000086110BDB8
:1041F000001001400C0C014008B50121242000F002
:104200007BF84FF48070ADF8000010208DF80300AB
:1042100003208DF8020069460948FCF764FA4FF460
:1042200080710748FCF732FB0420ADF800006946B6
:104230000448FCF758FA04210248FCF727FB08BDA4
:10424000000801400014014000BFFEE77047000075
:1042500070B5002100230F22C47804B3154C2468E4
:1042600004F4E064C4F5E064210AC1F10403CA4027
:10427000447804FA03F184781440214309010E4C78
:104280000678A155047804F01F050124AC40057898
:104290006D11AD0005F1E025C5F8004109E0047895
:1042A00004F01F050124AC40044D0678761145F852
:1042B000264070BD0CED00E000E400E080E100E08D
:1042C00002490143024A1160704700000000FA05EC
:1042D0000CED00E07047000029B1064AD2690243A4
:1042E000044BDA6104E0034AD2698243014BDA618C
:1042F000704700000010024029B1064A926902434B
:10430000044B9A6104E0034A92698243014B9A612B
:10431000704700000010024030B500210022002448
:1043200000232D4D6D6805F00C0121B1042905D045
:10433000082923D105E0294D056022E0274D0560BD
:104340001FE0254D6D6805F47012234D6D6805F46E
:104350008034022505EB92421CB9214D554305607E
:104360000BE01D4D6D6805F400351DB11C4D554326
:10437000056002E0194D5543056002E0174D0560E8
:1043800000BF00BF144D6D6805F0F0010909154D1F
:104390006B5C0568DD4045600F4D6D6805F4E061BC
:1043A000090A104D6B5C4568DD4085600A4D6D68FB
:1043B00005F46051C90A0B4D6B5C4568DD40C56072
:1043C000054D6D6805F44041890B074D6B5CC56870
:1043D000B5FBF3F5056130BD0010024000127A0014
:1043E00000093D001400002024000020704710B593
:1043F00000F002F810BD00000CB500200190009004
:104400003348006840F480303149086000BF3048CC
:10441000006800F4003000900198401C0190009862
:1044200018B90198B0F5A06FF1D12948006800F4DF
:10443000003010B10120009001E0002000900098B1
:10444000012843D12348006840F01000214908604A
:104450000846006820F0030008600846006840F045
:10446000020008601A4840681949486008464068D8
:1044700048600846406840F48060486008464068EC
:1044800020F47C1048600846406840F4E81048601A
:104490000846006840F08070086000BF0C48006863
:1044A00000F000700028F9D00948406820F00300AF
:1044B000074948600846406840F00200486000BF75
:1044C0000348406800F00C000828F9D10CBD00003A
:1044D0000010024000200240042808D14FF0E021E3
:1044E000096941F004014FF0E022116107E04FF04B
:1044F000E021096921F004014FF0E02211617047C9
:104500007047000010B51348006840F001001149E1
:10451000086008464068104908400E49486008464F
:1045200000680E4908400B4908600846006820F4FE
:10453000802008600846406820F4FE0048604FF480
:104540001F008860FFF753FF4FF0006004490860C8
:1045500010BD0000001002400000FFF8FFFFF6FE53
:1045600008ED00E0F0B50C46154600220021068C4F
:104570004FF6FE773E400684028B018C4FF60C7698
:1045800032407E1C06EA03162E433243104EB042E0
:104590000ED0104EB0420BD0B0F1804F08D00E4E6E
:1045A000B04205D00D4EB04202D00D4EB04206D101
:1045B0004FF6FD76314044F00106314305E04FF6F9
:1045C000F576314044F00106314302830184F0BDA9
:1045D000002C01400034014000040040000800406D
:1045E000000C0040F0B50C461546002200210026C4
:1045F000078C4FF6EF7C07EA0C070784028B018CCF
:104600004FF6FF7707EA041640F6FF473A404FF6A9
:10461000FF7707EA03373A434FF6FF7707EA0527A4
:104620003A43114FB8420ED0104FB8420BD0B0F100
:10463000804F08D00E4FB84205D00E4FB84202D07E
:104640000D4FB84206D14FF6DF77394046F01007DC
:10465000394305E04FF65F77394044F0100739439E
:1046600002830184F0BD0000002C014000340140B1
:104670000004004000080040000C0040F0B50C466B
:104680001546002200210026078C4FF6FF6C07EA32
:104690000C070784828B018C4FF6FF7707EA04260C
:1046A0004FF60C773A404FF6FF7707EA03172F4390
:1046B0003A43114FB8420ED0104FB8420BD0B0F170
:1046C000804F08D00E4FB84205D00E4FB84202D0EE
:1046D0000D4FB84206D14FF6FF57394046F4807768
:1046E000394305E04FF2FF57394044F480773943AE
:1046F00082830184F0BD0000002C014000340140A1
:104700000004004000080040000C0040F0B50C46DA
:104710001546002200210026078C4EF6FF7C07EA92
:104720000C070784828B018C4FF6FF7707EA04366B
:1047300040F6FF473A404FF6FF7707EA05273A432E
:104740004FF6FF7707EA03373A43114FB8420ED0CE
:10475000104FB8420BD0B0F1804F08D00E4FB84286
:1047600005D00E4FB84202D00D4FB84206D14DF6DB
:10477000FF77394046F48057394305E047F6FF5745
:10478000394044F48057394382830184F0BD0000EE
:10479000002C0140003401400004004000080040AB
:1047A000000C004010B50121880700F0F9F8F8B1BD
:1047B0005E48007800F08000D0B15C48007820F0BE
:1047C00010005A4908700846007800F00F0020B920
:1047D0000846007840F0400008705448007800F027
:1047E0000F000E2805DA51480078401C4F49087028
:1047F0000AE04E48007820F080004C4908700846D6
:10480000007800F0F00008700421080700F0C8F8F4
:10481000002811D04648006878B10221480700F00E
:1048200030F900214FF0804000F038F93F4800781F
:1048300040F010003D49087072E04FF0804000F0F9
:10484000ACF83C49088000214FF0804000F019F995
:104850003648007800F0100000285BD0334800781C
:1048600000F08000F0B333480088B0F5967F0DDD8E
:1048700030480088B0F5487F08DA2F4800684000CB
:104880002D49086008460068086043E02948008810
:10489000B0F5AF6F0FDD27480088B0F5E16F0ADA99
:1048A000254800684000244908600846006840F038
:1048B000010008602EE01F48008840F698018842F9
:1048C00028DD1C48008840F62821884222DA1B484F
:1048D0000078401C194908701448007800F0F00076
:1048E000124900E001E0087014E01248008841F22B
:1048F000680188420EDD0F48008841F25C21884241
:1049000008DA0A48007840F0800008490870002062
:104910000A4908700548007820F010000349087023
:104920000521880700F02AF810BD0000380000209B
:10493000040121423A0000203C00002040000020F9
:1049400010B50C48008800F0010058B10A49086908
:10495000804700200749143108804FF47A700549D8
:104960001C3108800348008820F0010001490880BC
:1049700010BD00001008004080000020CA430282E1
:10498000704721B1028842F00102028004E00288EF
:104990004FF6FE731A40028070470146088F704739
:1049A00030B50246002000230024158A05EA0103E1
:1049B000958905EA010413B10CB1012000E0002043
:1049C00030BD000070B505460C46244885420ED027
:1049D000234885420BD0B5F1804F08D0214885424D
:1049E00005D02148854202D02048854200D100E010
:1049F00000BF208850B92389A28861882846FFF724
:104A0000B1FDE188284600F04BF825E02088042815
:104A10000AD12389A28861882846FFF7E3FDE1884F
:104A2000284600F046F817E0208808280AD1238994
:104A3000A28861882846FFF721FEE188284600F019
:104A400045F809E02389A28861882846FFF75EFEC1
:104A5000E188284600F043F870BD0000002C0140BA
:104A6000003401400004004000080040000C0040F9
:104A70001AB183890B43838102E083898B4383814D
:104A800070470A460021018C4FF6DF7319404FF63C
:104A9000FF7303EA0213194301847047818470474E
:104AA000028B4FF6F3731A400283028B0A43028390
:104AB0007047028B4FF2FF331A400283028B4FF68E
:104AC000FF7303EA01231A4302837047828B4FF678
:104AD000F3731A408283828B0A4382837047828BEE
:104AE0004FF2FF331A408283828B4FF6FF7303EA43
:104AF00001231A4382837047002202881D4B98428B
:104B00000ED01D4B98420BD0B0F1804F08D01B4BFC
:104B1000984205D01A4B984202D01A4B984204D1C1
:104B20004FF68F731A404B881A43174B984207D0A1
:104B3000164B984204D04FF6FF431A40CB881A43D5
:104B400002808B8883850B8803850A4B98420BD0A3
:104B5000094B984208D00E4B984205D00D4B984215
:104B600002D00D4B984201D10B7A03860123838238
:104B700070470000002C0140003401400004004058
:104B800000080040000C00400010004000140040ED
:104B90000040014000440140004801407FB5054607
:104BA0000C4601210420FFF797FBADF80850ADF843
:104BB00004400020ADF80A00ADF8060001A90D4838
:104BC000FFF79AFF012241210A48FFF751FF1E20FB
:104BD0008DF8000003208DF801008DF802000120FF
:104BE0008DF803006846FFF733FB01210148FFF70A
:104BF000C8FE7FBD0008004010B540F225511D4899
:104C000000F04AF810B31B4800F002F9C4B21A4889
:104C1000008800F40040C8B91748008800F48040BC
:104C200060B10A2C03D000201349088020E012480C
:104C3000008840F400401049088019E00D2C06D18E
:104C40000D48008840F480400B49088010E00A4875
:104C50000088C0F30D0009490C5407480088401C27
:104C60000549088008460088C72801DD0020088023
:104C700010BD000000380140300000207401002009
:104C800021B1828942F40052828104E082894DF68A
:104C9000FF731A408281704770B5024600240023DA
:104CA0000025002040F66A16B14200D100BFC1F3D2
:104CB000421501F01F03012606FA03F3012D02D16C
:104CC0009689334006E0022D02D1168A334001E076
:104CD000968A33400C12012606FA04F416883440F2
:104CE00013B10CB1012000E0002070BDF0B5034607
:104CF000002400260025002040F66A17B94200D1A2
:104D000000BF1846C1F3421401F01F06012707FA3D
:104D100006F5012C01D10C3004E0022C01D1103039
:104D200000E014301AB107682F43076002E00768FB
:104D3000AF430760F0BD00002DE9F04786B005469F
:104D40000E460024A24600BFA1460027B08900B14C
:104D500000BF2F462C8A4CF6FF700440F0880443B5
:104D60002C82AC894EF6F3100440B0883189084398
:104D7000718908430443AC81AC8A4FF6FF4004407C
:104D8000B0890443AC8201A8FFF7C6FA1F488742E6
:104D900002D1DDF810A001E0DDF80CA0A88900F434
:104DA000004040B10AEBCA0000EB0A10316849002C
:104DB000B0FBF1F807E00AEBCA0000EB0A1031681B
:104DC0008900B0FBF1F86420B8FBF0F00401200981
:104DD000642101FB1089A88900F4004040B1322011
:104DE00000EBC900B0FBF1F000F00700044308E05D
:104DF000322000EB09106421B0FBF1F000F00F004D
:104E000004432C8106B0BDE8F08700000038014063
:104E100001468888C0F30800704700BFFEE73038BD
:104E20000A2801D2012070470020704700BF704758
:104E300010B56FF00400FFF74FFB0A4800680A49FD
:104E4000B0FBF1F0094908700846007800EB40011A
:104E5000C1EBC0104FF6FF7101EAC00004490880A1
:104E600010BD00000000002000127A002800002081
:104E70002A0000200146114A12884A434FF0E023DD
:104E80005A6100229A611A46126942F001021A61BF
:104E900000BF4FF0E022106900F001021AB100F4E7
:104EA0008032002AF5D04FF0E022126922F0010290
:104EB0004FF0E0231A6100229A6170472A00002017
:104EC0000146114A12784A434FF0E0235A6100220A
:104ED0009A611A46126942F001021A6100BF4FF04E
:104EE000E022106900F001021AB100F48032002AB9
:104EF000F5D04FF0E022126922F001024FF0E023DA
:104F00001A6100229A6170472800002000BF054AFC
:104F1000128802F04002002AF9D0C2B2014B1B1DD8
:104F20001A807047003801401CB50025FFF780FF4C
:104F30004FF4A060FFF7C4F94FF4165000F02AF9BF
:104F4000FFF75AF9FBF76EFFFBF7A4FC4FF478402C
:104F50005E4908805EA010210B46C822CDE90010F2
:104F600032213C20FFF7D0F85CA010210B46C8226C
:104F7000CDE9001046213C20FFF7C6F85AA01021C9
:104F80000B46C822CDE900105A213C20FFF7BCF89F
:104F900057A010210B46C822CDE900100B213C2060
:104FA000FFF7B2F854A010210B46C822CDE900103B
:104FB00082213C20FFF7A8F886E0FBF7C7FC0446F7
:104FC000002CF9D010200323224682210090742067
:104FD000FFF750F8102003230090494802789621EB
:104FE0007420FFF747F8622C35D017DC302C48D0FE
:104FF0000BDC102C4BD003DC4CB3022C51D12CE039
:10500000182C40D0222C4CD12DE0382C41D0422CF1
:1050100043D0522C43D05A2C43D13CE0A82C26D06C
:105020000CDC902C25D004DC682C24D07A2C38D1D0
:105030002BE0982C21D0A22C33D10AE0B02C1ED02A
:10504000C22C0ED0E02C10D0E22C2AD107E02DA5E6
:1050500027E02EA525E02FA523E02FA521E030A5F0
:105060001FE032A51DE033A51BE034A519E035A5EE
:1050700017E036A515E037A513E037A511E037A5F1
:105080000FE037A50DE037A50BE037A509E037A500
:1050900007E037A505E037A503E012A501E036A536
:1050A00000BF00BF4FF6FF70BA23B422AA210090C0
:1050B0007420FBF77FFE10200346C822AA21CDE909
:1050C00000057420FFF720F877E700003200002089
:1050D0004D696E692053544D333200003230323204
:1050E0002F352F31300000004B455956414C3A00C6
:1050F0004B4559434E543A0053594D424F4C3A0098
:10510000400000204552524F52000000504F57457A
:105110005200000055500000504C41590000000062
:10512000414C49454E54454B000000005249474808
:10513000540000004C45465400000000564F4C2DD2
:1051400000000000444F574E00000000564F4C2B0B
:1051500000000000310000003200000033000000B9
:105160003400000035000000360000003700000069
:10517000380000003900000044454C45544500000B
:1051800000BF0100A0F10102D0B2FAD17047014680
:105190000868704710B586B00446012144F2040047
:1051A000FFF7AAF84FF40070ADF8140003208DF853
:1051B000160018208DF8170005A91C48FBF793FA74
:1051C0004FF48060ADF8140004208DF8170005A995
:1051D0001648FBF788FA25208DF8000003208DF88B
:1051E00001008DF8020001208DF803006846FFF7EA
:1051F0002FF801940020ADF80800ADF80A00ADF8D2
:105200000C00ADF810000C20ADF80E0001A9084804
:10521000FFF792FD012240F225510548FFF766FD98
:1052200001210348FFF72CFD06B010BD0008014026
:105230000038014030B595B0054613AB12AA09A954
:10524000284600F03BFA044614B1204615B030BDA4
:105250000020149026E0224909689DF8502001EBB7
:10526000C20113AB11AA486801A900F027FA04464D
:105270000CB12046EAE709A901A800F0BBFC60B91F
:105280009DF844009DF84810884201DD0220DDE7CA
:105290009DF85000124988750AE09DF85000401CA6
:1052A000C0B214900E48007D9DF850108842D2DCA8
:1052B00000BF0B48007D9DF85010884201D10420AA
:1052C000C4E714A9284600F0D9FA04460CB12046D8
:1052D000BCE79DF85000024948750020B6E7000081
:1052E000800000202DE9F0419AB000269C48847D82
:1052F000007DA04202DC1AB0BDE8F081984909683F
:1053000001EBC40106AB07AA486808A900F0D6F96A
:1053100008A994A0FAF78AFF002544E09048008B82
:105320000121A9400840D8B1222190A0FAF77EFFC0
:10533000284600F029FB8A492431471839468CA0B9
:10534000FAF774FF222189A0FAF770FF284600F0CF
:105350001BFB83492431084410A941F8250018E0BB
:10536000284600F011FB7E492431085810A941F865
:1053700025007B48C07D30B910A850F825107DA0CD
:10538000FAF754FF05E010A850F825107AA0FAF7B4
:105390004DFF9DF81C00401EA84202D078A0FAF7ED
:1053A00045FF681CC5B29DF81C008542B6DB75A0A0
:1053B000FAF73CFF00F038FB6948407D0B280DD21E
:1053C000DFE800F0060D151E27323F4E5F728700A2
:1053D0006349096851F834008047064690E0604A06
:1053E000126852F8341010988847064688E05C4BE3
:1053F0001B6853F83420DDE91001904706467FE032
:10540000574F3F6857F8343010A807C898470646EA
:1054100076E0DFF84CC1DCF800C05CF8347010A80E
:105420000FC8B84706466BE01498DFF834C1009007
:10543000DCF800C05CF8347010A80FC8B847064606
:105440005EE0DDE91401DFF818C1CDE90001DCF808
:1054500000C05CF8347010A80FC8B84706464FE08B
:10546000DDE914121698DFF8F8C0CDE900120290B9
:10547000DCF800C05CF8347010A80FC8B8470646C6
:105480003EE0DDE91423DDE91610DFF8D4C0CDE9F4
:105490000023CDE90210DCF800C05CF8347010A8DD
:1054A0000FC8B84706462BE0DDE916321899159863
:1054B000CDE90232049101901498DFF8A4C0009065
:1054C000DCF800C05CF8347010A80FC8B847064676
:1054D00016E0DDE91623DDE91810CDE90223CDE958
:1054E0000410DDE91401DFF878C0CDE90001DCF833
:1054F00000C05CF8347010A80FC8B847064600BF5B
:1055000000BF00F051FA9DF8180001280CD1144892
:10551000C07D20B931461CA0FAF788FE07E031466D
:105520001BA0FAF783FE02E018A0FAF77FFE0C48F2
:1055300090F8EC0088B10A48D0F8F0000A21B0FBDE
:10554000F1F201FB12070648D0F8F000B0FBF1F8C9
:105550003A46414611A0FAF769FE00BFCBE60000CB
:10556000800000200D0A257328000000256300003C
:1055700025730000256C7500305825580000000088
:105580002C000000290000003D256C753B0D0A0031
:105590003D305825583B0D0A0000000046756E63EB
:1055A00074696F6E2052756E2054696D653A25647A
:1055B0002E2531646D730D0A00000000F0B503461E
:1055C0001546002000220026002455E01F782C2FCD
:1055D00001D104B901221F78292F01D01F780FB9FA
:1055E00004B94AE0002E34D11F78302F02DB1F7837
:1055F000392F11DD1F78612F02DB1F78662F0BDD3D
:105600001F78412F02DB1F78462F05DD1F78582FAA
:1056100002D01F78782F0CD102B12EE01F78612FB5
:1056200003DB1F78203F0F7001E01F780F70491CCB
:105630001FE01F78222F04D102B11EE001260124B1
:1056400017E01F78202F14D01F782C2F11D0FF26A1
:1056500013E01F78222F00D1002402B10DE044B1E5
:105660001F785C2F02D15B1C471CF8B21F780F70AB
:10567000491C471CF8B25B1CA8E700BF00270F704D
:105680002E70F0BD10B50446002010700BE020789D
:105690000870641C491C1078401C107010789842E7
:1056A00001DB012010BD2078202802D020780028BE
:1056B000EDD10020087000BFF4E700002DE9FF4F96
:1056C00085B0804689460027002004900390012081
:1056D00002904FF0000B002544461DE02078202862
:1056E00016D005F07F00052812DA0DB945F08005C7
:1056F00005F07F00042803D120782A2800D00EE08E
:10570000207805F07F010DF80100681CC5B202E0A9
:10571000852D00D103E0641C20780028DED100BF75
:105720008DB1002005F07F010DF8010051A1684600
:1057300000F060FA18B900210898017002E0012118
:105740000898017000254FF0000A444614E0641CDC
:105750000AF1010000F0FF0A2078202802D020780A
:105760002A2809D1204600F0D5F90646282E03D074
:105770002A2E01D0CDF810A02078282802D0207839
:105780000028E4D14446049810B10498401C044415
:105790004FF0000A002654E0207810B94FF0010ABB
:1057A00050E02078282803D116B9781CC7B213E03E
:1057B0002078292808D13EB917B1781EC7B201E078
:1057C0004FF0010A47B93DE02078222804D10EB9F4
:1057D000012000E00020064647B9207820282FD07D
:1057E000207889F8000009F1010929E020782C28A7
:1057F00004D101200290681CC5B214E02078202852
:1058000011D0207828280ED04DB9BBF1050F06DA4B
:1058100020780DF80B000BF1010000F0FF0B02984F
:10582000401CC0B20290012F0AD10298022807D171
:105830000298401CC0B202900398401CC0B2039072
:10584000641CA9E700BF0398012809D100200DF8C6
:105850000B0008A1684600F0CDF908B900200390BC
:10586000079903980870002089F80000504609B095
:10587000BDE8F08F766F6964000000002DE9F04309
:10588000B5B005460F460024002604E000213D483F
:105890008155701CC6B20A2EF8DB06E06D1C287814
:1058A00018B9012035B0BDE8F08328782828F5D153
:1058B0006D1C61E034AA69462846FFF77FFE064664
:1058C00035449DF8D00020B1012827D0FF284CD1C5
:1058D00049E09DF8000000B333A9684600F025F9BF
:1058E00006460EB10220DDE7204600F04DF82549BE
:1058F0000A31339A0A50A1F12400008B0121A14002
:10590000884320491A39088304211E480155601C28
:10591000C4B20A2C01DD0320C4E726E0684600F08B
:1059200085F9401C00F0FF08204600F02DF81549CD
:105930000A3100EB01094946684600F06CF911484C
:105940001A38018B0120A040014388B20D491A3951
:1059500008830C4800F80480601CC4B20A2C01DDE6
:1059600003209FE701E002209CE700BF2878292858
:1059700001D0287800B900E09CE700BF3C7000200F
:1059800090E700009A00002002460020002105E078
:10599000044B5B5C0344D8B24B1CD9B29142F7DB99
:1059A000704700009A0000200D48008800F00100B8
:1059B00040B10C48D0F8F0004FF6FF710844094997
:1059C000C1F8F0000748D0F8F00005491431098803
:1059D00008440449C1F8F0000846D0F8F0007047C8
:1059E000100800408000002010B5044604EBC400FD
:1059F00000EB04100122C2EB800081B24FF47A70F8
:105A0000FFF7CCF801200149C87510BD80000020C7
:105A100010B50246012000E050430B00A1F1010443
:105A2000E1B2F9D110BD00000948008820F0010062
:105A3000074908804FF6FF7005491C310880002097
:105A40000349143108800349C1F8F0007047000091
:105A5000100800408000002070B51D48008800F448
:105A60000040002833D01A480578002019494855CD
:105A7000194881681748884704461CB91649C86800
:105A8000804721E0134800F0DDF80546012D00D0E5
:105A90002C46CCB1012C06D0022C08D0032C0AD005
:105AA000042C10D10BE00DA0FAF7C0FB0BE00EA008
:105AB000FAF7BCFB07E00FA0FAF7B8FB03E010A071
:105AC000FAF7B4FB00BF00BF00200149088070BD99
:105AD000300000207401002080000020BAAFCAFD11
