:020000040800F2
:1000000090080020E901000841100008F70A0008E4
:100010003D100008610900083F18000800000000BA
:1000200000000000000000000000000005120008B1
:100030006509000800000000B5100008E913000879
:10004000030200080302000803020008030200087C
:10005000030200080302000803020008030200086C
:10006000030200080302000803020008030200085C
:10007000030200080302000803020008030200084C
:10008000030200080302000803020008030200083C
:10009000030200080302000803020008030200082C
:1000A000030200080302000803020008030200081C
:1000B0000302000803020008B51400080302000848
:1000C00003020008030200080302000803020008FC
:1000D000030200081D1600080302000803020008BE
:1000E00003020008030200080302000800F002F8FF
:1000F00000F06BF80AA090E8000C82448344AAF157
:100100000107DA4501D100F060F8AFF2090EBAE854
:100110000F0013F0010F18BFFB1A43F0010318473B
:10012000BC5F0000DC5F00000A444FF0000C10F8D8
:10013000013B13F0070408BF10F8014B1D1108BF65
:1001400010F8015B641E05D010F8016B641E01F805
:10015000016BF9D113F0080F1EBF10F8014BAD1C55
:100160000C1B09D16D1E58BF01F801CBFAD505E073
:1001700014F8016B01F8016B6D1EF9D59142D6D3CD
:10018000704700000023002400250026103A28BFF5
:1001900078C1FBD8520728BF30C148BF0B607047F9
:1001A000642900F09F80752900F09C80782900F078
:1001B000D580632900F02982732900F02E82002067
:1001C00070471FB51FBD10B510BD00F059FA11469C
:1001D000FFF7F7FF01F0BAFB00F077FA03B4FFF77F
:1001E000F2FF03BC01F034FB09488047094800478F
:1001F000FEE7FEE7FEE7FEE7FEE7FEE7FEE7FEE7D7
:10020000FEE7FEE704480549054A064B7047000033
:10021000ED130008ED000008900200209008002077
:100220009004002090040020704700000FB404499F
:1002300010B503AA029800F0F5F910BC5DF814FBA4
:100240002C00002070B5044685690068C10601D500
:10025000302600E02026C00707D070BDD4E9012178
:1002600030469047206A401C20626D1EF6D570BD56
:1002700070B5044685690078C00707D170BDD4E920
:10028000012120209047206A401C20626D1EF6D577
:1002900070BD70B50C460546012A05D02878800649
:1002A00000D5EA69002302E0012305E05B1C9342CC
:1002B00002D2E05C0028F9D1A869E618C01AA8614A
:1002C000286A184428622846FFF7BCFF04E0D5E9F5
:1002D000012114F8010B9047B442F8D32846FFF7E8
:1002E000C7FF70BD2DE9F04106460024106875294E
:1002F000314616A510D0AFF30080002802DA404244
:1003000013A507E031688A0701D512A502E0490765
:1003100004D511A5012401E0AFF3008000210A22D9
:1003200006F1240709E0B0FBF2FCB0FBF2F302FB9C
:100330001C00303078541846491C0028F3D123465D
:100340002A463046BDE8F04100F0FCB8000000004D
:100350002D0000002B0000002000000070B50446B6
:100360000D4621461068AFF300802188090502D5AB
:100370000F4A7A4402E00E4A7A440E32002104F118
:10038000240305E000F00F060009965D5E54491C49
:100390000028F7D120780023000704D5702D02D063
:1003A00009B1022311322046BDE8704000F0CAB8FE
:1003B000965C00002DE9F05F894604464FF0000A84
:1003C000DFF874B1FB44C0F820A02046E1688847FC
:1003D000002874D0252806D0D4E901219047206A4E
:1003E000401C2062F1E700265F462046E16888470E
:1003F0002028054607DB312D05D2781910F8200C8E
:1004000008B10643F1E7B00701D526F00406C4F8A9
:100410001CA00027C4F818A02A2D09D0284601F0F6
:1004200010FA38B304EB8708303DC8F8185019E0CB
:1004300059F8041B204604EB87029161E168884764
:10044000012F054618D1E069002820DA26F02006A1
:100450001DE0D8F8180000EB800005EB40003038B4
:10046000C8F818002046E1688847054601F0E9F918
:100470000028EED1012F0AD02E2D08D12046E168A8
:1004800088477F1C0546022F46F02006C4DBA06982
:10049000002803DA404246F00106A061F00701D0CF
:1004A00026F010066C2D0BD0682D09D04C2D39D0BC
:1004B0006A2D35D0742D35D07A2D33D016E038E042
:1004C000E1682F4620468847B842054609D16C2F7F
:1004D00026D04FF48060E1680643204688470546F1
:1004E00004E06C2F1AD04FF4807006430DB3A5F1D1
:1004F0004100192802D8203546F400664A462946AC
:10050000204626604E46FFF74BFE80B101280BD0F7
:10051000F61D26F0070000F1080956E74020E4E741
:100520008020D8E70020D6E706F104094DE72846E9
:1005300052E7206ABDE8F09F6C5C0000704770478E
:10054000704770472DE9F0470D469946924604469C
:1005500000F124080168880604D5E06921F0100143
:10056000216000E00120A84201DD471B00E00027D8
:10057000A1697A1902EB0900081AA0612078C00667
:1005800002D42046FFF75EFE002608E0D4E90121F0
:100590001AF806009047206A401C761C20624E45DF
:1005A000F4DB2078C0060AD52046FFF74BFE06E0B4
:1005B000D4E9012130209047206A401C2062381E77
:1005C000A7F10107F4DC07E0D4E9012118F80500E0
:1005D0009047206A401C2062281EA5F10105F3DC2B
:1005E0002046FFF745FE2078000602D50220BDE830
:1005F000F0870120FBE710B5436913B1AFF300802A
:1006000001E0FFF746FE012010BD127800F1240141
:100610000A7000224A700122EDE711684FF0FF32A4
:10062000E9E70000074B70B50D467B4400F011F878
:100630000446284600F020F810B14FF0FF3070BD9E
:10064000204670BD0313000001694A1C026108784E
:10065000704700B58FB0CDE9013100210591054902
:100660007944CDE9031011466846FFF7A3FE0FB0A9
:1006700000BD0000E5FFFFFF007B00F08000704739
:10068000754600F02BF8AE4605006946534620F04B
:100690000700854618B020B5FFF7B4FDBDE820403F
:1006A0004FF000064FF000074FF000084FF0000B2E
:1006B00021F00701AC46ACE8C009ACE8C009ACE8E1
:1006C000C009ACE8C0098D46704710B50446AFF3C9
:1006D00000802046BDE81040FFF780BD004870470D
:1006E0002C02002021B1826842F00102826003E006
:1006F000826822F0010282607047000010B5044653
:100700001248844208D10121401500F001FD00216A
:10071000601500F0FDFC17E00D48844208D101216E
:10072000001500F0F5FC0021201500F0F1FC0BE0B5
:100730000848844208D10121C80300F0E9FC0021E7
:100740004FF4004000F0E4FC10BD00000024014024
:1007500000280140003C0140014600208A6802F068
:1007600004020AB1012000E0002070470146C86C75
:1007700080B270470246002013680B400BB1012085
:1007800000E000207047014600208A6802F008025D
:100790000AB1012000E000207047000030B5024699
:1007A0000020002350680F4C20400D790C6844EA6B
:1007B00005242043506090680B4C2040D1E902543E
:1007C0002C434D7944EA450420439060D06A20F4DC
:1007D00070000C7C641EE4B2234340EA0350D062F4
:1007E00030BD0000FFFEF0FFFDF7F1FFF0B504465D
:1007F0000D4600200021092D11DDE068A5F10A0653
:1008000006EB4607072606FA07F18843A5F10A0614
:1008100006EB460603FA06F10843E0600CE02069A7
:1008200005EB4507072606FA07F1884305EB450661
:1008300003FA06F108432061072A0FDA606B561E9F
:1008400006EB86071F2606FA07F18843561E06EBBD
:10085000860605FA06F10843606322E00D2A0FDAE6
:10086000206BD61F06EB86071F2606FA07F1884382
:10087000D61F06EB860605FA06F10843206310E052
:10088000E06AA2F10D0606EB86071F2606FA07F1BD
:100890008843A2F10D0606EB860605FA06F1084329
:1008A000E062F0BD816841F008018160704721B1CC
:1008B000826842F4A002826003E0826822F4A0020F
:1008C00082607047816841F00401816070470000D8
:1008D00000B587B001214FF4017000F009FC4FF41E
:1008E000004000F0E9FB00208DF81B000C20ADF863
:1008F000180006A9184800F042F81848FFF7FEFE55
:1009000000208DF8090004904FF46020039000202F
:10091000019002208DF8140000208DF8080001A934
:100920000E48FFF73BFF01210C48FFF7DBFE0B48A9
:10093000FFF7B8FF00BF0948FFF725FF0028FAD1ED
:100940000648FFF7BFFF00BF0448FFF705FF002878
:10095000FAD107B000BD00000008014000240140AA
:1009600000BFFEE77047002106E0002200E0521CB5
:10097000B2F5617FFBD3491C8142F6D370472DE964
:10098000F041024600250026002000230024002715
:1009900091F803C00CF00F0591F803C00CF0100C97
:1009A000BCF1000F03D091F802C04CEA050591F8A4
:1009B00000C0BCF1000F31D0146800202BE04FF0D4
:1009C000010C0CFA00F3B1F800C00CEA03069E42D9
:1009D00020D183004FF00F0C0CFA03F7BC4305FA4B
:1009E00003FC4CEA040491F803C0BCF1280F06D1C3
:1009F0004FF0010C0CFA00FCC2F814C00AE091F8A8
:100A000003C0BCF1480F05D14FF0010C0CFA00FCFB
:100A1000C2F810C0401C0828D1D31460B1F800C03F
:100A2000BCF1FF0F34DD546800202EE000F1080C0B
:100A30004FF0010808FA0CF3B1F800C00CEA030605
:100A40009E4221D183004FF00F0C0CFA03F7BC43F8
:100A500005FA03FC4CEA040491F803C0BCF1280F2A
:100A600005D100F1080C08FA0CF8C2F8148091F8CE
:100A700003C0BCF1480F07D100F1080C4FF001088A
:100A800008FA0CF8C2F81080401C0828CED3546035
:100A9000BDE8F08110B5044607230122214609482C
:100AA000FFF7A4FE01210748FFF701FF00BF022165
:100AB0000448FFF75FFE0028F9D00248FFF756FE12
:100AC00010BD0000002401402DE9F04107460C460E
:100AD0000025002608E03846FFF7DCFF0544052026
:100AE00000F0DAFE701CC6B2A642F4DBB5FBF4F0EF
:100AF00080B2BDE8F08100BFFEE7000011488069C8
:100B000040F008000F4988610F480068C0F31300E7
:100B10000D490860084600680C4908430A49086006
:100B2000081D006820F0FF00091D086008460068E5
:100B300040F0330008604FF6FF7003490C31086045
:100B40007047000000100240000C014000003033EC
:100B5000F0B507460C4615461E462A2000F040FA1E
:100B6000384600F01BFA284600F018FA2B2000F057
:100B700037FA204600F012FA304600F00FFA2C2027
:100B800000F02EFAF0BD70B504460D4616462B4611
:100B9000224629462046FFF7DBFF304600F0FEF9EB
:100BA00070BD000000B520206F4908608020091D3D
:100BB00008604FF47A70FFF7D6FE80206A4908601B
:100BC0004FF47A70FFF7CFFE112000F009FA782079
:100BD000FFF7C9FE3A2000F003FA052000F0F0F913
:100BE000C52000F0FDF91A2000F0EAF9362000F0E7
:100BF000F7F9002000F0E4F9B22000F0F1F9052047
:100C000000F0DEF9052000F0DBF9002000F0D8F953
:100C1000332000F0D5F9332000F0D2F9B72000F0EE
:100C2000DFF9052000F0CCF9BB2000F0D9F93F2016
:100C300000F0C6F9C02000F0D3F92C2000F0C0F974
:100C4000C22000F0CDF9012000F0BAF9C32000F075
:100C5000C7F90F2000F0B4F9C42000F0C1F920203A
:100C600000F0AEF9C62000F0BBF9012000F0A8F9B1
:100C7000D02000F0B5F9A42000F0A2F9A12000F0E6
:100C80009FF9E82000F0ACF9032000F099F9E92081
:100C900000F0A6F9092000F093F9092000F090F97E
:100CA000082000F08DF9E02000F09AF9D02000F043
:100CB00087F9052000F084F9092000F081F9092066
:100CC00000F07EF9082000F07BF9142000F078F99C
:100CD000282000F075F9332000F072F93F2000F071
:100CE0006FF9072000F06CF9132000F069F9142067
:100CF00000F066F9282000F063F9302000F060F978
:100D0000E12000F06DF9D02000F05AF9052000F044
:100D100057F9092000F054F9092000F051F9082092
:100D200000F04EF9032000F04BF9242000F048F9C0
:100D3000322000F045F9322000F042F93B2000F06B
:100D40003FF9142000F03CF9132000F039F9282075
:100D500000F036F92F2000F033F9212000F040F99F
:100D6000292000F03DF900BD100C01402DE9FF4F96
:100D700080468A4617469B460E9D00200290CDF87D
:100D80000080284605EBD071C1F347042046E217E6
:100D900004EB5272D2102146E31704EB5373DB10BD
:100DA000A4EBC3030BB1012300E000231A446A4300
:100DB00092B20192A7F12000C7B20AEB0500401ED3
:100DC00083B208EB0400401E82B251464046FFF752
:100DD000BFFE002669E00C2D07D107EB470035491F
:100DE00001EB8000805D03901BE0102D05D132489F
:100DF00000EB0710805D039013E0182D07D107EB7F
:100E000047002E4901EB0010805D039009E0202D82
:100E100005D12B4800EB8710805D039001E0BDE811
:100E2000FF8F4FF000093AE00F98C8B9012000FA8F
:100E300009F00399084018B1584600F0AFF802E0F5
:100E40000D9800F0ABF80298401CC0B202900298D6
:100E500090FBF4F104FB1100E8B90020029021E0BE
:100E6000012000FA09F00399084020B15A46514682
:100E70004046FFF788FE08F101001FFA80F800984D
:100E8000A8EB0000A04206D1DDF800800AF10100C5
:100E90001FFA80FA06E009F1010000F0FF09B9F13C
:100EA000080FC1DB00BF701C86B20198864292DB3E
:100EB00000BFB4E7182C00088C3000087C3600080E
:100EC0004C4800082DE9FF4F84B0074691461D4667
:100ED000DDE912A600200390304606EBD071C1F385
:100EE000470B002434E0281B401EC1B20A2000F04A
:100EF000B9FDB9FBF0F00A21B0FBF1F201FB1208D9
:100F00000398A0B9681EA04211DDB8F1000F0CD102
:100F1000002004FB0B71CDE900A6029088B22022CC
:100F2000119B0599FFF722FF10E00120039000209C
:100F300008F13001CAB204FB0B71CDE900A60290A2
:100F400088B2119B0599FFF711FF00BF601CC4B266
:100F5000AC42C8DB08B0BDE8F08F2DE9FE4706467D
:100F60000F4614469846DDE90C5ADDF82C9010E047
:100F7000CDE9015ACDF800902278434639463046F3
:100F8000FFF7F4FE284605EBD07106EB61018EB247
:100F9000641C20780028EBD1BDE8FE8710B504461C
:100FA0004FF48070054908602020091D0860201258
:100FB00000F024F8E0B200F021F810BD100C014060
:100FC00010B504464FF48070044908602020091DC4
:100FD0000860204600F012F810BD0000100C01401F
:100FE00010B504464FF48070034908602020086063
:100FF000204600F003F810BD140C0140002114E05D
:1010000020220D4B1A6000F0800212B940221A60B3
:1010100003E04022084B1B1F1A604206100E2022DC
:10102000054B1B1F1A604A1CD1B20829E8DB20229D
:10103000014B1A6070470000140C014000BFFEE72E
:101040007047000070B5002100230F22C47804B35C
:10105000154C246804F4E064C4F5E064210AC1F18D
:101060000403CA40447804FA03F18478144021430D
:1010700009010E4C0678A155047804F01F050124DF
:10108000AC4005786D11AD0005F1E025C5F80041D3
:1010900009E0047804F01F050124AC40044D0678F3
:1010A000761145F8264070BD0CED00E000E400E04C
:1010B00080E100E07047000001460020034A5068CC
:1010C00020F4404008435060704700000010024088
:1010D00029B1064AD2690243044BDA6104E0034AAB
:1010E000D2698243014BDA61704700000010024070
:1010F00029B1064A92690243044B9A6104E0034A0B
:1011000092698243014B9A617047000000100240CF
:1011100029B1064AD2680243044BDA6004E0034A6C
:10112000D2688243014BDA60704700000010024031
:1011300030B500210022002400232D4D6D6805F0FC
:101140000C0121B1042905D0082923D105E0294D3E
:10115000056022E0274D05601FE0254D6D6805F410
:101160007012234D6D6805F48034022505EB924220
:101170001CB9214D554305600BE01D4D6D6805F40C
:1011800000351DB11C4D5543056002E0194D554316
:10119000056002E0174D056000BF00BF144D6D688B
:1011A00005F0F0010909154D6B5C0568DD404560EF
:1011B0000F4D6D6805F4E061090A104D6B5C4568E0
:1011C000DD4085600A4D6D6805F46051C90A0B4D1C
:1011D0006B5C4568DD40C560054D6D6805F44041B8
:1011E000890B074D6B5CC568B5FBF3F5056130BD38
:1011F0000010024000127A0000093D001400002097
:1012000024000020704700000021304A1161D160A5
:101210001421516100219161D1611146096841F0A9
:101220000101116011464968294A1140274A51605D
:1012300011460968274A1140244A1160114609687D
:1012400021F4802111601146496821F4FE015160AA
:1012500000BF1E494968C1F381010029F9D11B4A29
:1012600091601146096841F48031116000BF17494F
:101270000968C1F340410029F9D04FF48061134A55
:101280005160811EC8B21146496841EA80415160EF
:101290001146496841F4803151601146096841F0B6
:1012A0008071116000BF09490968490E0029FAD010
:1012B0000649496841F00201044A516000BF0349F0
:1012C0004968C1F381010229F9D170470010024039
:1012D0000000FFF8FFFFF6FE10B500F001F810BDAA
:1012E0000CB50020019000903348006840F4803035
:1012F0003149086000BF3048006800F400300090B9
:101300000198401C0190009818B90198B0F5A06FA1
:10131000F1D12948006800F4003010B1012000909C
:1013200001E0002000900098012843D12348006884
:1013300040F01000214908600846006820F00300D2
:1013400008600846006840F0020008601A484068DB
:10135000194948600846406848600846406840F4BB
:10136000806048600846406820F47C104860084669
:10137000406840F4E81048600846006840F080701B
:10138000086000BF0C48006800F000700028F9D029
:101390000948406820F00300074948600846406853
:1013A00040F00200486000BF0348406800F00C00B5
:1013B0000828F9D10CBD00000010024000200240B6
:1013C000042808D14FF0E021096941F004014FF0F1
:1013D000E022116107E04FF0E021096921F00401EA
:1013E0004FF0E022116170477047000010B51348BC
:1013F000006840F001001149086008464068104943
:1014000008400E494860084600680E4908400B49EC
:1014100008600846006820F480200860084640689C
:1014200020F4FE0048604FF41F008860FFF754FF6F
:101430004FF000600449086010BD00000010024039
:101440000000FFF8FFFFF6FE08ED00E030B52A20AF
:10145000FFF7C6FD0020FFF7B3FD0020FFF7B0FD4A
:101460000020FFF7ADFDF020FFF7AAFD2B20FFF7CE
:10147000B7FD0020FFF7A4FD0020FFF7A1FD00202D
:10148000FFF79EFDF020FFF79BFD2C20FFF7A8FD46
:1014900000240BE0002506E0FF20FFF791FDFF2070
:1014A000FFF78EFD6D1CF02DF6D3641CF02CF1D3EC
:1014B00030BD000010B50C48008800F0010058B1A4
:1014C0000A490869804700200749143108804FF411
:1014D0007A7005491C3108800348008820F001001B
:1014E0000149088010BD0000100800407000002075
:1014F00021B1028842F00102028004E002884FF626
:10150000FE731A40028070471AB183890B438381AE
:1015100002E083898B4383817047000000220288A8
:101520001D4B98420ED01D4B98420BD0B0F1804F0E
:1015300008D01B4B984205D01A4B984202D01A4B48
:10154000984204D14FF68F731A404B881A43174BB9
:10155000984207D0164B984204D04FF6FF431A40EA
:10156000CB881A4302808B8883850B8803850A4BBE
:1015700098420BD0094B984208D00E4B984205D0A8
:101580000D4B984202D00D4B984201D10B7A038645
:101590000123838270470000002C01400034014089
:1015A0000004004000080040000C00400010004013
:1015B0000014004000400140004401400048014048
:1015C0007FB505460C4601210420FFF781FDADF8EB
:1015D0000850ADF804400020ADF80A00ADF8060050
:1015E00001A90D48FFF79AFF012241210A48FFF7A0
:1015F0008BFF1E208DF8000003208DF801008DF870
:10160000020001208DF803006846FFF71BFD012151
:101610000148FFF76DFF7FBD0008004010B540F2A4
:1016200025511D4800F04AF810B31B4800F002F99C
:10163000C4B21A48008800F40040C8B917480088AE
:1016400000F4804060B10A2C03D0002013490880C8
:1016500020E01248008840F400401049088019E05A
:101660000D2C06D10D48008840F480400B490880BD
:1016700010E00A480088C0F30D0009490C540748DF
:101680000088401C0549088008460088C72801DDFD
:101690000020088010BD000000380140300000200C
:1016A0006401002021B1828942F40052828104E069
:1016B00082894DF6FF731A408281704770B50246E9
:1016C000002400230025002040F66A16B14200D114
:1016D00000BFC1F3421501F01F03012606FA03F310
:1016E000012D02D19689334006E0022D02D1168ADF
:1016F000334001E0968A33400C12012606FA04F4C6
:101700001688344013B10CB1012000E0002070BDF8
:10171000F0B50346002400260025002040F66A1795
:10172000B94200D100BF1846C1F3421401F01F06B0
:10173000012707FA06F5012C01D10C3004E0022C38
:1017400001D1103000E014301AB107682F43076050
:1017500002E00768AF430760F0BD00002DE9F047E5
:1017600086B005460E460024A24600BFA1460027CB
:10177000B08900B100BF2F462C8A4CF6FF700440A0
:10178000F08804432C82AC894EF6F3100440B088F4
:1017900031890843718908430443AC81AC8A4FF610
:1017A000FF400440B0890443AC8201A8FFF7C0FCAD
:1017B0001F48874202D1DDF810A001E0DDF80CA03F
:1017C000A88900F4004040B10AEBCA0000EB0A10FF
:1017D00031684900B0FBF1F807E00AEBCA0000EB02
:1017E0000A1031688900B0FBF1F86420B8FBF0F012
:1017F00004012009642101FB1089A88900F400403C
:1018000040B1322000EBC900B0FBF1F000F007005E
:10181000044308E0322000EB09106421B0FBF1F032
:1018200000F00F0004432C8106B0BDE8F0870000F3
:101830000038014001468888C0F30800704700BFA7
:10184000FEE730380A2801D2012070470020704797
:1018500000BF704710B56FF00400FFF7B1FD0A48F4
:1018600000680A49B0FBF1F00949087008460078A1
:1018700000EB4001C1EBC0104FF6FF7101EAC00060
:101880000449088010BD00000000002000127A000A
:10189000280000202A0000200146114A12884A43ED
:1018A0004FF0E0235A6100229A611A46126942F011
:1018B00001021A6100BF4FF0E022106900F001023E
:1018C0001AB100F48032002AF5D04FF0E0221269FC
:1018D00022F001024FF0E0231A6100229A61704762
:1018E0002A0000200146114A12784A434FF0E023B3
:1018F0005A6100229A611A46126942F001021A6185
:1019000000BF4FF0E022106900F001021AB100F4AC
:101910008032002AF5D04FF0E022126922F0010255
:101920004FF0E0231A6100229A61704728000020DE
:1019300000BF054A128802F04002002AF9D0C2B264
:10194000014B1B1D1A807047003801400EB5FFF790
:1019500081FF4FF4165000F093F80420FFF754FC79
:10196000FFF7CCF84FF40070344908602020091DBF
:101970000860FFF717F9FFF769FDFEF7A9FF0020E0
:1019800010214FF6FF724FF47843CDE90021029009
:101990002BA20146FFF7E1FA012010214FF6FF725A
:1019A0004FF47843CDE90021029029A214210020B0
:1019B000FFF7D3FA002010214FF6FF724FF478435F
:1019C000CDE9002102901EA22821FFF7C6FA0120CE
:1019D00010214FF6FF724FF47843CDE900210290B9
:1019E0001BA23C210020FFF7B8FA25E00A210220C3
:1019F000FFF76AF8054610204FF6FF714FF4784262
:101A00000423CDE9002102902A4600216020FFF73F
:101A100059FA0A210320FFF757F8044610204FF621
:101A2000FF714FF478420423CDE900210290224651
:101A300028216020FFF746FAD8E70000100C01408B
:101A40004144435F4348315F56414C3A0000000037
:101A50004144435F4348315F564F4C3A302E30305B
:101A60003056000010B50246012000E050430B1E26
:101A7000A1F10104E1B2F9D110BD01460868704737
:101A800010B586B00446012144F20400FFF730FB94
:101A90004FF40070ADF8140003208DF816001820E4
:101AA0008DF8170005A91C48FEF769FF4FF4806008
:101AB000ADF8140004208DF8170005A91648FEF7AC
:101AC0005EFF25208DF8000003208DF801008DF8C1
:101AD000020001208DF803006846FFF7B3FA019475
:101AE0000020ADF80800ADF80A00ADF80C00ADF824
:101AF00010000C20ADF80E0001A90848FFF72EFEDB
:101B0000012240F225510548FFF702FE012103485A
:101B1000FFF7C8FD06B010BD0008014000380140C5
:101B200030B595B0054613AB12AA09A9284600F0B6
:101B30003BFA044614B1204615B030BD0020149085
:101B400026E0224909689DF8502001EBC20113AB41
:101B500011AA486801A900F027FA04460CB12046F2
:101B6000EAE709A901A800F0BBFC60B99DF84400B0
:101B70009DF84810884201DD0220DDE79DF8500005
:101B8000124988750AE09DF85000401CC0B21490BC
:101B90000E48007D9DF850108842D2DC00BF0B48F3
:101BA000007D9DF85010884201D10420C4E714A99B
:101BB000284600F0D9FA04460CB12046BCE79DF84F
:101BC0005000024948750020B6E700007000002070
:101BD0002DE9F0419AB000269C48847D007DA0420A
:101BE00002DC1AB0BDE8F0819849096801EBC40134
:101BF00006AB07AA486808A900F0D6F908A994A07E
:101C0000FEF714FB002544E09048008B0121A94019
:101C10000840D8B1222190A0FEF708FB284600F02A
:101C200029FB8A492431471839468CA0FEF7FEFA71
:101C3000222189A0FEF7FAFA284600F01BFB83490F
:101C40002431084410A941F8250018E0284600F086
:101C500011FB7E492431085810A941F825007B4822
:101C6000C07D30B910A850F825107DA0FEF7DEFA2F
:101C700005E010A850F825107AA0FEF7D7FA9DF8D5
:101C80001C00401EA84202D078A0FEF7CFFA681CC4
:101C9000C5B29DF81C008542B6DB75A0FEF7C6FAFA
:101CA00000F038FB6948407D0B280DD2DFE800F0DA
:101CB000060D151E27323F4E5F7287006349096883
:101CC00051F834008047064690E0604A126852F8A6
:101CD000341010988847064688E05C4B1B6853F820
:101CE0003420DDE91001904706467FE0574F3F68FA
:101CF00057F8343010A807C89847064676E0DFF852
:101D00004CC1DCF800C05CF8347010A80FC8B847AC
:101D100006466BE01498DFF834C10090DCF800C090
:101D20005CF8347010A80FC8B84706465EE0DDE9DD
:101D30001401DFF818C1CDE90001DCF800C05CF83F
:101D4000347010A80FC8B84706464FE0DDE91412FA
:101D50001698DFF8F8C0CDE900120290DCF800C058
:101D60005CF8347010A80FC8B84706463EE0DDE9BD
:101D70001423DDE91610DFF8D4C0CDE90023CDE946
:101D80000210DCF800C05CF8347010A80FC8B84727
:101D900006462BE0DDE9163218991598CDE9023296
:101DA000049101901498DFF8A4C00090DCF800C002
:101DB0005CF8347010A80FC8B847064616E0DDE995
:101DC0001623DDE91810CDE90223CDE90410DDE981
:101DD0001401DFF878C0CDE90001DCF800C05CF840
:101DE000347010A80FC8B847064600BF00BF00F007
:101DF00051FA9DF8180001280CD11448C07D20B973
:101E000031461CA0FEF712FA07E031461BA0FEF790
:101E10000DFA02E018A0FEF709FA0C4890F8EC0061
:101E200088B10A48D0F8F0000A21B0FBF1F201FBBA
:101E300012070648D0F8F000B0FBF1F83A464146E8
:101E400011A0FEF7F3F900BFCBE600007000002000
:101E50000D0A25732800000025630000257300008B
:101E6000256C750030582558000000002C0000003B
:101E7000290000003D256C753B0D0A003D305825BA
:101E8000583B0D0A0000000046756E6374696F6E62
:101E90002052756E2054696D653A25642E25316493
:101EA0006D730D0A00000000F0B5034615460020D2
:101EB00000220026002455E01F782C2F01D104B900
:101EC00001221F78292F01D01F780FB904B94AE0E9
:101ED000002E34D11F78302F02DB1F78392F11DD0F
:101EE0001F78612F02DB1F78662F0BDD1F78412FD3
:101EF00002DB1F78462F05DD1F78582F02D01F7890
:101F0000782F0CD102B12EE01F78612F03DB1F78F0
:101F1000203F0F7001E01F780F70491C1FE01F78F1
:101F2000222F04D102B11EE00126012417E01F7800
:101F3000202F14D01F782C2F11D0FF2613E01F78EC
:101F4000222F00D1002402B10DE044B11F785C2F94
:101F500002D15B1C471CF8B21F780F70491C471C4C
:101F6000F8B25B1CA8E700BF00270F702E70F0BD11
:101F700010B50446002010700BE020780870641C37
:101F8000491C1078401C10701078984201DB012029
:101F900010BD2078202802D020780028EDD1002024
:101FA000087000BFF4E700002DE9FF4F85B08046C0
:101FB00089460027002004900390012002904FF0F2
:101FC000000B002544461DE02078202816D005F09F
:101FD0007F00052812DA0DB945F0800505F07F0075
:101FE000042803D120782A2800D00EE0207805F0BC
:101FF0007F010DF80100681CC5B202E0852D00D1FB
:1020000003E0641C20780028DED100BF8DB10020E1
:1020100005F07F010DF8010051A1684600F060FA5B
:1020200018B900210898017002E001210898017098
:1020300000254FF0000A444614E0641C0AF1010038
:1020400000F0FF0A2078202802D020782A2809D121
:10205000204600F0D5F90646282E03D02A2E01D0BE
:10206000CDF810A02078282802D020780028E4D1CC
:102070004446049810B10498401C04444FF0000AF0
:10208000002654E0207810B94FF0010A50E0207883
:10209000282803D116B9781CC7B213E02078292864
:1020A00008D13EB917B1781EC7B201E04FF0010A5E
:1020B00047B93DE02078222804D10EB9012000E084
:1020C0000020064647B9207820282FD0207889F8AC
:1020D000000009F1010929E020782C2804D1012011
:1020E0000290681CC5B214E02078202811D0207816
:1020F00028280ED04DB9BBF1050F06DA20780DF86F
:102100000B000BF1010000F0FF0B0298401CC0B265
:102110000290012F0AD10298022807D10298401C90
:10212000C0B202900398401CC0B20390641CA9E79F
:1021300000BF0398012809D100200DF80B0008A169
:10214000684600F0CDF908B900200390079903987C
:102150000870002089F80000504609B0BDE8F08FF3
:10216000766F6964000000002DE9F043B5B00546C4
:102170000F460024002604E000213D488155701CD4
:10218000C6B20A2EF8DB06E06D1C287818B90120CB
:1021900035B0BDE8F08328782828F5D16D1C61E0C2
:1021A00034AA69462846FFF77FFE064635449DF867
:1021B000D00020B1012827D0FF284CD149E09DF85C
:1021C000000000B333A9684600F025F906460EB1B9
:1021D0000220DDE7204600F04DF825490A31339A08
:1021E0000A50A1F12400008B0121A140884320491D
:1021F0001A39088304211E480155601CC4B20A2CF8
:1022000001DD0320C4E726E0684600F085F9401CA4
:1022100000F0FF08204600F02DF815490A3100EBC8
:1022200001094946684600F06CF911481A38018BDB
:102230000120A040014388B20D491A3908830C4897
:1022400000F80480601CC4B20A2C01DD03209FE763
:1022500001E002209CE700BF2878292801D02878D7
:1022600000B900E09CE700BF3C70002090E7000050
:102270008A00002002460020002105E0044B5B5C40
:102280000344D8B24B1CD9B29142F7DB704700002F
:102290008A0000200D48008800F0010040B10C4881
:1022A000D0F8F0004FF6FF7108440949C1F8F0007A
:1022B0000748D0F8F000054914310988084404495A
:1022C000C1F8F0000846D0F8F00070471008004050
:1022D0007000002010B5044604EBC40000EB0410AD
:1022E0000122C2EB800081B24FF47A70FFF768F9E7
:1022F00001200149C87510BD7000002010B50246CC
:10230000012000E050430B1EA1F10104E1B2F9D11C
:1023100010BD00000948008820F00100074908802E
:102320004FF6FF7005491C31088000200349143125
:1023300008800349C1F8F000704700001008004011
:102340007000002070B51D48008800F4004000288F
:1023500033D01A4805780020194948551948816832
:102360001748884704461CB91649C868804721E0C9
:10237000134800F0DDF80546012D00D02C46CCB105
:10238000012C06D0022C08D0032C0AD0042C10D12A
:102390000BE00DA0FDF74AFF0BE00EA0FDF746FF96
:1023A00007E00FA0FDF742FF03E010A0FDF73EFF9E
:1023B00000BF00BF00200149088070BD3000002030
:1023C0006401002070000020BAAFCAFDB4EDCEF366
:1023D000210D0A00B2CECAFDB4EDCEF3210D0A00E4
:1023E000B2CECAFDCCABB6E0210D0A00CEB4D5D238
:1023F000B5BDC6A5C5E4B5C4BAAFCAFD210D0A0076
:102400000146491C00E0491C0878202801D1002918
:10241000F9D1087870472DE9F04307460E460025AC
:102420004FF00A083C46002030601FE02078392831
:1024300002DC207830280ADA2078462802DC20786E
:10244000412804DA2078582809D1012D07D12078B5
:10245000412801DB4FF01008681CC5B205E0207868
:1024600000B904E00120BDE8F083641CDEE700BF92
:102470003C46B8F1100F0FD1032D01DA0220F2E72C
:102480002078302806D16078582803D1A41CA81ED3
:10249000C5B204E00320E6E70DB90420E3E71BE042
:1024A0000DB1681EC5B22078392806DC20783028A6
:1024B00003DB2078A0F1300902E02078A0F1370991
:1024C00029464046FFF71AFF316809FB00103060CB
:1024D000641C207800B900E0E2E700BF0020C2E7FA
:1024E00002460AE010780B78984201D0012070472C
:1024F000107800B902E0521C491CF3E700BF00202D
:10250000F5E706E002780A70027802B902E0401CA2
:10251000491CF7E700BF70470146002005E00A7834
:1025200002B903E0421CD0B2491CF8E700BF704773
:1025300010B58CB004461E230BAA03A92046FFF752
:1025400017FD0090009810B101200CB010BD9DF84F
:102550002C00044400200B900EE040489DF82C20F5
:1025600050F8221003A8FFF7BBFF00B908E09DF860
:102570002C00401CC0B20B909DF82C000728ECD317
:1025800000BF9DF82C00072863D2DFE800F00405A7
:102590003C5E6564630000BF31A0FDF747FE31A0DB
:1025A000FDF744FE3FA0FDF741FE4EA0FDF73EFEC5
:1025B0005CA0FDF73BFE6BA0FDF738FE79A0FDF7B0
:1025C00035FE86A0FDF732FE8BA0FDF72FFE90A012
:1025D000FDF72CFE94A0FDF729FE99A0FDF726FE3D
:1025E0009EA0FDF723FEA4A0FDF720FEB0A0FDF7FE
:1025F0001DFEBDA0FDF71AFEC8A0FDF717FED4A072
:10260000FDF714FE9AE216A0FDF710FEE0A0FDF71C
:102610000DFE00200B900EE0ED4800689DF82C2088
:1026200000EBC2004168EBA0FDF700FE9DF82C0016
:10263000401CC0B20B90E648007D9DF82C108842EB
:10264000EADC07A0FDF7F2FD78E205A0FDF7EEFD5C
:10265000C4E171E245E219E2ECE10000340000203F
:102660000D0A00002D2D2D2D2D2D2D2D2D2D2D2D37
:102670002D2D2D2D2D2D2D2D2D2D2D2D55534D4108
:1026800052542056332E312D2D2D2D2D2D2D2D2D07
:102690002D2D2D2D2D2D2D2D2D2D2D2D2D2D2D2077
:1026A0000D0A00002020202055534D415254CAC726
:1026B000D3C9414C49454E54454BBFAAB7A2B5C4F6
:1026C000D2BBB8F6C1E9C7C9B5C4B4AEBFDAB5F775
:1026D000CAD4BBA5BDBBD7E9BCFE2CCDA8B9FD2093
:1026E0000D0A0000CBFC2CC4E3BFC9D2D4CDA8B9DD
:1026F000FDB4AEBFDAD6FACAD6B5F7D3C3B3CCD0E1
:10270000F2C0EFC3E6B5C4C8CEBACEBAAFCAFD2C8C
:10271000B2A2D6B4D0D02ED2F2B4CB2CC4E3BFC96F
:102720000D0A0000D2D4CBE6D2E2B8FCB8C4BAAFEE
:10273000CAFDB5C4CAE4C8EBB2CECAFD28D6A7B359
:10274000D6CAFDD7D62831302F3136BDF8D6C629A6
:10275000A1A2D7D6B7FBB4AEA1A2BAAFCAFDC8EB4F
:102760000D0A0000BFDAB5D8D6B7B5C8D7F7CEAADC
:10277000B2CECAFD292CB5A5B8F6BAAFCAFDD7EEC0
:10278000B6E0D6A7B3D63130B8F6CAE4C8EBB2CEBD
:10279000CAFD2CB2A2D6A7B3D6BAAFCAFDB7B52030
:1027A0000D0A0000BBD8D6B5CFD4CABE2ED0C2D435
:1027B000F6B2CECAFDCFD4CABEBDF8D6C6C9E8D6D9
:1027C000C3B9A6C4DC2CD0C2D4F6BDF8D6C6D7AAED
:1027D000BBBBB9A6C4DC2E0D0A000000BCBCCAF508
:1027E000D6A7B3D63A7777772E6F70656E65647625
:1027F0002E636F6D0D0A000055534D415254D3D0D6
:1028000037B8F6CFB5CDB3C3FCC1EE3A0D0A000020
:102810003F3A202020202020BBF1C8A1B0EFD6FAFB
:10282000D0C5CFA20D0A000068656C703A20202048
:10283000BBF1C8A1B0EFD6FAD0C5CFA20D0A0000F7
:102840006C6973743A202020BFC9D3C3B5C4BAAF32
:10285000CAFDC1D0B1ED0D0A0A00000069643A203A
:1028600020202020BFC9D3C3BAAFCAFDB5C4494494
:10287000C1D0B1ED0D0A0A006865783A2020202009
:10288000B2CECAFD3136BDF8D6C6CFD4CABE2CBA38
:10289000F3B8FABFD5B8F12BCAFDD7D6BCB4D6B4BD
:1028A000D0D0BDF8D6C6D7AABBBB0D0A0A0000001F
:1028B0006465633A20202020B2CECAFD3130BDF8D5
:1028C000D6C6CFD4CABE2CBAF3B8FABFD5B8F12B4E
:1028D000CAFDD7D6BCB4D6B4D0D0BDF8D6C6D7AA18
:1028E000BBBB0D0A0A00000072756E74696D653A13
:1028F000312CBFAAC6F4BAAFCAFDD4CBD0D0BCC667
:10290000CAB13B302CB9D8B1D5BAAFCAFDD4CBD0FF
:10291000D0BCC6CAB13B0D0A0A000000C7EBB0B478
:10292000D5D5B3CCD0F2B1E0D0B4B8F1CABDCAE4C9
:10293000C8EBBAAFCAFDC3FBBCB0B2CECAFDB2A2EF
:10294000D2D4BBD8B3B5BCFCBDE1CAF82E0D0A0089
:102950002D2D2D2D2D2D2D2D2D2D2D2D2D2D2D2DA7
:102960002D2D2D2D2D2D2D2D2D2D414C49454E54E8
:10297000454B2D2D2D2D2D2D2D2D2D2D2D2D2D2D51
:102980002D2D2D2D2D2D2D2D2D2D2D200D0A000021
:102990002D2D2D2D2D2D2D2D2D2D2D2D2D2D2D2D67
:1029A0002D2D2D2D2D2D2D2D2DBAAFCAFDC7E5B501
:1029B000A52D2D2D2D2D2D2D2D2D2D2D2D2D2D2DCF
:1029C0002D2D2D2D2D2D2D2D2D2D2D2D200D0A00B4
:1029D0007000002025730D0A0000000059A0FDF7CB
:1029E00025FC00200B901AE0664909689DF82C2010
:1029F00001EBC20101AB02AA486803A9FFF7D4FAB0
:102A0000604800689DF82C1050F8312003A95EA0A2
:102A1000FDF70CFC9DF82C00401CC0B20B905948EF
:102A2000007D9DF82C108842DEDCAFF2CC30FDF743
:102A3000FDFB83E0AFF2D830FDF7F8FB0BAA03A94A
:102A40002046FFF731FA9DF82C00C8B9694603A863
:102A5000FFF7E1FC0B909DF82C0020B94FA00099E6
:102A6000FDF7E4FB0EE09DF82C00042801D00220C5
:102A70006BE54DA0FDF7DAFB01204249C87501E086
:102A8000022062E547A0FDF7D1FB57E045A0FDF726
:102A9000CDFB0BAA03A92046FFF706FA9DF82C00F0
:102AA000C8B9694603A8FFF7B6FC0B909DF82C0047
:102AB00020B942A00099FDF7B9FB0EE09DF82C006B
:102AC000042801D0022040E53FA0FDF7AFFB002025
:102AD0002C49C87501E0022037E532A0FDF7A6FBBE
:102AE0002CE030A0FDF7A2FB0BAA03A92046FFF7BC
:102AF000DBF99DF82C00C8B9694603A8FFF78BFCE9
:102B00000B909DF82C0078B91E49009881F8EC00D4
:102B1000084690F8EC0018B130A0FDF787FB07E0FD
:102B200035A0FDF783FB03E002200EE502200CE553
:102B30001CA0FDF77BFB01E0012006E500BF0020A3
:102B400003E500002D2D2D2D2D2D2D2D2D2D2D2D81
:102B50002D2D2D2D2D2D2D2D2D2D2D2D2DBAAFCAF9
:102B6000FD204944202D2D2D2D2D2D2D2D2D2D2DAC
:102B70002D2D2D2D2D2D2D2D2D2D2D2D2D2D2D2D85
:102B8000200D0A00700000202573206964206973FD
:102B90003A0D0A3058253038580D0A004845583A41
:102BA000305825580D0A00003136BDF8D6C6B2CED1
:102BB000CAFDCFD4CABE210D0A0000004445433AE5
:102BC000256C750D0A0000003130BDF8D6C6B2CEB6
:102BD000CAFDCFD4CABE210D0A00000052756E2076
:102BE00054696D652043616C63756C6174696F6EC7
:102BF000204F4E0D0A00000052756E2054696D651D
:102C00002043616C63756C6174696F6E204F46463A
:102C10000D0A000001607047000000000000000085
:102C2000000000000000040404040400000400008C
:102C300014140A00000000000000000000000A0A4E
:102C40001F0A0A1F0A0A000000040E1505060C14CC
:102C5000150E0400000012150D152E2C2A1200006E
:102C60000000040A0A3615152916000002020100A8
:102C70000000000000000000100808040404040420
:102C800008081000020404080808080804040200E8
:102C900000000004150E0E150400000000000008DE
:102CA000083E0808000000000000000000000000CE
:102CB0000202010000000000003F000000000000D0
:102CC00000000000000000000002000000201010C2
:102CD000080804040202010000000E111111111174
:102CE000110E00000000040604040404040E000099
:102CF00000000E1111080402011F000000000E1157
:102D0000100C1010110E00000000080C0C0A091F16
:102D1000081C000000001F01010F1110110E00001F
:102D200000000C12010D1311110E000000001E1006
:102D3000080804040404000000000E11110E111113
:102D4000110E000000000E111119161009060000E6
:102D5000000000000400000000040000000000006B
:102D60000004000000040400000010080402020433
:102D700008100000000000003F003F0000000000BD
:102D800000000204081010080402000000000E11E8
:102D9000110804040004000000001C22292D2D1D30
:102DA000221C0000000004040C0A0A1E123300005A
:102DB00000000F12120E1212120F000000001E115E
:102DC00001010101110E000000000F121212121277
:102DD000120F000000001F120A0E0A02121F00004C
:102DE00000001F120A0E0A020207000000001C1257
:102DF00001013911120C000000003312121E1212D0
:102E00001233000000001F0404040404041F000027
:102E100000003E08080808080808090700003712E3
:102E20000A060A121237000000000702020202021C
:102E3000223F000000003B1B1B1B15151535000031
:102E400000003B1216161A1A1217000000000E118D
:102E500011111111110E000000000F12120E0202CA
:102E60000207000000000E1111111117190E1800B1
:102E700000000F12120E0A121237000000001E117D
:102E800001060810110F000000001F1504040404BF
:102E9000040E00000000331212121212120C000075
:102EA00000003312120A0A0C040400000000151579
:102EB00015150E0A0A0A000000001B0A0A04040A7B
:102EC0000A1B000000001B0A0A0A0404040E00008A
:102ED00000001F0908040402121F00001C0404045F
:102EE0000404040404041C0000020204040408088E
:102EF000081010000E0808080808080808080E0046
:102F0000040A0000000000000000000000000000B3
:102F1000000000000000003F02040000000000006C
:102F20000000000000000000000C121C123C000019
:102F300000030202020E1212120E00000000000036
:102F4000001C1202120C000000181010101C1212AB
:102F5000123C000000000000000C121E021C0000C9
:102F600000182404041E0404041E000000000000D5
:102F7000003C120C021C221C00030202020E121260
:102F8000123700000004040000060404040E0000D0
:102F900000080800000C08080808080700030202DF
:102FA000021A0A060A1300000007040404040404B9
:102FB000041F000000000000000F1515151500008B
:102FC00000000000000F1212123700000000000085
:102FD000000C1212120C000000000000000F121270
:102FE000120E020700000000001C1212121C103802
:102FF00000000000001B06020207000000000000A5
:10300000001E020C101E000000000004041E040438
:10301000041C000000000000001B1212123C000003
:1030200000000000001B0A0A040400000000000069
:103030000015150E0A0A000000000000001B0A041B
:103040000A1B000000000000003312120C080403E9
:1030500000000000001E0804041E000018080808F4
:10306000080C0808080818000808080808080808D4
:1030700008080808060404040408040404040600FC
:103080001609000000000000000000000000000021
:103090000000000000000000000000000000000828
:1030A00008080808080800001818000000486C24E8
:1030B00012000000000000000000000000000024DA
:1030C00024247F1212127F12121200000000081C2A
:1030D0002A2A0A0C1828282A2A1C0808000000227C
:1030E000251515152A585454542200000000000CD0
:1030F0001212120A76252911916E000000060604AC
:10310000030000000000000000000000004020104C
:1031100010080808080808101020400000020408E1
:103120000810101010101008080402000000000021
:1031300008086B1C1C6B0808000000000000000061
:10314000080808087F0808080800000000000000C0
:10315000000000000000000006060403000000005C
:1031600000000000FE000000000000000000000061
:103170000000000000000000060600000000804083
:10318000402020101008080404020200000000186B
:1031900024424242424242422418000000000008F9
:1031A0000E08080808080808083E00000000003C57
:1031B0004242422020100804427E00000000003CF1
:1031C0004242201820404042221C00000000002003
:1031D0003028242422227E20207800000000007E57
:1031E0000202021A26404042221C00000000003861
:1031F0002402021A26424242241800000000007EE7
:103200002222101008080808080800000000003CEE
:103210004242422418244242423C0000000000186E
:103220002442424264584040241C00000000000038
:10323000000018180000000018180000000000002E
:103240000000000800000000000808040000004022
:1032500020100804020408102040000000000000B4
:1032600000007F0000007F0000000000000000025E
:103270000408102040201008040200000000003C58
:103280004242464020101000181800000000001CA8
:10329000225A555555552D42221C000000000008A9
:1032A00008181414243C224242E700000000001FCA
:1032B0002222221E22424242221F00000000007CE5
:1032C0004242010101010142221C00000000001FD6
:1032D0002242424242424242221F00000000003F7E
:1032E0004212121E12120242423F00000000003F32
:1032F0004212121E12120202020700000000003CDD
:103300002222010101712122221C0000000000E79D
:10331000424242427E42424242E700000000003EFA
:103320000808080808080808083E00000000007C9B
:1033300010101010101010101010110F0000007756
:1033400022120A0E0A121222227700000000000741
:103350000202020202020202427F00000000007725
:10336000363636362A2A2A2A2A6B0000000000E365
:1033700046464A4A52525262624700000000001C10
:103380002241414141414141221C00000000003FD7
:10339000424242423E020202020700000000001CBC
:1033A0002241414141414D53321C60000000003F29
:1033B0004242423E1212222242C700000000007C1C
:1033C0004242020418204042423E00000000007FBA
:1033D0004908080808080808081C0000000000E761
:1033E0004242424242424242423C0000000000E768
:1033F0004242222424141418080800000000006B24
:10340000494949495555362222220000000000E76B
:10341000422424181818242442E7000000000077F2
:103420002222141408080808081C00000000007E6E
:103430002120101008040442423F000000780808D0
:1034400008080808080808080808780000000202B0
:10345000040408080810102020204040001E10100E
:10346000101010101010101010101E000038440022
:10347000000000000000000000000000000000004C
:103480000000000000000000000000FF000608002F
:10349000000000000000000000000000000000002C
:1034A0000000003C4278444242FC0000000000035F
:1034B0000202021A26424242261A000000000000C0
:1034C000000000384402020244380000000000609E
:1034D000404040784442424264D80000000000006E
:1034E0000000003C427E0202423C0000000000F06E
:1034F0008808087E08080808083E00000000000050
:103500000000007C22221C023C42423C00000003DE
:103510000202023A4642424242E700000000000C2A
:103520000C00000E08080808083E000000000030EB
:1035300030000038202020202020221E0000000320
:1035400002020272120A1612227700000000000E18
:103550000808080808080808083E000000000000E5
:103560000000007F9292929292B70000000000004B
:103570000000003B4642424242E7000000000000DB
:103580000000003C42424242423C00000000000079
:103590000000001B26424242221E020700000000DB
:1035A0000000007844424242447840E000000000BD
:1035B000000000774C040404041F00000000000019
:1035C0000000007C42023C40423E0000000000003F
:1035D0000008083E08080808083000000000000045
:1035E000000000634242424262DC00000000000032
:1035F000000000E742242414080800000000000036
:10360000000000EB4949555522220000000000004F
:103610000000007624181818246E00000000000036
:10362000000000E7422424141808080700000000E6
:103630000000007E22100808447E000000C0202008
:1036400020202010202020202020C000101010104A
:103650001010101010101010101010100006080894
:103660000808081008080808080806000C32C200FC
:10367000000000000000000000000000000000004A
:10368000000000000000000000000000000000003A
:10369000000000000000000000000000000000002A
:1036A000000000000000000000000000000000001A
:1036B00000000000600060006000600060006000CA
:1036C00060004000200020002000000000000000FA
:1036D00060006000600000000000000000000000CA
:1036E0006006600630039801880044000000000076
:1036F00000000000000000000000000000000000CA
:1037000000000000000000000000000000000000B9
:10371000000000001002100210021002FE07FE0757
:1037200008020801080108010801FE07FE0704015C
:10373000040104010401000000000000000000007A
:10374000000040004000F00158034C03CC034C0043
:1037500058007000E000C001C00140034C035C034E
:103760004C034801F0004000400000000000000051
:10377000000000000E010A0191009100910051002B
:1037800051003A00AE03A00250045004480448041B
:1037900048048402840300000000000000000000D0
:1037A0000000000038006C006C006C006C006C00C5
:1037B0002C0098071C011A01330133016301E30057
:1037C000C308C6093C07000000000000000000001C
:1037D0000C001C0010001000080004000000000095
:1037E00000000000000000000000000000000000D9
:1037F00000000000000000000000000000000000C9
:103800000004000200018000800040004000200011
:103810002000200020002000200020004000400068
:103820008000800000010002000400000000000091
:1038300002000400080010001000200020004000DA
:1038400040004000400040004000400020002000B8
:10385000100010000800040002000000000000003A
:1038600000000000000000004000C0004000460CC6
:103870004E0FD001F0015E0F460C400040004000AA
:103880000000000000000000000000000000000038
:103890000000000000000000000040004000400068
:1038A00040004000FE0F400040004000400040004B
:1038B0000000000000000000000000000000000008
:1038C00000000000000000000000000000000000F8
:1038D00000000000000000000000000000000000E8
:1038E0000C001C0010001000080004000000000084
:1038F00000000000000000000000000000000000C8
:1039000000000000FE0700000000000000000000B2
:1039100000000000000000000000000000000000A7
:103920000000000000000000000000000000000097
:103930000000000000000000000000000000000087
:103940001C001C001C000000000000000000000023
:103950000004000600020003000100018000800056
:10396000400040006000200020001000100008000F
:1039700008000C0004000600020000000000000027
:10398000000000000000F00098010C030C03060684
:1039900006060606060606060606060606060C03C4
:1039A0000C039801F000000000000000000000007F
:1039B00000000000000040007C006000600060002B
:1039C00060006000600060006000600060006000F7
:1039D00060006000FC030000000000000000000028
:1039E000000000000000F800840102030603060343
:1039F000000300018001C0006000200010000802E8
:103A000004020602FE0300000000000000000000A7
:103A10000000000000007800C600860186018001D9
:103A20008001C00070008001000100030003060354
:103A300006038601F80000000000000000000000FE
:103A400000000000000080018001C001A001A00171
:103A500090018801880184018201FE0F80018001AC
:103A600080018001E007000000000000000000006D
:103A7000000000000000FC03040004000400040037
:103A80000400F4008C010403000300030603060392
:103A900082018401F8000000000000000000000026
:103AA000000000000000E00118030C030C000400FB
:103AB0000600E60116030E060606060606060406BE
:103AC0000C021803F00000000000000000000000DD
:103AD000000000000000F8070C06040204010001C9
:103AE0000001800080004000400040006000600055
:103AF00060006000600000000000000000000000A6
:103B0000000000000000F8010C0306060606060689
:103B10000C021C03F000C8010C030606060606068C
:103B200006060C03F0010000000000000000000089
:103B3000000000000000F0000C010C030602060665
:103B40000606060606078C06780600060003000334
:103B50000C018C0178000000000000000000000053
:103B60000000000000000000000000000000000055
:103B7000E000E000E00000000000000000000000A5
:103B8000E000E000E0000000000000000000000095
:103B90000000000000000000000000000000000025
:103BA0006000600000000000000000000000000055
:103BB00000006000600040002000200000000000C5
:103BC000000000000004000200018000400020000E
:103BD00010000800040008001000200040008000D1
:103BE00000010002000400000000000000000000CE
:103BF00000000000000000000000000000000000C5
:103C0000FE07000000000000FE07000000000000AA
:103C100000000000000000000000000000000000A4
:103C20000000000004000800100020004000800098
:103C3000000100020004000200018000400020009A
:103C40001000080004000000000000000000000058
:103C5000000000000000E0031806040C040C0C0C2B
:103C60000C0C0007800140004000400000000000F4
:103C7000E000E000E00000000000000000000000A4
:103C800000000000E00018030C02CC056405660586
:103C9000A605B604B604B604B604B602E4010C04E4
:103CA0000C021803F00000000000000000000000FB
:103CB000000000000000600060005000D000900094
:103CC0009000880088010801F8010403040304023D
:103CD000020202060F0F00000000000000000000BA
:103CE000000000000000FE008C030C030C030C031A
:103CF0000C038C01FC000C030C020C060C060C06D9
:103D00000C060C03FE010000000000000000000093
:103D1000000000000000E00318030C060C0404047B
:103D200006000600060006000600060006040C0455
:103D30000C021803F000000000000000000000006A
:103D40000000000000007F008C010C030C030C0637
:103D50000C060C060C060C060C060C060C060C03D6
:103D60000C038C017F000000000000000000000038
:103D7000000000000000FF0306030604060406001E
:103D800086008600FE008600860086000600060487
:103D900006040602FF03000000000000000000000F
:103DA000000000000000FF030603060406040600EE
:103DB00086008600FE00860086008600060006005B
:103DC000060006001F0000000000000000000000C8
:103DD000000000000000F00018010C020C020402B8
:103DE0000600060006000600C60F060306030C03C5
:103DF0000C031803F00000000000000000000000A9
:103E00000000000000000F0F060606060606060664
:103E100006060606FE070606060606060606060649
:103E2000060606060F0F000000000000000000005C
:103E3000000000000000FC03600060006000600003
:103E40006000600060006000600060006000600072
:103E500060006000FC0300000000000000000000A3
:103E6000000000000000F807C000C000C000C00053
:103E7000C000C000C000C000C000C000C000C00042
:103E8000C000C000C000C60066003C00000000008A
:103E9000000000000000CF038601C6004600260097
:103EA000160036002E006E004600C6008600860111
:103EB000060106038F07000000000000000000005C
:103EC0000000000000001F000600060006000600BB
:103ED00006000600060006000600060006000604AE
:103EE00006040602FF0300000000000000000000BE
:103EF0000000000000000707860386038E038E0380
:103F00004E034E034A035A035A033A033203320361
:103F100032031203870700000000000000000000C9
:103F20000000000000008E0F0C021C021C02340274
:103F30003402640264024402C402840284038403DF
:103F4000040304031F020000000000000000000042
:103F5000000000000000F00098010C030C020606AF
:103F600006060606060606060606060606060C02EF
:103F70000C039801F00000000000000000000000A9
:103F8000000000000000FF00060306060606060605
:103F9000060606068603FE0006000600060006006A
:103FA000060006001F0000000000000000000000E6
:103FB000000000000000F00098010C030C0206064F
:103FC00006060606060606060606060676064C02DF
:103FD000CC039801F00080070003000000000000FF
:103FE000000000000000FF010603060606060606A4
:103FF00006060603FE004600C6008600860106038C
:10400000060306060F0E000000000000000000007E
:10401000000000000000F8020C0306020602060081
:104020000E003C00F800E0038003000702060206D1
:1040300006060C03F0010000000000000000000074
:10404000000000000000FE076204610861086000D3
:104050006000600060006000600060006000600060
:1040600060006000F8010000000000000000000097
:104070000000000000001E070C020C020C020C02E3
:104080000C020C020C020C020C020C020C020C02C0
:104090000C021801F0000000000000000000000009
:1040A0000000000000000F070602040104010C01DB
:1040B0000C018800880098009800500050007000A3
:1040C0003000200020000000000000000000000080
:1040D000000000000000F70E62044204460446049B
:1040E00064026402E402E4029C029C0198019801CB
:1040F0008801880088000000000000000000000027
:104100000000000000009E070C010801180190004B
:10411000B0006000200060006000D00090008801C6
:10412000080104038E0700000000000000000000EA
:104130000000000000000F0F060404020C0208013A
:104140001801B800B00070006000600060006000FE
:1041500060006000F80100000000000000000000A6
:10416000000000000000FC070C02060302018001B1
:1041700080004000400020002000100018000804CB
:104180000C040402FE030000000000000000000018
:10419000E00320002000200020002000200020005C
:1041A000200020002000200020002000200020000F
:1041B0002000200020002000E0030000000000009C
:1041C00000000000040004000800080010001000B7
:1041D00010002000200040004000C000800080004F
:1041E00000010001000200020002000400000000C3
:1041F0007C00400040004000400040004000400083
:1042000040004000400040004000400040004000AE
:1042100040004000400040007C00000000006000C2
:1042200090000801000000000000000000000000F5
:10423000000000000000000000000000000000007E
:10424000000000000000000000000000000000006E
:10425000000000000000000000000000000000005E
:10426000000000000000000000000000000000004E
:1042700000000000000000000000FF0F0000000030
:1042800018006000000000000000000000000000B6
:10429000000000000000000000000000000000001E
:1042A000000000000000000000000000000000000E
:1042B00000000000000000000000000000000000FE
:1042C000F0010C030C030003E0031C030E030603C0
:1042D00006038E0B7C0E00000000000000000000B2
:1042E0000000000008000E000C000C000C000C0088
:1042F000CC013C031C060C060C060C060C060C0636
:104300000C021C03E401000000000000000000009B
:10431000000000000000000000000000000000009D
:10432000F0008C018C0186010600060006000602E2
:104330000C020C01F0000000000000000000000072
:10434000000000000002C00300030003000300039C
:1043500078038C030C030603060306030603060317
:1043600004038C077801000000000000000000003A
:10437000000000000000000000000000000000003D
:10438000E001180308020C060C06FC070C000C00E8
:1043900018041802E0010000000000000000000006
:1043A000000000000000C00360063006300030004E
:1043B000FE013000300030003000300030003000AE
:1043C00030003000FC010000000000000000000090
:1043D00000000000000000000000000000000000DD
:1043E000F007D8068C018C018C019801F8000C00B4
:1043F000FC00CC03060306038E03F8000000000057
:104400000000000008000E000C000C000C000C0066
:10441000EC011C030C030C030C030C030C030C0336
:104420000C030C039E0700000000000000000000C9
:10443000000000000000600060000000000040007C
:104440007C00600060006000600060006000600050
:1044500060006000FC03000000000000000000009D
:10446000000000000000C001C001000000000001C9
:10447000F0018001800180018001800180018001C4
:104480008001800180018001CC007C0000000000E0
:104490000000000008000E000C000C000C000C00D6
:1044A0008C038C008C004C006C005C008C008C0138
:1044B0000C010C039E07000000000000000000003B
:1044C0000000000040007C006000600060006000B0
:1044D00060006000600060006000600060006000DC
:1044E00060006000FC03000000000000000000000D
:1044F00000000000000000000000000000000000BC
:104500003707EE06660666066606660666066606F1
:1045100066066606FF0F00000000000000000000B5
:10452000000000000000000000000000000000008B
:10453000EE011C030C030C030C030C030C030C0313
:104540000C030C039E0700000000000000000000A8
:10455000000000000000000000000000000000005B
:10456000F00098010C030606060606060606060677
:104570000C030C03F000000000000000000000002D
:10458000000000000000000000000000000000002B
:10459000EE011C030C060C060C060C060C060C06A1
:1045A0000C031C03EC010C000C003E00000000009A
:1045B00000000000000000000000000000000000FB
:1045C00078028C030C0306030603060306030603A6
:1045D00004038C03780300030003C00700000000FD
:1045E00000000000000000000000000000000000CB
:1045F0009F03580638061800180018001800180005
:1046000018001800FF00000000000000000000007B
:10461000000000000000000000000000000000009A
:10462000F0031C030C020C023800F000C00304036A
:1046300004038C03FC0100000000000000000000E7
:1046400000000000000000002000200030003000CA
:10465000FE0130003000300030003000300030000B
:1046600030023002E0010000000000000000000005
:104670000000000000000000000000000000080230
:104680008E030C030C030C030C030C030C030C0330
:104690000C039C07780100000000000000000000EF
:1046A000000000000000000000000000000000000A
:1046B0001E070C020801080118019000B000B000AC
:1046C000600060002000000000000000000000000A
:1046D00000000000000000000000000000000000DA
:1046E000F70E6204460464026402EC029C01980125
:1046F0009801980108000000000000000000000080
:1047000000000000000000000000000000000000A9
:10471000BC0718011001B00060006000E0009000CC
:10472000080108039E0700000000000000000000D0
:104730000000000000000000000000000000000079
:104740009E0708010801080190009000B000600079
:10475000600060002000200024001C000000000019
:104760000000000000000000000000000000000049
:10477000FC018401C40044006000200030001802E5
:1047800008020C03FC010000000000000000000013
:104790000003800080008000800080008000800096
:1047A00080004000200040008000800080008000E9
:1047B0008000800080008000000300004000400076
:1047C00040004000400040004000400040004000E9
:1047D00040004000400040004000400040004000D9
:1047E0004000400040004000400040000000000049
:1047F0000C0010001000100010001000100010003D
:1048000010002000400020001000100010001000D8
:1048100010001000100010000C00000000001C0030
:104820002204C20480030000000000000000000019
:104830000000000000000000000000000000000078
:104840000000000000000000000000000000000068
:104850000000000000000000000000000000000058
:104860000000000000000000000000000000000048
:104870000000000000000000000000000000000038
:104880000000000000000000000000000000000028
:10489000000000000000C001C001C001C001C00153
:1048A000C001C00180008000800080008000800086
:1048B000800000000000000000008001C003C00371
:1048C0008001000000000000000000000000000067
:1048D0000000E01CE01CF01E700E380718030801F1
:1048E0008400000000000000000000000000000044
:1048F00000000000000000000000000000000000B8
:1049000000000000000000000000000000000000A7
:1049100000000000000000002010201020102010D7
:104920002010FE7FFE7F10081008100810081008E5
:1049300010081008FE7FFE7F08040804080408041D
:10494000080400000000000000000000000000005B
:104950000000000000010001C0076019103118318B
:104960001839183938017001E001C0038007000FC1
:10497000001D003900311C311C310C310C11180D97
:10498000E00700010001000100000000000000003D
:1049900000000000000000001C1036186308630CC3
:1049A00063046304630263026301361D9C37802243
:1049B00080634063406320632063306310221836B5
:1049C000081C0000000000000000000000000000C3
:1049D0000000000000000000F00098018C018C0134
:1049E0008C018C018C00CC007800183E1C08360825
:1049F000320863046304C304C303834306438E265F
:104A0000781C000000000000000000000000000012
:104A100000001C003C003C003000300010000C0086
:104A20000600000000000000000000000000000080
:104A30000000000000000000000000000000000076
:104A40000000000000000000000000000000000066
:104A500000000040002000100008000C00040006C8
:104A600000030003000380018001800180018001B8
:104A7000800180018001000300030003000600069E
:104A8000000C0008001000200040000000000000A2
:104A90000000020004000800100030002000600048
:104AA000C000C000C0008001800180018001800141
:104AB000800180018001C000C000C0006000600073
:104AC0003000100008000400020000000000000098
:104AD0000000000000000000000000000001800352
:104AE000800300011C713C79783DC0070001C007BC
:104AF000783D3C791C710001800380038001000037
:104B000000000000000000000000000000000000A5
:104B10000000000000000000000000000000000194
:104B2000000100010001000100010001FC7F000103
:104B3000000100010001000100010001000000006F
:104B40000000000000000000000000000000000065
:104B50000000000000000000000000000000000055
:104B60000000000000000000000000000000000045
:104B70000000000000000000000000001C003C00DD
:104B80003C003000300010000C0006000000000067
:104B90000000000000000000000000000000000015
:104BA000000000000000000000000000FE7F000088
:104BB00000000000000000000000000000000000F5
:104BC00000000000000000000000000000000000E5
:104BD00000000000000000000000000000000000D5
:104BE00000000000000000000000000000000000C5
:104BF0000000000000000000000018003C003C0025
:104C0000180000000000000000000000000000008C
:104C10000000004000600020003000100018000874
:104C2000000C000400060002000300018001800067
:104C3000C000400060002000300010001800080094
:104C40000C0004000600020000000000000000004C
:104C50000000000000000000C007600C3018183091
:104C6000183018200C600C600C600C600C600C603C
:104C70000C600C600C601820183018303018600C74
:104C8000C00700000000000000000000000000005D
:104C9000000000000000000000018001F801800118
:104CA00080018001800180018001800180018001FC
:104CB0008001800180018001800180018001C003AA
:104CC000F81F0000000000000000000000000000CD
:104CD0000000000000000000E007101C081804306D
:104CE00004300C300C3000300018000800040002C2
:104CF0000001800040002020102008200430FC1F0C
:104D0000FC1F000000000000000000000000000088
:104D10000000000000000000E003180E0C0C0C184E
:104D20000C180C180018000C0006C003000E001828
:104D30000010003000300C300C300C100C18180C27
:104D4000E003000000000000000000000000000080
:104D50000000000000000000000C000E000E000F1C
:104D6000800E800E400E600E200E100E100E080EEB
:104D7000040E040EFE7F000E000E000E000E000E4C
:104D8000000EC07F000000000000000000000000D6
:104D90000000000000000000F03FF03F1000100095
:104DA000100008000800C807280C18180810003068
:104DB0000030003000300C300C3004180418080C9F
:104DC000F0030000000000000000000000000000F0
:104DD0000000000000000000800FC01020301030E4
:104DE0001800180008000C008C0F6C183C301C6078
:104DF0000C600C600C600C6018601820303060187B
:104E0000C0070000000000000000000000000000DB
:104E10000000000000000000F83FF83F1C100C08E4
:104E20000408040400040002000200010001000163
:104E3000800080008000C000C000C000C000C00032
:104E4000C0000000000000000000000000000000A2
:104E50000000000000000000E007300C18180C30C3
:104E60000C300C301C3038187008E007B007180EF2
:104E70000C1C063806300630063006300C18180CAC
:104E8000E00300000000000000000000000000003F
:104E90000000000000000000E00318040C080C18DB
:104EA0000610063006300630063006380C3C183640
:104EB000F03100300018001800180C0C0C060C0320
:104EC000F0010000000000000000000000000000F1
:104ED00000000000000000000000000000000000D2
:104EE0000000000000008001C003C003800100003A
:104EF000000000000000000000008001C003C003AB
:104F00008001000000000000000000000000000020
:104F10000000000000000000000000000000000091
:104F2000000000000000C000C00000000000000001
:104F30000000000000000000000000000000C000B1
:104F4000C000800080004000400000000000000021
:104F5000000000000000002000100008000400060F
:104F600000038001C0006000300018000C00180031
:104F700030006000C000800100030006000400084B
:104F800000100020000000000000000000000000F1
:104F90000000000000000000000000000000000011
:104FA000000000000000FE7F000000000000000084
:104FB0000000FE7F00000000000000000000000074
:104FC00000000000000000000000000000000000E1
:104FD0000000000000000400080010002000600035
:104FE000C000800100030006000C0018003000180B
:104FF000000C000600038001C000600020001000CB
:105000000800040000000000000000000000000094
:10501000000000000000C0073018083008600C6075
:105020001C601C601C600030001C00060001800039
:10503000800080008000000000008001C003C003E9
:1050400080010000000000000000000000000000DF
:105050000000000000000000C00760181030182099
:105060000C2F8C4D864CC64CC64C664C6644664430
:10507000662666266615CC1C0C40082018303018B1
:10508000C007000000000000000000000000000059
:105090000000000000000001C001C001C00140018B
:1050A00060032003200320033006100610061006BC
:1050B000F80F080C080C080C0C0C0418041806183F
:1050C0001F7C000000000000000000000000000045
:1050D0000000000000000000FE07181C18381830FF
:1050E0001830183018301818180CF807181818301D
:1050F00018201860186018601860186018301818A8
:10510000FE0F000000000000000000000000000092
:105110000000000000000000C02760381030182098
:105120000C400C40040006000600060006000600C5
:105130000600060006000C400C400C201830301809
:10514000C007000000000000000000000000000098
:105150000000000000000000FE03180E18181830B0
:1051600018301830186018601860186018601860DF
:105170001860186018601830183018101818180EB9
:10518000FE0300000000000000000000000000001E
:105190000000000000000000FE3F183018201860DA
:1051A0001840180018081808180CF80F180C1808E0
:1051B0001808180018001800184018401820183057
:1051C000FE3F0000000000000000000000000000A2
:1051D0000000000000000000FE7F1870184018C09A
:1051E00018801800181018101818F81F1818181020
:1051F00018101800180018001800180018001800DF
:105200007E00000000000000000000000000000020
:105210000000000000000000C013701C10101810E7
:105220000C200C2004000600060006000600060004
:1052300006FC063006300C300C30183018303008C0
:10524000C007000000000000000000000000000097
:1052500000000000000000003F7E0C180C180C1825
:105260000C180C180C180C180C180C18FC1F0C1827
:105270000C180C180C180C180C180C180C180C180E
:105280003F7E000000000000000000000000000061
:105290000000000000000000F81F80018001800174
:1052A00080018001800180018001800180018001F6
:1052B00080018001800180018001800180018001E6
:1052C000F81F0000000000000000000000000000C7
:1052D0000000000000000000E07F0006000600065D
:1052E000000600060006000600060006000600068E
:1052F000000600060006000600060006000600067E
:10530000000600060E060E038E01FC0000000000E1
:1053100000000000000000007E7C18181808180427
:1053200018061802180198019801D801B80338032B
:1053300018071806180E180C181C181818301830F2
:105340007EFC0000000000000000000000000000E3
:1053500000000000000000007E0018001800180087
:10536000180018001800180018001800180018007D
:10537000180018001800180018401840182018309D
:10538000FE3F0000000000000000000000000000E0
:1053900000000000000000001FF81C381C381C38FA
:1053A0001C3C343434343434343674326432643231
:1053B00064326431C431C431C431C430C430843047
:1053C0009FFC000000000000000000000000000042
:1053D00000000000000000001F7C1C103C10341076
:1053E000341074106410E410C410C41184118413B8
:1053F000041304170416041E041C041C041C0418C3
:105400001F18000000000000000000000000000065
:105410000000000000000000C003300C1818081045
:105420000C300C30066006600660066006600660A0
:105430000660066006600C200C3008101818300C4E
:10544000C003000000000000000000000000000099
:105450000000000000000000FE0F1818183018604F
:10546000186018601860186018301818F80F1800C5
:10547000180018001800180018001800180018006C
:105480007E0000000000000000000000000000009E
:105490000000000000000000C003300C18180C10C1
:1054A0000C300C2006600660066006600660066030
:1054B000066006600660E4612C331C321816300E5C
:1054C000C007004C007C0038000000000000000015
:1054D0000000000000000000FE07181C18381830FB
:1054E0001830183018301818180CF80798031803DB
:1054F000180718061806180E180C180C181C18187F
:105500007E780000000000000000000000000000A5
:105510000000000000000000E027303818300C20A8
:105520000C200C000C0018007800E003800F001E17
:10553000003800700060046004600860183038189B
:10554000C80F000000000000000000000000000084
:105550000000000000000000FC3F8C2184618241BB
:1055600082418001800180018001800180018001F1
:105570008001800180018001800180018001800123
:10558000E007000000000000000000000000000034
:1055900000000000000000003F7C0C100C100C10FC
:1055A0000C100C100C100C100C100C100C100C101B
:1055B0000C100C100C100C100C100C1008083804F7
:1055C000E0030000000000000000000000000000F8
:1055D00000000000000000003EF8182018201820ED
:1055E0003010301030103010600860086008E00C97
:1055F000C004C004C0048003800380038003000152
:105600000001000000000000000000000000000099
:105610000000000000000000DFF386618621862183
:105620008C210C218C238C138C138C134C1358124B
:105630005816580E380E380E380E300C1004100460
:105640001004000000000000000000000000000046
:1056500000000000000000007E3E180838083004FA
:10566000300470026002E001C001C00180018003CB
:105670004003400720062006100C100C08180818DC
:105680003E7C000000000000000000000000000060
:1056900000000000000000007E7C1C10181018089C
:1056A0003008300C700460046002C002C002C00107
:1056B00080018001800180018001800180018001E2
:1056C000E0070000000000000000000000000000F3
:1056D0000000000000000000F83F18180818040C33
:1056E000040E00060007000380038001C001C00013
:1056F000E000600070003000382018201C100C18EA
:10570000FE1F00000000000000000000000000007C
:105710000000C03F4000400040004000400040000A
:105720004000400040004000400040004000400079
:105730004000400040004000400040004000400069
:10574000400040004000C03F00000000000000009A
:1057500000000000000008001800180010003000D1
:105760002000600060004000C000800080018001D7
:10577000000100030002000600060004000C0008FF
:105780000018001800100030002000000000000089
:105790000000FC03000200020002000200020002FE
:1057A00000020002000200020002000200020002E9
:1057B00000020002000200020002000200020002D9
:1057C000000200020002FC030000000000000000D4
:1057D00000008007C0062008101000000000000034
:1057E00000000000000000000000000000000000B9
:1057F00000000000000000000000000000000000A9
:105800000000000000000000000000000000000098
:105810000000000000000000000000000000000088
:105820000000000000000000000000000000000078
:105830000000000000000000000000000000000068
:1058400000000000000000000000FFFF000000005A
:1058500000007800C000000100000000000000000F
:105860000000000000000000000000000000000038
:105870000000000000000000000000000000000028
:105880000000000000000000000000000000000018
:105890000000000000000000000000000000000008
:1058A000000000000000F00318060C0C0C0C000CAB
:1058B000800F700C1C0C0C0C060C060C064C0C4FCC
:1058C000F8380000000000000000000000000000A8
:1058D00000000000000010001E0018001800180052
:1058E000180018001800180FD818383038601860E1
:1058F0001860186018601860186018203830781820
:10590000C8070000000000000000000000000000C8
:105910000000000000000000000000000000000087
:10592000000000000000C007700C181818180C18B0
:105930000C000C000C000C000C2018201810300873
:10594000C007000000000000000000000000000090
:105950000000000000000010001E001800180018D1
:10596000001800180018E01B301C181818180C1824
:105970000C180C180C180C180C180818181C307A75
:10598000E00900000000000000000000000000002E
:105990000000000000000000000000000000000007
:1059A000000000000000C007300C181808100C3070
:1059B0000C30FC3F0C000C000C0018201810701864
:1059C000C007000000000000000000000000000010
:1059D0000000000000000000003E80C380C0C0C086
:1059E000C000C000C000FC1FC000C000C000C0005C
:1059F000C000C000C000C000C000C000C000C000A7
:105A0000F80F00000000000000000000000000008F
:105A10000000000000000000000000000000000086
:105A2000000000000000C077306C1018181818181B
:105A300018181018300CF00718001800F00FF03F7D
:105A400008700C600C600C603838E00F000000003B
:105A500000000000000010001E00180018001800D0
:105A6000180018001800980FD8183830183018305F
:105A700018301830183018301830183018301830E6
:105A80007EFC00000000000000000000000000009C
:105A9000000000000000000080038003800300007D
:105AA000000000000001F8018001800180018001F8
:105AB00080018001800180018001800180018001DE
:105AC000F81F0000000000000000000000000000BF
:105AD000000000000000000000380038003800001E
