:020000040800F2
:10000000A0080020E901000865160008670900083B
:1000100061160008A5070008071D00080000000081
:1000200000000000000000000000000005180008AB
:10003000A907000800000000ED16000819190008C3
:10004000030200080302000803020008030200087C
:10005000030200080302000803020008030200086C
:10006000030200080302000803020008030200085C
:10007000030200080302000803020008030200084C
:10008000030200080302000803020008030200083C
:10009000030200080302000803020008030200082C
:1000A000030200080302000803020008030200081C
:1000B00003020008030200087D190008030200087B
:1000C00003020008030200080302000803020008FC
:1000D00003020008E51A00080302000803020008F2
:1000E00003020008030200080302000800F002F8FF
:1000F00000F06BF80AA090E8000C82448344AAF157
:100100000107DA4501D100F060F8AFF2090EBAE854
:100110000F0013F0010F18BFFB1A43F0010318473B
:10012000AC480000CC4800000A444FF0000C10F826
:10013000013B13F0070408BF10F8014B1D1108BF65
:1001400010F8015B641E05D010F8016B641E01F805
:10015000016BF9D113F0080F1EBF10F8014BAD1C55
:100160000C1B09D16D1E58BF01F801CBFAD505E073
:1001700014F8016B01F8016B6D1EF9D59142D6D3CD
:10018000704700000023002400250026103A28BFF5
:1001900078C1FBD8520728BF30C148BF0B607047F9
:1001A000642900F0B380752900F0B080782900F050
:1001B000E980632900F07D82732900F082820020AB
:1001C00070471FB51FBD10B510BD00F0BCFA114639
:1001D000FFF7F7FF01F01EFE00F0DAFA03B4FFF7B5
:1001E000F2FF03BC01F098FD094880470948004729
:1001F000FEE7FEE7FEE7FEE7FEE7FEE7FEE7FEE7D7
:10020000FEE7FEE704480549054A064B7047000033
:100210001D190008ED000008A0020020A008002021
:10022000A0040020A0040020704700000FB404497F
:1002300010B503AA029800F049FA10BC5DF814FB4F
:100240002C0000200FB41CB5074B06AA7B4469465E
:100250000090059800F00BFA0020694600F01AFAA9
:100260001CBC5DF814FB00004504000070B504469A
:1002700085690068C10601D5302600E02026C00748
:1002800007D070BDD4E9012130469047206A401C58
:1002900020626D1EF6D570BD70B504468569007884
:1002A000C00707D170BDD4E9012120209047206A02
:1002B000401C20626D1EF6D570BD70B50C4605461B
:1002C000012A05D02878800600D5EA69002302E0DB
:1002D000012305E05B1C934202D2E05C0028F9D1C7
:1002E000A869E618C01AA861286A18442862284636
:1002F000FFF7BCFF04E0D5E9012114F8010B90479A
:10030000B442F8D32846FFF7C7FF70BD2DE9F0418E
:100310000646002410687529314616A510D0AFF3A3
:100320000080002802DA404213A507E031688A07FE
:1003300001D512A502E0490704D511A5012401E069
:10034000AFF3008000210A2206F1240709E0B0FB88
:10035000F2FCB0FBF2F302FB1C003030785418467C
:10036000491C0028F3D123462A463046BDE8F04117
:1003700000F01EB9000000002D0000002B0000005E
:100380002000000070B504460D4621461068AFF30A
:1003900000802188090502D50F4A7A4402E00E4AFE
:1003A0007A440E32002104F1240305E000F00F0628
:1003B0000009965D5E54491C0028F7D1207800237F
:1003C000000704D5702D02D009B102231132204656
:1003D000BDE8704000F0ECB85E4500002DE9F05F2C
:1003E000894604464FF0000ADFF874B1FB44C0F8B8
:1003F00020A02046E1688847002874D0252806D030
:10040000D4E901219047206A401C2062F1E70026D0
:100410005F462046E16888472028054607DB312DE6
:1004200005D2781910F8200C08B10643F1E7B0079F
:1004300001D526F00406C4F81CA00027C4F818A0B3
:100440002A2D09D0284601F060FC38B304EB870858
:10045000303DC8F8185019E059F8041B204604EB49
:1004600087029161E1688847012F054618D1E0694C
:10047000002820DA26F020061DE0D8F8180000EB4E
:10048000800005EB40003038C8F818002046E168CD
:100490008847054601F039FC0028EED1012F0AD02B
:1004A0002E2D08D12046E16888477F1C0546022F83
:1004B00046F02006C4DBA069002803DA404246F07B
:1004C0000106A061F00701D026F010066C2D0BD0BC
:1004D000682D09D04C2D39D06A2D35D0742D35D0EA
:1004E0007A2D33D016E038E0E1682F462046884761
:1004F000B842054609D16C2F26D04FF48060E168E0
:10050000064320468847054604E06C2F1AD04FF476
:10051000807006430DB3A5F14100192802D820359B
:1005200046F400664A462946204626604E46FFF7B6
:1005300037FE80B101280BD0F61D26F0070000F130
:10054000080956E74020E4E78020D8E70020D6E7F6
:1005500006F104094DE7284652E7206ABDE8F09FFE
:10056000344500004FF000020429C0F0128010F062
:10057000030C00F0BF80CCF1040CBCF1020F18BFDB
:1005800000F8012BA8BF20F8022BA1EB0C0100F012
:10059000B1B85FEAC17C24BF00F8012B00F8012B41
:1005A00048BF00F8012B704770477047704770478D
:1005B0002DE9F0470D4699469246044600F124087D
:1005C0000168880604D5E06921F01001216000E08F
:1005D0000120A84201DD471B00E00027A1697A192C
:1005E00002EB0900081AA0612078C00602D4204658
:1005F000FFF73CFE002608E0D4E901211AF80600C6
:100600009047206A401C761C20624E45F4DB20781F
:10061000C0060AD52046FFF729FE06E0D4E90121ED
:1006200030209047206A401C2062381EA7F1010745
:10063000F4DC07E0D4E9012118F805009047206AAE
:10064000401C2062281EA5F10105F3DC2046FFF7BF
:1006500023FE2078000602D50220BDE8F0870120A5
:10066000FBE7000001694A1C02610878704700B589
:100670008FB0CDE901310021059105497944CDE9DB
:10068000031011466846FFF7A9FE0FB000BD000039
:10069000E5FFFFFF0A6802F8010B0A60704710B51A
:1006A000436913B1AFF3008001E0FFF706FE0120BC
:1006B00010BD127800F124010A7000224A70012254
:1006C000EDE711684FF0FF32E9E70000074B70B526
:1006D0000D467B44FFF7CBFF0446284600F02FF879
:1006E00010B14FF0FF3070BD204670BD23170000E1
:1006F0004FF0000200B5134694469646203922BFBB
:10070000A0E80C50A0E80C50B1F12001BFF4F7AF05
:10071000090728BFA0E80C5048BF0CC05DF804EBE7
:10072000890028BF40F8042B08BF704748BF20F855
:10073000022B11F0804F18BF00F8012B7047007B8F
:1007400000F080007047754600F028F8AE460500BE
:100750006946534620F00700854618B020B5FFF7DC
:1007600051FDBDE820404FF000064FF000074FF06C
:1007700000084FF0000B21F00701AC46ACE8C009BF
:10078000ACE8C009ACE8C009ACE8C0098D467047C8
:100790000446AFF300802046FFF720FD0048704775
:1007A0004002002000BFFEE770472DE9F0410246FD
:1007B00000250026002000230024002791F803C014
:1007C0000CF00F0591F803C00CF0100CBCF1000FF9
:1007D00003D091F802C04CEA050591F800C0BCF1C5
:1007E000000F31D0146800202BE04FF0010C0CFA00
:1007F00000F3B1F800C00CEA03069E4220D183004A
:100800004FF00F0C0CFA03F7BC4305FA03FC4CEA5B
:10081000040491F803C0BCF1280F06D14FF0010C7D
:100820000CFA00FCC2F814C00AE091F803C0BCF155
:10083000480F05D14FF0010C0CFA00FCC2F810C0B3
:10084000401C0828D1D31460B1F800C0BCF1FF0FE0
:1008500034DD546800202EE000F1080C4FF0010850
:1008600008FA0CF3B1F800C00CEA03069E4221D14D
:1008700083004FF00F0C0CFA03F7BC4305FA03FC9E
:100880004CEA040491F803C0BCF1280F05D100F133
:10089000080C08FA0CF8C2F8148091F803C0BCF1F7
:1008A000480F07D100F1080C4FF0010808FA0CF8C6
:1008B000C2F81080401C0828CED35460BDE8F081F7
:1008C000F0B50A46002300240021002500F0004670
:1008D000B6F1004F02D11D4EF16901E01B4E716867
:1008E000C0F3034583B200F44016B6F5401F08D1AB
:1008F00021F07061154E766826F07066134F7E60A9
:1009000012E000F48016B6F5801F06D1032606FA21
:1009100005F4A14341F0706106E0460D360103FA8B
:1009200006F6B14341F0706122B1460D360103FA7B
:1009300006F6314300F00046B6F1004F02D1034EF7
:10094000F16101E0014E7160F0BD00000000014066
:100950000246002093680B400BB1012000E000200C
:1009600070470161704700BFFEE7000008B5012134
:10097000142000F0CDFE01211148FFF7A1FF48200F
:100980008DF8030003208DF802002020ADF8000050
:1009900069460C48FFF709FF4FF40040ADF800002E
:1009A00069460948FFF701FF0120ADF80000282043
:1009B0008DF8030069460448FFF7F7FE08BD000004
:1009C00000023000001001400008014010B504464C
:1009D00001F0A4F914B101202449087023480078DB
:1009E00068B320212248FFF7B3FF58B14FF400410C
:1009F0002048FFF7ADFF28B101211E48FFF7A8FFEF
:100A000001281CD10A2001F0ABF900201749087019
:100A100020211748FFF79CFF08B9012010BD4FF4B3
:100A200000411448FFF794FF08B90220F6E70121BE
:100A30001048FFF78DFF012815D10320EEE7202194
:100A40000B48FFF785FF01280DD1C1030948FFF7C7
:100A50007FFF012807D101210648FFF779FF10B970
:100A60000120024908700020D8E700003200002071
:100A7000001001400008014070B5044600260E48F1
:100A80000588408845430021084600F06BFC00F0D3
:100A90009FFD00BF0DE04FF48070084908614000E1
:100AA000486107480460802048610861800008614F
:100AB000761CAE42EFD370BD300200200010014022
:100AC0000C0C014010B504460F48847164B9F02045
:100AD0000D4908804FF4A07048802C2008812A20FE
:100AE00048812B2088810BE04FF4A07006490880D4
:100AF000F02048802C2008812A2048812B208881E2
:100B0000002000F05FFA10BD3002002030B503462F
:100B10000C4615462C49488900F048FD4FF480707A
:100B20002A4908614000486118122949086080205C
:100B30002649486108618000086140100861400052
:100B40004861D8B222490860802020494861086184
:100B5000800008611C49888900F028FD4FF48070EE
:100B60001A49086140004861201219490860802034
:100B70001649486108618000086140100861400022
:100B80004861E0B21249086080201049486108615C
:100B90008000086140104861400048610A480089AF
:100BA0000B4908608020094948610861800008619C
:100BB0004010086140004861054805608020486198
:100BC00008618000086130BD300200200010014043
:100BD0000C0C01402DE9F04F05460E46174698468D
:100BE000DDF824A04FF0000B781B401C1FFA80FB9F
:100BF00034461EE02146284600F0B4FB00F0E8FC35
:100C00004FF0000911E04FF480700C49086140007A
:100C100048610B48C0F800A080204861086180004E
:100C2000086109F101001FFA80F9D945EBDB601C6E
:100C300084B24445DEDDBDE8F08F000000100140C5
:100C40000C0C014008B50121192000F061FD0121C3
:100C5000BB48FFF735FE4FF4F860ADF800001020F8
:100C60008DF8030003208DF802006946B548FFF7B0
:100C70009CFD4FF4F861B348FFF773FE4FF6FF7029
:100C8000ADF800006946B048FFF78FFD4FF6FF71E1
:100C9000AD48FFF766FE322001F062F80121002026
:100CA00000F09EFC322001F05BF8D32000F07EFCC7
:100CB00000F058F9A549888000F054F9A3498880CC
:100CC00000F050F9A1498880084680884FF6FF71EE
:100CD00001EA00209D49888000F044F99B498988F9
:100CE00008439A4988800846818899A0FFF79EFAB0
:100CF0009648808849F2413188427CD1CF2000F06B
:100D000055FC002000F040FCC12000F03DFC3020EC
:100D100000F03AFCED2000F049FC642000F034FCC7
:100D2000032000F031FC122000F02EFC812000F0A6
:100D30002BFCE82000F03AFC852000F025FC102078
:100D400000F022FC7A2000F01FFCCB2000F02EFCEB
:100D5000392000F019FC2C2000F016FC002000F0D7
:100D600013FC342000F010FC022000F00DFCF720F2
:100D700000F01CFC202000F007FCEA2000F016FC2C
:100D8000002000F001FC002000F0FEFBC02000F07D
:100D90000DFC1B2000F0F8FBC12000F007FC012037
:100DA00000F0F2FBC52000F001FC302000F0ECFB6D
:100DB000302000F0E9FBC72000F0F8FBB72000F07E
:100DC000E3FB362000F0F2FB482000F0DDFB3A2088
:100DD00000F0ECFB552000F0D7FBB12000F0E6FB63
:100DE000002000F0D1FB1A2000F0CEFBB62000F06E
:100DF000DDFB0A2000E097E000F0C6FBA22000F037
:100E0000C3FBF22000F0D2FB002000F0BDFB262047
:100E100000F0CCFB012000F0B7FBE02000F0C6FBA7
:100E20000F2000F0B1FB2A2000F0AEFB282000F0DC
:100E3000ABFB082000F0A8FB0E2000F0A5FB08206B
:100E400000F0A2FB542000F09FFBA92000F09CFBC7
:100E5000432000F099FB0A2000F096FB0F2000F0E1
:100E600093FB002000F090FB002000F08DFB0020A1
:100E700000F08AFB002000F087FBE12000F096FBE9
:100E8000002000F081FB152000F07EFB172000F011
:100E90007BFB072000F078FB112000F075FB06209B
:100EA00000F072FB2B2000F06FFB562000F06CFB73
:100EB0003C2000F069FB052000F066FB102000F0EC
:100EC00063FB0F2000F060FB3F2000F05DFB3F2044
:100ED00000F05AFB0F2000F057FB2B2000F066FBC0
:100EE000002000F051FB002000F04EFB012000F03C
:100EF0004BFB3F2000F048FB2A2000F057FB00206E
:100F000000F042FB002000F03FFB002000F03CFB23
:100F1000EF2000F039FB112000F048FB782000F0B2
:100F20001FFF292000F042FB0020FFF7CBFD01202E
:100F30000B4908604FF6FF70FFF79EFD08BD0000EB
:100F40000002300000100140000C0140300200207F
:100F5000204C43442049443A25780D0A0000000003
:100F6000A801224200B54FF0883014490860091DDD
:100F70000860002011490C3108608815104908618B
:100F80004000486140204861022001F001F80B4810
:100F90000830006883B2402009490861C000086138
:100FA0004FF0333005490860091D08604FF6FF70A7
:100FB00002490C310860184600BD0000000C0140D9
:100FC00000100140F0B5054600240027E248807972
:100FD000012805D1E048808841F66311884208D194
:100FE000DD488079F0B9DC48808841F66311884299
:100FF00018D1082D15D2DFE805F00406080A0C0EFA
:10100000101206250DE007250BE0042509E0052553
:1010100007E0012505E0002503E0032501E00225A6
:1010200000BF00BF082D1CD2DFE805F00406090C44
:101030000F12151800BF14E044F0800411E044F0D2
:1010400040040EE044F0C0040BE044F0200408E04B
:1010500044F0600405E044F0A00402E044F0E00441
:1010600000BF00BFBC48808845F21051884202D1C1
:101070004FF4585700E03627B748808849F241318D
:10108000884205D0B448808847F28971884201D1EE
:1010900044F008042146384600F0A2FAAE488088A1
:1010A00041F6631188421DD004F0200068B1AA48BF
:1010B0000088A9494988884214DAA74806884088E8
:1010C000A5490880084646800CE0A3480088A2494C
:1010D0004988884206DDA048068840889E490880E5
:1010E000084646809C48808845F2105188427DD150
:1010F0009949488900F05AFA4FF48070974908617D
:10110000400048610020964908608020934948616A
:1011100008618000086190494989491C88B200F043
:1011200045FA4FF480708D49086140004861002005
:101130008B49086080208949486108618000086106
:1011400085494989891C88B200F030FA4FF48070D3
:1011500082490861400048617F480088401E0012B3
:101160007F49086080207D494861086180000861EE
:1011700079494989C91C88B200F018FA4FF4807087
:10118000764908614000486173480078401EC0B24B
:1011900073490860802071494861086180000861D6
:1011A0006D49888900F002FA4FF480706B4908613C
:1011B0004000486100206A49086080206749486112
:1011C00008618000086164498989491C88B200F07F
:1011D000EDF94FF4807061490861400048610020DA
:1011E0005F49086080205D49486100E033E00861A4
:1011F0008000086158498989891C88B200F0D6F9B5
:101200004FF4807055490861400048615248408859
:10121000401E001252490860802050494861086110
:10122000800008614C498989C91C88B200F0BEF968
:101230004FF4807049490861400048614648807811
:10124000401EC0B246490860802044494861086198
:10125000800008617FE04049488900F0A7F94FF419
:1012600080703E4908614000486100203C490860A8
:1012700080203A4948610861800008614010086197
:1012800040004861002036490860802033494861A9
:1012900008618000086140100861400048612E48E4
:1012A0000088401E00122E49086080202B494861AA
:1012B00008618000086140100861400048612648CC
:1012C0000078401EC0B2264908608020234948614A
:1012D0000861800008612049888900F067F94FF4AF
:1012E00080701E4908614000486100201C49086068
:1012F00080201A4948610861800008614010086137
:101300004000486100201649086080201349486168
:1013100008618000086140100861400048610E4883
:101320004088401E00120E49086080200B49486129
:10133000086180000861401008614000486106486B
:101340008078401EC0B20649086080200349486189
:10135000086180000861F0BD3002002000100140EB
:101360000C0C014010B503460C462049488900F09A
:101370001DF94FF480701E49086140004861181241
:101380001C49086080201A49486108618000086192
:101390004010086140004861D8B2164908608020BA
:1013A000134948610861800008611049888900F08C
:1013B000FDF84FF480700E4908614000486120122A
:1013C0000C49086080200A49486108618000086172
:1013D0004010086140004861E0B206490860802082
:1013E0000349486108618000086110BD3002002097
:1013F000001001400C0C01402DE9F84F80460E46CC
:1014000017461C46B3462046E31704EB5373DB1024
:1014100021464FEAE47C04EB5C7C4FEAEC0CA4EB45
:10142000CC0CBCF1000F02D04FF0010C01E04FF0EA
:10143000000C6344224604EBD27C4FEA6C0C03FBA5
:101440000CF3DBB20093A7F12000C7B2002556E0F1
:101450000C2C07D107EB47002B4901EB800010F85B
:10146000059013E0102C05D1284800EB071010F868
:1014700005900BE0182C07D107EBC700244901EBBE
:10148000800010F8059001E0BDE8F88F4FF0000AE9
:101490002FE009F0800030B11E48028831464046F6
:1014A000FFF734FB07E00A9828B91B480288314649
:1014B0004046FFF72BFB4FEA49604FEA1069701C6A
:1014C00086B216484088B04200DCDDE7A6EB0B0090
:1014D000A0420AD15E4608F101001FFA80F80F48C9
:1014E0000088404500DCCFE706E00AF1010000F08B
:1014F000FF0ABAF1080FCCDB00BF681CC5B2009828
:101500008542A5DB00BFBFE73C310008B0350008CD
:10151000A03B0008340000203600002030020020EC
:101520002DE9F84704460D4690469946DDE90967DE
:1015300004F0FF0A08EB04001FFA80F809EB05002D
:101540001FFA80F916E0444502DB5446A81985B21B
:101550004D4500DB14E0002000903A7833462946E0
:101560002046FFF749FF304606EBD07104EB6101DE
:101570008CB27F1C38787E2802DC38782028E2DAAA
:1015800000BFBDE8F88700004FF48071054A116183
:10159000490051610449086080215161116189004D
:1015A00011617047001001400C0C01404FF4807134
:1015B000054A516149005161044908608021516127
:1015C0001161890011617047001001400C0C01404D
:1015D00000B502490889FFF7E9FF00BD300200208D
:1015E00010B504460B462046FFF7E0FF4FF480702D
:1015F0000549086140004861044803608020486153
:1016000008618000086110BD001001400C0C014011
:1016100008B50121242000F07BF84FF48070ADF86C
:10162000000010208DF8030003208DF802006946A9
:101630000948FFF7BAF84FF480710748FFF791F9AE
:101640000420ADF8000069460448FFF7AEF8042115
:101650000248FFF786F908BD000801400014014068
:1016600000BFFEE77047000070B5002100230F2285
:10167000C47804B3154C246804F4E064C4F5E06451
:10168000210AC1F10403CA40447804FA03F18478C2
:101690001440214309010E4C0678A155047804F04A
:1016A0001F050124AC4005786D11AD0005F1E02562
:1016B000C5F8004109E0047804F01F050124AC409E
:1016C000044D0678761145F8264070BD0CED00E01B
:1016D00000E400E080E100E002490143024A1160B9
:1016E000704700000000FA050CED00E070470000B4
:1016F00029B1064AD2690243044BDA6104E0034A85
:10170000D2698243014BDA61704700000010024049
:1017100029B1064A92690243044B9A6104E0034AE4
:1017200092698243014B9A617047000000100240A9
:1017300030B500210022002400232D4D6D6805F0F6
:101740000C0121B1042905D0082923D105E0294D38
:10175000056022E0274D05601FE0254D6D6805F40A
:101760007012234D6D6805F48034022505EB92421A
:101770001CB9214D554305600BE01D4D6D6805F406
:1017800000351DB11C4D5543056002E0194D554310
:10179000056002E0174D056000BF00BF144D6D6885
:1017A00005F0F0010909154D6B5C0568DD404560E9
:1017B0000F4D6D6805F4E061090A104D6B5C4568DA
:1017C000DD4085600A4D6D6805F46051C90A0B4D16
:1017D0006B5C4568DD40C560054D6D6805F44041B2
:1017E000890B074D6B5CC568B5FBF3F5056130BD32
:1017F0000010024000127A0000093D001400002091
:1018000024000020704710B500F002F810BD000061
:101810000CB50020019000903348006840F48030FF
:101820003149086000BF3048006800F40030009083
:101830000198401C0190009818B90198B0F5A06F6C
:10184000F1D12948006800F4003010B10120009067
:1018500001E0002000900098012843D1234800684F
:1018600040F01000214908600846006820F003009D
:1018700008600846006840F0020008601A484068A6
:10188000194948600846406848600846406840F486
:10189000806048600846406820F47C104860084634
:1018A000406840F4E81048600846006840F08070E6
:1018B000086000BF0C48006800F000700028F9D0F4
:1018C0000948406820F0030007494860084640681E
:1018D00040F00200486000BF0348406800F00C0080
:1018E0000828F9D10CBD0000001002400020024081
:1018F000042808D14FF0E021096941F004014FF0BC
:10190000E022116107E04FF0E021096921F00401B4
:101910004FF0E022116170477047000010B5134886
:10192000006840F00100114908600846406810490D
:1019300008400E494860084600680E4908400B49B7
:1019400008600846006820F4802008600846406867
:1019500020F4FE0048604FF41F008860FFF753FF3B
:101960004FF000600449086010BD00000010024004
:101970000000FFF8FFFFF6FE08ED00E010B50C4890
:10198000008800F0010058B10A490869804700202A
:101990000749143108804FF47A7005491C310880DA
:1019A0000348008820F001000149088010BD0000B4
:1019B000100800407400002021B1028842F00102AA
:1019C000028004E002884FF6FE731A4002807047DE
:1019D0001AB183890B43838102E083898B4383811E
:1019E00070470000002202881D4B98420ED01D4B0C
:1019F00098420BD0B0F1804F08D01B4B984205D0D5
:101A00001A4B984202D01A4B984204D14FF68F736A
:101A10001A404B881A43174B984207D0164B9842EE
:101A200004D04FF6FF431A40CB881A4302808B88BC
:101A300083850B8803850A4B98420BD0094B98424B
:101A400008D00E4B984205D00D4B984202D00D4B5A
:101A5000984201D10B7A03860123838270470000EC
:101A6000002C014000340140000400400008004008
:101A7000000C0040001000400014004000400140F5
:101A800000440140004801407FB505460C46012155
:101A90000420FFF72DFEADF80850ADF804400020FB
:101AA000ADF80A00ADF8060001A90D48FFF79AFF4E
:101AB000012241210A48FFF78BFF1E208DF800000C
:101AC00003208DF801008DF8020001208DF803003D
:101AD0006846FFF7C9FD01210148FFF76DFF7FBD93
:101AE0000008004010B540F225511D4800F04AF8AA
:101AF00010B31B4800F002F9C4B21A48008800F481
:101B00000040C8B91748008800F4804060B10A2C32
:101B100003D000201349088020E01248008840F4D8
:101B200000401049088019E00D2C06D10D480088AE
:101B300040F480400B49088010E00A480088C0F358
:101B40000D0009490C5407480088401C05490880CD
:101B500008460088C72801DD0020088010BD00006D
:101B600000380140300000206801002021B1828946
:101B700042F40052828104E082894DF6FF731A40DC
:101B80008281704770B502460024002300250020A2
:101B900040F66A16B14200D100BFC1F3421501F010
:101BA0001F03012606FA03F3012D02D19689334063
:101BB00006E0022D02D1168A334001E0968A3340B6
:101BC0000C12012606FA04F41688344013B10CB145
:101BD000012000E0002070BDF0B50346002400267F
:101BE0000025002040F66A17B94200D100BF184610
:101BF000C1F3421401F01F06012707FA06F5012C74
:101C000001D10C3004E0022C01D1103000E014307E
:101C10001AB107682F43076002E00768AF43076007
:101C2000F0BD00002DE9F04786B005460E460024C1
:101C3000A24600BFA1460027B08900B100BF2F46D1
:101C40002C8A4CF6FF700440F08804432C82AC8947
:101C50004EF6F3100440B088318908437189084377
:101C60000443AC81AC8A4FF6FF400440B089044382
:101C7000AC8201A8FFF75CFD1F48874202D1DDF866
:101C800010A001E0DDF80CA0A88900F4004040B1EC
:101C90000AEBCA0000EB0A1031684900B0FBF1F80A
:101CA00007E00AEBCA0000EB0A1031688900B0FBBC
:101CB000F1F86420B8FBF0F004012009642101FB75
:101CC0001089A88900F4004040B1322000EBC9001F
:101CD000B0FBF1F000F00700044308E0322000EB15
:101CE00009106421B0FBF1F000F00F0004432C81D7
:101CF00006B0BDE8F0870000003801400146888842
:101D0000C0F30800704700BFFEE730380A2801D250
:101D1000012070470020704700BF704710B56FF07A
:101D20000400FFF7E5FD0A4800680A49B0FBF1F03E
:101D3000094908700846007800EB4001C1EBC0106B
:101D40004FF6FF7101EAC0000449088010BD000091
:101D50000000002000127A00280000202A00002045
:101D60000146114A12884A434FF0E0235A6100228B
:101D70009A611A46126942F001021A6100BF4FF0DF
:101D8000E022106900F001021AB100F48032002A4A
:101D9000F5D04FF0E022126922F001024FF0E0236B
:101DA0001A6100229A6170472A0000200146114AF8
:101DB00012784A434FF0E0235A6100229A611A4692
:101DC000126942F001021A6100BF4FF0E02210696F
:101DD00000F001021AB100F48032002AF5D04FF071
:101DE000E022126922F001024FF0E0231A61002282
:101DF0009A6170472800002000BF054A128802F04F
:101E00004002002AF9D0C2B2014B1B1D1A80704754
:101E10000038014086B000240025FFF77FFF4FF413
:101E2000A060FFF759FC4FF4165000F0BBF8FFF725
:101E3000EFFBFEF707FFFEF799FD3D4882883DA1C5
:101E400003A8FEF7FFF903A810210B46C822CDE92D
:101E500000106E211E20FFF763FB39A010210B46F6
:101E6000C822CDE9001082211E20FFF759FB012076
:101E7000364908605AE00020FEF7A8FD0446DCB1B0
:101E8000012C04D0022C09D0032C14D10DE0681CC5
:101E9000C5B22FA130A0FEF7C9F90CE0681EC5B28B
:101EA0002FA12DA0FEF7C2F905E000252EA12AA042
:101EB000FEF7BCF900BF00BF2D480088012835D1CE
:101EC0002CA010210B46C822CDE9001096211E201F
:101ED000FFF726FB4FF6FF70BA23EF22AA210090EE
:101EE0001E20FEF777FE1948006808B9012000E0BF
:101EF000002016490860234810210B46C822CDE96E
:101F00000010AA211E20FFF70BFB002018490880B3
:101F10000880C8211B48FEF725FB1B48FFF7EEFE93
:101F2000412803D119A10CA0FEF780F9A3E7000016
:101F3000300200204C43442049443A2530345800B4
:101F4000323032322F342F3237000000A0012142CC
:101F50004B4559300000000025730D0A00000000B9
:101F60004B45593100000000574B55500000000010
:101F700030000020526563656976652044617461B4
:101F80003A0000006801002000380140524553002B
:101F900000BF0100A0F10102D0B2FAD170470146A2
:101FA0000868704710B586B00446012144F2040069
:101FB000FFF7AEFB4FF40070ADF8140003208DF86E
:101FC000160018208DF8170005A91C48FEF7EDFB38
:101FD0004FF48060ADF8140004208DF8170005A9B7
:101FE0001648FEF7E2FB25208DF8000003208DF84F
:101FF00001008DF8020001208DF803006846FFF70C
:1020000033FB01940020ADF80800ADF80A00ADF8EC
:102010000C00ADF810000C20ADF80E0001A9084826
:10202000FFF700FE012240F225510548FFF7D4FDDD
:1020300001210348FFF79AFD06B010BD00080140DA
:102040000038014030B595B0054613AB12AA09A976
:10205000284600F03BFA044614B1204615B030BDC6
:102060000020149026E0224909689DF8502001EBD9
:10207000C20113AB11AA486801A900F027FA04466F
:102080000CB12046EAE709A901A800F0BBFC60B941
:102090009DF844009DF84810884201DD0220DDE7EC
:1020A0009DF85000124988750AE09DF85000401CC8
:1020B000C0B214900E48007D9DF850108842D2DCCA
:1020C00000BF0B48007D9DF85010884201D10420CC
:1020D000C4E714A9284600F0D9FA04460CB12046FA
:1020E000BCE79DF85000024948750020B6E70000A3
:1020F000740000202DE9F0419AB000269C48847DB0
:10210000007DA04202DC1AB0BDE8F0819849096860
:1021100001EBC40106AB07AA486808A900F0D6F98C
:1021200008A994A0FEF782F8002544E09048008BAF
:102130000121A9400840D8B1222190A0FEF776F8ED
:10214000284600F029FB8A492431471839468CA0DB
:10215000FEF76CF8222189A0FEF768F8284600F007
:102160001BFB83492431084410A941F8250018E0DD
:10217000284600F011FB7E492431085810A941F887
:1021800025007B48C07D30B910A850F825107DA0EF
:10219000FEF74CF805E010A850F825107AA0FEF7DD
:1021A00045F89DF81C00401EA84202D078A0FEF71A
:1021B0003DF8681CC5B29DF81C008542B6DB75A0D1
:1021C000FEF734F800F038FB6948407D0B280DD24B
:1021D000DFE800F0060D151E27323F4E5F728700C4
:1021E0006349096851F834008047064690E0604A28
:1021F000126852F8341010988847064688E05C4B05
:102200001B6853F83420DDE91001904706467FE053
:10221000574F3F6857F8343010A807C8984706460C
:1022200076E0DFF84CC1DCF800C05CF8347010A830
:102230000FC8B84706466BE01498DFF834C1009029
:10224000DCF800C05CF8347010A80FC8B847064628
:102250005EE0DDE91401DFF818C1CDE90001DCF82A
:1022600000C05CF8347010A80FC8B84706464FE0AD
:10227000DDE914121698DFF8F8C0CDE900120290DB
:10228000DCF800C05CF8347010A80FC8B8470646E8
:102290003EE0DDE91423DDE91610DFF8D4C0CDE916
:1022A0000023CDE90210DCF800C05CF8347010A8FF
:1022B0000FC8B84706462BE0DDE916321899159885
:1022C000CDE90232049101901498DFF8A4C0009087
:1022D000DCF800C05CF8347010A80FC8B847064698
:1022E00016E0DDE91623DDE91810CDE90223CDE97A
:1022F0000410DDE91401DFF878C0CDE90001DCF855
:1023000000C05CF8347010A80FC8B847064600BF7C
:1023100000BF00F051FA9DF8180001280CD11448B4
:10232000C07D20B931461CA0FDF780FF07E0314693
:102330001BA0FDF77BFF02E018A0FDF777FF0C481C
:1023400090F8EC0088B10A48D0F8F0000A21B0FB00
:10235000F1F201FB12070648D0F8F000B0FBF1F8EB
:102360003A46414611A0FDF761FF00BFCBE60000F1
:10237000740000200D0A257328000000256300006A
:1023800025730000256C75003058255800000000AA
:102390002C000000290000003D256C753B0D0A0053
:1023A0003D305825583B0D0A0000000046756E630D
:1023B00074696F6E2052756E2054696D653A25649C
:1023C0002E2531646D730D0A00000000F0B5034640
:1023D0001546002000220026002455E01F782C2FEF
:1023E00001D104B901221F78292F01D01F780FB91C
:1023F00004B94AE0002E34D11F78302F02DB1F7859
:10240000392F11DD1F78612F02DB1F78662F0BDD5E
:102410001F78412F02DB1F78462F05DD1F78582FCC
:1024200002D01F78782F0CD102B12EE01F78612FD7
:1024300003DB1F78203F0F7001E01F780F70491CED
:102440001FE01F78222F04D102B11EE001260124D3
:1024500017E01F78202F14D01F782C2F11D0FF26C3
:1024600013E01F78222F00D1002402B10DE044B107
:102470001F785C2F02D15B1C471CF8B21F780F70CD
:10248000491C471CF8B25B1CA8E700BF00270F706F
:102490002E70F0BD10B50446002010700BE02078BF
:1024A0000870641C491C1078401C10701078984209
:1024B00001DB012010BD2078202802D020780028E0
:1024C000EDD10020087000BFF4E700002DE9FF4FB8
:1024D00085B08046894600270020049003900120A3
:1024E00002904FF0000B002544461DE02078202884
:1024F00016D005F07F00052812DA0DB945F08005E9
:1025000005F07F00042803D120782A2800D00EE0AF
:10251000207805F07F010DF80100681CC5B202E0CB
:10252000852D00D103E0641C20780028DED100BF97
:102530008DB1002005F07F010DF8010051A1684622
:1025400000F060FA18B900210898017002E001213A
:102550000898017000254FF0000A444614E0641CFE
:102560000AF1010000F0FF0A2078202802D020782C
:102570002A2809D1204600F0D5F90646282E03D096
:102580002A2E01D0CDF810A02078282802D020785B
:102590000028E4D14446049810B10498401C044437
:1025A0004FF0000A002654E0207810B94FF0010ADD
:1025B00050E02078282803D116B9781CC7B213E060
:1025C0002078292808D13EB917B1781EC7B201E09A
:1025D0004FF0010A47B93DE02078222804D10EB916
:1025E000012000E00020064647B9207820282FD09F
:1025F000207889F8000009F1010929E020782C28C9
:1026000004D101200290681CC5B214E02078202873
:1026100011D0207828280ED04DB9BBF1050F06DA6D
:1026200020780DF80B000BF1010000F0FF0B029871
:10263000401CC0B20290012F0AD10298022807D193
:102640000298401CC0B202900398401CC0B2039094
:10265000641CA9E700BF0398012809D100200DF8E8
:102660000B0008A1684600F0CDF908B900200390DE
:10267000079903980870002089F80000504609B0B7
:10268000BDE8F08F766F6964000000002DE9F0432B
:10269000B5B005460F460024002604E000213D4861
:1026A0008155701CC6B20A2EF8DB06E06D1C287836
:1026B00018B9012035B0BDE8F08328782828F5D175
:1026C0006D1C61E034AA69462846FFF77FFE064686
:1026D00035449DF8D00020B1012827D0FF284CD1E7
:1026E00049E09DF8000000B333A9684600F025F9E1
:1026F00006460EB10220DDE7204600F04DF82549E0
:102700000A31339A0A50A1F12400008B0121A14023
:10271000884320491A39088304211E480155601C4A
:10272000C4B20A2C01DD0320C4E726E0684600F0AD
:1027300085F9401C00F0FF08204600F02DF81549EF
:102740000A3100EB01094946684600F06CF911486E
:102750001A38018B0120A040014388B20D491A3973
:1027600008830C4800F80480601CC4B20A2C01DD08
:1027700003209FE701E002209CE700BF287829287A
:1027800001D0287800B900E09CE700BF3C70002031
:1027900090E700008E00002002460020002105E0A6
:1027A000044B5B5C0344D8B24B1CD9B29142F7DBBB
:1027B000704700008E0000200D48008800F00100E6
:1027C00040B10C48D0F8F0004FF6FF7108440949B9
:1027D000C1F8F0000748D0F8F00005491431098825
:1027E00008440449C1F8F0000846D0F8F0007047EA
:1027F000100800407400002010B5044604EBC4002B
:1028000000EB04100122C2EB800081B24FF47A7019
:10281000FFF73AF901200149C87510BD7400002086
:1028200010B50246012000E050430B00A1F1010465
:10283000E1B2F9D110BD00000948008820F0010084
:10284000074908804FF6FF7005491C3108800020B9
:102850000349143108800349C1F8F00070470000B3
:10286000100800407400002070B51D48008800F476
:102870000040002833D01A480578002019494855EF
:10288000194881681748884704461CB91649C86822
:10289000804721E0134800F0DDF80546012D00D007
:1028A0002C46CCB1012C06D0022C08D0032C0AD027
:1028B000042C10D10BE00DA0FDF7B8FC0BE00EA02E
:1028C000FDF7B4FC07E00FA0FDF7B0FC03E010A09B
:1028D000FDF7ACFC00BF00BF00200149088070BDBF
:1028E000300000206801002074000020BAAFCAFD4B
:1028F000B4EDCEF3210D0A00B2CECAFDB4EDCEF395
:10290000210D0A00B2CECAFDCCABB6E0210D0A0003
:10291000CEB4D5D2B5BDC6A5C5E4B5C4BAAFCAFD5F
:10292000210D0A000146491C00E0491C08782028B6
:1029300001D10029F9D1087870472DE9F043074605
:102940000E4600254FF00A083C46002030601FE08C
:102950002078392802DC207830280ADA20784628C6
:1029600002DC2078412804DA2078582809D1012D8A
:1029700007D12078412801DB4FF01008681CC5B250
:1029800005E0207800B904E00120BDE8F083641C74
:10299000DEE700BF3C46B8F1100F0FD1032D01DA7E
:1029A0000220F2E72078302806D16078582803D139
:1029B000A41CA81EC5B204E00320E6E70DB904205C
:1029C000E3E71BE00DB1681EC5B22078392806DCAC
:1029D0002078302803DB2078A0F1300902E020784D
:1029E000A0F1370929464046FFF71AFF316809FB75
:1029F00000103060641C207800B900E0E2E700BFFE
:102A00000020C2E702460AE010780B78984201D015
:102A100001207047107800B902E0521C491CF3E70E
:102A200000BF0020F5E706E002780A70027802B9DC
:102A300002E0401C491CF7E700BF70470146002038
:102A400005E00A7802B903E0421CD0B2491CF8E75D
:102A500000BF704710B58CB004461E230BAA03A913
:102A60002046FFF717FD0090009810B101200CB030
:102A700010BD9DF82C00044400200B900EE040484F
:102A80009DF82C2050F8221003A8FFF7BBFF00B9D7
:102A900008E09DF82C00401CC0B20B909DF82C0063
:102AA0000728ECD300BF9DF82C00072863D2DFE88D
:102AB00000F004053C5E6564630000BF31A0FDF7D3
:102AC000B5FB31A0FDF7B2FB3FA0FDF7AFFB4EA079
:102AD000FDF7ACFB5CA0FDF7A9FB6BA0FDF7A6FB27
:102AE00079A0FDF7A3FB86A0FDF7A0FB8BA0FDF767
:102AF0009DFB90A0FDF79AFB94A0FDF797FB99A092
:102B0000FDF794FB9EA0FDF791FBA4A0FDF78EFBC3
:102B1000B0A0FDF78BFBBDA0FDF788FBC8A0FDF7BB
:102B200085FBD4A0FDF782FB9AE216A0FDF77EFBA1
:102B3000E0A0FDF77BFB00200B900EE0ED48006865
:102B40009DF82C2000EBC2004168EBA0FDF76EFB66
:102B50009DF82C00401CC0B20B90E648007D9DF80B
:102B60002C108842EADC07A0FDF760FB78E205A0A4
:102B7000FDF75CFBC4E171E245E219E2ECE1000023
:102B8000380000200D0A00002D2D2D2D2D2D2D2D6E
:102B90002D2D2D2D2D2D2D2D2D2D2D2D2D2D2D2D65
:102BA00055534D4152542056332E312D2D2D2D2D60
:102BB0002D2D2D2D2D2D2D2D2D2D2D2D2D2D2D2D45
:102BC0002D2D2D200D0A00002020202055534D4191
:102BD0005254CAC7D3C9414C49454E54454BBFAA6C
:102BE000B7A2B5C4D2BBB8F6C1E9C7C9B5C4B4AEC3
:102BF000BFDAB5F7CAD4BBA5BDBBD7E9BCFE2CCDA7
:102C0000A8B9FD200D0A0000CBFC2CC4E3BFC9D23B
:102C1000D4CDA8B9FDB4AEBFDAD6FACAD6B5F7D3CB
:102C2000C3B3CCD0F2C0EFC3E6B5C4C8CEBACEBAF7
:102C3000AFCAFD2CB2A2D6B4D0D02ED2F2B4CB2CD7
:102C4000C4E3BFC90D0A0000D2D4CBE6D2E2B8FC7F
:102C5000B8C4BAAFCAFDB5C4CAE4C8EBB2CECAFDA7
:102C600028D6A7B3D6CAFDD7D62831302F3136BDE6
:102C7000F8D6C629A1A2D7D6B7FBB4AEA1A2BAAFE7
:102C8000CAFDC8EB0D0A0000BFDAB5D8D6B7B5C883
:102C9000D7F7CEAAB2CECAFD292CB5A5B8F6BAAFE1
:102CA000CAFDD7EEB6E0D6A7B3D63130B8F6CAE43F
:102CB000C8EBB2CECAFD2CB2A2D6A7B3D6BAAFCA61
:102CC000FDB7B5200D0A0000BBD8D6B5CFD4CABE1B
:102CD0002ED0C2D4F6B2CECAFDCFD4CABEBDF8D66D
:102CE000C6C9E8D6C3B9A6C4DC2CD0C2D4F6BDF898
:102CF000D6C6D7AABBBBB9A6C4DC2E0D0A000000FD
:102D0000BCBCCAF5D6A7B3D63A7777772E6F706575
:102D10006E6564762E636F6D0D0A000055534D414C
:102D20005254D3D037B8F6CFB5CDB3C3FCC1EE3AC9
:102D30000D0A00003F3A202020202020BBF1C8A12E
:102D4000B0EFD6FAD0C5CFA20D0A000068656C704E
:102D50003A202020BBF1C8A1B0EFD6FAD0C5CFA24F
:102D60000D0A00006C6973743A202020BFC9D3C3D8
:102D7000B5C4BAAFCAFDC1D0B1ED0D0A0A0000005A
:102D800069643A2020202020BFC9D3C3BAAFCAFD4E
:102D9000B5C44944C1D0B1ED0D0A0A006865783A5E
:102DA00020202020B2CECAFD3136BDF8D6C6CFD401
:102DB000CABE2CBAF3B8FABFD5B8F12BCAFDD7D624
:102DC000BCB4D6B4D0D0BDF8D6C6D7AABBBB0D0A0A
:102DD0000A0000006465633A20202020B2CECAFDBC
:102DE0003130BDF8D6C6CFD4CABE2CBAF3B8FABFBC
:102DF000D5B8F12BCAFDD7D6BCB4D6B4D0D0BDF867
:102E0000D6C6D7AABBBB0D0A0A00000072756E7445
:102E1000696D653A312CBFAAC6F4BAAFCAFDD4CBEE
:102E2000D0D0BCC6CAB13B302CB9D8B1D5BAAFCA24
:102E3000FDD4CBD0D0BCC6CAB13B0D0A0A000000FD
:102E4000C7EBB0B4D5D5B3CCD0F2B1E0D0B4B8F1C3
:102E5000CABDCAE4C8EBBAAFCAFDC3FBBCB0B2CEB0
:102E6000CAFDB2A2D2D4BBD8B3B5BCFCBDE1CAF88E
:102E70002E0D0A002D2D2D2D2D2D2D2D2D2D2D2DF1
:102E80002D2D2D2D2D2D2D2D2D2D2D2D2D2D414C3F
:102E900049454E54454B2D2D2D2D2D2D2D2D2D2DB0
:102EA0002D2D2D2D2D2D2D2D2D2D2D2D2D2D2D205F
:102EB0000D0A00002D2D2D2D2D2D2D2D2D2D2D2DDF
:102EC0002D2D2D2D2D2D2D2D2D2D2D2D2DBAAFCA86
:102ED000FDC7E5B5A52D2D2D2D2D2D2D2D2D2D2D00
:102EE0002D2D2D2D2D2D2D2D2D2D2D2D2D2D2D2D12
:102EF000200D0A007400002025730D0A0000000058
:102F000059A0FDF793F900200B901AE06649096873
:102F10009DF82C2001EBC20101AB02AA486803A96D
:102F2000FFF7D4FA604800689DF82C1050F8312063
:102F300003A95EA0FDF77AF99DF82C00401CC0B2F1
:102F40000B905948007D9DF82C108842DEDCAFF2D2
:102F5000CC30FDF76BF983E0AFF2D830FDF766F9BE
:102F60000BAA03A92046FFF731FA9DF82C00C8B937
:102F7000694603A8FFF7E1FC0B909DF82C0020B9EF
:102F80004FA00099FDF752F90EE09DF82C0004289F
:102F900001D002206BE54DA0FDF748F90120424920
:102FA000C87501E0022062E547A0FDF73FF957E050
:102FB00045A0FDF73BF90BAA03A92046FFF706FA47
:102FC0009DF82C00C8B9694603A8FFF7B6FC0B9022
:102FD0009DF82C0020B942A00099FDF727F90EE0DA
:102FE0009DF82C00042801D0022040E53FA0FDF709
:102FF0001DF900202C49C87501E0022037E532A0F8
:10300000FDF714F92CE030A0FDF710F90BAA03A985
:103010002046FFF7DBF99DF82C00C8B9694603A8E4
:10302000FFF78BFC0B909DF82C0078B91E49009897
:1030300081F8EC00084690F8EC0018B130A0FDF7DC
:10304000F5F807E035A0FDF7F1F803E002200EE502
:1030500002200CE51CA0FDF7E9F801E0012006E5DF
:1030600000BF002003E500002D2D2D2D2D2D2D2D31
:103070002D2D2D2D2D2D2D2D2D2D2D2D2D2D2D2D80
:103080002DBAAFCAFD204944202D2D2D2D2D2D2DDB
:103090002D2D2D2D2D2D2D2D2D2D2D2D2D2D2D2D60
:1030A0002D2D2D2D200D0A00740000202573206980
:1030B000642069733A0D0A3058253038580D0A00DB
:1030C0004845583A305825580D0A00003136BDF8A9
:1030D000D6C6B2CECAFDCFD4CABE210D0A000000AA
:1030E0004445433A256C750D0A0000003130BDF8A7
:1030F000D6C6B2CECAFDCFD4CABE210D0A0000008A
:1031000052756E2054696D652043616C63756C6106
:1031100074696F6E204F4E0D0A00000052756E20CC
:1031200054696D652043616C63756C6174696F6E81
:10313000204F46460D0A0000016070470000000065
:103140000000000000000000000000003F40000000
:10315000000000000000300040003000400000008F
:1031600009000BC03D000BC03D00090018C0244001
:103170007FE0224031800000180024C01B000D8039
:103180003240018003801C4027401C8007400040E3
:1031900010006000000000000000000000000000BF
:1031A00000001F80204040200000402020401F8061
:1031B00000000000090006001F8006000900000052
:1031C000040004003F8004000400000000100060C0
:1031D00000000000000000000400040004000400DF
:1031E000040000000000004000000000000000009B
:1031F000002001C006003800400000001F80204071
:10320000204020401F800000000010403FC00040D0
:103210000000000018C02140224024401840000057
:1032200010802040244024401B80000002000D003C
:1032300011003FC0014000003C8024402440244055
:10324000238000001F80244024403440038000007D
:103250003000200027C03800200000001B802440E0
:10326000244024401B8000001C0022C02240224039
:103270001F80000000000000084000000000000067
:1032800000000000046000000000000000000400D6
:103290000A001100208040400900090009000900CF
:1032A0000900000000004040208011000A000400D6
:1032B0001800200023402400180000001F80204038
:1032C000274029401F400000004007C039000F0080
:1032D00001C0004020403FC0244024401B8000002B
:1032E0001F802040204020403080000020403FC010
:1032F000204020401F80000020403FC024402E403E
:1033000030C0000020403FC024402E0030000000AC
:103310000F001080204022403380020020403FC038
:10332000040004003FC02040204020403FC0204017
:10333000204000000060202020203FC0200020000E
:1033400020403FC024400B0030C0204020403FC000
:1033500020400040004000C03FC03C0003C03C0093
:103360003FC0000020403FC00C4023003FC0200071
:103370001F802040204020401F80000020403FC090
:1033800024402400180000001F802140214020E03C
:103390001FA0000020403FC02440260019C000406C
:1033A00018C02440244022403180000030002040DA
:1033B0003FC020403000000020003F80004000401F
:1033C0003F80200020003E0001C0070038002000A0
:1033D000380007C03C0007C038000000204039C05A
:1033E000060039C0204000002000384007C03840A7
:1033F00020000000304021C02640384020C000009E
:10340000000000007FE0402040200000000070002D
:103410000C000380004000000000402040207FE0BE
:10342000000000000000200040002000000000001C
:10343000001000100010001000100010000000002C
:103440004000000000000000000002800540054030
:1034500003C0004020003FC004400440038000003F
:103460000000038004400440064000000000038088
:10347000044024403FC00040000003800540054058
:1034800003400000000004401FC0244024402000EE
:10349000000002E0055005500650042020403FC0C7
:1034A0000440040003C000400000044027C0004066
:1034B0000000000000100010041027E000000000D1
:1034C00020403FC00140070004C00440204020408D
:1034D0003FC000400040000007C0040007C00400D7
:1034E00003C00000044007C00440040003C00040C3
:1034F000000003800440044003800000041007F033
:103500000450044003800000000003800440045085
:1035100007F00010044007C002400400040000004F
:10352000000006400540054004C000000000040003
:103530001F80044000400000040007800040044059
:1035400007C000400400070004C00180060004001A
:10355000060001C0070001C006000000044006C0CC
:10356000010006C0044000000410071004E00180C0
:10357000060004000000044005C0064004400000AE
:103580000000000004007BE040200000000000007C
:103590000000FFF000000000000040207BE004007D
:1035A000000000004000800040002000200040009B
:1035B000000000000000000000000000000000000B
:1035C0000000000000001FCC000C00000000000004
:1035D00000000800300060000800300060000000BB
:1035E000022003FC1E20022003FC1E2002200000FB
:1035F00000000E1811043FFF10840C78000000003A
:103600000F0010840F3800C007781884007800007D
:1036100000780F8410C411240E9800E40084000880
:1036200008006800700000000000000000000000BA
:1036300000000000000007E018182004400200000D
:10364000000040022004181807E0000000000000FD
:103650000240024001800FF0018002400240000061
:103660000080008000800FF8008000800080000053
:103670000001000D000E000000000000000000002E
:1036800000000080008000800080008000800080BA
:103690000000000C000C0000000000000000000012
:1036A00000000006001800600180060018002000DD
:1036B000000007F0080810041004080807F00000D4
:1036C0000000080408041FFC0004000400000000BF
:1036D00000000E0C10141024104411840E0C000075
:1036E00000000C1810041104110412880C70000062
:1036F000000000E00320042408241FFC0024000034
:1037000000001F981084110411041088107000002C
:10371000000007F0088811041104188800700000E8
:1037200000001C00100010FC13001C001000000022
:1037300000000E3811441084108411440E3800002B
:1037400000000700088C10441044088807F00000AF
:10375000000000000000030C030C0000000000004B
:103760000000000000010106000000000000000051
:10377000000000800140022004100808100400002E
:10378000022002200220022002200220022000004B
:10379000000010040808041002200140008000000E
:1037A00000000E001200100C106C10800F000000C2
:1037B00003E00C1813E4142417C4082807D00000F1
:1037C0000004003C03C41C40074000E4001C00044B
:1037D00010041FFC1104110411040E880070000075
:1037E00003E00C1810041004100410081C10000052
:1037F00010041FFC100410041004080807F0000057
:1038000010041FFC1104110417C410040818000050
:1038100010041FFC1104110017C010000800000064
:1038200003E00C181004100410441C780040000041
:1038300010041FFC10840080008010841FFC100402
:103840000000100410041FFC10041004000000000D
:1038500000030001100110011FFE10001000000005
:1038600010041FFC110403801464181C10040000D1
:1038700010041FFC1004000400040004000C0000ED
:1038800010041FFC1F0000FC1F001FFC10040000A0
:1038900010041FFC0C04030000E010181FFC1000B3
:1038A00007F00808100410041004080807F00000CE
:1038B00010041FFC10841080108010800F00000086
:1038C00007F0081810241024101C080A07F2000042
:1038D00010041FFC1104110011C011300E0C000463
:1038E00000000E1C11041084108410441C380000C9
:1038F0001800100010041FFC100410001800000035
:1039000010001FF810040004000410041FF8100039
:1039100010001E0011E0001C007013801C0010003D
:103920001FC0103C00E01F0000E0103C1FC0000062
:103930001004180C163401C001C01634180C100401
:1039400010001C00130400FC13041C0010000000F5
:103950000804101C1064108413041C0410180000C8
:103960000000000000007FFE400240024002000014
:10397000000030000C0003800060001C0003000009
:1039800000004002400240027FFE000000000000F4
:103990000000000020004000400040002000000027
:1039A000000100010001000100010001000100010F
:1039B0000000400040002000000000000000000067
:1039C00000000098012401440144014400FC00046B
:1039D00010001FFC00880104010400880070000032
:1039E0000000007000880104010401040088000048
:1039F0000000007000880104010411081FFC00048D
:103A0000000000F8014401440144014400C80000E2
:103A10000000010401040FFC11041104110018003E
:103A2000000000D601290129012901C90106000071
:103A300010041FFC008401000100010400FC0004CC
:103A400000000104190419FC000400040000000037
:103A50000000000300010101190119FE000000002F
:103A600010041FFC0024004001B4010C01040000FC
:103A70000000100410041FFC0004000400000000FB
:103A8000010401FC0104010001FC0104010000FC2F
:103A9000010401FC008401000100010400FC000499
:103AA000000000F8010401040104010400F8000012
:103AB000010101FF0085010401040088007000007D
:103AC00000000070008801040104010501FF0001ED
:103AD0000104010401FC00840104010001800000D4
:103AE000000000CC012401240124012401980000DD
:103AF00000000100010007F80104010400000000BB
:103B0000010001F8000400040004010801FC0004A5
:103B1000010001800170000C0010016001800100B3
:103B200001F0010C003001C00030010C01F0010077
:103B300000000104018C00740170018C010400007C
:103B4000010101810171000E001801600180010076
:103B500000000184010C013401440184010C0000C7
:103B6000000000000000000001003EFC4002400296
:103B70000000000000000000FFFF00000000000047
:103B80000000400240023EFC010000000000000076
:103B90000000600080008000400040002000200005
:103BA0000000000000000000000000000000000015
:103BB0000000000000000000000000000000000005
:103BC00000000000000000000000000000000000F5
:103BD0000000000F80380FFE380F80380000000012
:103BE00000000000000000000000000000000100D4
:103BF000000600000C000038000031000006000044
:103C00000C00003800003000000000000000000040
:103C100061800067F807F9800061800061800061C1
:103C2000800061800067F807F98000618000000073
:103C300000000000000001C0E003E0F006300804CE
:103C400018081FFFFE040E080787F00381E000003C
:103C50000000000001F000060C00040408060C70CF
:103C600001F9C0000E00003BE000EC180708080452
:103C70000C180003E00000000001E00007F003F86A
:103C800018041C0804170807E1D003C0E00023B0A3
:103C9000003C0800200800001000000000000001A7
:103CA00000003100003200001C0000000000000095
:103CB0000000000000000000000000000000000004
:103CC00000000000000000000000000000000000F4
:103CD0007F0001FFC00780F00C00181000042000D6
:103CE000020000000000002000021000040C001878
:103CF0000780F001FFC0007F00000000000000000E
:103D0000000000000000000000000000420000660B
:103D100000006600003C0000180003FFC00018000F
:103D2000003C000066000066000042000000000049
:103D3000080000080000080000080000080001FF5B
:103D4000C00008000008000008000008000008008B
:103D500000000000000100003100003200001C00E3
:103D60000000000000000000000000000000000053
:103D7000000000000000000008000008000008002B
:103D8000000800000800000800000800000800000B
:103D90000800000800000000000000000000000013
:103DA000380000380000380000000000000000006B
:103DB0000000000000000000000000000000000003
:103DC000000600001C000070000180000E0000389A
:103DD0000000C0000700001C0000300000000000D0
:103DE000000000007F8001FFE003807006001804DF
:103DF000000804000806001803807001FFE0007F3F
:103E00008000000000000000000001000801000820
:103E100001000803FFF807FFF80000080000080091
:103E2000000800000000000000000001C03802C0CF
:103E300058040098040118040218040418061C18F9
:103E400003F81801E0F80000000000000000000185
:103E5000C0E003C0F00400080408080408080618BD
:103E60000803F41801E7F00001E000000000000082
:103E7000000000000300000D0000110000610000C0
:103E8000810803010807FFF80FFFF800010800018F
:103E9000080000000000000000E007FCD006080851
:103EA000061008061008061008061838060FF00657
:103EB00007C0000000000000000000003F8001FF7C
:103EC000E0038430020818041008041008041008E5
:103ED000071810030FF00007C000000000000000EA
:103EE000000003C0000700000600000600F80607F7
:103EF000F806180006E000070000060000000000B9
:103F000000000001E1E003F7F00634100418080493
:103F10001808040C08040C0806161803F3F001C175
:103F2000E000000000000000F80003FC3003063849
:103F30000402080402080402080404100308F00143
:103F4000FFC0007F00000000000000000000000033
:103F50000000000000000000703800703800703869
:103F60000000000000000000000000000000000051
:103F7000000000000000000000000000301A0030C7
:103F80001C00000000000000000000000000000015
:103F900000000000000000080000140000220000E3
:103FA0004100008080010040020020040010080051
:103FB0000800000000000000210000210000210096
:103FC000002100002100002100002100002100004C
:103FD0002100002100000000000000000000080097
:103FE0000804001002002001004000808000410011
:103FF0000022000014000008000000000000000380
:10400000C00004C000040000080038080F38080889
:10401000380810000C300007E00003C0000000006A
:10402000000000003F8000FFE0038070020F1006D8
:10403000708804C088048308047F8802C09003014C
:104040002000FE400000080000180001F8003E08B3
:1040500001C20007020007E20000FE00001FC800C6
:1040600001F800003800000804000807FFF807FF07
:10407000F8040808040808040808040808061808D2
:1040800003F41801E7F00001E00000000000000068
:104090003F8001FFE0038070020018040008040064
:1040A000080400080400100600200780C00000007B
:1040B00004000807FFF807FFF804000804000804DC
:1040C000000804001802001003807001FFE0007F68
:1040D0008000000004000807FFF807FFF804080844
:1040E000040808040808040808043E080400080638
:1040F000001801006000000004000807FFF807FF37
:10410000F8040808040800040800040800043E003D
:104110000600000600000180000000000000000012
:104120003F8001FFE00380700600180400080402CD
:10413000080402080203F00783F0000200000200F6
:1041400004000807FFF807FFF8040808000800004B
:10415000080000080000080004080807FFF807FF2F
:10416000F804000800000000000004000804000833
:1041700004000807FFF807FFF8040008040008041B
:104180000008000000000000000000000006000021
:104190000700000104000104000104000307FFFE02
:1041A00007FFFC04000004000004000004000807EE
:1041B000FFF807FFF8040C08001800003E0004C7D1
:1041C000800503C80600F804003804001800000841
:1041D00004000807FFF807FFF804000800000800C3
:1041E0000008000008000008000008000018000097
:1041F0006000000004000807FFF807800807FC00C3
:10420000007FC00003F80007C0007800078008079F
:10421000FFF807FFF804000804000807FFF807008C
:104220000803C00000E000003800001E0000070086
:104230000001C00400F007FFF804000000000000C7
:104240007F8001FFE003807006001804000804006E
:104250000806001803003001FFE0007F8000000026
:1042600004000807FFF807FFF8040408040400042A
:104270000400040400040400060C0003F80001F02C
:1042800000000000000000007F8001FFE00380705C
:104290000600880400880400C806003C03003E01B4
:1042A000FFE6007F8400000004000807FFF807FF16
:1042B000F8040808040800040C00040F00040BC0F4
:1042C0000610F003F03801E00800000800000001CB
:1042D000E0F803F030063010041808041808040C45
:1042E00008040C080206180207F00781E00000002D
:1042F000018000060000040000040000040008071C
:10430000FFF807FFF804000804000004000006009E
:104310000001800004000007FFE007FFF004001820
:104320000000080000080000080000080000080461
:10433000001007FFE004000004000006000007E092
:104340000007FE00041FE00001F80000380001E053
:10435000043E0007C000060000040000040000073F
:10436000E00007FFC0041FF80007C007F80007FFC0
:1043700080043FF80007C004F800070000040000B4
:1043800000000004000806001807C07805F1C80006
:104390003E00001F800463E80780F8060018040050
:1043A0000800000004000006000007800007E00885
:1043B000047C08001FF80007F800180804E008074C
:1043C00000000600000400000000000100080600D4
:1043D000380400F80403E8040F08047C0805F0081A
:1043E00007C008070018040060000000000000007B
:1043F00000000000000000000000003FFFFE200061
:104400000220000220000220000220000200000022
:1044100000000000000008000007000000C00000CD
:1044200038000006000001C000003000000E00004F
:104430000100000000000000000020000220000237
:104440002000022000022000023FFFFE00000000CA
:10445000000000000000000000000000000000005C
:1044600000080000100000300000200000300000B4
:104470001000000800000000000000000000010023
:104480000001000001000001000001000001000027
:104490000100000100000100000100000100000116
:1044A00000000000000000000020000020000010BC
:1044B00000001000000000000000000000000000EC
:1044C000000000000000000000F00019F8001B18B8
:1044D000002208002608002408002410003FF800ED
:1044E0001FF800000800001800000004000007FF8B
:1044F000F80FFFF00018180010080020080020082E
:10450000003018001FF0000FC00000000000000085
:1045100007C0001FF000183000200800200800200D
:1045200008003C08001C10000060000000000000B3
:104530000000000007C0001FF0003818002008002D
:10454000200800200804101007FFF80FFFF00000FB
:10455000100000000000000000000007C0001FF075
:104560000012300022180022080022080032080041
:104570001E10000E2000000000000000200000209F
:104580000800200801FFF803FFF8062008042008AF
:1045900004200807200003000000000000000000C5
:1045A000000E000E6E001FF30031B10020B100209C
:1045B000B1003191001F13002E1E00200E003000AC
:1045C00000000004000807FFF80FFFF800100800C3
:1045D0002000002000002008003FF8001FF8000025
:1045E0000800000000000000000000200800200873
:1045F000002008063FF8063FF80000080000080009
:1046000000080000000000000000000000000000A2
:1046100003000003002001002001002003063FFEEC
:10462000063FFC0000000000000000000000000445
:10463000000807FFF80FFFF8000188000300002FB3
:10464000C00038F8002038002008000008000000F2
:10465000000000000000040008040008040008072F
:10466000FFF80FFFF8000008000008000008000035
:1046700000000000002008003FF8003FF80010088C
:10468000002000003FF8003FF80010080020000064
:104690003FF8003FF8000008000000002008003F3D
:1046A000F8003FF80010080010000020000020086B
:1046B000003FF8001FF800000800000000000000A4
:1046C00007C0000FF000183000300800200800205C
:1046D00008003008001830000FF00007C00000008C
:1046E000000000002001003FFF003FFF001011000C
:1046F0002009002008002008003038001FF0000FBB
:10470000C00000000000000007C0001FF0003818C3
:10471000002008002008002009001011001FFF00E1
:104720003FFF0000010000000020080020080020DA
:1047300008003FF8003FF8000808001008002008B3
:1047400000200000300000300000000000000000E9
:104750000000000C78001E18003308002308002118
:10476000080021880021980030F000386000000027
:1047700000000000200000200000200000FFF003E7
:10478000FFF800200800200800200800003000008A
:1047900000000000000000002000003FF0007FF853
:1047A000000018000008000008002010003FF8007A
:1047B0007FF000001000000000000000200000302A
:1047C00000003C00003F800023F0000078000070F3
:1047D000002380003C00003000002000002000008A
:1047E0003C00003FE00023F80000E0002700003E0E
:1047F00000003FE00021F80001E0003E0000200042
:10480000000000002008002008003838003E680042
:1048100027800003C8002CF800383800201800203A
:1048200008000000000000002000003003003C01F0
:10483000003F830023EC000070002380003C000058
:1048400020000020000000000000000000000038F0
:10485000080020380020F80023E8002F88003E08D8
:104860000038080020180000700000000000000060
:10487000000000000000000000000000080000141C
:10488000001FF7FC300006200002000000000000BE
:104890000000000000000000000000000000000018
:1048A0000000FFFFFF00000000000000000000000B
:1048B00000000000000000000000200002300006A0
:1048C0001FF7FC00140000080000000000000000BA
:1048D0000000000000000000000000180000600060
:1048E0000040000040000020000010000008000010
:1048F0000400000400000C000010000030313233CE
:104900003435363738394142434445464030580003
:104910003031323334353637383961626364656635
:104920004030780004000008000000000000000291
:1049300000010000100000003F00000064656300FB
:104940006964000072756E74696D650068656C70ED
:10495000000000006C697374000000006865780056
:10496000766F69642077726974655F616464722828
:1049700075333220616464722C7533322076616C39
:104980002900000075333220726561645F616464E0
:10499000722875333220616464722900766F69640D
:1049A0002064656C61795F6D7328753136206E6D9A
:1049B00073290000766F69642064656C61795F75A6
:1049C0007328753332206E7573290000EC49000896
:1049D000000000206801000028010008504A00087B
:1049E0006801002038070000840100081184A24AF1
:1049F00004680901020304060708090C6910A502EE
:104A0000040608320115FFFF38491B084C041A54EC
:104A1000041A40041A5C041A3C041A4404139F1F2D
:104A20001B0884081339311B08600813611D1B081B
:104A30009C081AAD082AB434211420F9271408451B
:104A4000201B08F5041369281A0885295901D90083
:04000005080000ED02
:00000001FF
