:020000040800F2
:1000000068080020E9010008690A000803070008E1
:10001000650A0008E5060008D70F00080000000088
:10002000000000000000000000000000010B0008BC
:10003000E906000800000000DD0A0008BD0C000809
:10004000030200080302000803020008030200087C
:10005000030200080302000803020008030200086C
:10006000030200080302000803020008030200085C
:10007000030200080302000803020008030200084C
:10008000030200080302000803020008030200083C
:10009000030200080302000803020008030200082C
:1000A000030200080302000803020008030200081C
:1000B0000302000803020008890D0008030200087B
:1000C00003020008030200080302000803020008FC
:1000D00003020008F10E00080302000803020008F2
:1000E00003020008030200080302000800F002F8FF
:1000F00000F06BF80AA090E8000C82448344AAF157
:100100000107DA4501D100F060F8AFF2090EBAE854
:100110000F0013F0010F18BFFB1A43F0010318473B
:1001200018540200385402000A444FF0000C10F832
:10013000013B13F0070408BF10F8014B1D1108BF65
:1001400010F8015B641E05D010F8016B641E01F805
:10015000016BF9D113F0080F1EBF10F8014BAD1C55
:100160000C1B09D16D1E58BF01F801CBFAD505E073
:1001700014F8016B01F8016B6D1EF9D59142D6D3CD
:10018000704700000023002400250026103A28BFF5
:1001900078C1FBD8520728BF30C148BF0B607047F9
:1001A000642900F09F80752900F09C80782900F078
:1001B000D580632900F02982732900F02E82002067
:1001C00070471FB51FBD10B510BD00F059FA11469C
:1001D000FFF7F7FF00F064FF00F077FA03B4FFF7D2
:1001E000F2FF03BC00F000FF0948804709480047C0
:1001F000FEE7FEE7FEE7FEE7FEE7FEE7FEE7FEE7D7
:10020000FEE7FEE704480549054A064B7047000033
:10021000C10C0008ED0000086802002068080020FA
:100220006804002068040020704700000FB40449EF
:1002300010B503AA029800F0F5F910BC5DF814FBA4
:100240000400002070B5044685690068C10601D528
:10025000302600E02026C00707D070BDD4E9012178
:1002600030469047206A401C20626D1EF6D570BD56
:1002700070B5044685690078C00707D170BDD4E920
:10028000012120209047206A401C20626D1EF6D577
:1002900070BD70B50C460546012A05D02878800649
:1002A00000D5EA69002302E0012305E05B1C9342CC
:1002B00002D2E05C0028F9D1A869E618C01AA8614A
:1002C000286A184428622846FFF7BCFF04E0D5E9F5
:1002D000012114F8010B9047B442F8D32846FFF7E8
:1002E000C7FF70BD2DE9F04106460024106875294E
:1002F000314616A510D0AFF30080002802DA404244
:1003000013A507E031688A0701D512A502E0490765
:1003100004D511A5012401E0AFF3008000210A22D9
:1003200006F1240709E0B0FBF2FCB0FBF2F302FB9C
:100330001C00303078541846491C0028F3D123465D
:100340002A463046BDE8F04100F0FCB8000000004D
:100350002D0000002B0000002000000070B50446B6
:100360000D4621461068AFF300802188090502D5AB
:100370000F4A7A4402E00E4A7A440E32002104F118
:10038000240305E000F00F060009965D5E54491C49
:100390000028F7D120780023000704D5702D02D063
:1003A00009B1022311322046BDE8704000F0CAB8FE
:1003B000F25002002DE9F05F894604464FF0000A32
:1003C000DFF874B1FB44C0F820A02046E1688847FC
:1003D000002874D0252806D0D4E901219047206A4E
:1003E000401C2062F1E700265F462046E16888470E
:1003F0002028054607DB312D05D2781910F8200C8E
:1004000008B10643F1E7B00701D526F00406C4F8A9
:100410001CA00027C4F818A02A2D09D0284600F0F7
:10042000DCFD38B304EB8708303DC8F8185019E0FC
:1004300059F8041B204604EB87029161E168884764
:10044000012F054618D1E069002820DA26F02006A1
:100450001DE0D8F8180000EB800005EB40003038B4
:10046000C8F818002046E1688847054600F0B5FD49
:100470000028EED1012F0AD02E2D08D12046E168A8
:1004800088477F1C0546022F46F02006C4DBA06982
:10049000002803DA404246F00106A061F00701D0CF
:1004A00026F010066C2D0BD0682D09D04C2D39D0BC
:1004B0006A2D35D0742D35D07A2D33D016E038E042
:1004C000E1682F4620468847B842054609D16C2F7F
:1004D00026D04FF48060E1680643204688470546F1
:1004E00004E06C2F1AD04FF4807006430DB3A5F1D1
:1004F0004100192802D8203546F400664A462946AC
:10050000204626604E46FFF74BFE80B101280BD0F7
:10051000F61D26F0070000F1080956E74020E4E741
:100520008020D8E70020D6E706F104094DE72846E9
:1005300052E7206ABDE8F09FC8500200704770473C
:10054000704770472DE9F0470D469946924604469C
:1005500000F124080168880604D5E06921F0100143
:10056000216000E00120A84201DD471B00E00027D8
:10057000A1697A1902EB0900081AA0612078C00667
:1005800002D42046FFF75EFE002608E0D4E90121F0
:100590001AF806009047206A401C761C20624E45DF
:1005A000F4DB2078C0060AD52046FFF74BFE06E0B4
:1005B000D4E9012130209047206A401C2062381E77
:1005C000A7F10107F4DC07E0D4E9012118F80500E0
:1005D0009047206A401C2062281EA5F10105F3DC2B
:1005E0002046FFF745FE2078000602D50220BDE830
:1005F000F0870120FBE710B5436913B1AFF300802A
:1006000001E0FFF746FE012010BD127800F1240141
:100610000A7000224A700122EDE711684FF0FF32A4
:10062000E9E70000074B70B50D467B4400F011F878
:100630000446284600F020F810B14FF0FF3070BD9E
:10064000204670BD570A000001694A1C0261087803
:10065000704700B58FB0CDE9013100210591054902
:100660007944CDE9031011466846FFF7A3FE0FB0A9
:1006700000BD0000E5FFFFFF007B00F08000704739
:10068000754600F02BF8AE4605006946534620F04B
:100690000700854618B020B5FFF7B4FDBDE820403F
:1006A0004FF000064FF000074FF000084FF0000B2E
:1006B00021F00701AC46ACE8C009ACE8C009ACE8E1
:1006C000C009ACE8C0098D46704710B50446AFF3C9
:1006D00000802046BDE81040FFF780BD004870470D
:1006E0000402002000BFFEE77047002106E0002260
:1006F00000E0521CB2F5617FFBD3491C8142F6D366
:10070000704700BFFEE700001148806940F0080014
:100710000F4988610F480068C0F313000D49086055
:10072000084600680C4908430A490860081D00682B
:1007300020F0FF00091D08600846006840F0330003
:1007400008604FF6FF7003490C31086070470000E5
:1007500000100240000C014000003033F0B50746A5
:100760000C4615461E462A2000F04EF9384600F089
:1007700029F9284600F026F92B2000F045F92046FB
:1007800000F020F9304600F01DF92C2000F03CF973
:10079000F0BD000000B520206F4908608020091DD1
:1007A00008604FF47A70FFF7A0FF80206A49086064
:1007B0004FF47A70FFF799FF112000F025F97820A7
:1007C000FFF793FF3A2000F01FF9052000F00CF925
:1007D000C52000F019F91A2000F006F9362000F0C3
:1007E00013F9002000F000F9B22000F00DF9052007
:1007F00000F0FAF8052000F0F7F8002000F0F4F817
:10080000332000F0F1F8332000F0EEF8B72000F0CC
:10081000FBF8052000F0E8F8BB2000F0F5F83F20D9
:1008200000F0E2F8C02000F0EFF82C2000F0DCF837
:10083000C22000F0E9F8012000F0D6F8C32000F053
:10084000E3F80F2000F0D0F8C42000F0DDF82020FD
:1008500000F0CAF8C62000F0D7F8012000F0C4F874
:10086000D02000F0D1F8A42000F0BEF8A12000F0C4
:10087000BBF8E82000F0C8F8032000F0B5F8E92044
:1008800000F0C2F8092000F0AFF8092000F0ACF841
:10089000082000F0A9F8E02000F0B6F8D02000F021
:1008A000A3F8052000F0A0F8092000F09DF8092029
:1008B00000F09AF8082000F097F8142000F094F85F
:1008C000282000F091F8332000F08EF83F2000F04F
:1008D0008BF8072000F088F8132000F085F814202A
:1008E00000F082F8282000F07FF8302000F07CF83B
:1008F000E12000F089F8D02000F076F8052000F023
:1009000073F8092000F070F8092000F06DF8082055
:1009100000F06AF8032000F067F8242000F064F883
:10092000322000F061F8322000F05EF83B2000F049
:100930005BF8142000F058F8132000F055F8282038
:1009400000F052F82F2000F04FF8212000F05CF862
:10095000292000F059F800BD100C01402DE9F04F9E
:100960000746884615461E46DDF82490002408EB0D
:100970000600401E83B27819401E82B241463846B6
:10098000FFF7ECFEA24618E04FF0000B0FE019F85D
:10099000140000F029F8012101EB440119F80100CD
:1009A00000F022F8641C0BF101001FFA80FBB34534
:1009B000EDDB0AF101001FFA80FAAA45E4DBBDE88D
:1009C000F08F000010B504464FF4807005490860B0
:1009D0002020091D0860201200F024F8E0B200F089
:1009E00021F810BD100C014010B504464FF4807082
:1009F000044908602020091D0860204600F012F814
:100A000010BD0000100C014010B504464FF480707A
:100A10000349086020200860204600F003F810BD5C
:100A2000140C0140002114E020220D4B1A6000F04C
:100A3000800212B940221A6003E04022084B1B1FBB
:100A40001A604206100E2022054B1B1F1A604A1C1A
:100A5000D1B20829E8DB2022014B1A607047000060
:100A6000140C014000BFFEE77047000070B5002184
:100A700000230F22C47804B3154C246804F4E06406
:100A8000C4F5E064210AC1F10403CA40447804FAC1
:100A900003F184781440214309010E4C0678A155D6
:100AA000047804F01F050124AC4005786D11AD00F9
:100AB00005F1E025C5F8004109E0047804F01F05C0
:100AC0000124AC40044D0678761145F8264070BDEF
:100AD0000CED00E000E400E080E100E07047000081
:100AE00029B1064AD2690243044BDA6104E0034AA1
:100AF000D2698243014BDA61704700000010024066
:100B0000704700000021304A1161D1601421516109
:100B100000219161D1611146096841F00101116024
:100B200011464968294A1140274A5160114609680F
:100B3000274A1140244A11601146096821F4802196
:100B400011601146496821F4FE01516000BF1E4941
:100B50004968C1F381010029F9D11B4A916011460E
:100B6000096841F48031116000BF17490968C1F379
:100B700040410029F9D04FF48061134A5160811E31
:100B8000C8B21146496841EA80415160114649683E
:100B900041F4803151601146096841F08071116063
:100BA00000BF09490968490E0029FAD00649496879
:100BB00041F00201044A516000BF03494968C1F392
:100BC00081010229F9D17047001002400000FFF8AE
:100BD000FFFFF6FE10B500F001F810BD0CB50020C7
:100BE000019000903348006840F48030314908603B
:100BF00000BF3048006800F4003000900198401CAD
:100C00000190009818B90198B0F5A06FF1D129486A
:100C1000006800F4003010B10120009001E00020D5
:100C200000900098012843D12348006840F010004C
:100C3000214908600846006820F003000860084663
:100C4000006840F0020008601A484068194948608E
:100C50000846406848600846406840F48060486044
:100C60000846406820F47C1048600846406840F41C
:100C7000E81048600846006840F08070086000BFD7
:100C80000C48006800F000700028F9D0094840685E
:100C900020F00300074948600846406840F0020021
:100CA000486000BF0348406800F00C000828F9D1F4
:100CB0000CBD000000100240002002407047000000
:100CC00010B51348006840F001001149086008465B
:100CD0004068104908400E494860084600680E49BF
:100CE00008400B4908600846006820F4802008602E
:100CF0000846406820F4FE0048604FF41F008860FA
:100D0000FFF768FF4FF000600449086010BD000065
:100D1000001002400000FFF8FFFFF6FE08ED00E0C3
:100D200030B52A20FFF770FE0020FFF75DFE00209F
:100D3000FFF75AFE0020FFF757FEF020FFF754FEA2
:100D40002B20FFF761FE0020FFF74EFE0020FFF78B
:100D50004BFE0020FFF748FEF020FFF745FE2C2059
:100D6000FFF752FE00240BE0002506E0FF20FFF70E
:100D70003BFEFF20FFF738FE6D1CF02DF6D3641C00
:100D8000F02CF1D330BD000010B50C48008800F005
:100D9000010058B10A490869804700200749143109
:100DA00008804FF47A7005491C3108800348008898
:100DB00020F001000149088010BD0000100800402B
:100DC0004800002021B1028842F00102028004E0C4
:100DD00002884FF6FE731A40028070471AB1838969
:100DE0000B43838102E083898B438381704700003A
:100DF000002202881D4B98420ED01D4B98420BD00A
:100E0000B0F1804F08D01B4B984205D01A4B984246
:100E100002D01A4B984204D14FF68F731A404B8878
:100E20001A43174B984207D0164B984204D04FF6FE
:100E3000FF431A40CB881A4302808B8883850B8836
:100E400003850A4B98420BD0094B984208D00E4BB1
:100E5000984205D00D4B984202D00D4B984201D1DB
:100E60000B7A03860123838270470000002C014027
:100E7000003401400004004000080040000C004025
:100E800000100040001400400040014000440140B8
:100E9000004801407FB505460C4601210420FFF7BC
:100EA0001FFEADF80850ADF804400020ADF80A0070
:100EB000ADF8060001A90D48FFF79AFF0122412174
:100EC0000A48FFF78BFF1E208DF8000003208DF8E5
:100ED00001008DF8020001208DF803006846FFF73D
:100EE000C5FD01210148FFF76DFF7FBD00080040EF
:100EF00010B540F225511D4800F03EF810B31B48D4
:100F000000F064F8C4B21A48008800F40040C8B980
:100F10001748008800F4804060B10A2C03D00020FC
:100F20001349088020E01248008840F4004010492E
:100F3000088019E00D2C06D10D48008840F480404F
:100F40000B49088010E00A480088C0F30D000949E9
:100F50000C5407480088401C054908800846008852
:100F6000C72801DD0020088010BD000000380140C6
:100F7000080000203C01002070B502460024002338
:100F80000025002040F66A16B14200D100BFC1F32F
:100F9000421501F01F03012606FA03F3012D02D1C9
:100FA0009689334006E0022D02D1168A334001E0D3
:100FB000968A33400C12012606FA04F4168834404F
:100FC00013B10CB1012000E0002070BD01468888FB
:100FD000C0F30800704700BFFEE730380A2801D28E
:100FE000012070470020704700BF70470146114A3A
:100FF00012884A434FF0E0235A6100229A611A4650
:10100000126942F001021A6100BF4FF0E02210693C
:1010100000F001021AB100F48032002AF5D04FF03E
:10102000E022126922F001024FF0E0231A6100224F
:101030009A617047020000200146114A12784A4323
:101040004FF0E0235A6100229A611A46126942F079
:1010500001021A6100BF4FF0E022106900F00102A6
:101060001AB100F48032002AF5D04FF0E022126964
:1010700022F001024FF0E0231A6100229A617047CA
:101080000000002000BF054A128802F04002002A3A
:10109000F9D0C2B2014B1B1D1A80704700380140C5
:1010A00008B50420FFF72EFDFFF72EFB4FF400706C
:1010B000094908602020091D0860FFF76BFBFFF756
:1010C0002FFE0648F0231A46002100900846FFF73D
:1010D00045FC00BFFEE70000100C014060920008D4
:1010E000014608687047000030B595B0054613AB5F
:1010F00012AA09A9284600F03BFA044614B120467A
:1011000015B030BD0020149026E0224909689DF8F2
:10111000502001EBC20113AB11AA486801A900F0ED
:1011200027FA04460CB12046EAE709A901A800F015
:10113000BBFC60B99DF844009DF84810884201DD71
:101140000220DDE79DF85000124988750AE09DF8FD
:101150005000401CC0B214900E48007D9DF8501005
:101160008842D2DC00BF0B48007D9DF850108842B9
:1011700001D10420C4E714A9284600F0D9FA044696
:101180000CB12046BCE79DF850000249487500208C
:10119000B6E70000480000202DE9F0419AB0002693
:1011A0009C48847D007DA04202DC1AB0BDE8F0813D
:1011B0009849096801EBC40106AB07AA486808A969
:1011C00000F0D6F908A994A0FFF730F8002544E014
:1011D0009048008B0121A9400840D8B1222190A05D
:1011E000FFF724F8284600F029FB8A4924314718E4
:1011F00039468CA0FFF71AF8222189A0FFF716F8CC
:10120000284600F01BFB83492431084410A941F80B
:10121000250018E0284600F011FB7E4924310858CB
:1012200010A941F825007B48C07D30B910A850F8BE
:1012300025107DA0FEF7FAFF05E010A850F8251054
:101240007AA0FEF7F3FF9DF81C00401EA84202D0D2
:1012500078A0FEF7EBFF681CC5B29DF81C00854224
:10126000B6DB75A0FEF7E2FF00F038FB6948407D71
:101270000B280DD2DFE800F0060D151E27323F4E79
:101280005F7287006349096851F834008047064659
:1012900090E0604A126852F8341010988847064669
:1012A00088E05C4B1B6853F83420DDE9100190475F
:1012B00006467FE0574F3F6857F8343010A807C8FC
:1012C0009847064676E0DFF84CC1DCF800C05CF8D1
:1012D000347010A80FC8B84706466BE01498DFF8C2
:1012E00034C10090DCF800C05CF8347010A80FC85E
:1012F000B84706465EE0DDE91401DFF818C1CDE924
:101300000001DCF800C05CF8347010A80FC8B847C2
:1013100006464FE0DDE914121698DFF8F8C0CDE973
:1013200000120290DCF800C05CF8347010A80FC8FE
:10133000B84706463EE0DDE91423DDE91610DFF884
:10134000D4C0CDE90023CDE90210DCF800C05CF880
:10135000347010A80FC8B84706462BE0DDE91632F6
:1013600018991598CDE90232049101901498DFF88C
:10137000A4C00090DCF800C05CF8347010A80FC85E
:10138000B847064616E0DDE91623DDE91810CDE979
:101390000223CDE90410DDE91401DFF878C0CDE9BE
:1013A0000001DCF800C05CF8347010A80FC8B84722
:1013B000064600BF00BF00F051FA9DF81800012852
:1013C0000CD11448C07D20B931461CA0FEF72EFF79
:1013D00007E031461BA0FEF729FF02E018A0FEF748
:1013E00025FF0C4890F8EC0088B10A48D0F8F000CE
:1013F0000A21B0FBF1F201FB12070648D0F8F00019
:10140000B0FBF1F83A46414611A0FEF70FFF00BFCE
:10141000CBE60000480000200D0A257328000000DC
:101420002563000025730000256C75003058255891
:10143000000000002C000000290000003D256C7514
:101440003B0D0A003D305825583B0D0A00000000B6
:1014500046756E6374696F6E2052756E2054696DA7
:10146000653A25642E2531646D730D0A0000000075
:10147000F0B503461546002000220026002455E062
:101480001F782C2F01D104B901221F78292F01D0F8
:101490001F780FB904B94AE0002E34D11F78302FDD
:1014A00002DB1F78392F11DD1F78612F02DB1F78D7
:1014B000662F0BDD1F78412F02DB1F78462F05DDDD
:1014C0001F78582F02D01F78782F0CD102B12EE050
:1014D0001F78612F03DB1F78203F0F7001E01F781A
:1014E0000F70491C1FE01F78222F04D102B11EE0AB
:1014F0000126012417E01F78202F14D01F782C2FED
:1015000011D0FF2613E01F78222F00D1002402B152
:101510000DE044B11F785C2F02D15B1C471CF8B270
:101520001F780F70491C471CF8B25B1CA8E700BF6E
:1015300000270F702E70F0BD10B50446002010700B
:101540000BE020780870641C491C1078401C107057
:101550001078984201DB012010BD2078202802D0AD
:1015600020780028EDD10020087000BFF4E70000CB
:101570002DE9FF4F85B08046894600270020049062
:101580000390012002904FF0000B002544461DE01F
:101590002078202816D005F07F00052812DA0DB932
:1015A00045F0800505F07F00042803D120782A2823
:1015B00000D00EE0207805F07F010DF80100681CD6
:1015C000C5B202E0852D00D103E0641C207800281C
:1015D000DED100BF8DB1002005F07F010DF80100C4
:1015E00051A1684600F060FA18B90021089801700E
:1015F00002E001210898017000254FF0000A4446DE
:1016000014E0641C0AF1010000F0FF0A2078202891
:1016100002D020782A2809D1204600F0D5F90646C4
:10162000282E03D02A2E01D0CDF810A0207828280B
:1016300002D020780028E4D14446049810B10498E0
:10164000401C04444FF0000A002654E0207810B9F2
:101650004FF0010A50E02078282803D116B9781CF1
:10166000C7B213E02078292808D13EB917B1781EF7
:10167000C7B201E04FF0010A47B93DE020782228C7
:1016800004D10EB9012000E00020064647B92078B9
:1016900020282FD0207889F8000009F1010929E0DD
:1016A00020782C2804D101200290681CC5B214E0D7
:1016B0002078202811D0207828280ED04DB9BBF1F1
:1016C000050F06DA20780DF80B000BF1010000F091
:1016D000FF0B0298401CC0B20290012F0AD1029861
:1016E000022807D10298401CC0B202900398401C07
:1016F000C0B20390641CA9E700BF0398012809D178
:1017000000200DF80B0008A1684600F0CDF908B9DB
:1017100000200390079903980870002089F80000C2
:10172000504609B0BDE8F08F766F69640000000094
:101730002DE9F043B5B005460F460024002604E02D
:1017400000213D488155701CC6B20A2EF8DB06E028
:101750006D1C287818B9012035B0BDE8F0832878D1
:101760002828F5D16D1C61E034AA69462846FFF7A8
:101770007FFE064635449DF8D00020B1012827D0D1
:10178000FF284CD149E09DF8000000B333A968461A
:1017900000F025F906460EB10220DDE7204600F0F4
:1017A0004DF825490A31339A0A50A1F12400008BE3
:1017B0000121A140884320491A39088304211E4889
:1017C0000155601CC4B20A2C01DD0320C4E726E0E9
:1017D000684600F085F9401C00F0FF08204600F044
:1017E0002DF815490A3100EB01094946684600F019
:1017F0006CF911481A38018B0120A040014388B2CE
:101800000D491A3908830C4800F80480601CC4B2E2
:101810000A2C01DD03209FE701E002209CE700BFC6
:101820002878292801D0287800B900E09CE700BF7B
:101830003C70002090E7000062000020024600207B
:10184000002105E0044B5B5C0344D8B24B1CD9B2C9
:101850009142F7DB70470000620000200D480088CD
:1018600000F0010040B10C48D0F8F0004FF6FF71D5
:1018700008440949C1F8F0000748D0F8F0000549CC
:101880001431098808440449C1F8F0000846D0F82A
:10189000F0007047100800404800002010B50446D2
:1018A00004EBC40000EB04100122C2EB800081B203
:1018B0004FF47A70FFF7EEFA01200149C87510BDA8
:1018C0004800002010B50246012000E050430B1EE6
:1018D000A1F10104E1B2F9D110BD0000094800886E
:1018E00020F00100074908804FF6FF7005491C31C0
:1018F000088000200349143108800349C1F8F00032
:1019000070470000100800404800002070B51D48D6
:10191000008800F40040002833D01A4805780020E1
:1019200019494855194881681748884704461CB921
:101930001649C868804721E0134800F0DDF80546E5
:10194000012D00D02C46CCB1012C06D0022C08D0A1
:10195000032C0AD0042C10D10BE00DA0FEF766FC7E
:101960000BE00EA0FEF762FC07E00FA0FEF75EFCA6
:1019700003E010A0FEF75AFC00BF00BF00200149A1
:10198000088070BD080000203C01002048000020B5
:10199000BAAFCAFDB4EDCEF3210D0A00B2CECAFD36
:1019A000B4EDCEF3210D0A00B2CECAFDCCABB6E049
:1019B000210D0A00CEB4D5D2B5BDC6A5C5E4B5C4C7
:1019C000BAAFCAFD210D0A000146491C00E0491CBE
:1019D0000878202801D10029F9D1087870472DE92D
:1019E000F04307460E4600254FF00A083C4600200B
:1019F00030601FE02078392802DC207830280ADAAD
:101A00002078462802DC2078412804DA20785828FB
:101A100009D1012D07D12078412801DB4FF01008B2
:101A2000681CC5B205E0207800B904E00120BDE8DB
:101A3000F083641CDEE700BF3C46B8F1100F0FD105
:101A4000032D01DA0220F2E72078302806D16078F1
:101A5000582803D1A41CA81EC5B204E00320E6E761
:101A60000DB90420E3E71BE00DB1681EC5B2207874
:101A7000392806DC2078302803DB2078A0F13009F3
:101A800002E02078A0F1370929464046FFF71AFF07
:101A9000316809FB00103060641C207800B900E058
:101AA000E2E700BF0020C2E702460AE010780B78A8
:101AB000984201D001207047107800B902E0521C12
:101AC000491CF3E700BF0020F5E706E002780A7042
:101AD000027802B902E0401C491CF7E700BF7047DA
:101AE0000146002005E00A7802B903E0421CD0B2AA
:101AF000491CF8E700BF704710B58CB004461E23A0
:101B00000BAA03A92046FFF717FD0090009810B11B
:101B100001200CB010BD9DF82C00044400200B9057
:101B20000EE040489DF82C2050F8221003A8FFF743
:101B3000BBFF00B908E09DF82C00401CC0B20B9020
:101B40009DF82C000728ECD300BF9DF82C00072837
:101B500063D2DFE800F004053C5E6564630000BF0B
:101B600031A0FEF763FB31A0FEF760FB3FA0FEF75C
:101B70005DFB4EA0FEF75AFB5CA0FEF757FB6BA087
:101B8000FEF754FB79A0FEF751FB86A0FEF74EFB53
:101B90008BA0FEF74BFB90A0FEF748FB94A0FEF74E
:101BA00045FB99A0FEF742FB9EA0FEF73FFBA4A0D9
:101BB000FEF73CFBB0A0FEF739FBBDA0FEF736FBFD
:101BC000C8A0FEF733FBD4A0FEF730FB9AE216A0C4
:101BD000FEF72CFBE0A0FEF729FB00200B900EE0A7
:101BE000ED4800689DF82C2000EBC2004168EBA096
:101BF000FEF71CFB9DF82C00401CC0B20B90E64881
:101C0000007D9DF82C108842EADC07A0FEF70EFB51
:101C100078E205A0FEF70AFBC4E171E245E219E2B1
:101C2000ECE100000C0000200D0A00002D2D2D2DF0
:101C30002D2D2D2D2D2D2D2D2D2D2D2D2D2D2D2DD4
:101C40002D2D2D2D55534D4152542056332E312DCF
:101C50002D2D2D2D2D2D2D2D2D2D2D2D2D2D2D2DB4
:101C60002D2D2D2D2D2D2D200D0A00002020202082
:101C700055534D415254CAC7D3C9414C49454E549E
:101C8000454BBFAAB7A2B5C4D2BBB8F6C1E9C7C914
:101C9000B5C4B4AEBFDAB5F7CAD4BBA5BDBBD7E9EE
:101CA000BCFE2CCDA8B9FD200D0A0000CBFC2CC435
:101CB000E3BFC9D2D4CDA8B9FDB4AEBFDAD6FACA53
:101CC000D6B5F7D3C3B3CCD0F2C0EFC3E6B5C4C822
:101CD000CEBACEBAAFCAFD2CB2A2D6B4D0D02ED2D4
:101CE000F2B4CB2CC4E3BFC90D0A0000D2D4CBE6BA
:101CF000D2E2B8FCB8C4BAAFCAFDB5C4CAE4C8EBF6
:101D0000B2CECAFD28D6A7B3D6CAFDD7D628313061
:101D10002F3136BDF8D6C629A1A2D7D6B7FBB4AEAF
:101D2000A1A2BAAFCAFDC8EB0D0A0000BFDAB5D850
:101D3000D6B7B5C8D7F7CEAAB2CECAFD292CB5A55D
:101D4000B8F6BAAFCAFDD7EEB6E0D6A7B3D63130F3
:101D5000B8F6CAE4C8EBB2CECAFD2CB2A2D6A7B37D
:101D6000D6BAAFCAFDB7B5200D0A0000BBD8D6B5AC
:101D7000CFD4CABE2ED0C2D4F6B2CECAFDCFD4CAFA
:101D8000BEBDF8D6C6C9E8D6C3B9A6C4DC2CD0C23D
:101D9000D4F6BDF8D6C6D7AABBBBB9A6C4DC2E0DF7
:101DA0000A000000BCBCCAF5D6A7B3D63A7777774D
:101DB0002E6F70656E6564762E636F6D0D0A000080
:101DC00055534D415254D3D037B8F6CFB5CDB3C3E8
:101DD000FCC1EE3A0D0A00003F3A202020202020CE
:101DE000BBF1C8A1B0EFD6FAD0C5CFA20D0A000052
:101DF00068656C703A202020BBF1C8A1B0EFD6FA1C
:101E0000D0C5CFA20D0A00006C6973743A2020205F
:101E1000BFC9D3C3B5C4BAAFCAFDC1D0B1ED0D0AB5
:101E20000A00000069643A2020202020BFC9D3C3E3
:101E3000BAAFCAFDB5C44944C1D0B1ED0D0A0A001C
:101E40006865783A20202020B2CECAFD3136BDF830
:101E5000D6C6CFD4CABE2CBAF3B8FABFD5B8F12BC8
:101E6000CAFDD7D6BCB4D6B4D0D0BDF8D6C6D7AA92
:101E7000BBBB0D0A0A0000006465633A20202020E5
:101E8000B2CECAFD3130BDF8D6C6CFD4CABE2CBA48
:101E9000F3B8FABFD5B8F12BCAFDD7D6BCB4D6B4C7
:101EA000D0D0BDF8D6C6D7AABBBB0D0A0A00000029
:101EB00072756E74696D653A312CBFAAC6F4BAAFFB
:101EC000CAFDD4CBD0D0BCC6CAB13B302CB9D8B136
:101ED000D5BAAFCAFDD4CBD0D0BCC6CAB13B0D0A6F
:101EE0000A000000C7EBB0B4D5D5B3CCD0F2B1E056
:101EF000D0B4B8F1CABDCAE4C8EBBAAFCAFDC3FBDF
:101F0000BCB0B2CECAFDB2A2D2D4BBD8B3B5BCFC71
:101F1000BDE1CAF82E0D0A002D2D2D2D2D2D2D2DB4
:101F20002D2D2D2D2D2D2D2D2D2D2D2D2D2D2D2DE1
:101F30002D2D414C49454E54454B2D2D2D2D2D2DEC
:101F40002D2D2D2D2D2D2D2D2D2D2D2D2D2D2D2DC1
:101F50002D2D2D200D0A00002D2D2D2D2D2D2D2D5B
:101F60002D2D2D2D2D2D2D2D2D2D2D2D2D2D2D2DA1
:101F70002DBAAFCAFDC7E5B5A52D2D2D2D2D2D2DC3
:101F80002D2D2D2D2D2D2D2D2D2D2D2D2D2D2D2D81
:101F90002D2D2D2D200D0A004800002025730D0A3F
:101FA0000000000059A0FEF741F900200B901AE054
:101FB000664909689DF82C2001EBC20101AB02AA19
:101FC000486803A9FFF7D4FA604800689DF82C1010
:101FD00050F8312003A95EA0FEF728F99DF82C00E7
:101FE000401CC0B20B905948007D9DF82C108842CF
:101FF000DEDCAFF2CC30FEF719F983E0AFF2D83077
:10200000FEF714F90BAA03A92046FFF731FA9DF851
:102010002C00C8B9694603A8FFF7E1FC0B909DF8B6
:102020002C0020B94FA00099FEF700F90EE09DF8B2
:102030002C00042801D002206BE54DA0FEF7F6F835
:1020400001204249C87501E0022062E547A0FEF781
:10205000EDF857E045A0FEF7E9F80BAA03A92046E2
:10206000FFF706FA9DF82C00C8B9694603A8FFF7E8
:10207000B6FC0B909DF82C0020B942A00099FEF709
:10208000D5F80EE09DF82C00042801D0022040E590
:102090003FA0FEF7CBF800202C49C87501E00220D4
:1020A00037E532A0FEF7C2F82CE030A0FEF7BEF80C
:1020B0000BAA03A92046FFF7DBF99DF82C00C8B94D
:1020C000694603A8FFF78BFC0B909DF82C0078B9AC
:1020D0001E49009881F8EC00084690F8EC0018B111
:1020E00030A0FEF7A3F807E035A0FEF79FF803E065
:1020F00002200EE502200CE51CA0FEF797F801E097
:10210000012006E500BF002003E500002D2D2D2D48
:102110002D2D2D2D2D2D2D2D2D2D2D2D2D2D2D2DEF
:102120002D2D2D2D2DBAAFCAFD204944202D2D2D4A
:102130002D2D2D2D2D2D2D2D2D2D2D2D2D2D2D2DCF
:102140002D2D2D2D2D2D2D2D200D0A004800002088
:1021500025732069642069733A0D0A305825303898
:10216000580D0A004845583A305825580D0A0000C5
:102170003136BDF8D6C6B2CECAFDCFD4CABE210D07
:102180000A0000004445433A256C750D0A00000022
:102190003130BDF8D6C6B2CECAFDCFD4CABE210DED
:1021A0000A00000052756E2054696D652043616C11
:1021B00063756C6174696F6E204F4E0D0A000000EC
:1021C00052756E2054696D652043616C63756C6156
:1021D00074696F6E204F46460D0A0000016070471B
:1021E0008D628D4285017CC174806C606C606C80F6
:1021F00074A17CC1850185428D62958295A29DC2A4
:102200009E02A642AE83B6C4C726C747CF47CF6853
:10221000D789D789DFABE7CCE7CDE7CDE7CDE7CEF0
:10222000E7CDE7CDE7CDE7CDEFCDEFCDEFCDEFCDEE
:10223000E7CCE7CCE7CBDFCBDFAAD7A9D788D78815
:10224000D787D767CF66C726C705BEE5B6C5B6C56B
:10225000AE84A664A6249DE395A395838D428D222A
:10226000852285017CC174C174A174816C40642095
:10227000642064206400642064206C206C206C4026
:10228000744074807CC184E18D228D42956295A258
:102290009DA29DC2A5C2A5E3AE03B644BE85C6C637
:1022A000CEC6CEE6CF06D706D726D726D726D70660
:1022B000D706DF47DF47DF47DF48DF48DF48DF4833
:1022C000E768E768E789E789EFA9EFAAEFAAEFAA2D
:1022D00095A395838D4285027CC174A174A174A1DC
:1022E00074A17CC17D0185428D6295829DC29DE273
:1022F0009E02A643AE84B6C5C726C727CF47CF6880
:10230000D768D789DF8ADFABE7ACE7ADE7ADE7ADEC
:10231000E7CDE7CDE7CDE7CDEFCDEFCDEFCDE7CC06
:10232000E7CCE7CBE7CBDFAADFAAD789D788D78866
:10233000D787D767CF66C726C705BEE5B6C5B6C47B
:10234000A664A6449E239DE395A395838D428D426A
:1023500085228522850285027CE27CE274A274A239
:10236000748274816C6174817481748174817C81E4
:102370007C8184C285028D228D62958295A39DC346
:10238000A5E3A603AE03AE03B644BE85C6A6C6C685
:10239000CEE6CF06D706D726D727D726D726D726E5
:1023A000D726DF67DF67DF67DF68DF68DF68DF6842
:1023B000E788E788E789E789EFA9EFAAEFCAEFCABC
:1023C000A5E49DC495838D63852285017CC17CC174
:1023D00074A07CC17D0185418D6295A29DE39E0321
:1023E000A622AE63B6A4B6E5BF06C726C727CF4769
:1023F000D789D789DFABDFCBE7CCE7CDE7CDE7CD1A
:10240000E7CDE7CDE7CDE7CDE7CDE7CDE7CDE7AC4D
:10241000E7ACE7ABDFABDFAADFA9D789D788CF87E7
:10242000D787CF67CF46C726BF05B6E5B6C4AEA4EB
:10243000A6639E239E039DE395C395828D628D6264
:102440008D628D638D638D4385227D027CE27CE20B
:102450007CE27CC27CC27CC27CC27CC27CC284E244
:1024600084E28D228D4395639DA39DC39DC3A603E6
:10247000AE24AE24AE44B664BE85C6A6CEC6CEE6B5
:10248000CEE6CF06D706D726D727D726D726D726F4
:10249000DF47DF67DF88DF67E788E788E788E78966
:1024A000E7A9E789E7A9E7A9EFA9EFAAEFCAEFCA69
:1024B000A624A6049DE49DA395838D4285027CE11C
:1024C00074A07CE085218D418D8295A29DE39E03C1
:1024D000A623AE63B6A4B6C5BF06C706C726CF47B8
:1024E000D789D78ADFABE7CCE7CCE7CDE7CDE7CD1F
:1024F000E7ADE7CDE7CDE7CDE7ADE7CDE7ACE7ACBE
:10250000E7ABE7ABDFABDFAAD789D788CF88CF6748
:10251000CF67CF46C746C705BEE5B6C4AEA4AE84F6
:10252000A6639E229DE29DE295C395A2958295A306
:102530009583958395838D63854285028502850207
:1025400085037CE27CE284E284E284E28502850207
:102550008D229563958395A39DC49DE3A603A60450
:10256000AE44B664B665BE85C6A5C6C6CEE6CEE7A1
:10257000CEE6D707D727D727D727D727D727D726D6
:10258000DF67DF88DF88DF88E788E788E789E78912
:10259000E7A9E7A9E7A9E7A9EFA9EFAAEFAAEFAA98
:1025A000AE44AE44A604A5E49DC495A38D628521E6
:1025B0007CE0850185418D8295A295C29DE39E03B5
:1025C000A623AE84B6A4B6C5BEE6C706C727CF68A5
:1025D000D789D78ADFABDFABE7CCE7CCE7CDE7CD58
:1025E000E7ADE7CDE7CDE7CDE7ADE7CDE7ACE7ACCD
:1025F000E7ABE7ABDFAADF89D789D788CF68CF679A
:10260000CF47CF46C726BF05BEE4B6C4AEA4AE834F
:10261000A6639E229DE29DE29DC39DC29DC39DE354
:102620009DC39DC395A395838D638D438D438D423B
:1026300085228502850285028D228D238D238D437F
:10264000956395839DA39DA3A5E3A5E3A603AE246F
:10265000AE44B664BEA5BEA5C6C5C6E6CF06D707BE
:10266000D707D727D727D747D727DF47DF47DF4702
:10267000DF68DF88DF68DF88E789E788E789E7893F
:10268000E788E788E7A9E7A9EFA9EFA9EFA9E7A9F4
:10269000B664B664AE44AE24A604A5E49DA39562D8
:1026A0008D418D418D6295A295C295C29DE29E039A
:1026B000A643AE84AEA4B6C5BEE5C706C727CF689D
:1026C000D789D789DF8ADFABDFACE7ACE7ADE7CDF1
:1026D000E7CDE7CDE7CDE7CCE7ACE7CCE7ACE7ABC0
:1026E000E7ABDFAADF8AD789D788CF68CF67CF6704
:1026F000CF46C746C725BF05BEE4B6C4B6A3AEA342
:10270000AE83A643A6239E039E039DE39DE3A604FA
:10271000A6049DE395C395A395838D828D628D62FA
:102720008522852285228D228D428D428D4395639F
:102730009D839DA39DC3A5C3A604A604AE23AE445A
:10274000B664BE85BEA5C6A5C6C5C6E6CF07D72753
:10275000D727D728D728D748DF47DF47DF47DF67A6
:10276000DF68DF88DF68E788E7A9E789E789E7A905
:10277000E788E788E789E7A9E7A9E7A9E789E7897B
:10278000B684BEA5B685B664AE44AE44A6049DC369
:102790009582958295A295C295C295C29DE29E238F
:1027A000A643AE84B684B6A5BEE6C706C727CF68E3
:1027B000D769D769D78ADFAADFABDFACDFACDFAC84
:1027C000DFACDFCCE7CCE7CCE7CCE7CCE7ACE7ABE2
:1027D000DFAADFAAD789D788D768CF67CF67CF6648
:1027E000C746C726C725BF05BEE4B6C4B6C4B6A350
:1027F000AEA3AE83A643A643A623A623A603A603A1
:10280000A604A6039DE39DC39DA395A3958295620F
:102810008D428D428D428D4295629562956395837E
:102820009DC3A5E3A5E3A603AE24AE44AE44B664BF
:10283000B684BEA5C6C5C6C6CEE6CF06D707D7277F
:10284000D728DF28DF28DF28DF48DF48DF48DF68B8
:10285000DF68DF68DF68E768E7A9E789E788E7A955
:10286000E788E788E788E788E7A9E789E788E788CE
:10287000BEC5BEC5BEC5BEA5B685B685AE44A6045A
:102880009DC39DC29DC29DE29DE295C29DE29E2395
:10289000A663AE84B684B6A5BEE6C706C727CF47F3
:1028A000CF48CF68D769D78AD78ADF8BDF8BDF8B9A
:1028B000DFABDFABDFCBDFABE7ABE7ABE7ABDF8BB0
:1028C000DF8ADF8AD789D768CF67CF47CF66CF4601
:1028D000C726C725BF05BF05BEE4B6C4B6C4B6A3A8
:1028E000AEA3AEA3AE83A663AE43AE43A623A603B8
:1028F000A6039E039E039DE39DE39DE39DC39DC3AD
:1029000095A39582958295A39DA39DC39DC3A5C3C1
:102910009DC3A5E3A603A603AE44B644B664B6645D
:10292000BE85C6A5C6C6C6E6CF06D727D727D727F2
:10293000DF49DF49DF49DF48DF48DF68DF68DF68FC
:10294000DF68DF68DF68E768E788E788E788E788A7
:10295000E7A8E788E788E788E788E788E788E788DF
:10296000C6E6C706C6E6C6E6BEC6BEC6B6A5B66518
:10297000A5E39DE29DC29DC295C19DE29E029E225D
:10298000AE43AE84B6A4BEC5BEE5C706C727C727FB
:10299000CF48CF48CF49D769D769D76AD78AD78A6E
:1029A000DF8BD7ABDFABDFABDF8BDFABDFABDFAA20
:1029B000DFAAD789D768CF67CF67CF47C746C74653
:1029C000C725C725BF05BEE4B6C4B6C3B6A3B6A324
:1029D000B6A3B6A3B6A4B684AE64AE43AE43A623F4
:1029E000A623A623A603A603A603A603A603A5E380
:1029F000A5E3A5E39DC39DC3A5E3A604A604AE2459
:102A0000AE04AE23AE44B664B685BE85BE85BEA513
:102A1000C6C5C6C6CEE6CF07D707D727D728D7481B
:102A2000DF28DF49DF69DF69DF69DF69DF68DF68C9
:102A3000DF68DF68DF68E768E788E788E788E788B6
:102A4000E7A8E788E788E788E788E767DF67DF6761
:102A5000CF26CF26C706C6E6C6E6C6E6BEC6BEA6D3
:102A6000AE24A6029DE29E029DE29E02A623A643FC
:102A7000AE43AE84B6A4B6C5BEE5BF06C726C7063C
:102A8000C727C727CF48CF48CF49D769D78AD78A22
:102A9000D78AD78ADFAADFAADF8ADFAADFAADFAA5E
:102AA000DF89D789D768CF67CF67CF66C746C74664
:102AB000C725C705BF05BEE4BEE4B6C4B6C4B6C4E8
:102AC000B6C4B6C4B6A4B6A4B684AE64AE63AE4310
:102AD000AE43A623A623A623A623AE23AE24AE246C
:102AE000A623A603A603A603AE24AE24AE44AE449A
:102AF000AE44AE44B664B684BE85BEA5C6A5C6C601
:102B0000CEC6CEE6CF07D707D728D728DF48DF487D
:102B1000DF49DF69DF69DF69DF69DF69DF69DF6896
:102B2000E768E768DF68E768E768E788E788E788D5
:102B3000E788E788E788E788E787DF67DF67DF6799
:102B4000CF47CF47CF27CF27CF27CF27C707C6E607
:102B5000B685AE23A603A623A643AE43AE63AE63FB
:102B6000AE63AE84B6A4B6C4BEE5C706C706C70644
:102B7000C706C706C727C727CF48CF48CF69D76939
:102B8000D769D789D78AD78ADF8ADFAADFAADFAADF
:102B9000D789D788D768CF67CF67CF46C746C725BD
:102BA000BF05BF05BEE4BEE4BEE4BEE4BEE4BEE4D1
:102BB000B6C4B6C4B6A4B684B684AE83AE64AE63FF
:102BC000AE63AE43AE43AE43AE43AE44B664B6640A
:102BD000AE44AE44AE44AE44B664B665B665B664C3
:102BE000B684B684B684BE85BEA5C6A6C6C6CEE7E4
:102BF000CEE7D707D728DF28DF49DF49DF49DF499C
:102C0000DF69E76AE76ADF69DF69DF69E769E76863
:102C1000E768E768DF68DF68DF68DF67DF67DF676F
:102C2000DF67DF67DF67DF67DF67DF46DF46DF46D7
:102C3000D748D748D748D748D748D748CF28CF27ED
:102C4000BEC6B664AE43AE63AE83AE83B683B6A4EF
:102C5000B683B6A4B6A4B6C4BEE5C705C706BF050D
:102C6000C706C706C706C706C727C727CF48CF6806
:102C7000CF68CF68D789D789D789DFA9DFAADF894D
:102C8000D788D768CF67CF47CF47CF46C746C72536
:102C9000BF05BF05BEE4BEE4BEE4BEE4BEE4BEE4E0
:102CA000B6C4B6C4B6A4B6A4B684B684B684B68494
:102CB000B684B684B664B664B664B684B684B684A4
:102CC000B664B664B664B684B685B685B685B68590
:102CD000BEA5BEA5BEA5BEA5C6A6C6C6CEE6D707DE
:102CE000D728D728DF48DF49DF69DF69DF69DF6977
:102CF000E76AE78AE76ADF69DF69DF69DF68DF487B
:102D0000DF48DF68DF48DF47DF47DF47DF47DF4770
:102D1000DF47DF46DF46DF46DF46D725D725D72505
:102D2000D749D769D769D769D769D769D748CF282D
:102D3000C706BEA5B684B684B6A4B6A4B6A4B6A487
:102D4000B6A4B6C4B6C4BEC4BEE5C705C705BEE5D5
:102D5000BF05BF06BF06BF06C706C726C747CF4782
:102D6000CF47CF68CF68D789D789D7A9DF89D789D7
:102D7000D768D768CF67CF67CF47CF46C746C72545
:102D8000BF05BF05BEE4BEE4BEE4BEE4BEE4BEE4EF
:102D9000BEE4BEE4BEC4BEC4B6C4B6A4B6A4B6A463
:102DA000BEA4BEA4BEA4BEC5BEC5BEC5BEC5BEC56E
:102DB000BEA5BE85BE85BEA5BEA5BEA5BEA5BEA53B
:102DC000BEA5BEA5C6A5C6C6C6C6CEE7CEE7D70871
:102DD000D728DF29DF49E76AE76AE76ADF6ADF6A3F
:102DE000E76AE76AE76ADF69DF49DF49DF48DF272B
:102DF000DF48DF47DF47DF47DF47DF47DF47DF47A2
:102E0000DF46DF26D726D726D725D725D725D725AE
:102E1000D769D78ADF8ADF8ADF8ADF8AD769D7480E
:102E2000CF27C6E6BEC5BEC5BEC4BEC4BEC4B6A41A
:102E3000B6C4B6C4BEC4BEC4BEE5BF05BF05BF05AB
:102E4000BF05BF05BF05BF05BF06C706C727C747E4
:102E5000C747CF67CF68D788D788D789D789D7881A
:102E6000D768D768CF67CF67CF47CF46C746C72554
:102E7000BF05BF05BF04BEE4BEE4BEE4BEE4BEE4DD
:102E8000BEE4BEE4BEE4BEE4BEE5BEC5BEC5BEC58E
:102E9000BEC5BEC5BEE5BEE5C6E5BEE5BEC5BEC592
:102EA000C6C5BEA5BEA5BEA5BEA5BEC5BEC5BEC582
:102EB000BEC5BEC5C6C6C6E6CEE7CEE7D708D708AC
:102EC000DF49DF49E74AE76AE76AE76AE76AE76AEC
:102ED000DF6AE76ADF69DF69DF49DF49DF28D72773
:102EE000DF28DF47DF27DF47DF47DF47DF47DF47F1
:102EF000DF46D726D726D725D725D705D705D72507
:102F0000DFABDFABDFABDFABDFABDFAADF89D769DE
:102F1000D748CF27CF26C705BEC4BEE4BEE4BEC394
:102F2000B6C4BEE4BEE4BEE4BEE4BF05C705C70543
:102F3000C725C705BF05BF05BF05C726C726C746A6
:102F4000C746CF67CF68CF68D788D788D788D76874
:102F5000D768D768CF67CF67CF67CF46C746C72543
:102F6000BF25BF25BF05BF05BF04BF04BEE4BEE447
:102F7000BF04BF04BEE5BEE5BEE5BEE5BEE5BEE5F9
:102F8000BEE5C6E5C706C706C6E6C6E5C6E5C6C5CC
:102F9000C6E5C6C5C6C5C6C5C6E5C6E6C6E6C6E636
:102FA000C6E6C6E6CEE6CF07CF27D707D728DF2964
:102FB000DF49E74AE76AE76AE76BE76BE76BE76BCE
:102FC000E76AE76ADF69DF49DF49DF49DF48DF2772
:102FD000DF48DF47DF47DF47DF47DF47DF47DF66A1
:102FE000DF46DF26D725D725D725D705D705D7250F
:102FF000DFACE7CCE7CCE7CCE7CCE7CBDFAADF8AD6
:10300000D748D768D747C726C6E5C6E4BEE4BEC4DE
:10301000BEC4BEE4BF05BEE5BEE5C705C705C725FE
:10302000C746C725C725BF05BF05C705C726C7268D
:10303000C746CF67CF87CF88D788D788D788D76844
:10304000D768D768D767CF67CF67CF46C746C7254A
:10305000BF25BF25C725BF05BF05BF05BF05BF05E8
:10306000C725C725C705BF05BF05C706C706C706CD
:10307000C706C706CF26CF26CF06C706C706CF0688
:10308000CF06CF06CF06CF06C706C706C706C706B8
:10309000C706C706CF07CF28D728D728D729DF49A3
:1030A000E76AE76AE76AE76BE76BE76BE78BE78B53
:1030B000E76AE76ADF6ADF49DF49DF49DF48DF287F
:1030C000DF48DF48DF47DF47DF47DF47DF67DF47AE
:1030D000DF47D746D726D725D725D725D705D725E4
:1030E000E7AEE7CEE7CEEFCEE7CDE7ACDFABDF8BE9
:1030F000D789D789D768CF47CF26C725C704BF044C
:10310000BEE4BF05BF05BF05BF05C725C725C74529
:10311000C725C745C745C725BF05BF05C725C7265E
:10312000C746CF46CF47CF67CF87D788D788D788BE
:10313000D788CF68CF67CF67CF67C746C746C74531
:10314000C765C745C725C726C706C706BF06C72622
:10315000C725BF25C725C725C725C706C706CF274B
:10316000CF27CF47CF47CF27CF27CF27CF27CF276F
:10317000CF27CF27CF27CF27CF06CF06CF06CF2702
:10318000C706CF07CF27D748D748D749DF49DF49F8
:10319000E76AE78BE78BEFACEFACE78BE78BE78B6E
:1031A000E78BE78AE76ADF69DF49DF28DF28E7691D
:1031B000DF28DF48DF48DF27DF27DF47DF47D74744
:1031C000DF47D746D725D745D725CF04CF04D72506
:1031D000E7CEEFCEEFCFEFCEE7CEE7ADDFACDFABA4
:1031E000DF8AD789D788D767CF46C725C724C724A2
:1031F000BF05BF05BF05BF25C725C725C745C745AF
:10320000C745C745C725C725C705C705C725C7255E
:10321000C725C746CF46CF66CF67CF87CF87CF8733
:10322000CF67CF67CF67CF67CF66CF66C746CF661A
:10323000CF65C745C745C746C726C726C726C72681
:10324000C726C745C745C745CF26CF26CF27CF2797
:10325000CF28CF48CF48CF47CF47CF47CF47CF27FB
:10326000CF27CF27CF27CF47CF27CF27CF27CF278E
:10327000CF27CF27D728D748D749DF49DF4ADF6A8A
:10328000E78BE78BE78BEFACEFACE78BE78BE78B5C
:10329000E78BE78ADF6ADF69E769DF49DF28E7480C
:1032A000DF28DF48DF48DF27DF27DF47D747D7277B
:1032B000D747D726D726D726D725CF05CF05D72559
:1032C000EFCFEFCFEFEFEFEFEFCEE7ADE7ADE7AC4E
:1032D000DFABDFAADF89D768CF67CF46C725C72511
:1032E000C746C725C725C725C745C745C765C745BD
:1032F000C745C745C725C725C725C725C725C7252E
:10330000C725C725C746CF46CF66CF67CF67CF67EC
:10331000CF47CF46CF47CF66CF66CF66CF66CF6663
:10332000CF65CF65CF45CF46CF46CF46CF46CF47B7
:10333000CF46CF46CF47CF47CF47CF47D748D748CD
:10334000D748D768D768D748D748D768D748CF482D
:10335000D748D748D748D747D748D747D748D74877
:10336000CF47CF48D748D748D749DF69DF6AE78BCF
:10337000E78BE78BE78BE78BE78CEFACEFACEFAC41
:10338000E7ABE78ADF6ADF69E769E769DF48DF28DB
:10339000DF28DF28DF27D727D727D747D747D726E4
:1033A000D726D726D726D725D725CF25CF25CF2552
:1033B000EFCFEFEFEFEFEFEFEFCEE7CEE7ADE7AC1C
:1033C000DFACDFABDFAAD789D768CF47CF46CF4680
:1033D000CF46C746C746C745C746C745C765C76541
:1033E000C745C745C745C725C725C725C725BF0545
:1033F000C725C725C745C746CF46CF46CF46CF4688
:10340000CF46CF46CF46CF46CF66CF66CF66CF6694
:10341000CF66CF66CF66CF66CF66CF66CF67D767FA
:10342000CF67CF67D768D768D768D748D748D769F5
:10343000D769D769D769D769D769D769D769D748AD
:10344000D769D769D768D748D768D768D768D768A2
:10345000D748D748D749D749DF49DF6AE78BE7AB79
:10346000E78BE78BE78BE78BE78CEFACEFACEFAC50
:10347000EFACE78BDF6ADF6AE76AE769DF49DF28DD
:10348000DF48DF48DF27D727D747D747D747D72693
:10349000D726D726D726D726D726D725D726D72546
:1034A000EFCFEFCFEFCFEFCFE7CEE7CEE7CDE7CD52
:1034B000DFACDFABDFAADF8AD768D768CF47CF673B
:1034C000CF46CF66CF46CF46CF46C745CF45CF651F
:1034D000CF45C745C745C725C725C725BF04BF0476
:1034E000C725C725C725C745C745C745C745C745DC
:1034F000C746CF46CF46CF46CF46CF66CF66CF66CC
:10350000CF67D767D766D766D766D766D787D767B7
:10351000D768D769D769D769D769D769D769D769AC
:10352000D76AD76AD76AD76AD76ADF8ADF8AD76A43
:10353000D769D769D769D769D769D769D769D749AB
:10354000D749D769DF69DF69DF69DF6AE78BE7ABF6
:10355000E78BE78BE78BE78BE78CE78CE78CE7ACB7
:10356000E7ACE7ABE78BE76AE76ADF6ADF49DF488A
:10357000DF48DF48D727D727D727D747D727CF26F2
:10358000CF26CF26CF26CF26CF26D746D746D7461B
:10359000EFCFEFCFEFCEEFCEE7CEE7CEE7CDE7AD83
:1035A000DFACDFACDFABDFAAD789D768D768D768D5
:1035B000CF67CF67D767CF66CF66CF45CF45CF659B
:1035C000CF65C745C744C744C724C724BF24BF0429
:1035D000BF24C725C725C745C745C745C745C745F4
:1035E000CF45CF66CF66CF46CF46CF66CF67CF6792
:1035F000D767D787D787D787D787D787DF88DF88E9
:10360000DF89DF8ADF8ADF8BDF8AD76AD76AD76AEA
:10361000DF6ADF8BDF8BDF8BDF8BDF8BDF8BDF8A7C
:10362000DF8AD76AD76AD76AD76AD76AD769D7696C
:10363000D769D769DF69DF69DF69DF6AE78BE78B05
:10364000E76BE76BE76BE78BE78CE78CE78CE7AC26
:10365000E7ACE7ABE78BE78BE76ADF6ADF49DF4977
:10366000DF28D728D728D727D747D747CF27CF2630
:10367000CF26CF26CF26CF26D726D746D746D76602
:10368000EFCEE7CEE7CEE7CEE7CEE7CEE7CDE7CD8C
:10369000DFACE7ACDFCBDFAADF8AD789D768D76892
:1036A000D767D787D787D787D766CF66CF65CF65E8
:1036B000CF65CF65C744C744C724C724BF24BF24F0
:1036C000BF24BF24C745C745C745C745C745C745EC
:1036D000CF45CF65CF65CF66CF66CF67D767D76752
:1036E000D768D788DFA8DFA9DFA9DFC9DFA9DFA9ED
:1036F000E7AAE7AAE7ABE7ABDF8BDF8BDF8BDF8BDC
:10370000DF8BDF8BDF8BDF8BDF8BDF8CDFABDFAB28
:10371000DFABDF8BDF8BDF6ADF8ADF8ADF8AD76A86
:10372000D769DF69DF6ADF8ADF6ADF6AE78AE78BEA
:10373000E76BE76BE76BE78BE78CE78CE78CE7AC35
:10374000E7ACE7ACE7ACE78BE78BE76ADF69DF491B
:10375000DF48D748D748D748D747CF47CF47CF27A5
:10376000CF26CF26CF26D746D746D746D766D767A8
:10377000E7CEE7CEE7CEE7CEE7CDE7CDE7CDE7CDA5
:10378000DFACE7ABDFCBDFABDFAAD789D788D78841
:10379000D788D787D787D787D787D786CF66CF658C
:1037A000CF65CF65C744C744C724BF24BF23BF2408
:1037B000C745C745C745C745C745C744C744C744AC
:1037C000CF65CF65CF66CF66CF66D767D767D76738
:1037D000D768DF89DFAADFAADFAAE7CBE7CBE7ABB1
:1037E000E7ABE7ABE7ABE7ABE7ACDFABDF8CDFAC7E
:1037F000DF8BDF8BDFACDF8CDF8CDFACDFACDFACF3
:10380000E7ACDFACDF8BDF8BDF8BDF8BDF8BDF6A3F
:10381000D769DF69DF8ADF8ADF8ADF8AE78BE78B98
:10382000E76BE76BE76BE76BE78BE78CE78CE7AC65
:10383000E7ACE7ACE7ACE78BE78BE78BDF6ADF4908
:10384000DF49D748D768D768D748CF47CF47CF4752
:10385000CF47CF26CF26D747D767D746D746D78774
:10386000E7CDE7CDE7CDE7CDE7CDE7CDE7CDE7CCB9
:10387000E7CCE7ABDFABDFAADFAADFA9D789D78820
:10388000DFA8D787D787DFA7D7A7D786CF65CF454C
:10389000CF65C744C744C744BF23BF23BF23BF234B
:1038A000C745BF24BF24C744C744C744C744C7440F
:1038B000CF65CF65CF65CF45CF66D787D767DFA800
:1038C000D768DF8ADFABCF4ADFCCDFACDFABE7CC3A
:1038D000E7ABEFECE7ABE7ABE7ABDF8CDFACDF8C64
:1038E000E7CDDF6BDF8CE7CDE7ACD74BEFEED76BE7
:1038F000DFACDF8CE7CDDF8BE7CCDF8BD76BD78AF4
:10390000DF8ADF8ADF6ADF8AE78BDF8BDF6BE78B9B
:10391000E78BE78BE78BDF6BDF6BE76BE78CE7AC65
:10392000E7ACE7ACE78CE7ACE7ABDF8BDF6ADF6ADD
:10393000D749D768D768D768D768D768D768CF47D7
:10394000D767D767D767D767D787D787D767D78727
:10395000E7CDE7CDE7CDE7CDE7CCE7CCE7CCE7CCCB
:10396000E7CCE7CBDFAADFAADFA9DFA9D788D78812
:10397000DFA8D787D787D7A7D7A7D786CF65CF6543
:10398000C744C744C744C744BF23BF23BF23BF2383
:10399000BF24BF24BF24C744C744C744C744C74546
:1039A000CF45CF65CF66CF66CF67D787D788D78813
:1039B000DF8ADFABE7CC9DC5D7ADDFEEDFADDFAC97
:1039C000E7CCDF8BEFECDF8BE7ACE7ACDF8CDFAC79
:1039D000DF8CE7ACCF0ADF6BDF6CE7CDE7ADDFACA8
:1039E000DF8CDF8CDFACDF8CDF8CD76BCF4AD76A04
:1039F000D76ADF8ADF8ADF8ADF8ADF6ADF6AE78BDE
:103A0000E78BE78BE78BE78BDF6BE78CE78CE7AC2B
:103A1000E7ACE78CE78CE7ACE78BDF8BDF6ADF692D
:103A2000D769D769D769D788D788D788D768D7683B
:103A3000D768D767D767D787D787D767D767D78735
:103A4000E7CCE7CCE7CCE7CCE7CCE7CCE7CCE7CCDE
:103A5000E7CBE7CBDFAADFAADFA9DF89DFA8DFA8F2
:103A6000DFA8D7A8D7A8D7A7D787D786CF65CF6530
:103A7000C744C744C744C724BF23BF23BF23BF24B1
:103A8000BF04BF24C724C744C744C724C745CF6564
:103A9000CF45CF66CF66CF87CF67D767D788D78820
:103AA000DFAAD76AE7ED9DE695A5BF0BDFEEDFAD98
:103AB000DFCDDFACE7CCE7CCDFABDF8BD76BDFACA8
:103AC000E7CCB646B667E7EDDF8CDFACD76CD76CDA
:103AD000D76CDFACDFACD76BDFACDFACDFACCF4A91
:103AE000CF08D769DF8ADF8ADF8ADF8ADF8ADF8A49
:103AF000E78BE7ABE7ACE78BDF8BE78CE7ACE7ACBA
:103B0000E7ACE7ACE78CE7ACDF8BDF8BDF6ADF6924
:103B1000DF69D789DF89DF89D788D788D788D788B1
:103B2000D788D768D788D788D788D787D767D787E0
:103B3000E7ABE7CBE7CBE7CCE7CCE7CCE7CCE7CB11
:103B4000E7CBDFAADFAADFA9DF89DF88DF88DFA86C
:103B5000DFA8D7A8D7A8D7A7D787CF66CF65CF6567
:103B6000C744C744C744C724BF23BF23BF23BF24C0
:103B7000BF24BF24C724C745C745C745CF45CF6627
:103B8000CF66CF46CF46CF67CF67CF47D788D78995
:103B9000DFAAD7ABBEE98D849E289E07AEAADFEFD1
:103BA000D7ADDFCDDFCCDFABDF8BE7CCE7EDDFAC34
:103BB000B6679542E7CDD76BDF6BD76BDF8CDF8CB9
:103BC000D76CD76CDFACD78CDFACBEA8AE469562A5
:103BD000CF08D769DF8AD76ADF8ADF8ADF8ADF8A80
:103BE000DF8BE7ABE7ABE78BE78CE7ACE7ACE7ACA9
:103BF000E7ADE7ADE7ACE7ACE7ABDF8BDF6ADF69EA
:103C0000DF89DF89DF89DF89DFA9DFA8D788D78847
:103C1000D788D788D788DF88DF88D788D788D7889C
:103C2000E7CBE7CBE7CBE7CBE7CBE7CBE7CBDFAB2C
:103C3000DFAADFAADFA9DFA9DF88DF88D788D788D6
:103C4000D788D7A7D7A7D787D787CF66CF65C745E8
:103C5000C744C744C744BF23BF24BF24BF24BF24D5
:103C6000C744C724C744C745CF65CF66CF46CF6694
:103C7000D787CF67C746CF67CF68CF47D788D7A941
:103C8000CF69E7EC9E259E268DC6A689AECAAECA30
:103C9000D7ADD7CDE7EDDF8CDF8BE7CCDFCC8D0167
:103CA000A5C4E7ECD76ADF8BD76BD76BD74BD76B45
:103CB000DFACD76BCF2ADFCDB68895A4AE26D78BE5
:103CC000D74ADF8ADF8AD76ADF8ADF8ADF8ADF6A3C
:103CD000DF8ADFABE7ABE7ABE7ABDFACE7ACE7AC8A
:103CE000E7ADE7ADE7ADE7ACDFACDF8BDF8AD769E7
:103CF000D789D789DF89DF89DF88DF88DF88D788A0
:103D0000D788D788D788DFA8DFA9DF88DF88DFA832
:103D1000E7CBE7CBE7CBE7CBE7CBDFABDFABDFAA8C
:103D2000DFAADFAADFA9DFA9DF89D788D788D787ED
:103D3000D787D787D787D787CF66CF66CF65C74561
:103D4000C744C744C744BF23BF24BF24BF44BF44A4
:103D5000CF65C744C745CF45CF66CF66CF46CF4670
:103D6000CF46D788CF47CF68D788CF47D788D7C91E
:103D7000D7AACF8A96049625A6A885E69E89A6A9E5
:103D8000AEAAC74CD7ADDFACE7EDBEA78D00CF081C
:103D9000E7CBD76ADF8BDFABD74AD76BDF8CCF4B54
:103DA000CF4BD78CDFACA5E59DC5A605D78BCF6AD9
:103DB000D76ADF8AD78AD769DF8ADF8ADF8ADF6A34
:103DC000DF8ADF8BE7ABDFABDFABDFACE7ACE7ACC9
:103DD000E7ADE7CDE7ADE7ACDFACDFABDF8AD769B6
:103DE000D769D769D789D788D788D788D788D78818
:103DF000D788D788D788DFA9DFA9DFA9DFA9DFA9FE
:103E0000DFCBDFCBE7CBE7CBDFABDFABDFAADFAAD4
:103E1000DF8ADFAADFA9DFA9DF89D788D768D7675C
:103E2000D767D787D787CF86CF66CF66CF65C74599
:103E3000C764C744C744BF44BF24BF44C744C74442
:103E4000CF65C744C745CF65CF66CF66CF67CF671D
:103E5000B684CF68CF68CF68D788CF67D788D7A90F
:103E6000D7CAC74895E38E049666968796889E685B
:103E7000A6AABF2CDFCEDFCD8D429562DFCADFAAB6
:103E8000D769DFAAD76AD749D76ADF8BD76BDFAC90
:103E9000D78CBEE9A626A626AE46CF8BD7ABCF6A77
:103EA000CF6AD78AD769D769D769D769D76ADF8ACE
:103EB000DF8ADF8ADFABDFABDFABDFACDFACDFACF1
:103EC000E7ADE7CDE7CDE7ACDFACDFABDF8AD769A5
:103ED000D769D769DF68DF88DF88DF88DF88DF8818
:103EE000D788D788DF88DFA9DFA9DFA9DFA9DFA905
:103EF000DFCBDFCBDFCBDFCBDFCBDFABDFAADFAAD4
:103F0000DF89DF89DFA9DFA9DFA8D788D767D7676F
:103F1000D767D787D787CF87CF66CF66CF65C76587
:103F2000C745C745C744BF24BF24BF24C744C745AE
:103F3000C745C745CF65CF66CF86CF87D788D7A976
:103F40009DC2CF48CF69CF48CF89CF68D7A8D7883F
:103F5000D7AAAE86A6859E8596659EC79EA896879B
:103F6000A6A9A669C70B6C40B667DFCBCF69D78916
:103F7000D789D769D769DF8AD78AD74ACF4AB6A700
:103F8000A605A605C729CF4AD78BCF6AD78BCF6A9C
:103F9000CF69D769D769D769D769D749D749DF8A40
:103FA000DF8ADF8ADFABDF8BDFABDFABDFACE7CCF9
:103FB000E7CCE7CDE7CCDFACDFABDFABDF8AD7699F
:103FC000D769D789D789D788D788DF88DF88DF88FE
:103FD000D788D789DF88DFA9DFA9DFA9DFA9DFA913
:103FE000DFCADFCADFCADFCADFCADFAADFAADFA9EA
:103FF000DFA9D789D789D788D788D788D788D7889E
:10400000D787D788D787D787D787CF86CF66CF651B
:10401000CF66C745BF24C745BF44BF24BF24C7459B
:10402000BF45C745CF65D786D786CF66CF87CF89AF
:10403000B6A68D62CF8BCF8AD78AD789DF88DF88F3
:10404000DFCAA644A6659E859EA5A72796A59EA61F
:104050009E4685226C40C6C8E7ECD749DFCAD7899F
:10406000D789CF49D78ACF69D78ACF6AA604AE4508
:10407000CF49D76AD76ACF49C729CF69CF69CF4916
:10408000CF48CF69CF69CF69D769D769D769D76971
:10409000D769D769DF8ADF8ADFABDFABE7ABDFAB9E
:1040A000DFACDFCCDFACDFABDFABDFAADF8AD76909
:1040B000D768D768D768D788D788D788D788DFA840
:1040C000DFA9DFA9DFA9DFA9DFC9DFC9DFC9DFA950
:1040D000DFAADFAADFAADFAAD7AAD7A9D789D789FB
:1040E000D7A9D789D788D788D788D788D788D787B7
:1040F000D767D787D787D787D767CF66CF66C745B4
:10410000C745CF86C765BF24C765C765BF45BF45DF
:10411000BF04C765CF86CF65CF45CF87CFA8CF89EE
:10412000B7088DC48564C78CD7ACCF49DFC9D788A1
:10413000D7AAA645AEA6A6C696849EC59EE69E852F
:1041400075006440BEE8DFABCF49DFAACF48CF6936
:10415000CF89C748CF49D7AACF69A624A5E4CF29DC
:10416000CF29CF49CF49C728C728CF48CF49CF4803
:10417000CF48CF68CF68CF68CF68D768D769D7698D
:10418000D769D789DF8ADF8ADFAADFABE7CBDFAB6E
:10419000DFABDFCBDFCBDFABDFAADFAAD7A9D789C5
:1041A000D768D788D788D788D788D7A8D7A8DFA8CF
:1041B000DFA9DFA9DFA9DFA9DFA9DFA9DFA9DFA9BF
:1041C000D7AAD7AAD7AAD7AAD7A9D7A9D789D7892B
:1041D000D789D788D788D788D788D788D787D787E8
:1041E000CF67D767D787CF67CF66CF66CF66C765FC
:1041F000CF86C745C745C765BF45BF25BF45BF4536
:10420000C765C745C745CF66D786CF87CF87C788DD
:10421000BF297D438DE77D44C76CD7EDC768CF8943
:10422000D7CBA6668DE3A6A69EA69EC6AF2864C081
:104230006CE095C2CF69D7AACF48DFCACF48D7CAAA
:10424000D7AAC748A6248D8185208D40CF28C728AE
:10425000C708C728C708C708C728C728C748C72826
:10426000C748C748CF48CF48CF48CF48D768D76955
:10427000D769D789DF8ADF8ADFAADFABDFABDFABA5
:10428000DFABDFABDFABDFAADFAADFAADFA9D7890D
:10429000D788D788D788D788D788DFA8DFA8DFA8AE
:1042A000DFA9DFA9DFA9DFA9DFA9DFA8DFA8DFA8D1
:1042B000D7A9D7A9D7A9D7A9D7A9D788D789D78860
:1042C000D788D788CF68D767CF67CF67CF67CF67E3
:1042D000CF67CF67CF67CF67CF67CF66C766C76641
:1042E000C745C766C766BF45BF45C766C766BF4502
:1042F000C766C745C726CF66CF87CF67C787CF8931
:10430000BF6A6CE28DE78E097525BF6CCFECCFCB11
:10431000CFCBAEA78DE49E659E86B74964C06CE0A6
:104320006D008DA1BEE6D7A9D7AAC708D7AACF69C5
:104330008D817CE07CE07CC08520CF49CF49BEE701
:10434000C708C707BEE7BF07C707C727C727C728CC
:10435000C748C748CF48CF48CF48CF48D768D76964
:10436000D769D789DF8ADF8ADF8ADFABDFABDFABD4
:10437000DFABDFABDFAADFAADFAADFAADFA9D7891D
:10438000D788D788D788D788DFA9DFA8DFA8DFA894
:10439000DFC9DFC9DFA9DFA8DFA8DFA8DFA8DFA8A2
:1043A000D788D788D788D788CF88CF88CF68CF6875
:1043B000CF68CF67CF67CF67CF47CF47CF47CF46CD
:1043C000CF46CF67CF67CF66CF66CF67CF66C7666A
:1043D000C746C766BF45C766C786BF45B705BF4660
:1043E000BF46C746C747C747CF67CFA8CF88BF6874
:1043F000C7AB8E0685C886098E097D859EA7C7CB6B
:10440000C7CBAF0885829E86A6A764C06D0164C035
:1044100075009622D7E9CF88CF69D7CB9DC374802A
:104420007CE07CE07D00A603D789CF68BEE7C74863
:10443000C707BEE7BEE7BEE7BF07BF07BF07BF2787
:10444000C727C748C748CF48CF48CF48CF68D768A5
:10445000D769D789D789DF8ADF8ADFAADFAADF8A0F
:10446000DFAADF8ADF8ADF8ADFAADFA9D789D789B7
:10447000D788D788D788DFA8DFA8DFA8DFA8DFA87C
:10448000DFC8DFA8DFA8D7A8D788D787D788D7877E
:10449000D788CF88CF88CF87CF68CF67CF67CF67E0
:1044A000CF67CF47C747C746C746C746C746C74671
:1044B000C746CF46C767C767CF67CF66C767C766B8
:1044C000CFA8BF05C746C787BF25BF46C767B72563
:1044D000BF67BF67B707A6659E03A644BF27CFCABD
:1044E000C7ABB74B9E6A8E29966A8E0786058E04E7
:1044F000A6C7B7696D009E658DC4648064805C60EA
:104500008581A6C4C7A9D7EBAE877480748074A0D8
:104510006C807CE0B6C5C748C748BEE6BEE7B6C6F5
:10452000BEE7BEE6BEC6BEE6BEE6BF07BF07BF0724
:10453000BF27C727C748C748CF48CF48CF48CF680D
:10454000D769D769D789D789DF8ADF8ADF8AD78A8F
:10455000DF8AD789D789D789D789D789D788D78854
:10456000D788D788DFA8DFA8DFA8DFA8DFA8DFA863
:10457000DFA8D7A8D787D787D787D787D767D78721
:10458000CF87CF87CF87CF87CF67CF67CF67CF67FB
:10459000C747C746C746C726C746C746C726C72612
:1045A000C726C746C747C747C747CF67C767C74676
:1045B000C746C746CF87BF46B705C788C787964255
:1045C0007D606CE0648064A06CC06CA064806480DA
:1045D0006CE07D836D0275247D659648A6C985C40F
:1045E0008E2496657DA196446CE074E06CA05C40DE
:1045F0009603C7A9C7895C206C606C4064206C601E
:104600008540D7A9BF06BF27B6C5BF07B6E6BF0717
:10461000B6C6B6C6B6C6B6E6B6E6BEE6BF06BF07BF
:10462000BF07C727C727C748C748CF48CF48CF6865
:10463000D768D769D789D789D789D789D789D769DB
:10464000DF89D789D768D788D788D788D768D788A8
:10465000D788D788D7A8DFA8DFA8DFA8D7A8D787AB
:10466000D787D787D787D787D767CF66CF67CF66F4
:10467000CF87CF87C766C766C766C746C747C747DE
:10468000C746C746C726BF26C726BF26BF26BF26A2
:10469000C726C746C746C747C747C767C767C7478D
:1046A000C746CF88BF06BF46D7C9A68474E06CE072
:1046B00064E06D20752075006CC06CA074C06CE067
:1046C0006CC06CE06CC064C064805C6075239E67E5
:1046D0008E05964575608E027D617D416CE06CC0F3
:1046E000B7078E034BC064805C206C6064008D83D0
:1046F000CF89BF06BF06B6E5BF06B6A5BEE6B6A51E
:10470000B6A5B6C6B6C6B6C6B6C5B6E6BF06BF0639
:10471000BF27BF27C727C727C727C748CF48CF68A6
:10472000CF68D769D789D789D789D789D789D769F2
:10473000D789D788D768D768D788D768D768D78800
:10474000D788D787D788D7A8D7A8D787D787D78735
:10475000D787D787D787D786D786CF66CF66CF66E6
:10476000C766C766C766C766C746BF45BF25BF25BC
:10477000BF26BF26BF26BF26BF26BF26BF05BF0553
:10478000C746BF26C726C767C726C747CF88C747BC
:10479000C747C747C747C767A6647D00750064A0C1
:1047A00064C06CE06CE06CC06CC074E07D007D00A7
:1047B000750074E075006CE074E064A05C40648196
:1047C0008E268E048DE375407D61858174E07D4188
:1047D0009E6543C05C605C205C205BE08502D7ABDB
:1047E000C727BF06BEE5B6C5B6A5AEA5AEA4AEA4A6
:1047F000B6C5AEA5AEC5AEC5B6C5B6E6B706BF274B
:10480000BF27BF27C727C727C727C748CF48CF48D5
:10481000CF68CF68CF68CF68CF69D788D769D78985
:10482000D788D788D768D768D788D768CF67CF6742
:10483000D767D767D787D787D787D787D787D787C8
:10484000CF66CF86CF86CF65CF66CF66CF66CF6582
:10485000C745C745C746BF45BF45BF25BF25BF257F
:10486000BF26BF26BF26BF26BF05B705BF05BF05AC
:10487000B6E5BF06B6E5C747C747C767BF26BF0649
:10488000CF68C727C767AE8485407D006CC08DA107
:104890009E64AEC5B6E6B706B6E7BEE7B6C7B6A72E
:1048A000AE85AEA596017D6064806CA06CC15C6035
:1048B0005C408E0685A37D6175207D4075008DE38B
:1048C00075215C605C4064605BE06440D78AC72708
:1048D000C706BF05BEE5B6C5AEA4AE84AE84AE8441
:1048E000AEA5AEA5AEA5AEC5B6C5B6E6B706BF27A2
:1048F000BF27BF27C727C747C727C727C748CF48EE
:10490000CF68CF68CF68CF68CF68CF68CF68D788C7
:10491000D788D788D788D788D768D768CF67CF6731
:10492000CF67D767D787D787D787D787D787CF86E8
:10493000CF86CF86CF66CF65CF65CF66CF66CF6592
:10494000BF45BF45BF45BF25BF25B705B705B7055F
:10495000B705B705B705B705B705B705B6E5B6E5B9
:10496000B705B6E5BF26BF26C727BF26C747C74836
:10497000C727C727C7689E23AEA5C747BF47C747F6
:10498000BF06BF05B6E5B6C4B6C5BEE6BF07BF07DE
:10499000B6C6CF88C786BF66C7A875205400648294
:1049A0006461542085A46CE07D61752075009604D7
:1049B00064A05C606CA054005C00C728CF68C74648
:1049C000C705BF05B6E4B6A4AEA4AE84AE84A663A4
:1049D000A664A684A684AEA5AEC5AEC5B6E5B706E8
:1049E000BF27BF27BF47C727C727C727C748C7480D
:1049F000CF68CF68CF68CF68CF68CF68CF68CF68FF
:104A0000CF68CF68D788CF88CF67CF67CF67CF67AA
:104A1000CF67CF67CF87CF87CF87CF86CF86CF8629
:104A2000CF86CF86CF65CF65CF65CF65CF65CF65A4
:104A3000BF45BF25BF25B725B705B704B6E4B6E423
:104A4000B6E5B6E5B6E5B6E5B6E5B6E5AEE4AEC5BF
:104A5000AEC5B705AEC5B706B6E6BF27BEE6C748C2
:104A6000BF06CF68A644C768C747B6E6BF47B6C506
:104A7000BEE5BEE5B6E4B6C3B6C4B6E5B6E6B6C6B0
:104A8000BF06B6C4B724B704B725CFCA7D6353E0C9
:104A900054006C8254006CC1752175615C808DE49A
:104AA00064806CC15C2053C0A644D7A8CF87C725BB
:104AB000C705BF05B6C4B6A4AE84AE84A663A6631C
:104AC000A663A663A684AEA4AEA4AEA5AEC5B6E6A4
:104AD000BF06BF27BF27BF47C727C727C748C74845
:104AE000CF48CF48CF48CF68CF68CF67CF67CF6771
:104AF000CF67CF68CF68CF67CF67CF67CF67CF6704
:104B0000CF67CF67CF87CF86CF86CF86CF86CF863A
:104B1000CF86CF65C765C745C745C745C765C76564
:104B2000BF25B725B705B705B705B6E4AEE4AEE4D3
:104B3000AEE5AEE5AEE5AEE5AEE5AEC4AEC4AEC440
:104B4000A6A4AEE5AEC5AEA5C747BF27B6A5BF07AD
:104B5000BF07A643BF27BF27BF47B6E6AEE5B726C8
:104B6000B6A4B6C4B6C3B6E4B6E4B6E5B6C5AEA55B
:104B7000B6E5AEA4BF04C765B725B706CFCB85841D
:104B800053A053C0646254005CA0650064C07D62A1
:104B90006480644064207D00D7A9CF66D786CF4665
:104BA000C725BF05BEE4B6C4B6A4AE84AE83A66373
:104BB000A663A664A684AEA4AEC5AEC5AEC5B6E671
:104BC000B706BF26BF27BF47C727C727C748C7485D
:104BD000C748C748C748C747C747C767C767C76702
:104BE000CF67CF67CF47CF67CF67CF67CF67CF6735
:104BF000CF67CF67CF87CF66CF86CF86CF86CF658B
:104C0000CF65C765C744C744C744C744C744C74402
:104C1000B725B705B704B6E4B6E4B6E4AEE4AEC46F
:104C2000AEE5AEE5AEE5AEC4AEC4AEC4A6A4A6A4E1
:104C3000A6C4A6A4B726AEE5A6A5B6E6B706B706EF
:104C4000B6E6B6E6B6E6BF27A6A5B726B706AEA473
:104C5000B6E6AEC5AEC4AEA3A6C3AEC3AEC4AEC4C4
:104C6000AEC4B6E5B6E4B6C3AEA3C767BF27CF6A86
:104C70007CE2538053C04BC05C805CA05CA085A3E9
:104C800064606C815C00C708D7A8D787CF45CF6721
:104C9000CF26C725BF05BEE4B6C5B6C4AE84AE8375
:104CA000A663A663A684AEA4AEA5AEC5AEC5B6E5A2
:104CB000B706B706BF27BF27C727C727C727C748D5
:104CC000C748C748C747C747C747C747C747C74772
:104CD000CF67CF47C747CF47CF67CF67CF67C746B5
:104CE000CF46CF66CF87CF66CF86CF86CF86CF65BC
:104CF000C745C745BF24BF24BF24BF24BF24BF244A
:104D0000B725B705AEE4AEE4AEE4AEE4AEC4AEC4DF
:104D1000A6C4A6C4A6C4A6A4A6A4A6A4A6A4A6A4E3
:104D20009EA49E84A6A4A6C58DC1AEC5AEA5B6E6BA
:104D3000B706AEC5B726B706AEE5A684A6C4AEC50F
:104D4000A6A6A6C5A6C5A6E4A6E4A6C3A6C3A6A312
:104D5000AEC4AE83BEE4B6E4C725BF05C725CF68A1
:104D6000CF6A5BC04B8053E043E05CE04C607DA3C6
:104D700064606C818522D78ADFA8DFA7CF26CF6742
:104D8000CF46C746C725BF05BF05B6E5B6A4AEA446
:104D9000A684A663A663A684AEA4AEA5AEC5AEC522
:104DA000B6E6B706BF27BF47BF47C747C748C7488C
:104DB000C748C748C747C747C747C747C747C74781
:104DC000CF47CF47CF47CF47CF47CF47CF47C7463C
:104DD000C746CF66CF87CF66CF66CF86CF86CF65F3
:104DE000C744BF44BF24BF24BF24BF24BF24BF2463
:104DF000B725B705AEE4AEE4AEE4AEC4AEC4A6A437
:104E0000A6A4A6A4A6A4A6A4A6A4A684A684A684B2
:104E10009E84A6A4A6C57540B727A6A5A684AEC540
:104E2000A685AEE6AEC5A6A5A6A4A6C5A6C5A6A59A
:104E30009E859E85A6A5A6C4A6E4A6C4A6C3A6C4B0
:104E4000A6A3AEC4B6A3BEE4BEC4C704CF65CF4616
:104E5000D769BEC84B604BA04C004C404C206D0243
:104E60005C606420AE47DFCBD768D787D788D76828
:104E7000CF67CF46C746C726C726BF05B6C4AEA470
:104E8000AEA4A684A664A684AEA4AEA5AEC5AEC5E7
:104E9000AEE6B706B727BF27BF47BF47C748C748D3
:104EA000C748C748C747C747C747C747C747C74790
:104EB000C747C747CF47C747C747C747C747C7665B
:104EC000C746CF66CF66CF66CF65CF86CF85C7652D
:104ED000C744BF44BF24BF44BF44BF24BF24BF2432
:104EE000AEE5AEE5AEE4AEC4AEC4A6A4A6A4A6A448
:104EF000A6A4A6A4A6A4A684A6849E849E849E643A
:104F00009E6496028E029E64A6A5A685A685A6C569
:104F1000A6A5A6A5A685A685A685A685A685A6A5D9
:104F2000A685A685A685A685A6A4A6A4A683A683EF
:104F3000AEA3AEA3AEC3B6E4BF04C725C745CF67D3
:104F4000D788DFEB6C404BA05C41542043C0542019
:104F5000646074A0CF2AE7CBDF69DF88DFA9CF6860
:104F6000CF88CF67CF47CF46C746BF25B6E4B6E464
:104F7000AEC4A684A663A684A6A4AEC5A6A5A6A50F
:104F8000AEC5AEE5B6E6B706B707BF27C748C768E0
:104F9000C748C748C748C747C747C747C747C7479E
:104FA000C747C747C747C747C747C746C746C74694
:104FB000C746C746C766C765C765C765C765C765CE
:104FC000C745BF44BF24BF24BF44BF44BF24BF2440
:104FD000AEC5AEC4AEC4AEC4A6A4A6A4A6A4A68400
:104FE000A684A684A6849E849E849E649E649E64F9
:104FF0009E44962396239E64A6859E849E84A685C1
:105000009E849E849E649E649E649E649E84A68507
:10501000A6859E649E64A685A685A684A664A683AE
:10502000AEA3AEA3AEC3B6E4BF04C725CF46D767D1
:10503000D7A8E7EBBEE943206CA364A343805C627E
:105040007D236440E7EDE7ABEFEBDF89D768DFC98D
:10505000D7A8D788CF67CF67CF46C745BF05B6E487
:10506000B6C4AEA4A683A684A684A6A5A6A5A6A516
:10507000A6C5AEE5B706B706B707BF27C728C74816
:10508000C748C748C748C747C727C726C726C72630
:10509000C746C727C746C726C726C726C746C74627
:1050A000C745C745C745C765C745C745C745C74580
:1050B000BF45BF24BF24BF24BF44BF44BF24BF2477
:1050C000A6C4A6A4A6A4A6A4A684A6849E849E6420
:1050D0009E649E649E649E649E649E649E649E64C0
:1050E00096239E449E649E449E449E649E649E6459
:1050F0009E449E449E4496449E449E449E649E6468
:105100009E649E449E449E649E64A664A664A68398
:10511000AEA3AEA3B6C4BEE4BF05C726CF66D7878D
:10512000DFA9DFCBDFAD5BA053C064425C425C21F2
:1051300064407CE1E7CDEFEDE7ABEFEBE7EBD78940
:10514000DFA9D7A8D788CF67CF66C746BF25BF05D9
:10515000B6C4AEC4A6A4A684A684A684A684A6A526
:10516000A6A5AEC5AEE6B707B707BF27BF28C74895
:10517000C748C727C727C747C727C726BF26BF2691
:10518000C726BF26BF26BF26BF26BF26BF25BF25F1
:10519000C745C745C765C765C745C745C745C7456F
:1051A000BF24BF24BF24BF24BF24BF24BF24BF24E7
:1051B000A6A4A6A4A684A684A6849E649E649E63D8
:1051C0009E439E4496449644964496439644964401
:1051D00096239E449E649E449E449E649E649E4488
:1051E0009623962396239623962396249E449E44A4
:1051F0009623962396239E439E649E64A664A6846B
:10520000AEA4AEA3B6C4BF05C725CF46D787DFA8D7
:10521000DFCAE7ECE7EE6C21538064424BC0646266
:1052200085449583DF6CEFEEEFCCE78BE7CBE7EBC4
:10523000DFAADFA9D789D788CF67CF46C726BF05A2
:10524000B6E5AEC4A684A684A6849E84A6A4A6A51C
:10525000A6A5A6C5AEE6B706B707BF07BF27BF28F6
:10526000C728C727C727C727C727BF26BF26BF26E8
:10527000BF26BF26BF26BF26BF05BF05BF25BF254A
:10528000C745C745C745C765C745C745C745C7459E
:10529000C745C745C745BF45BF24BF24BF24BF245A
:1052A000A684A684A6849E849E649E449E439643C0
:1052B0009643964396439643962496439624964364
:1052C000964396439E449E449E449E449E449E44E0
:1052D00096239623962396239623962396249644E4
:1052E00096239623962396239E449E64A684AEA47A
:1052F000AEA4B6C4BEE4BF05C746CF67D7A8DFA932
:10530000E7AAE78BEFEF8CE54B404B6043404B80C7
:105310007D039DC5A585FFEFF7CDEFACEFEDE7ABC6
:10532000E7CBDFCADFA9D788D788CF67C746BF26B4
:10533000B705AEC5A684A684A684A6A4A6A4A6C5C1
:10534000A6A5A6C5AEC6AEE6B6E7B707BF07BF2798
:10535000BF27BF27BF27BF27BF27BF26BF26BF2620
:10536000BF26BF26BF05BF05BF05BF05BF25BF259B
:10537000BF25BF25BF45BF45BF45BF45BF45C74545
:10538000C745C745C745C745BF24BF24BF24BF2461
:105390009E649E649E649E649E44962496239623F7
:1053A00096039603960396039623962396239623B5
:1053B0009E44962396239E449E649E4496439E4418
:1053C00096449624962396239623962396249623F2
:1053D00096239623962396239E439E63A684AEA48B
:1053E000B6C4B6E5BF05C726CF46D788DFA8E7A96C
:1053F000EFCBE7ADF7F1BE6B4300432053A0434032
:105400006420B648FFF0FFF0F7AEEF8DEFADE7CCCC
:10541000E7CCE7ABDFAADF89D788CF67C747C726C6
:10542000BF06AEC5A684A684A684A6A4A6C5A6A5C6
:10543000A6A5A6A5AEC6AEC6AEE6B6E7B707BF0739
:10544000BF07BF07BF27BF27BF26BF26BF06BF06B0
:10545000BF05BF05BF05BF05B705BF05BF05BF0534
:10546000BF05BF05BF25BF25BF25BF25BF45C74514
:10547000BF45BF45BF45BF45BF25BF24BF24BF248F
:105480009624964496249624962496038E038E039F
:105490008E038E038E038E038E038E039603962354
:1054A0009643962396239E449E449E449644964457
:1054B0009E44962496249603960396039603960399
:1054C00096239623962396439E639E64A684AEA459
:1054D000B6E5BF05C726C746CF67D788DFC9E7CA85
:1054E000E7ABEFCEF7F1CEEE3AA0538032E053A017
:1054F0005C00BEAAEFCFF7AFF7AFF7CFEFCEEFEE7E
:10550000E7ACE7ABDFAADF89D788CF68C727C72614
:10551000BF06B6C5A684A684A684A6A4A6A4A6A5EE
:10552000A6A5A6A6A6C6AEC6AEC6AEE7B707B7077F
:10553000B707B707B706B706BF06B706B705B7057B
:10554000B705B705B705B6E5B6E5B6E5B6E5B6E421
:10555000B705BF05BF05BF25BF25BF25BF25BF4573
:10556000BF45BF25BF25BF24BF25BF24BF24BF041F
:105570008E038E048E048E048E038E038DE38DE3E2
:105580008DE38DE38DE38DE38DE38E038E03960330
:1055900096239623964396439E449E449E44964467
:1055A0009E4496249624960396038DE38DE38DE323
:1055B00096239623964396439E64A684A6A4AEC4DF
:1055C000B6E5BF06C726CF46D767DFA8E7A9E7CA73
:1055D000EFECF7EFE790F7F342E043204B804B60AE
:1055E0005BE0C6EBFFF1F7B0FFD0F7CFEFAEE7CD52
:1055F000EFCCE7ACE7ABDFAADF89D768CF47C72698
:10560000BF06B6E5A6A4A684A684A6849EA4A6A5E5
:10561000A6A5A6A5A6C6AEC6AEC6AEE6AEE6B6E6DC
:10562000B6E6B6E6B706B706B706B6E6B6E5B6E539
:10563000B6E5B6E5B6E5B6E5B6E5B6E4B6C4B6C4D5
:10564000B6E4B6E4B6E4B704B704BF05BF25BF258A
:10565000BF45BF25BF25BF04BF25BF24BF04B6E398
:1056600085C385E38DE48DE485E385C385C385C368
:1056700085C385C285C285C38DE38DE38E039623E2
:10568000960396239E449E449E449E449E44964484
:105690009624962396038DE38DE38DE38DE38DE3CE
:1056A0009623964396439E649E64A684A6A4AEA4C5
:1056B000B6E5BF05C726CF46D767DF88E7A9E7CBA2
:1056C000EFEDEFCFF7F1EFD242E053804B6053A004
:1056D00053C0CF2CF7F2FFD1F7B1F7D0EFCFEFCE19
:1056E000EFCDE7ACE7ABDF8ADF89D788CF47BF06CE
:1056F000B6E6B6E5A6A49E649E649E849EA49E849F
:10570000A6A5A6A5A6A5A6A5AEC6AEC6AEC6AEE67D
:10571000AEE6AEE6AEE6AEE6AEE5AEE5AEC5AEC52D
:10572000AEC4AEC4AEC4AEC4AEC4AEC4AEC4AEC4E9
:10573000AEA4AEC4B6E4B6E4B6E4B705BF25BF2553
:10574000BF05B704BF05BF04BF04B704B6E3B6E3A3
:105750007D8385A385C385C385A385A385A385A3F1
:1057600085A385A285C38DE38DE38DE38DE38E0351
:105770008E03960396239623962496449624962386
:105780009623962396038DE38DE38DE38DE38E03BD
:105790009623964396439E649E64A684A6A4AEC4B4
:1057A000B6E5BF05C726CF67D788DFA9E7CAE7CB2D
:1057B000E7ACEFEFFFF3F7F45B8153604B8053C02E
:1057C00053C0CF2CF7F2F7D2F7D1F7D0EFCFEFCE0F
:1057D000EFCDEFCCE7ABDF8ADF89D768C747BF06DD
:1057E000B6E5AEC5A6849E649E649E849EA49E84F7
:1057F000A6A5A6A5A6A5A6C5AEC6AEC6AEC6AEC68D
:10580000AEC5AEC5AEC5AEC5AEA5A6A5A6A4A6A49A
:10581000AEA4AEA4AEA4AEA4AEA4AEA4AEA4AEA4F8
:10582000AEA3AEA4AEC4AEC4B6E4B6E4B705BF251D
:10583000BF05BF05B705B704B704B6E4B6C3B6E302
:1058400075627D837D837DA37DA37DA37D837DA301
:105850007DA285A285C38DE38DE38DE38DE38DE38A
:105860008DE39603960396239623962496249623F7
:10587000962396038E038DE38DE28DE38E039603CC
:105880009623962396439E649E64A684A6A4AEC4E3
:10589000B6E4BF05C746CF67D788DFA9E7CAE7CB1D
:1058A000EFEDEFCEEFB1EFD36BE34B604BA04BA02E
:1058B00053A0CF2DF7F3F7D2FFD2F7D1EFCFEFEE12
:1058C000EFCDEFCCE7ABDFAAD789CF68C727BF06FC
:1058D000AEC5AEA4A6649E649E649E84A684A6847F
:1058E000A685A6A5A6A5A6C5AEC5AEC6AEC6AEC6BD
:1058F000A6A5A6A5A6A5A6A5A6A5A684A684A684B3
:105900009E639E639E63A663A663A683A683A68307
:10591000A683A683AEA4AEC4AEC4B6E4B6E5B7050E
:10592000BF05B705B6E5B6E4B6E4B6E4B6C3B6E47B
:10593000756375637D837D837D837D837D837D83B7
:105940007DA385A385C38DE38DC38DC385C385C228
:105950008DE38DE396039603960396239623962371
:10596000960396038E038DE38DE38E0396039603D1
:105970009623962396439E639E63A684AEA4AEC4EC
:10598000B6E5BF05C746CF67D788DFA9E7CAE7CB2B
:10599000EFCCF7EFF7F1F7F3746542E053A05C004A
:1059A00053A0CF0CF7F3F7B3FFF3F7D1EFCFEFEE40
:1059B000EFCCE7CCE7CBDF89D768CF47C726BF0658
:1059C000AEC5A6A49E649E439E649E649E849E84EF
:1059D000A684A6A5A6A5A6C5A6C5AEC5A6C5A6C5E8
:1059E000A6C5A6A5A6A5A6A5A684A684A6849E64EB
:1059F0009E439E439E439E439E439E63A663A6632F
:105A0000A663A683AEA4AEA4AEC4B6E4B6E5B7055D
:105A1000B705B6E5B6E5B6E5B6E4B6E4B6E4B6E491
:105A2000756375637D837D837D837D837D837DA3A6
:105A300085A385C385C385C385C285C285A285A28A
:105A40008DC28DC28DE38DE38DE39603960396039D
:105A50008E038DE38DE38DE38DE28E029603960334
:105A60009623962396239E439E439E63A683AEC4AD
:105A7000B6E4BF25C746CF67D767DFA8E7CAE7CB3D
:105A8000EFECEFCEEF90F7F395284B4053A04BA0EF
:105A900053A0C6CCFFF3F7B3FFF3F7D1EFCFEFEE90
:105AA000E7CCE7CBE7AAD789D768CF47BF26B706A9
:105AB000AEC4A6849E639E439E649E649E84A68418
:105AC000A684A6A4A6A5A6A5A6C5A6C5A6C5A6A540
:105AD000A6A5A6A4A6849E849E649E649E649E43FE
