:020000040800F2
:1000000068080020E90100088D08000807080008BA
:1000100089080008E1060008370F0008000000000A
:10002000000000000000000000000000990B000824
:10003000E506000800000000550B0008850C0008CC
:10004000030200080302000803020008030200087C
:10005000030200080302000803020008030200086C
:10006000030200080302000803020008030200085C
:10007000030200080302000803020008030200084C
:10008000030200080302000803020008030200083C
:10009000030200080302000803020008030200082C
:1000A000030200080302000803020008030200081C
:1000B0000302000803020008E90C0008030200081C
:1000C00003020008030200080302000803020008FC
:1000D00003020008510E0008030200080302000892
:1000E00003020008030200080302000800F002F8FF
:1000F00000F06BF80AA090E8000C82448344AAF157
:100100000107DA4501D100F060F8AFF2090EBAE854
:100110000F0013F0010F18BFFB1A43F0010318473B
:10012000A0290000C02900000A444FF0000C10F87C
:10013000013B13F0070408BF10F8014B1D1108BF65
:1001400010F8015B641E05D010F8016B641E01F805
:10015000016BF9D113F0080F1EBF10F8014BAD1C55
:100160000C1B09D16D1E58BF01F801CBFAD505E073
:1001700014F8016B01F8016B6D1EF9D59142D6D3CD
:10018000704700000023002400250026103A28BFF5
:1001900078C1FBD8520728BF30C148BF0B607047F9
:1001A000642900F09F80752900F09C80782900F078
:1001B000D580632900F02982732900F02E82002067
:1001C00070471FB51FBD10B510BD00F059FA11469C
:1001D000FFF7F7FF00F074FF00F077FA03B4FFF7C2
:1001E000F2FF03BC00F00FFF0948804709480047B1
:1001F000FEE7FEE7FEE7FEE7FEE7FEE7FEE7FEE7D7
:10020000FEE7FEE704480549054A064B7047000033
:10021000890C0008ED000008680200206808002032
:100220006804002068040020704700000FB40449EF
:1002300010B503AA029800F0F5F910BC5DF814FBA4
:100240000400002070B5044685690068C10601D528
:10025000302600E02026C00707D070BDD4E9012178
:1002600030469047206A401C20626D1EF6D570BD56
:1002700070B5044685690078C00707D170BDD4E920
:10028000012120209047206A401C20626D1EF6D577
:1002900070BD70B50C460546012A05D02878800649
:1002A00000D5EA69002302E0012305E05B1C9342CC
:1002B00002D2E05C0028F9D1A869E618C01AA8614A
:1002C000286A184428622846FFF7BCFF04E0D5E9F5
:1002D000012114F8010B9047B442F8D32846FFF7E8
:1002E000C7FF70BD2DE9F04106460024106875294E
:1002F000314616A510D0AFF30080002802DA404244
:1003000013A507E031688A0701D512A502E0490765
:1003100004D511A5012401E0AFF3008000210A22D9
:1003200006F1240709E0B0FBF2FCB0FBF2F302FB9C
:100330001C00303078541846491C0028F3D123465D
:100340002A463046BDE8F04100F0FCB8000000004D
:100350002D0000002B0000002000000070B50446B6
:100360000D4621461068AFF300802188090502D5AB
:100370000F4A7A4402E00E4A7A440E32002104F118
:10038000240305E000F00F060009965D5E54491C49
:100390000028F7D120780023000704D5702D02D063
:1003A00009B1022311322046BDE8704000F0CAB8FE
:1003B0007A2600002DE9F05F894604464FF0000AD6
:1003C000DFF874B1FB44C0F820A02046E1688847FC
:1003D000002874D0252806D0D4E901219047206A4E
:1003E000401C2062F1E700265F462046E16888470E
:1003F0002028054607DB312D05D2781910F8200C8E
:1004000008B10643F1E7B00701D526F00406C4F8A9
:100410001CA00027C4F818A02A2D09D0284600F0F7
:10042000EBFD38B304EB8708303DC8F8185019E0ED
:1004300059F8041B204604EB87029161E168884764
:10044000012F054618D1E069002820DA26F02006A1
:100450001DE0D8F8180000EB800005EB40003038B4
:10046000C8F818002046E1688847054600F0C4FD3A
:100470000028EED1012F0AD02E2D08D12046E168A8
:1004800088477F1C0546022F46F02006C4DBA06982
:10049000002803DA404246F00106A061F00701D0CF
:1004A00026F010066C2D0BD0682D09D04C2D39D0BC
:1004B0006A2D35D0742D35D07A2D33D016E038E042
:1004C000E1682F4620468847B842054609D16C2F7F
:1004D00026D04FF48060E1680643204688470546F1
:1004E00004E06C2F1AD04FF4807006430DB3A5F1D1
:1004F0004100192802D8203546F400664A462946AC
:10050000204626604E46FFF74BFE80B101280BD0F7
:10051000F61D26F0070000F1080956E74020E4E741
:100520008020D8E70020D6E706F104094DE72846E9
:1005300052E7206ABDE8F09F5026000070477047E0
:10054000704770472DE9F0470D469946924604469C
:1005500000F124080168880604D5E06921F0100143
:10056000216000E00120A84201DD471B00E00027D8
:10057000A1697A1902EB0900081AA0612078C00667
:1005800002D42046FFF75EFE002608E0D4E90121F0
:100590001AF806009047206A401C761C20624E45DF
:1005A000F4DB2078C0060AD52046FFF74BFE06E0B4
:1005B000D4E9012130209047206A401C2062381E77
:1005C000A7F10107F4DC07E0D4E9012118F80500E0
:1005D0009047206A401C2062281EA5F10105F3DC2B
:1005E0002046FFF745FE2078000602D50220BDE830
:1005F000F0870120FBE710B5436913B1AFF300802A
:1006000001E0FFF746FE012010BD127800F1240141
:100610000A7000224A700122EDE711684FF0FF32A4
:10062000E9E70000074B70B50D467B4400F011F878
:100630000446284600F020F810B14FF0FF3070BD9E
:10064000204670BD770A000001694A1C02610878E3
:10065000704700B58FB0CDE9013100210591054902
:100660007944CDE9031011466846FFF7A3FE0FB0A9
:1006700000BD0000E5FFFFFF007B00F08000704739
:10068000754600F029F8AE4605006946534620F04D
:100690000700854618B020B5FFF7B4FDBDE820403F
:1006A0004FF000064FF000074FF000084FF0000B2E
:1006B00021F00701AC46ACE8C009ACE8C009ACE8E1
:1006C000C009ACE8C0098D4670470446AFF300800E
:1006D0002046FFF783FD0000004870470402002019
:1006E00000BFFEE770472DE9F041024600250026D5
:1006F000002000230024002791F803C00CF00F0510
:1007000091F803C00CF0100CBCF1000F03D091F86D
:1007100002C04CEA050591F800C0BCF1000F31D0D1
:10072000146800202BE04FF0010C0CFA00F3B1F834
:1007300000C00CEA03069E4220D183004FF00F0C4C
:100740000CFA03F7BC4305FA03FC4CEA040491F8E5
:1007500003C0BCF1280F06D14FF0010C0CFA00FCCD
:10076000C2F814C00AE091F803C0BCF1480F05D1EB
:100770004FF0010C0CFA00FCC2F810C0401C082815
:10078000D1D31460B1F800C0BCF1FF0F34DD546860
:1007900000202EE000F1080C4FF0010808FA0CF3DD
:1007A000B1F800C00CEA03069E4221D183004FF04D
:1007B0000F0C0CFA03F7BC4305FA03FC4CEA0404E3
:1007C00091F803C0BCF1280F05D100F1080C08FA1C
:1007D0000CF8C2F8148091F803C0BCF1480F07D19F
:1007E00000F1080C4FF0010808FA0CF8C2F810806C
:1007F000401C0828CED35460BDE8F0810AB10161E5
:1008000000E04161704700BFFEE7000010B5012223
:1008100011020A48FFF7F2FF012251020748FFF7D1
:10082000EDFF00224FF400710448FFF7E7FF0022BC
:100830004FF480710148FFF7E1FF10BD000C01404B
:1008400010B5012211020748FFF7D8FF00224FF42C
:1008500000710448FFF7D2FF012251020148FFF75F
:10086000CDFF10BD000C014010B50122110205485A
:10087000FFF7C4FF00224FF480710248FFF7BEFF6C
:1008800010BD0000000C014000BFFEE770470000F3
:1008900070B5002100230F22C47804B3154C2468DE
:1008A00004F4E064C4F5E064210AC1F10403CA4021
:1008B000447804FA03F184781440214309010E4C72
:1008C0000678A155047804F01F050124AC40057892
:1008D0006D11AD0005F1E025C5F8004109E004788F
:1008E00004F01F050124AC40044D0678761145F84C
:1008F000264070BD0CED00E000E400E080E100E087
:1009000070B5002418E004F1B000002100F016F9E1
:100910000021084600F012F90021102000F00EF925
:10092000002505E00121002000F008F9681CC5B28F
:10093000802DF7DB601CC4B2082CE4DB70BD000026
:1009400008B50121082000F017F914208DF80300E4
:1009500003208DF802004FF48070ADF80000694666
:100960000A48FFF7C0FE4FF40070ADF8000069467A
:100970000648FFF7B8FE012211020448FFF73EFFC8
:10098000012251020148FFF739FF08BD000C014068
:1009900010B5FFF7D5FF0021AE2000F0CFF8002101
:1009A000084600F0CBF80021102000F0C7F8002125
:1009B000402000F0C3F80021B02000F0BFF8002173
:1009C000812000F0BBF80021FF2000F0B7F80021E3
:1009D000A12000F0B3F80021A62000F0AFF800211C
:1009E000A82000F0ABF800213F2000F0A7F800217C
:1009F000C82000F0A3F80021D32000F09FF80021C8
:100A0000084600F09BF80021D52000F097F800215F
:100A1000802000F093F80021D82000F08FF800210A
:100A2000052000F08BF80021D92000F087F8002184
:100A3000F12000F083F80021DA2000F07FF8002197
:100A4000122000F07BF80021DB2000F077F8002175
:100A5000302000F073F800218D2000F06FF80021A5
:100A6000142000F06BF80021AF2000F067F810BDF3
:100A700070B504460D4605F1B000002100F05EF8A7
:100A8000102141EA1410002100F058F804F00F0082
:100A9000002100F053F870BD2DE9F04707460E46DF
:100AA0009046994600250024A8F12000C5B27F2F6A
:100AB00002DD0027B01CC6B2B9F1100F24D13146B7
:100AC0003846FFF7D5FF002408E004EB0511194A6A
:100AD000505C012100F032F8601CC4B2082CF4DB39
:100AE000701CC1B23846FFF7C3FF002409E004EBD5
:100AF000051108310F4A505C012100F01FF8601CFD
:100B0000C4B2082CF3DB12E031463846FFF7B0FFE1
:100B100000240AE005EB4501074A02EB4101085DAC
:100B2000012100F00BF8601CC4B2062CF2DBBDE81A
:100B3000F087000000240008D821000870B50446A2
:100B40000D461DB1E0B200F041FA02E0E0B200F063
:100B500027FA70BD7047000029B1064AD2690243E6
:100B6000044BDA6104E0034AD2698243014BDA6143
:100B7000704700000010024029B1064A9269024302
:100B8000044B9A6104E0034A92698243014B9A61E3
:100B90007047000000100240704710B500F002F8E6
:100BA00010BD00000CB50020019000903348006893
:100BB00040F480303149086000BF3048006800F4DC
:100BC000003000900198401C0190009818B90198DD
:100BD000B0F5A06FF1D12948006800F4003010B1E1
:100BE0000120009001E0002000900098012843D1EE
:100BF0002348006840F0100021490860084600685A
:100C000020F0030008600846006840F00200086019
:100C10001A484068194948600846406848600846D4
:100C2000406840F4806048600846406820F47C10CA
:100C300048600846406840F4E8104860084600688C
:100C400040F08070086000BF0C48006800F0007041
:100C50000028F9D00948406820F00300074948609F
:100C60000846406840F00200486000BF0348406802
:100C700000F00C000828F9D10CBD00000010024063
:100C8000002002407047000010B51348006840F093
:100C900001001149086008464068104908400E49A3
:100CA0004860084600680E4908400B49086008463D
:100CB000006820F4802008600846406820F4FE00A8
:100CC00048604FF41F008860FFF767FF4FF0006037
:100CD0000449086010BD0000001002400000FFF849
:100CE000FFFFF6FE08ED00E010B50C48008800F0AC
:100CF000010058B10A4908698047002007491431AA
:100D000008804FF47A7005491C3108800348008838
:100D100020F001000149088010BD000010080040CB
:100D20004800002021B1028842F00102028004E064
:100D300002884FF6FE731A40028070471AB1838909
:100D40000B43838102E083898B43838170470000DA
:100D5000002202881D4B98420ED01D4B98420BD0AA
:100D6000B0F1804F08D01B4B984205D01A4B9842E7
:100D700002D01A4B984204D14FF68F731A404B8819
:100D80001A43174B984207D0164B984204D04FF69F
:100D9000FF431A40CB881A4302808B8883850B88D7
:100DA00003850A4B98420BD0094B984208D00E4B52
:100DB000984205D00D4B984202D00D4B984201D17C
:100DC0000B7A03860123838270470000002C0140C8
:100DD000003401400004004000080040000C0040C6
:100DE0000010004000140040004001400044014059
:100DF000004801407FB505460C4601210420FFF75D
:100E0000ABFEADF80850ADF804400020ADF80A0084
:100E1000ADF8060001A90D48FFF79AFF0122412114
:100E20000A48FFF78BFF1E208DF8000003208DF885
:100E300001008DF8020001208DF803006846FFF7DD
:100E400027FD01210148FFF76DFF7FBD000800402D
:100E500010B540F225511D4800F03EF810B31B4874
:100E600000F064F8C4B21A48008800F40040C8B921
:100E70001748008800F4804060B10A2C03D000209D
:100E80001349088020E01248008840F400401049CF
:100E9000088019E00D2C06D10D48008840F48040F0
:100EA0000B49088010E00A480088C0F30D0009498A
:100EB0000C5407480088401C0549088008460088F3
:100EC000C72801DD0020088010BD00000038014067
:100ED000080000203C01002070B5024600240023D9
:100EE0000025002040F66A16B14200D100BFC1F3D0
:100EF000421501F01F03012606FA03F3012D02D16A
:100F00009689334006E0022D02D1168A334001E073
:100F1000968A33400C12012606FA04F416883440EF
:100F200013B10CB1012000E0002070BD014688889B
:100F3000C0F30800704700BFFEE700002DE9F04154
:100F400005462C4600224FF480711448FFF756FCEA
:100F500000261FE0274607F08007802F05D10122D9
:100F600051020E48FFF74AFC05E000224FF40071E1
:100F70000A48FFF743FC6006040E012211020748ED
:100F8000FFF73CFC00224FF480710448FFF736FC69
:100F9000701CC6B2082EDDDBBDE8F081000C0140FC
:100FA00010B50446FFF732FC7820FFF7C7FFFFF7C4
:100FB0005BFC0020FFF7C2FFFFF756FC2046FFF75F
:100FC000BDFFFFF751FCFFF73BFC10BD10B5044619
:100FD000FFF71CFC7820FFF7B1FFFFF745FC40202E
:100FE000FFF7ACFFFFF740FC2046FFF7A7FFFFF736
:100FF0003BFCFFF725FC10BD30380A2801D2012048
:1010000070470020704700BF704700000146114A3A
:1010100012884A434FF0E0235A6100229A611A462F
:10102000126942F001021A6100BF4FF0E02210691C
:1010300000F001021AB100F48032002AF5D04FF01E
:10104000E022126922F001024FF0E0231A6100222F
:101050009A617047020000200146114A12784A4303
:101060004FF0E0235A6100229A611A46126942F059
:1010700001021A6100BF4FF0E022106900F0010286
:101080001AB100F48032002AF5D04FF0E022126944
:1010900022F001024FF0E0231A6100229A617047AA
:1010A0000000002000BF054A128802F04002002A1A
:1010B000F9D0C2B2014B1B1D1A80704700380140A5
:1010C000FFF766FCFFF71CFC1023412201210846B4
:1010D000FFF7E2FC00BFFEE701460868704700002A
:1010E00030B595B0054613AB12AA09A9284600F001
:1010F0003BFA044614B1204615B030BD00201490D0
:1011000026E0224909689DF8502001EBC20113AB8B
:1011100011AA486801A900F027FA04460CB120463C
:10112000EAE709A901A800F0BBFC60B99DF84400FA
:101130009DF84810884201DD0220DDE79DF850004F
:10114000124988750AE09DF85000401CC0B2149006
:101150000E48007D9DF850108842D2DC00BF0B483D
:10116000007D9DF85010884201D10420C4E714A9E5
:10117000284600F0D9FA04460CB12046BCE79DF899
:101180005000024948750020B6E7000048000020E2
:101190002DE9F0419AB000269C48847D007DA04254
:1011A00002DC1AB0BDE8F0819849096801EBC4017E
:1011B00006AB07AA486808A900F0D6F908A994A0C8
:1011C000FFF734F8002544E09048008B0121A94046
:1011D0000840D8B1222190A0FFF728F8284600F057
:1011E00029FB8A492431471839468CA0FFF71EF89D
:1011F000222189A0FFF71AF8284600F01BFB83493B
:101200002431084410A941F8250018E0284600F0D0
:1012100011FB7E492431085810A941F825007B486C
:10122000C07D30B910A850F825107DA0FEF7FEFF54
:1012300005E010A850F825107AA0FEF7F7FF9DF8FA
:101240001C00401EA84202D078A0FEF7EFFF681CE9
:10125000C5B29DF81C008542B6DB75A0FEF7E6FF1F
:1012600000F038FB6948407D0B280DD2DFE800F024
:10127000060D151E27323F4E5F72870063490968CD
:1012800051F834008047064690E0604A126852F8F0
:10129000341010988847064688E05C4B1B6853F86A
:1012A0003420DDE91001904706467FE0574F3F6844
:1012B00057F8343010A807C89847064676E0DFF89C
:1012C0004CC1DCF800C05CF8347010A80FC8B847F7
:1012D00006466BE01498DFF834C10090DCF800C0DB
:1012E0005CF8347010A80FC8B84706465EE0DDE928
:1012F0001401DFF818C1CDE90001DCF800C05CF88A
:10130000347010A80FC8B84706464FE0DDE9141244
:101310001698DFF8F8C0CDE900120290DCF800C0A2
:101320005CF8347010A80FC8B84706463EE0DDE907
:101330001423DDE91610DFF8D4C0CDE90023CDE990
:101340000210DCF800C05CF8347010A80FC8B84771
:1013500006462BE0DDE9163218991598CDE90232E0
:10136000049101901498DFF8A4C00090DCF800C04C
:101370005CF8347010A80FC8B847064616E0DDE9DF
:101380001623DDE91810CDE90223CDE90410DDE9CB
:101390001401DFF878C0CDE90001DCF800C05CF88A
:1013A000347010A80FC8B847064600BF00BF00F051
:1013B00051FA9DF8180001280CD11448C07D20B9BD
:1013C00031461CA0FEF732FF07E031461BA0FEF7B6
:1013D0002DFF02E018A0FEF729FF0C4890F8EC0062
:1013E00088B10A48D0F8F0000A21B0FBF1F201FB05
:1013F00012070648D0F8F000B0FBF1F83A46414633
:1014000011A0FEF713FF00BFCBE60000480000204C
:101410000D0A2573280000002563000025730000D5
:10142000256C750030582558000000002C00000085
:10143000290000003D256C753B0D0A003D30582504
:10144000583B0D0A0000000046756E6374696F6EAC
:101450002052756E2054696D653A25642E253164DD
:101460006D730D0A00000000F0B50346154600201C
:1014700000220026002455E01F782C2F01D104B94A
:1014800001221F78292F01D01F780FB904B94AE033
:10149000002E34D11F78302F02DB1F78392F11DD59
:1014A0001F78612F02DB1F78662F0BDD1F78412F1D
:1014B00002DB1F78462F05DD1F78582F02D01F78DA
:1014C000782F0CD102B12EE01F78612F03DB1F783B
:1014D000203F0F7001E01F780F70491C1FE01F783C
:1014E000222F04D102B11EE00126012417E01F784B
:1014F000202F14D01F782C2F11D0FF2613E01F7837
:10150000222F00D1002402B10DE044B11F785C2FDE
:1015100002D15B1C471CF8B21F780F70491C471C96
:10152000F8B25B1CA8E700BF00270F702E70F0BD5B
:1015300010B50446002010700BE020780870641C81
:10154000491C1078401C10701078984201DB012073
:1015500010BD2078202802D020780028EDD100206E
:10156000087000BFF4E700002DE9FF4F85B080460A
:1015700089460027002004900390012002904FF03C
:10158000000B002544461DE02078202816D005F0E9
:101590007F00052812DA0DB945F0800505F07F00BF
:1015A000042803D120782A2800D00EE0207805F006
:1015B0007F010DF80100681CC5B202E0852D00D145
:1015C00003E0641C20780028DED100BF8DB100202C
:1015D00005F07F010DF8010051A1684600F060FAA6
:1015E00018B900210898017002E0012108980170E3
:1015F00000254FF0000A444614E0641C0AF1010083
:1016000000F0FF0A2078202802D020782A2809D16B
:10161000204600F0D5F90646282E03D02A2E01D008
:10162000CDF810A02078282802D020780028E4D116
:101630004446049810B10498401C04444FF0000A3A
:10164000002654E0207810B94FF0010A50E02078CD
:10165000282803D116B9781CC7B213E020782928AE
:1016600008D13EB917B1781EC7B201E04FF0010AA8
:1016700047B93DE02078222804D10EB9012000E0CE
:101680000020064647B9207820282FD0207889F8F6
:10169000000009F1010929E020782C2804D101205B
:1016A0000290681CC5B214E02078202811D0207860
:1016B00028280ED04DB9BBF1050F06DA20780DF8B9
:1016C0000B000BF1010000F0FF0B0298401CC0B2B0
:1016D0000290012F0AD10298022807D10298401CDB
:1016E000C0B202900398401CC0B20390641CA9E7EA
:1016F00000BF0398012809D100200DF80B0008A1B4
:10170000684600F0CDF908B90020039007990398C6
:101710000870002089F80000504609B0BDE8F08F3D
:10172000766F6964000000002DE9F043B5B005460E
:101730000F460024002604E000213D488155701C1E
:10174000C6B20A2EF8DB06E06D1C287818B9012015
:1017500035B0BDE8F08328782828F5D16D1C61E00C
:1017600034AA69462846FFF77FFE064635449DF8B1
:10177000D00020B1012827D0FF284CD149E09DF8A6
:10178000000000B333A9684600F025F906460EB103
:101790000220DDE7204600F04DF825490A31339A52
:1017A0000A50A1F12400008B0121A1408843204967
:1017B0001A39088304211E480155601CC4B20A2C42
:1017C00001DD0320C4E726E0684600F085F9401CEF
:1017D00000F0FF08204600F02DF815490A3100EB13
:1017E00001094946684600F06CF911481A38018B26
:1017F0000120A040014388B20D491A3908830C48E2
:1018000000F80480601CC4B20A2C01DD03209FE7AD
:1018100001E002209CE700BF2878292801D0287821
:1018200000B900E09CE700BF3C70002090E700009A
:101830006200002002460020002105E0044B5B5CB2
:101840000344D8B24B1CD9B29142F7DB7047000079
:10185000620000200D48008800F0010040B10C48F3
:10186000D0F8F0004FF6FF7108440949C1F8F000C4
:101870000748D0F8F00005491431098808440449A4
:10188000C1F8F0000846D0F8F0007047100800409A
:101890004800002010B5044604EBC40000EB04101F
:1018A0000122C2EB800081B24FF47A70FFF7A2FAF6
:1018B00001200149C87510BD4800002010B502463E
:1018C000012000E050430B00A1F10104E1B2F9D185
:1018D00010BD00000948008820F001000749088079
:1018E0004FF6FF7005491C31088000200349143170
:1018F00008800349C1F8F00070470000100800405C
:101900004800002070B51D48008800F40040002801
:1019100033D01A480578002019494855194881687C
:101920001748884704461CB91649C868804721E013
:10193000134800F0DDF80546012D00D02C46CCB14F
:10194000012C06D0022C08D0032C0AD0042C10D174
:101950000BE00DA0FEF76AFC0BE00EA0FEF766FCA4
:1019600007E00FA0FEF762FC03E010A0FEF75EFCAC
:1019700000BF00BF00200149088070BD08000020A2
:101980003C01002048000020BAAFCAFDB4EDCEF300
:10199000210D0A00B2CECAFDB4EDCEF3210D0A002E
:1019A000B2CECAFDCCABB6E0210D0A00CEB4D5D282
:1019B000B5BDC6A5C5E4B5C4BAAFCAFD210D0A00C0
:1019C0000146491C00E0491C0878202801D1002963
:1019D000F9D1087870472DE9F04307460E460025F7
:1019E0004FF00A083C46002030601FE0207839287C
:1019F00002DC207830280ADA2078462802DC2078B9
:101A0000412804DA2078582809D1012D07D12078FF
:101A1000412801DB4FF01008681CC5B205E02078B2
:101A200000B904E00120BDE8F083641CDEE700BFDC
:101A30003C46B8F1100F0FD1032D01DA0220F2E776
:101A40002078302806D16078582803D1A41CA81E1D
:101A5000C5B204E00320E6E70DB90420E3E71BE08C
:101A60000DB1681EC5B22078392806DC20783028F0
:101A700003DB2078A0F1300902E02078A0F13709DB
:101A800029464046FFF71AFF316809FB0010306015
:101A9000641C207800B900E0E2E700BF0020C2E744
:101AA00002460AE010780B78984201D00120704776
:101AB000107800B902E0521C491CF3E700BF002077
:101AC000F5E706E002780A70027802B902E0401CED
:101AD000491CF7E700BF70470146002005E00A787F
:101AE00002B903E0421CD0B2491CF8E700BF7047BE
:101AF00010B58CB004461E230BAA03A92046FFF79D
:101B000017FD0090009810B101200CB010BD9DF899
:101B10002C00044400200B900EE040489DF82C203F
:101B200050F8221003A8FFF7BBFF00B908E09DF8AA
:101B30002C00401CC0B20B909DF82C000728ECD361
:101B400000BF9DF82C00072863D2DFE800F00405F1
:101B50003C5E6564630000BF31A0FEF767FB31A007
:101B6000FEF764FB3FA0FEF761FB4EA0FEF75EFBB5
:101B70005CA0FEF75BFB6BA0FEF758FB79A0FEF7BD
:101B800055FB86A0FEF752FB8BA0FEF74FFB90A003
:101B9000FEF74CFB94A0FEF749FB99A0FEF746FB2D
:101BA0009EA0FEF743FBA4A0FEF740FBB0A0FEF70B
:101BB0003DFBBDA0FEF73AFBC8A0FEF737FBD4A063
:101BC000FEF734FB9AE216A0FEF730FBE0A0FEF72A
:101BD0002DFB00200B900EE0ED4800689DF82C20B6
:101BE00000EBC2004168EBA0FEF720FB9DF82C0043
:101BF000401CC0B20B90E648007D9DF82C10884236
:101C0000EADC07A0FEF712FB78E205A0FEF70EFB68
:101C1000C4E171E245E219E2ECE100000C000020B1
:101C20000D0A00002D2D2D2D2D2D2D2D2D2D2D2D81
:101C30002D2D2D2D2D2D2D2D2D2D2D2D55534D4152
:101C400052542056332E312D2D2D2D2D2D2D2D2D51
:101C50002D2D2D2D2D2D2D2D2D2D2D2D2D2D2D20C1
:101C60000D0A00002020202055534D415254CAC770
:101C7000D3C9414C49454E54454BBFAAB7A2B5C440
:101C8000D2BBB8F6C1E9C7C9B5C4B4AEBFDAB5F7BF
:101C9000CAD4BBA5BDBBD7E9BCFE2CCDA8B9FD20DD
:101CA0000D0A0000CBFC2CC4E3BFC9D2D4CDA8B927
:101CB000FDB4AEBFDAD6FACAD6B5F7D3C3B3CCD02B
:101CC000F2C0EFC3E6B5C4C8CEBACEBAAFCAFD2CD7
:101CD000B2A2D6B4D0D02ED2F2B4CB2CC4E3BFC9BA
:101CE0000D0A0000D2D4CBE6D2E2B8FCB8C4BAAF39
:101CF000CAFDB5C4CAE4C8EBB2CECAFD28D6A7B3A4
:101D0000D6CAFDD7D62831302F3136BDF8D6C629F0
:101D1000A1A2D7D6B7FBB4AEA1A2BAAFCAFDC8EB99
:101D20000D0A0000BFDAB5D8D6B7B5C8D7F7CEAA26
:101D3000B2CECAFD292CB5A5B8F6BAAFCAFDD7EE0A
:101D4000B6E0D6A7B3D63130B8F6CAE4C8EBB2CE07
:101D5000CAFD2CB2A2D6A7B3D6BAAFCAFDB7B5207A
:101D60000D0A0000BBD8D6B5CFD4CABE2ED0C2D47F
:101D7000F6B2CECAFDCFD4CABEBDF8D6C6C9E8D623
:101D8000C3B9A6C4DC2CD0C2D4F6BDF8D6C6D7AA37
:101D9000BBBBB9A6C4DC2E0D0A000000BCBCCAF552
:101DA000D6A7B3D63A7777772E6F70656E6564766F
:101DB0002E636F6D0D0A000055534D415254D3D020
:101DC00037B8F6CFB5CDB3C3FCC1EE3A0D0A00006B
:101DD0003F3A202020202020BBF1C8A1B0EFD6FA46
:101DE000D0C5CFA20D0A000068656C703A20202093
:101DF000BBF1C8A1B0EFD6FAD0C5CFA20D0A000042
:101E00006C6973743A202020BFC9D3C3B5C4BAAF7C
:101E1000CAFDC1D0B1ED0D0A0A00000069643A2084
:101E200020202020BFC9D3C3BAAFCAFDB5C44944DE
:101E3000C1D0B1ED0D0A0A006865783A2020202053
:101E4000B2CECAFD3136BDF8D6C6CFD4CABE2CBA82
:101E5000F3B8FABFD5B8F12BCAFDD7D6BCB4D6B407
:101E6000D0D0BDF8D6C6D7AABBBB0D0A0A00000069
:101E70006465633A20202020B2CECAFD3130BDF81F
:101E8000D6C6CFD4CABE2CBAF3B8FABFD5B8F12B98
:101E9000CAFDD7D6BCB4D6B4D0D0BDF8D6C6D7AA62
:101EA000BBBB0D0A0A00000072756E74696D653A5D
:101EB000312CBFAAC6F4BAAFCAFDD4CBD0D0BCC6B1
:101EC000CAB13B302CB9D8B1D5BAAFCAFDD4CBD04A
:101ED000D0BCC6CAB13B0D0A0A000000C7EBB0B4C3
:101EE000D5D5B3CCD0F2B1E0D0B4B8F1CABDCAE414
:101EF000C8EBBAAFCAFDC3FBBCB0B2CECAFDB2A23A
:101F0000D2D4BBD8B3B5BCFCBDE1CAF82E0D0A00D3
:101F10002D2D2D2D2D2D2D2D2D2D2D2D2D2D2D2DF1
:101F20002D2D2D2D2D2D2D2D2D2D414C49454E5432
:101F3000454B2D2D2D2D2D2D2D2D2D2D2D2D2D2D9B
:101F40002D2D2D2D2D2D2D2D2D2D2D200D0A00006B
:101F50002D2D2D2D2D2D2D2D2D2D2D2D2D2D2D2DB1
:101F60002D2D2D2D2D2D2D2D2DBAAFCAFDC7E5B54B
:101F7000A52D2D2D2D2D2D2D2D2D2D2D2D2D2D2D19
:101F80002D2D2D2D2D2D2D2D2D2D2D2D200D0A00FE
:101F90004800002025730D0A0000000059A0FEF73C
:101FA00045F900200B901AE0664909689DF82C203D
:101FB00001EBC20101AB02AA486803A9FFF7D4FAFA
:101FC000604800689DF82C1050F8312003A95EA0ED
:101FD000FEF72CF99DF82C00401CC0B20B9059481C
:101FE000007D9DF82C108842DEDCAFF2CC30FEF78D
:101FF0001DF983E0AFF2D830FEF718F90BAA03A958
:102000002046FFF731FA9DF82C00C8B9694603A8AD
:10201000FFF7E1FC0B909DF82C0020B94FA0009930
:10202000FEF704F90EE09DF82C00042801D00220F0
:102030006BE54DA0FEF7FAF801204249C87501E0B2
:10204000022062E547A0FEF7F1F857E045A0FEF751
:10205000EDF80BAA03A92046FFF706FA9DF82C001D
:10206000C8B9694603A8FFF7B6FC0B909DF82C0091
:1020700020B942A00099FEF7D9F80EE09DF82C0097
:10208000042801D0022040E53FA0FEF7CFF8002051
:102090002C49C87501E0022037E532A0FEF7C6F8EA
:1020A0002CE030A0FEF7C2F80BAA03A92046FFF7E8
:1020B000DBF99DF82C00C8B9694603A8FFF78BFC33
:1020C0000B909DF82C0078B91E49009881F8EC001F
:1020D000084690F8EC0018B130A0FEF7A7F807E02A
:1020E00035A0FEF7A3F803E002200EE502200CE580
:1020F0001CA0FEF79BF801E0012006E500BF0020D0
:1021000003E500002D2D2D2D2D2D2D2D2D2D2D2DCB
:102110002D2D2D2D2D2D2D2D2D2D2D2D2DBAAFCA43
:10212000FD204944202D2D2D2D2D2D2D2D2D2D2DF6
:102130002D2D2D2D2D2D2D2D2D2D2D2D2D2D2D2DCF
:10214000200D0A004800002025732069642069736F
:102150003A0D0A3058253038580D0A004845583A8B
:10216000305825580D0A00003136BDF8D6C6B2CE1B
:10217000CAFDCFD4CABE210D0A0000004445433A2F
:10218000256C750D0A0000003130BDF8D6C6B2CE00
:10219000CAFDCFD4CABE210D0A00000052756E20C0
:1021A00054696D652043616C63756C6174696F6E11
:1021B000204F4E0D0A00000052756E2054696D6567
:1021C0002043616C63756C6174696F6E204F464685
:1021D0000D0A0000016070470000000000000000D0
:1021E000002F000000000700070000147F147F1478
:1021F00000242A7F2A1200626408132300364955FE
:10220000225000000503000000001C2241000000D5
:1022100041221C000014083E08140008083E08086B
:10222000000000A0600000080808080800006060C6
:102230000000002010080402003E5149453E000005
:10224000427F4000004261514946002141454B31E7
:10225000001814127F10002745454539003C4A49B3
:102260004930000171090503003649494936000625
:102270004949291E0000363600000000563600008D
:102280000008142241000014141414140000412208
:10229000140800020151090600324959513E007CE0
:1022A0001211127C007F49494936003E41414122CA
:1022B000007F4141221C007F49494941007F0909B3
:1022C0000901003E4149497A007F0808087F000063
:1022D000417F4100002040413F01007F081422411E
:1022E000007F40404040007F020C027F007F0408D6
:1022F000107F003E4141413E007F09090906003E32
:102300004151215E007F091929460046494949315A
:102310000001017F0101003F4040403F001F20407D
:10232000201F003F4038403F00631408146300073B
:102330000870080700615149454300007F41410092
:1023400000552A552A55000041417F000004020132
:102350000204004040404040000001020400002010
:1023600054545478007F484444380038444444204E
:1023700000384444487F00385454541800087E09FB
:1023800001020018A4A4A47C007F080404780000C3
:10239000447D4000004080847D00007F1028440080
:1023A0000000417F4000007C04180478007C080491
:1023B000047800384444443800FC242424180018CD
:1023C000242418FC007C08040408004854545420B9
:1023D00000043F444020003C4040207C001C204042
:1023E000201C003C4030403C004428102844001C85
:1023F000A0A0A07C004464544C441414141414147D
:1024000000000000000000000000000000000000CC
:10241000000000F800000000000000333000000061
:1024200000100C06100C0600000000000000000068
:1024300040C07840C0784000043F04043F040400DA
:10244000007088FC08300000001820FF211E0000EA
:10245000F008F000E018000000211C031E211E00FF
:1024600000F00888700000001E2123241927211085
:1024700010160E0000000000000000000000000028
:10248000000000E0180402000000000718204000CF
:1024900000020418E00000000040201807000000BF
:1024A000404080F0804040000202010F0102020023
:1024B000000000F0000000000101011F0101010007
:1024C000000000000000000080B07000000000006C
:1024D00000000000000000000001010101010101F5
:1024E000000000000000000000303000000000008C
:1024F0000000000080601804006018060100000061
:1025000000E010080810E000000F102020100F005D
:10251000001010F8000000000020203F20200000E4
:10252000007008080888700000302824222130003C
:1025300000300888884830000018202020110E0044
:102540000000C02010F8000000070424243F2400ED
:1025500000F80888880808000019212020110E00C2
:1025600000E0108888180000000F112020110E00D4
:1025700000380808C83808000000003F00000000CC
:102580000070880808887000001C222121221C008D
:1025900000E010080810E0000000312222110F00B6
:1025A000000000C0C000000000000030300000004B
:1025B00000000080000000000000806000000000BB
:1025C00000008040201008000001020408102000D4
:1025D000404040404040400004040404040404001F
:1025E00000081020408000000020100804020100B4
:1025F000007048080808F0000000003036010000B4
:10260000C030C828E810E0000718272423140B0066
:102610000000C038E0000000203C230202273820E0
:1026200008F8888888700000203F202020110E00C4
:10263000C0300808080838000718202020100800BB
:1026400008F808080810E000203F202020100F00A4
:1026500008F88888E8081000203F20202320180070
:1026600008F88888E8081000203F200003000000D8
:10267000C03008080838000007182020221E020079
:1026800008F808000008F808203F210101213F2038
:10269000000808F8080800000020203F2020000063
:1026A00000000808F8080800C08080807F00000053
:1026B00008F888C028180800203F2001263820008C
:1026C00008F8080000000000203F202020203000F3
:1026D00008F8F800F8F80800203F003F003F20000D
:1026E00008F830C00008F808203F200007183F0015
:1026F000E01008080810E0000F10202020100F0044
:1027000008F808080808F000203F21010101000036
:10271000E01008080810E0000F18242438504F007B
:1027200008F8888888887000203F2000030C30203B
:1027300000708808080838000038202121221C0079
:10274000180808F8080818000000203F20000000C2
:1027500008F808000008F808001F202020201F00AB
:102760000878880000C83808000007380E0100000B
:10277000F80800F80008F800033C0700073C0300D5
:10278000081868808068180820302C03032C30203B
:102790000838C800C83808000000203F20000000AA
:1027A00010080808C8380800203826212020180002
:1027B000000000FE020202000000007F40404000D6
:1027C000000C30C000000000000000010638C0000E
:1027D00000020202FE000000004040407F000000B6
:1027E00000000402020204000000000000000000DB
:1027F00000000000000000008080808080808080D9
:1028000000020204000000000000000000000000C0
:1028100000008080808000000019242222223F20B6
:1028200008F8008080000000003F112020110E00F9
:102830000000008080800000000E11202020110088
:10284000000000808088F800000E112020103F203A
:102850000000808080800000001F222222221300BE
:10286000008080F0888888180020203F2020000009
:102870000000808080808000006B949494936000BE
:1028800008F8008080800000203F210000203F20C9
:1028900000809898000000000020203F20200000C9
:1028A000000000809898000000C08080807F0000B9
:1028B00008F8000080808000203F24022D30200096
:1028C000000808F8000000000020203F2020000041
:1028D0008080808080808000203F20003F20003F5B
:1028E0008080008080800000203F210000203F2069
:1028F0000000808080800000001F202020201F001A
:10290000808000808000000080FFA12020110E0048
:102910000000008080808000000E112020A0FF8039
:10292000808080008080800020203F2120000100E6
:10293000000080808080800000332424242419003B
:10294000008080E0808000000000001F2020000048
:102950008080000000808000001F202020103F2089
:10296000808080000080808000010E300806010019
:1029700080800080008080800F300C030C300F00BE
:1029800000808000808080000020312E0E312000E9
:10299000808080000080808080818E701806010019
:1029A00000808080808080000021302C2221300037
:1029B00000000000807C020200000000003F404058
:1029C00000000000FF00000000000000FF00000009
:1029D0000002027C800000000040403F0000000038
:1029E00000060101020204040000000000000000D3
:1029F0003031323334353637383941424344454635
:102A0000403058003031323334353637383961622E
:102A10006364656640307800040000080000000030
:102A20000000000200010000100000003F00000054
:102A3000646563006964000072756E74696D650099
:102A400068656C70000000006C6973740000000021
:102A500068657800766F69642077726974655F6174
:102A60006464722875333220616464722C75333269
:102A70002076616C29000000753332207265616434
:102A80005F61646472287533322061646472290066
:102A9000766F69642064656C61795F6D7328753148
:102AA00036206E6D73290000766F69642064656C52
:102AB00061795F757328753332206E757329000054
:102AC000E02A0008000000203C0100002801000866
:102AD000282B00083C0100202C070000840100087E
:102AE000C1132C2A1B0840041A48041A34041A5033
:102AF000041A30041A380413D9101B08780813D5A7
:102B0000211B0854081A0D101A90081A59081AA8FF
:102B1000082228142095181B08E11013911114089D
:082B2000051923080402DC0181
:04000005080000ED02
:00000001FF
